{"abi":[{"type":"constructor","inputs":[],"stateMutability":"nonpayable"},{"type":"function","name":"callback","inputs":[],"outputs":[],"stateMutability":"nonpayable"},{"type":"function","name":"countAndCall","inputs":[{"name":"attacker","type":"address","internalType":"contract ReentrancyAttack"}],"outputs":[],"stateMutability":"nonpayable"},{"type":"function","name":"countLocalRecursive","inputs":[{"name":"n","type":"uint256","internalType":"uint256"}],"outputs":[],"stateMutability":"nonpayable"},{"type":"function","name":"countThisRecursive","inputs":[{"name":"n","type":"uint256","internalType":"uint256"}],"outputs":[],"stateMutability":"nonpayable"},{"type":"function","name":"counter","inputs":[],"outputs":[{"name":"","type":"uint256","internalType":"uint256"}],"stateMutability":"view"},{"type":"function","name":"guardedCheckEntered","inputs":[],"outputs":[],"stateMutability":"nonpayable"},{"type":"function","name":"unguardedCheckNotEntered","inputs":[],"outputs":[],"stateMutability":"view"},{"type":"error","name":"ReentrancyGuardReentrantCall","inputs":[]}],"bytecode":{"object":"0x6080604052348015600e575f5ffd5b505f80556104b88061001f5f395ff3fe608060405234801561000f575f5ffd5b506004361061007a575f3560e01c806396ffa6901161005857806396ffa690146100b5578063a408f312146100c8578063b672ad8b146100d0578063cecc95a7146100e3575f5ffd5b8063083b27321461007e57806361bc221a146100885780638c5344fa146100a2575b5f5ffd5b6100866100eb565b005b6100905f5481565b60405190815260200160405180910390f35b6100866100b0366004610393565b610105565b6100866100c3366004610393565b610224565b610086610248565b6100866100de3660046103aa565b610267565b6100866102fe565b6100f3610316565b6100fb61035d565b610103610375565b565b61010d610316565b80156102195761011b61035d565b5f3080638c5344fa61012e6001866103eb565b60405160240161014091815260200190565b60408051601f198184030181529181526020820180516001600160e01b031660e09490941b9390931790925290516101789250610404565b5f604051808303815f865af19150503d805f81146101b1576040519150601f19603f3d011682016040523d82523d5f602084013e6101b6565b606091505b50509050806102175760405162461bcd60e51b8152602060048201526024808201527f5265656e7472616e63795472616e7369656e744d6f636b3a206661696c65642060448201526318d85b1b60e21b606482015260840160405180910390fd5b505b610221610375565b50565b61022c610316565b80156102195761023a61035d565b6102196100c36001836103eb565b610250610316565b5f5160206104635f395f51905f525c6100fb575f5ffd5b61026f610316565b61027761035d565b6040805160048082526024820183526020820180516001600160e01b031663041d939960e11b179052915163f8123dd560e01b81526001600160a01b0384169263f8123dd5926102c99290910161041a565b5f604051808303815f87803b1580156102e0575f5ffd5b505af11580156102f2573d5f5f3e3d5ffd5b50505050610221610375565b5f5160206104635f395f51905f525c15610103575f5ffd5b5f5160206104635f395f51905f525c1561034357604051633ee5aeb560e01b815260040160405180910390fd5b61010360015f5160206104635f395f51905f525b9061038c565b60015f5f82825461036e919061044f565b9091555050565b6101035f5f5160206104635f395f51905f52610357565b80825d5050565b5f602082840312156103a3575f5ffd5b5035919050565b5f602082840312156103ba575f5ffd5b81356001600160a01b03811681146103d0575f5ffd5b9392505050565b634e487b7160e01b5f52601160045260245ffd5b818103818111156103fe576103fe6103d7565b92915050565b5f82518060208501845e5f920191825250919050565b602081525f82518060208401528060208501604085015e5f604082850101526040601f19601f83011684010191505092915050565b808201808211156103fe576103fe6103d756fe9b779b17422d0df92223018b32b4d1fa46e071723d6817e2486d003becc55f00a264697066735822122029d589ed6a646f14c672cd4fe8a373d610eaedfe24a4ca711947888c3cd46cb964736f6c634300081b0033","linkReferences":{}},"methodIdentifiers":{"callback()":"083b2732","countAndCall(address)":"b672ad8b","countLocalRecursive(uint256)":"96ffa690","countThisRecursive(uint256)":"8c5344fa","counter()":"61bc221a","guardedCheckEntered()":"a408f312","unguardedCheckNotEntered()":"cecc95a7"},"id":116}