{"abi":[{"type":"receive","stateMutability":"payable"},{"type":"function","name":"entryPoint","inputs":[],"outputs":[{"name":"","type":"address","internalType":"contract IEntryPoint"}],"stateMutability":"view"},{"type":"function","name":"execute","inputs":[{"name":"mode","type":"bytes32","internalType":"bytes32"},{"name":"executionData","type":"bytes","internalType":"bytes"}],"outputs":[],"stateMutability":"payable"},{"type":"function","name":"getNonce","inputs":[{"name":"key","type":"uint192","internalType":"uint192"}],"outputs":[{"name":"","type":"uint256","internalType":"uint256"}],"stateMutability":"view"},{"type":"function","name":"getNonce","inputs":[],"outputs":[{"name":"","type":"uint256","internalType":"uint256"}],"stateMutability":"view"},{"type":"function","name":"onERC1155BatchReceived","inputs":[{"name":"","type":"address","internalType":"address"},{"name":"","type":"address","internalType":"address"},{"name":"","type":"uint256[]","internalType":"uint256[]"},{"name":"","type":"uint256[]","internalType":"uint256[]"},{"name":"","type":"bytes","internalType":"bytes"}],"outputs":[{"name":"","type":"bytes4","internalType":"bytes4"}],"stateMutability":"nonpayable"},{"type":"function","name":"onERC1155Received","inputs":[{"name":"","type":"address","internalType":"address"},{"name":"","type":"address","internalType":"address"},{"name":"","type":"uint256","internalType":"uint256"},{"name":"","type":"uint256","internalType":"uint256"},{"name":"","type":"bytes","internalType":"bytes"}],"outputs":[{"name":"","type":"bytes4","internalType":"bytes4"}],"stateMutability":"nonpayable"},{"type":"function","name":"onERC721Received","inputs":[{"name":"","type":"address","internalType":"address"},{"name":"","type":"address","internalType":"address"},{"name":"","type":"uint256","internalType":"uint256"},{"name":"","type":"bytes","internalType":"bytes"}],"outputs":[{"name":"","type":"bytes4","internalType":"bytes4"}],"stateMutability":"nonpayable"},{"type":"function","name":"supportsExecutionMode","inputs":[{"name":"mode","type":"bytes32","internalType":"bytes32"}],"outputs":[{"name":"result","type":"bool","internalType":"bool"}],"stateMutability":"view"},{"type":"function","name":"supportsInterface","inputs":[{"name":"interfaceId","type":"bytes4","internalType":"bytes4"}],"outputs":[{"name":"","type":"bool","internalType":"bool"}],"stateMutability":"view"},{"type":"function","name":"validateUserOp","inputs":[{"name":"userOp","type":"tuple","internalType":"struct PackedUserOperation","components":[{"name":"sender","type":"address","internalType":"address"},{"name":"nonce","type":"uint256","internalType":"uint256"},{"name":"initCode","type":"bytes","internalType":"bytes"},{"name":"callData","type":"bytes","internalType":"bytes"},{"name":"accountGasLimits","type":"bytes32","internalType":"bytes32"},{"name":"preVerificationGas","type":"uint256","internalType":"uint256"},{"name":"gasFees","type":"bytes32","internalType":"bytes32"},{"name":"paymasterAndData","type":"bytes","internalType":"bytes"},{"name":"signature","type":"bytes","internalType":"bytes"}]},{"name":"userOpHash","type":"bytes32","internalType":"bytes32"},{"name":"missingAccountFunds","type":"uint256","internalType":"uint256"}],"outputs":[{"name":"","type":"uint256","internalType":"uint256"}],"stateMutability":"nonpayable"},{"type":"event","name":"ERC7579TryExecuteFail","inputs":[{"name":"batchExecutionIndex","type":"uint256","indexed":false,"internalType":"uint256"},{"name":"returndata","type":"bytes","indexed":false,"internalType":"bytes"}],"anonymous":false},{"type":"error","name":"AccountUnauthorized","inputs":[{"name":"sender","type":"address","internalType":"address"}]},{"type":"error","name":"ERC7579DecodingError","inputs":[]},{"type":"error","name":"ERC7579UnsupportedExecType","inputs":[{"name":"execType","type":"bytes1","internalType":"ExecType"}]},{"type":"error","name":"FailedCall","inputs":[]},{"type":"error","name":"OutOfRangeAccess","inputs":[]},{"type":"error","name":"UnsupportedExecutionMode","inputs":[]}],"bytecode":{"object":"0x6080604052348015600e575f5ffd5b5061100d8061001c5f395ff3fe608060405260043610610092575f3560e01c8063bc197c8111610057578063bc197c811461018e578063d03c7914146101b9578063d087d288146101d8578063e9ae5c53146101ec578063f23a6e6114610201575f5ffd5b806301ffc9a71461009d578063150b7a02146100d157806319822f7c146101145780633e1b081214610141578063b0d691fe14610160575f5ffd5b3661009957005b5f5ffd5b3480156100a8575f5ffd5b506100bc6100b7366004610ac1565b61022c565b60405190151581526020015b60405180910390f35b3480156100dc575f5ffd5b506100fb6100eb366004610bb2565b630a85bd0160e11b949350505050565b6040516001600160e01b031990911681526020016100c8565b34801561011f575f5ffd5b5061013361012e366004610c15565b610262565b6040519081526020016100c8565b34801561014c575f5ffd5b5061013361015b366004610c63565b610289565b34801561016b575f5ffd5b50604051734337084d9e255ff0702461cf8895ce9e3b5ff10881526020016100c8565b348015610199575f5ffd5b506100fb6101a8366004610cfe565b63bc197c8160e01b95945050505050565b3480156101c4575f5ffd5b506100bc6101d3366004610daa565b610316565b3480156101e3575f5ffd5b5061013361036d565b6101ff6101fa366004610dc1565b61037c565b005b34801561020c575f5ffd5b506100fb61021b366004610e36565b63f23a6e6160e01b95945050505050565b5f6001600160e01b03198216630271189760e51b148061025c57506301ffc9a760e01b6001600160e01b03198316145b92915050565b5f61026b6103e3565b5f6102768585610426565b905061028183610452565b949350505050565b5f734337084d9e255ff0702461cf8895ce9e3b5ff108604051631aab3f0d60e11b81523060048201526001600160c01b03841660248201526001600160a01b0391909116906335567e1a90604401602060405180830381865afa1580156102f2573d5f5f3e3d5ffd5b505050506040513d601f19601f8201168201806040525081019061025c9190610e89565b5f5f5f5f610323856104a3565b50919450925090506001600160f81b03198316600160f81b14801561035057506001600160f81b03198216155b801561036457506001600160e01b03198116155b95945050505050565b5f6103775f610289565b905090565b610388338484846104e1565b6103ac57604051637cf8632b60e01b81523360048201526024015b60405180910390fd5b6103b583610316565b6103d257604051637f18127560e01b815260040160405180910390fd5b6103dd82825f610519565b50505050565b33734337084d9e255ff0702461cf8895ce9e3b5ff108811461042357604051637cf8632b60e01b81526001600160a01b03821660048201526024016103a3565b50565b5f61043e82610439610100860186610ea0565b610649565b61044957600161044b565b5f5b9392505050565b8015610423576040515f90339083908381818185875af1925050503d805f8114610497576040519150601f19603f3d011682016040523d82523d5f602084013e61049c565b606091505b5050505050565b5f5f5f5f6104b1855f6106c3565b6104bc8660016106c3565b6104c78760066106fb565b6104d288600a610733565b93509350935093509193509193565b5f6001600160a01b038516734337084d9e255ff0702461cf8895ce9e3b5ff10814806103645750306001600160a01b03861614610364565b6060365f610527868661076e565b9092509050806001600160401b0381111561054457610544610b03565b60405190808252806020026020018201604052801561057757816020015b60608152602001906001900390816105625790505b5092505f5b8181101561063f5761061a818685858581811061059b5761059b610ee9565b90506020028101906105ad9190610efd565b6105bb906020810190610f1b565b8686868181106105cd576105cd610ee9565b90506020028101906105df9190610efd565b602001358787878181106105f5576105f5610ee9565b90506020028101906106079190610efd565b610615906040810190610ea0565b610833565b84828151811061062c5761062c610ee9565b602090810291909101015260010161057c565b5050509392505050565b5f5f5f61068b8686868080601f0160208091040260200160405190810160405280939291908181526020018383808284375f920191909152506108c592505050565b509092509050306001600160a01b0383161480156106b957505f8160038111156106b7576106b7610f34565b145b9695505050505050565b5f601f8260ff1611156106e957604051631dd4bb1b60e11b815260040160405180910390fd5b506008021b6001600160f81b03191690565b5f601c8260ff16111561072157604051631dd4bb1b60e11b815260040160405180910390fd5b506008021b6001600160e01b03191690565b5f600a8260ff16111561075957604051631dd4bb1b60e11b815260040160405180910390fd5b506008021b69ffffffffffffffffffff191690565b365f8260208110156107935760405163eb0bcc5d60e01b815260040160405180910390fd5b5f6107a16020828789610f48565b6107aa91610f6f565b9050601f1982018111156107d15760405163eb0bcc5d60e01b815260040160405180910390fd5b5f6107e16020830183888a610f48565b6107ea91610f6f565b90506001600160401b03811180610808575080602002602083850303105b156108265760405163eb0bcc5d60e01b815260040160405180910390fd5b9501602001959350505050565b60605f806001600160a01b0387161561084c578661084e565b305b6001600160a01b0316868686604051610868929190610f8c565b5f6040518083038185875af1925050503d805f81146108a2576040519150601f19603f3d011682016040523d82523d5f602084013e6108a7565b606091505b50915091506108b88989848461090e565b9998505050505050505050565b5f5f5f83516041036108fc576020840151604085015160608601515f1a6108ee888285856109b5565b955095509550505050610907565b505081515f91506002905b9250925092565b60606001600160f81b0319841661092f576109298383610a7d565b506109ad565b6001600160f81b03198416600160f81b036109885782610983577f2eea2f51f83910481f4b5ba28b7003a6e045d4b59f67dfff8d4c901194050089858360405161097a929190610f9b565b60405180910390a15b6109ad565b6040516323a2408560e01b81526001600160f81b0319851660048201526024016103a3565b509392505050565b5f80807f7fffffffffffffffffffffffffffffff5d576e7357a4501ddfe92f46681b20a08411156109ee57505f91506003905082610a73565b604080515f808252602082018084528a905260ff891692820192909252606081018790526080810186905260019060a0016020604051602081039080840390855afa158015610a3f573d5f5f3e3d5ffd5b5050604051601f1901519150506001600160a01b038116610a6a57505f925060019150829050610a73565b92505f91508190505b9450945094915050565b606082610a9257610a8d82610a99565b61025c565b508061025c565b805115610aa857805160208201fd5b60405163d6bda27560e01b815260040160405180910390fd5b5f60208284031215610ad1575f5ffd5b81356001600160e01b03198116811461044b575f5ffd5b80356001600160a01b0381168114610afe575f5ffd5b919050565b634e487b7160e01b5f52604160045260245ffd5b604051601f8201601f191681016001600160401b0381118282101715610b3f57610b3f610b03565b604052919050565b5f82601f830112610b56575f5ffd5b81356001600160401b03811115610b6f57610b6f610b03565b610b82601f8201601f1916602001610b17565b818152846020838601011115610b96575f5ffd5b816020850160208301375f918101602001919091529392505050565b5f5f5f5f60808587031215610bc5575f5ffd5b610bce85610ae8565b9350610bdc60208601610ae8565b92506040850135915060608501356001600160401b03811115610bfd575f5ffd5b610c0987828801610b47565b91505092959194509250565b5f5f5f60608486031215610c27575f5ffd5b83356001600160401b03811115610c3c575f5ffd5b84016101208187031215610c4e575f5ffd5b95602085013595506040909401359392505050565b5f60208284031215610c73575f5ffd5b81356001600160c01b038116811461044b575f5ffd5b5f82601f830112610c98575f5ffd5b81356001600160401b03811115610cb157610cb1610b03565b8060051b610cc160208201610b17565b91825260208185018101929081019086841115610cdc575f5ffd5b6020860192505b838310156106b9578235825260209283019290910190610ce3565b5f5f5f5f5f60a08688031215610d12575f5ffd5b610d1b86610ae8565b9450610d2960208701610ae8565b935060408601356001600160401b03811115610d43575f5ffd5b610d4f88828901610c89565b93505060608601356001600160401b03811115610d6a575f5ffd5b610d7688828901610c89565b92505060808601356001600160401b03811115610d91575f5ffd5b610d9d88828901610b47565b9150509295509295909350565b5f60208284031215610dba575f5ffd5b5035919050565b5f5f5f60408486031215610dd3575f5ffd5b8335925060208401356001600160401b03811115610def575f5ffd5b8401601f81018613610dff575f5ffd5b80356001600160401b03811115610e14575f5ffd5b866020828401011115610e25575f5ffd5b939660209190910195509293505050565b5f5f5f5f5f60a08688031215610e4a575f5ffd5b610e5386610ae8565b9450610e6160208701610ae8565b9350604086013592506060860135915060808601356001600160401b03811115610d91575f5ffd5b5f60208284031215610e99575f5ffd5b5051919050565b5f5f8335601e19843603018112610eb5575f5ffd5b8301803591506001600160401b03821115610ece575f5ffd5b602001915036819003821315610ee2575f5ffd5b9250929050565b634e487b7160e01b5f52603260045260245ffd5b5f8235605e19833603018112610f11575f5ffd5b9190910192915050565b5f60208284031215610f2b575f5ffd5b61044b82610ae8565b634e487b7160e01b5f52602160045260245ffd5b5f5f85851115610f56575f5ffd5b83861115610f62575f5ffd5b5050820193919092039150565b8035602083101561025c575f19602084900360031b1b1692915050565b818382375f9101908152919050565b828152604060208201525f82518060408401528060208501606085015e5f606082850101526060601f19601f830116840101915050939250505056fea26469706673582212208125de11679fac96afb5566d2dd59bcf0d46b5032932905b006155081b74ea2064736f6c634300081b0033","linkReferences":{}},"methodIdentifiers":{"entryPoint()":"b0d691fe","execute(bytes32,bytes)":"e9ae5c53","getNonce()":"d087d288","getNonce(uint192)":"3e1b0812","onERC1155BatchReceived(address,address,uint256[],uint256[],bytes)":"bc197c81","onERC1155Received(address,address,uint256,uint256,bytes)":"f23a6e61","onERC721Received(address,address,uint256,bytes)":"150b7a02","supportsExecutionMode(bytes32)":"d03c7914","supportsInterface(bytes4)":"01ffc9a7","validateUserOp((address,uint256,bytes,bytes,bytes32,uint256,bytes32,bytes,bytes),bytes32,uint256)":"19822f7c"},"id":139}