{"abi":[{"type":"constructor","inputs":[{"name":"impl_","type":"address","internalType":"address"}],"stateMutability":"nonpayable"},{"type":"function","name":"cloneAndInitialize","inputs":[{"name":"callData","type":"bytes","internalType":"bytes"}],"outputs":[{"name":"","type":"address","internalType":"address"}],"stateMutability":"nonpayable"},{"type":"function","name":"predictAddress","inputs":[{"name":"callData","type":"bytes","internalType":"bytes"}],"outputs":[{"name":"","type":"address","internalType":"address"}],"stateMutability":"view"},{"type":"error","name":"AddressEmptyCode","inputs":[{"name":"target","type":"address","internalType":"address"}]},{"type":"error","name":"FailedCall","inputs":[]},{"type":"error","name":"FailedDeployment","inputs":[]},{"type":"error","name":"InsufficientBalance","inputs":[{"name":"balance","type":"uint256","internalType":"uint256"},{"name":"needed","type":"uint256","internalType":"uint256"}]}],"bytecode":{"object":"0x60a0604052348015600e575f5ffd5b50604051610513380380610513833981016040819052602b91604f565b5f816001600160a01b03163b11603f575f5ffd5b6001600160a01b0316608052607a565b5f60208284031215605e575f5ffd5b81516001600160a01b03811681146073575f5ffd5b9392505050565b60805161047b6100985f395f818160bf015261017b015261047b5ff3fe608060405234801561000f575f5ffd5b5060043610610034575f3560e01c80639f053bcc14610038578063b29ebe0514610067575b5f5ffd5b61004b6100463660046103b2565b61007a565b6040516001600160a01b03909116815260200160405180910390f35b61004b6100753660046103b2565b610138565b5f5f6100868484610138565b9050806001600160a01b03163b5f03610131576100e584846040516100ac929190610420565b6040519081900390206001600160a01b037f000000000000000000000000000000000000000000000000000000000000000016906101db565b5061012f84848080601f0160208091040260200160405190810160405280939291908181526020018383808284375f92019190915250506001600160a01b038516929150506101e7565b505b9392505050565b5f610131838360405161014c929190610420565b6040519081900381203060388301526f5af43d82803e903d91602b57fd5bf3ff60248301526001600160a01b037f000000000000000000000000000000000000000000000000000000000000000081166014840152733d602d80600a3d3981f3363d3d373d3d3d363d73835260588301919091526037600c830120607883015260556043909201919091201690565b5f61013183835f6101f4565b606061013183835f61028e565b5f814710156102245760405163cf47918160e01b8152476004820152602481018390526044015b60405180910390fd5b763d602d80600a3d3981f3363d3d373d3d3d363d730000008460601b60e81c175f526e5af43d82803e903d91602b57fd5bf38460781b17602052826037600984f590506001600160a01b0381166101315760405163b06ebf3d60e01b815260040160405180910390fd5b6060814710156102ba5760405163cf47918160e01b81524760048201526024810183905260440161021b565b5f5f856001600160a01b031684866040516102d5919061042f565b5f6040518083038185875af1925050503d805f811461030f576040519150601f19603f3d011682016040523d82523d5f602084013e610314565b606091505b509150915061032486838361032e565b9695505050505050565b6060826103435761033e8261038a565b610131565b815115801561035a57506001600160a01b0384163b155b1561038357604051639996b31560e01b81526001600160a01b038516600482015260240161021b565b5080610131565b80511561039957805160208201fd5b60405163d6bda27560e01b815260040160405180910390fd5b5f5f602083850312156103c3575f5ffd5b823567ffffffffffffffff8111156103d9575f5ffd5b8301601f810185136103e9575f5ffd5b803567ffffffffffffffff8111156103ff575f5ffd5b856020828401011115610410575f5ffd5b6020919091019590945092505050565b818382375f9101908152919050565b5f82518060208501845e5f92019182525091905056fea264697066735822122095890293537f018d7754a7c66d48f149048e36a44dc98ebb879715e9429d6dab64736f6c634300081b0033","linkReferences":{}},"methodIdentifiers":{"cloneAndInitialize(bytes)":"9f053bcc","predictAddress(bytes)":"b29ebe05"},"id":140}