{"abi":[{"type":"constructor","inputs":[{"name":"_token","type":"address","internalType":"contract IVotes"},{"name":"_timelock","type":"address","internalType":"contract TimelockController"}],"stateMutability":"nonpayable"},{"type":"receive","stateMutability":"payable"},{"type":"function","name":"BALLOT_TYPEHASH","inputs":[],"outputs":[{"name":"","type":"bytes32","internalType":"bytes32"}],"stateMutability":"view"},{"type":"function","name":"CLOCK_MODE","inputs":[],"outputs":[{"name":"","type":"string","internalType":"string"}],"stateMutability":"view"},{"type":"function","name":"COUNTING_MODE","inputs":[],"outputs":[{"name":"","type":"string","internalType":"string"}],"stateMutability":"pure"},{"type":"function","name":"EXTENDED_BALLOT_TYPEHASH","inputs":[],"outputs":[{"name":"","type":"bytes32","internalType":"bytes32"}],"stateMutability":"view"},{"type":"function","name":"cancel","inputs":[{"name":"targets","type":"address[]","internalType":"address[]"},{"name":"values","type":"uint256[]","internalType":"uint256[]"},{"name":"calldatas","type":"bytes[]","internalType":"bytes[]"},{"name":"descriptionHash","type":"bytes32","internalType":"bytes32"}],"outputs":[{"name":"","type":"uint256","internalType":"uint256"}],"stateMutability":"nonpayable"},{"type":"function","name":"castVote","inputs":[{"name":"proposalId","type":"uint256","internalType":"uint256"},{"name":"support","type":"uint8","internalType":"uint8"}],"outputs":[{"name":"","type":"uint256","internalType":"uint256"}],"stateMutability":"nonpayable"},{"type":"function","name":"castVoteBySig","inputs":[{"name":"proposalId","type":"uint256","internalType":"uint256"},{"name":"support","type":"uint8","internalType":"uint8"},{"name":"voter","type":"address","internalType":"address"},{"name":"signature","type":"bytes","internalType":"bytes"}],"outputs":[{"name":"","type":"uint256","internalType":"uint256"}],"stateMutability":"nonpayable"},{"type":"function","name":"castVoteWithReason","inputs":[{"name":"proposalId","type":"uint256","internalType":"uint256"},{"name":"support","type":"uint8","internalType":"uint8"},{"name":"reason","type":"string","internalType":"string"}],"outputs":[{"name":"","type":"uint256","internalType":"uint256"}],"stateMutability":"nonpayable"},{"type":"function","name":"castVoteWithReasonAndParams","inputs":[{"name":"proposalId","type":"uint256","internalType":"uint256"},{"name":"support","type":"uint8","internalType":"uint8"},{"name":"reason","type":"string","internalType":"string"},{"name":"params","type":"bytes","internalType":"bytes"}],"outputs":[{"name":"","type":"uint256","internalType":"uint256"}],"stateMutability":"nonpayable"},{"type":"function","name":"castVoteWithReasonAndParamsBySig","inputs":[{"name":"proposalId","type":"uint256","internalType":"uint256"},{"name":"support","type":"uint8","internalType":"uint8"},{"name":"voter","type":"address","internalType":"address"},{"name":"reason","type":"string","internalType":"string"},{"name":"params","type":"bytes","internalType":"bytes"},{"name":"signature","type":"bytes","internalType":"bytes"}],"outputs":[{"name":"","type":"uint256","internalType":"uint256"}],"stateMutability":"nonpayable"},{"type":"function","name":"clock","inputs":[],"outputs":[{"name":"","type":"uint48","internalType":"uint48"}],"stateMutability":"view"},{"type":"function","name":"eip712Domain","inputs":[],"outputs":[{"name":"fields","type":"bytes1","internalType":"bytes1"},{"name":"name","type":"string","internalType":"string"},{"name":"version","type":"string","internalType":"string"},{"name":"chainId","type":"uint256","internalType":"uint256"},{"name":"verifyingContract","type":"address","internalType":"address"},{"name":"salt","type":"bytes32","internalType":"bytes32"},{"name":"extensions","type":"uint256[]","internalType":"uint256[]"}],"stateMutability":"view"},{"type":"function","name":"execute","inputs":[{"name":"targets","type":"address[]","internalType":"address[]"},{"name":"values","type":"uint256[]","internalType":"uint256[]"},{"name":"calldatas","type":"bytes[]","internalType":"bytes[]"},{"name":"descriptionHash","type":"bytes32","internalType":"bytes32"}],"outputs":[{"name":"","type":"uint256","internalType":"uint256"}],"stateMutability":"payable"},{"type":"function","name":"getProposalId","inputs":[{"name":"targets","type":"address[]","internalType":"address[]"},{"name":"values","type":"uint256[]","internalType":"uint256[]"},{"name":"calldatas","type":"bytes[]","internalType":"bytes[]"},{"name":"descriptionHash","type":"bytes32","internalType":"bytes32"}],"outputs":[{"name":"","type":"uint256","internalType":"uint256"}],"stateMutability":"view"},{"type":"function","name":"getVotes","inputs":[{"name":"account","type":"address","internalType":"address"},{"name":"timepoint","type":"uint256","internalType":"uint256"}],"outputs":[{"name":"","type":"uint256","internalType":"uint256"}],"stateMutability":"view"},{"type":"function","name":"getVotesWithParams","inputs":[{"name":"account","type":"address","internalType":"address"},{"name":"timepoint","type":"uint256","internalType":"uint256"},{"name":"params","type":"bytes","internalType":"bytes"}],"outputs":[{"name":"","type":"uint256","internalType":"uint256"}],"stateMutability":"view"},{"type":"function","name":"hasVoted","inputs":[{"name":"proposalId","type":"uint256","internalType":"uint256"},{"name":"account","type":"address","internalType":"address"}],"outputs":[{"name":"","type":"bool","internalType":"bool"}],"stateMutability":"view"},{"type":"function","name":"hashProposal","inputs":[{"name":"targets","type":"address[]","internalType":"address[]"},{"name":"values","type":"uint256[]","internalType":"uint256[]"},{"name":"calldatas","type":"bytes[]","internalType":"bytes[]"},{"name":"descriptionHash","type":"bytes32","internalType":"bytes32"}],"outputs":[{"name":"","type":"uint256","internalType":"uint256"}],"stateMutability":"pure"},{"type":"function","name":"name","inputs":[],"outputs":[{"name":"","type":"string","internalType":"string"}],"stateMutability":"view"},{"type":"function","name":"nonces","inputs":[{"name":"owner","type":"address","internalType":"address"}],"outputs":[{"name":"","type":"uint256","internalType":"uint256"}],"stateMutability":"view"},{"type":"function","name":"onERC1155BatchReceived","inputs":[{"name":"","type":"address","internalType":"address"},{"name":"","type":"address","internalType":"address"},{"name":"","type":"uint256[]","internalType":"uint256[]"},{"name":"","type":"uint256[]","internalType":"uint256[]"},{"name":"","type":"bytes","internalType":"bytes"}],"outputs":[{"name":"","type":"bytes4","internalType":"bytes4"}],"stateMutability":"nonpayable"},{"type":"function","name":"onERC1155Received","inputs":[{"name":"","type":"address","internalType":"address"},{"name":"","type":"address","internalType":"address"},{"name":"","type":"uint256","internalType":"uint256"},{"name":"","type":"uint256","internalType":"uint256"},{"name":"","type":"bytes","internalType":"bytes"}],"outputs":[{"name":"","type":"bytes4","internalType":"bytes4"}],"stateMutability":"nonpayable"},{"type":"function","name":"onERC721Received","inputs":[{"name":"","type":"address","internalType":"address"},{"name":"","type":"address","internalType":"address"},{"name":"","type":"uint256","internalType":"uint256"},{"name":"","type":"bytes","internalType":"bytes"}],"outputs":[{"name":"","type":"bytes4","internalType":"bytes4"}],"stateMutability":"nonpayable"},{"type":"function","name":"proposalDeadline","inputs":[{"name":"proposalId","type":"uint256","internalType":"uint256"}],"outputs":[{"name":"","type":"uint256","internalType":"uint256"}],"stateMutability":"view"},{"type":"function","name":"proposalEta","inputs":[{"name":"proposalId","type":"uint256","internalType":"uint256"}],"outputs":[{"name":"","type":"uint256","internalType":"uint256"}],"stateMutability":"view"},{"type":"function","name":"proposalNeedsQueuing","inputs":[{"name":"proposalId","type":"uint256","internalType":"uint256"}],"outputs":[{"name":"","type":"bool","internalType":"bool"}],"stateMutability":"view"},{"type":"function","name":"proposalProposer","inputs":[{"name":"proposalId","type":"uint256","internalType":"uint256"}],"outputs":[{"name":"","type":"address","internalType":"address"}],"stateMutability":"view"},{"type":"function","name":"proposalSnapshot","inputs":[{"name":"proposalId","type":"uint256","internalType":"uint256"}],"outputs":[{"name":"","type":"uint256","internalType":"uint256"}],"stateMutability":"view"},{"type":"function","name":"proposalThreshold","inputs":[],"outputs":[{"name":"","type":"uint256","internalType":"uint256"}],"stateMutability":"pure"},{"type":"function","name":"proposalVotes","inputs":[{"name":"proposalId","type":"uint256","internalType":"uint256"}],"outputs":[{"name":"againstVotes","type":"uint256","internalType":"uint256"},{"name":"forVotes","type":"uint256","internalType":"uint256"},{"name":"abstainVotes","type":"uint256","internalType":"uint256"}],"stateMutability":"view"},{"type":"function","name":"propose","inputs":[{"name":"targets","type":"address[]","internalType":"address[]"},{"name":"values","type":"uint256[]","internalType":"uint256[]"},{"name":"calldatas","type":"bytes[]","internalType":"bytes[]"},{"name":"description","type":"string","internalType":"string"}],"outputs":[{"name":"","type":"uint256","internalType":"uint256"}],"stateMutability":"nonpayable"},{"type":"function","name":"queue","inputs":[{"name":"targets","type":"address[]","internalType":"address[]"},{"name":"values","type":"uint256[]","internalType":"uint256[]"},{"name":"calldatas","type":"bytes[]","internalType":"bytes[]"},{"name":"descriptionHash","type":"bytes32","internalType":"bytes32"}],"outputs":[{"name":"","type":"uint256","internalType":"uint256"}],"stateMutability":"nonpayable"},{"type":"function","name":"quorum","inputs":[{"name":"timepoint","type":"uint256","internalType":"uint256"}],"outputs":[{"name":"","type":"uint256","internalType":"uint256"}],"stateMutability":"view"},{"type":"function","name":"quorumDenominator","inputs":[],"outputs":[{"name":"","type":"uint256","internalType":"uint256"}],"stateMutability":"view"},{"type":"function","name":"quorumNumerator","inputs":[{"name":"timepoint","type":"uint256","internalType":"uint256"}],"outputs":[{"name":"","type":"uint256","internalType":"uint256"}],"stateMutability":"view"},{"type":"function","name":"quorumNumerator","inputs":[],"outputs":[{"name":"","type":"uint256","internalType":"uint256"}],"stateMutability":"view"},{"type":"function","name":"relay","inputs":[{"name":"target","type":"address","internalType":"address"},{"name":"value","type":"uint256","internalType":"uint256"},{"name":"data","type":"bytes","internalType":"bytes"}],"outputs":[],"stateMutability":"payable"},{"type":"function","name":"state","inputs":[{"name":"proposalId","type":"uint256","internalType":"uint256"}],"outputs":[{"name":"","type":"uint8","internalType":"enum IGovernor.ProposalState"}],"stateMutability":"view"},{"type":"function","name":"supportsInterface","inputs":[{"name":"interfaceId","type":"bytes4","internalType":"bytes4"}],"outputs":[{"name":"","type":"bool","internalType":"bool"}],"stateMutability":"view"},{"type":"function","name":"timelock","inputs":[],"outputs":[{"name":"","type":"address","internalType":"address"}],"stateMutability":"view"},{"type":"function","name":"token","inputs":[],"outputs":[{"name":"","type":"address","internalType":"contract IERC5805"}],"stateMutability":"view"},{"type":"function","name":"updateQuorumNumerator","inputs":[{"name":"newQuorumNumerator","type":"uint256","internalType":"uint256"}],"outputs":[],"stateMutability":"nonpayable"},{"type":"function","name":"updateTimelock","inputs":[{"name":"newTimelock","type":"address","internalType":"contract TimelockController"}],"outputs":[],"stateMutability":"nonpayable"},{"type":"function","name":"version","inputs":[],"outputs":[{"name":"","type":"string","internalType":"string"}],"stateMutability":"view"},{"type":"function","name":"votingDelay","inputs":[],"outputs":[{"name":"","type":"uint256","internalType":"uint256"}],"stateMutability":"pure"},{"type":"function","name":"votingPeriod","inputs":[],"outputs":[{"name":"","type":"uint256","internalType":"uint256"}],"stateMutability":"pure"},{"type":"event","name":"EIP712DomainChanged","inputs":[],"anonymous":false},{"type":"event","name":"ProposalCanceled","inputs":[{"name":"proposalId","type":"uint256","indexed":false,"internalType":"uint256"}],"anonymous":false},{"type":"event","name":"ProposalCreated","inputs":[{"name":"proposalId","type":"uint256","indexed":false,"internalType":"uint256"},{"name":"proposer","type":"address","indexed":false,"internalType":"address"},{"name":"targets","type":"address[]","indexed":false,"internalType":"address[]"},{"name":"values","type":"uint256[]","indexed":false,"internalType":"uint256[]"},{"name":"signatures","type":"string[]","indexed":false,"internalType":"string[]"},{"name":"calldatas","type":"bytes[]","indexed":false,"internalType":"bytes[]"},{"name":"voteStart","type":"uint256","indexed":false,"internalType":"uint256"},{"name":"voteEnd","type":"uint256","indexed":false,"internalType":"uint256"},{"name":"description","type":"string","indexed":false,"internalType":"string"}],"anonymous":false},{"type":"event","name":"ProposalExecuted","inputs":[{"name":"proposalId","type":"uint256","indexed":false,"internalType":"uint256"}],"anonymous":false},{"type":"event","name":"ProposalQueued","inputs":[{"name":"proposalId","type":"uint256","indexed":false,"internalType":"uint256"},{"name":"etaSeconds","type":"uint256","indexed":false,"internalType":"uint256"}],"anonymous":false},{"type":"event","name":"QuorumNumeratorUpdated","inputs":[{"name":"oldQuorumNumerator","type":"uint256","indexed":false,"internalType":"uint256"},{"name":"newQuorumNumerator","type":"uint256","indexed":false,"internalType":"uint256"}],"anonymous":false},{"type":"event","name":"TimelockChange","inputs":[{"name":"oldTimelock","type":"address","indexed":false,"internalType":"address"},{"name":"newTimelock","type":"address","indexed":false,"internalType":"address"}],"anonymous":false},{"type":"event","name":"VoteCast","inputs":[{"name":"voter","type":"address","indexed":true,"internalType":"address"},{"name":"proposalId","type":"uint256","indexed":false,"internalType":"uint256"},{"name":"support","type":"uint8","indexed":false,"internalType":"uint8"},{"name":"weight","type":"uint256","indexed":false,"internalType":"uint256"},{"name":"reason","type":"string","indexed":false,"internalType":"string"}],"anonymous":false},{"type":"event","name":"VoteCastWithParams","inputs":[{"name":"voter","type":"address","indexed":true,"internalType":"address"},{"name":"proposalId","type":"uint256","indexed":false,"internalType":"uint256"},{"name":"support","type":"uint8","indexed":false,"internalType":"uint8"},{"name":"weight","type":"uint256","indexed":false,"internalType":"uint256"},{"name":"reason","type":"string","indexed":false,"internalType":"string"},{"name":"params","type":"bytes","indexed":false,"internalType":"bytes"}],"anonymous":false},{"type":"error","name":"CheckpointUnorderedInsertion","inputs":[]},{"type":"error","name":"FailedCall","inputs":[]},{"type":"error","name":"GovernorAlreadyCastVote","inputs":[{"name":"voter","type":"address","internalType":"address"}]},{"type":"error","name":"GovernorAlreadyQueuedProposal","inputs":[{"name":"proposalId","type":"uint256","internalType":"uint256"}]},{"type":"error","name":"GovernorDisabledDeposit","inputs":[]},{"type":"error","name":"GovernorInsufficientProposerVotes","inputs":[{"name":"proposer","type":"address","internalType":"address"},{"name":"votes","type":"uint256","internalType":"uint256"},{"name":"threshold","type":"uint256","internalType":"uint256"}]},{"type":"error","name":"GovernorInvalidProposalLength","inputs":[{"name":"targets","type":"uint256","internalType":"uint256"},{"name":"calldatas","type":"uint256","internalType":"uint256"},{"name":"values","type":"uint256","internalType":"uint256"}]},{"type":"error","name":"GovernorInvalidQuorumFraction","inputs":[{"name":"quorumNumerator","type":"uint256","internalType":"uint256"},{"name":"quorumDenominator","type":"uint256","internalType":"uint256"}]},{"type":"error","name":"GovernorInvalidSignature","inputs":[{"name":"voter","type":"address","internalType":"address"}]},{"type":"error","name":"GovernorInvalidVoteParams","inputs":[]},{"type":"error","name":"GovernorInvalidVoteType","inputs":[]},{"type":"error","name":"GovernorInvalidVotingPeriod","inputs":[{"name":"votingPeriod","type":"uint256","internalType":"uint256"}]},{"type":"error","name":"GovernorNonexistentProposal","inputs":[{"name":"proposalId","type":"uint256","internalType":"uint256"}]},{"type":"error","name":"GovernorNotQueuedProposal","inputs":[{"name":"proposalId","type":"uint256","internalType":"uint256"}]},{"type":"error","name":"GovernorOnlyExecutor","inputs":[{"name":"account","type":"address","internalType":"address"}]},{"type":"error","name":"GovernorQueueNotImplemented","inputs":[]},{"type":"error","name":"GovernorRestrictedProposer","inputs":[{"name":"proposer","type":"address","internalType":"address"}]},{"type":"error","name":"GovernorUnableToCancel","inputs":[{"name":"proposalId","type":"uint256","internalType":"uint256"},{"name":"account","type":"address","internalType":"address"}]},{"type":"error","name":"GovernorUnexpectedProposalState","inputs":[{"name":"proposalId","type":"uint256","internalType":"uint256"},{"name":"current","type":"uint8","internalType":"enum IGovernor.ProposalState"},{"name":"expectedStates","type":"bytes32","internalType":"bytes32"}]},{"type":"error","name":"InvalidAccountNonce","inputs":[{"name":"account","type":"address","internalType":"address"},{"name":"currentNonce","type":"uint256","internalType":"uint256"}]},{"type":"error","name":"InvalidShortString","inputs":[]},{"type":"error","name":"SafeCastOverflowedUintDowncast","inputs":[{"name":"bits","type":"uint8","internalType":"uint8"},{"name":"value","type":"uint256","internalType":"uint256"}]},{"type":"error","name":"StringTooLong","inputs":[{"name":"str","type":"string","internalType":"string"}]}],"bytecode":{"object":"0x610180604052348015610010575f5ffd5b506040516148df3803806148df83398101604081905261002f916105b1565b806004836040518060400160405280600a81526020016926bca3b7bb32b93737b960b11b8152508061006561014960201b60201c565b61006f825f610164565b6101205261007e816001610164565b61014052815160208084019190912060e052815190820120610100524660a05261010a60e05161010051604080517f8b73c3c69bb8fe3d512ecc4cf759cc79239f7b179b0ffacaa9a75d522b39400f60208201529081019290925260608201524660808201523060a08201525f9060c00160405160208183030381529060405280519060200120905090565b60805250503060c052600361011f8282610681565b50506001600160a01b03166101605261013781610196565b5061014181610230565b5050506107d7565b6040805180820190915260018152603160f81b602082015290565b5f60208351101561017f5761017883610299565b9050610190565b8161018a8482610681565b5060ff90505b92915050565b6064808211156101c85760405163243e544560e01b815260048101839052602481018290526044015b60405180910390fd5b5f6101d16102d6565b90506101f06101de6102ef565b6101e785610369565b600891906103a0565b505060408051828152602081018590527f0553476bf02ef2726e8ce5ced78d63e26e602e4a2257b1f559418e24b4633997910160405180910390a1505050565b600954604080516001600160a01b03928316815291831660208301527f08f74ea46ef7894f65eabfb5e6e695de773a000b47c529ab559178069b226401910160405180910390a1600980546001600160a01b0319166001600160a01b0392909216919091179055565b5f5f829050601f815111156102c3578260405163305a27a960e01b81526004016101bf919061073b565b80516102ce82610770565b179392505050565b5f6102e160086103ba565b6001600160d01b0316905090565b5f6102fa6101605190565b6001600160a01b03166391ddadf46040518163ffffffff1660e01b8152600401602060405180830381865afa925050508015610353575060408051601f3d908101601f1916820190925261035091810190610793565b60015b6103645761035f610402565b905090565b919050565b5f6001600160d01b0382111561039c576040516306dfcc6560e41b815260d06004820152602481018390526044016101bf565b5090565b5f806103ad85858561040c565b915091505b935093915050565b80545f9080156103f9576103e0836103d36001846107b8565b5f91825260209091200190565b54660100000000000090046001600160d01b03166103fb565b5f5b9392505050565b5f61035f43610568565b82545f908190801561050b575f610428876103d36001856107b8565b805490915065ffffffffffff80821691660100000000000090046001600160d01b031690881682111561046e57604051632520601d60e01b815260040160405180910390fd5b8765ffffffffffff168265ffffffffffff16036104aa57825465ffffffffffff1666010000000000006001600160d01b038916021783556104fd565b6040805180820190915265ffffffffffff808a1682526001600160d01b03808a1660208085019182528d54600181018f555f8f815291909120945191519092166601000000000000029216919091179101555b94508593506103b292505050565b50506040805180820190915265ffffffffffff80851682526001600160d01b0380851660208085019182528854600181018a555f8a81529182209551925190931666010000000000000291909316179201919091559050816103b2565b5f65ffffffffffff82111561039c576040516306dfcc6560e41b815260306004820152602481018390526044016101bf565b6001600160a01b03811681146105ae575f5ffd5b50565b5f5f604083850312156105c2575f5ffd5b82516105cd8161059a565b60208401519092506105de8161059a565b809150509250929050565b634e487b7160e01b5f52604160045260245ffd5b600181811c9082168061061157607f821691505b60208210810361062f57634e487b7160e01b5f52602260045260245ffd5b50919050565b601f82111561067c57805f5260205f20601f840160051c8101602085101561065a5750805b601f840160051c820191505b81811015610679575f8155600101610666565b50505b505050565b81516001600160401b0381111561069a5761069a6105e9565b6106ae816106a884546105fd565b84610635565b6020601f8211600181146106e0575f83156106c95750848201515b5f19600385901b1c1916600184901b178455610679565b5f84815260208120601f198516915b8281101561070f57878501518255602094850194600190920191016106ef565b508482101561072c57868401515f19600387901b60f8161c191681555b50505050600190811b01905550565b602081525f82518060208401528060208501604085015e5f604082850101526040601f19601f83011684010191505092915050565b8051602080830151919081101561062f575f1960209190910360031b1b16919050565b5f602082840312156107a3575f5ffd5b815165ffffffffffff811681146103fb575f5ffd5b8181038181111561019057634e487b7160e01b5f52601160045260245ffd5b60805160a05160c05160e0516101005161012051610140516101605161409161084e5f395f818161092501528181610d7b015281816110c30152818161135c0152611cdd01525f611c2101525f611bf501525f612b3601525f612b0e01525f612a6901525f612a9301525f612abd01526140915ff3fe608060405260043610610278575f3560e01c80637ecebe001161014a578063b58131b0116100be578063dd4e2ba511610078578063dd4e2ba514610842578063deaaa7cc14610887578063eb9019d4146108ba578063f23a6e61146108d9578063f8ce560a146108f8578063fc0c546a14610917575f5ffd5b8063b58131b0146107a3578063bc197c81146107b5578063c01f9e37146107d4578063c28bc2fa146107f3578063c59057e414610806578063d33219b414610825575f5ffd5b80639a802a6d1161010f5780639a802a6d146106dd578063a7713a70146106fc578063a890c91014610710578063a8f8a6681461072f578063a9a952941461074e578063ab58fb8e1461076d575f5ffd5b80637ecebe001461062557806384b0196e146106595780638ff262e31461068057806391ddadf41461069f57806397c3d334146106ca575f5ffd5b80633e4f49e6116101ec57806356781388116101a6578063567813881461056b5780635b8d0e0d1461058a5780635f398a14146105a957806360c4247f146105c85780637b3c71d3146105e75780637d5e81e214610606575f5ffd5b80633e4f49e614610461578063438596321461048d578063452115d6146104d55780634bf5d7e9146104f4578063544ffc9c1461050857806354fd4d5014610542575f5ffd5b8063150b7a021161023d578063150b7a0214610391578063160cbed7146103c95780632656227d146103e85780632d63f693146103fb5780632fe3e2611461041a5780633932abb11461044d575f5ffd5b806301ffc9a7146102b357806302a251a3146102e757806306f3f9e61461030557806306fdde0314610324578063143489d014610345575f5ffd5b366102af5730610286610949565b6001600160a01b0316146102ad57604051637485328f60e11b815260040160405180910390fd5b005b5f5ffd5b3480156102be575f5ffd5b506102d26102cd3660046130db565b610961565b60405190151581526020015b60405180910390f35b3480156102f2575f5ffd5b5061c4e05b6040519081526020016102de565b348015610310575f5ffd5b506102ad61031f366004613102565b6109cd565b34801561032f575f5ffd5b506103386109e1565b6040516102de9190613147565b348015610350575f5ffd5b5061037961035f366004613102565b5f908152600460205260409020546001600160a01b031690565b6040516001600160a01b0390911681526020016102de565b34801561039c575f5ffd5b506103b06103ab366004613230565b610a71565b6040516001600160e01b031990911681526020016102de565b3480156103d4575f5ffd5b506102f76103e33660046133f6565b610ab3565b6102f76103f63660046133f6565b610b7f565b348015610406575f5ffd5b506102f7610415366004613102565b610ce7565b348015610425575f5ffd5b506102f77f3e83946653575f9a39005e1545185629e92736b7528ab20ca3816f315424a81181565b348015610458575f5ffd5b50611c206102f7565b34801561046c575f5ffd5b5061048061047b366004613102565b610d07565b6040516102de91906134bd565b348015610498575f5ffd5b506102d26104a73660046134cb565b5f8281526007602090815260408083206001600160a01b038516845260030190915290205460ff1692915050565b3480156104e0575f5ffd5b506102f76104ef3660046133f6565b610d11565b3480156104ff575f5ffd5b50610338610d77565b348015610513575f5ffd5b50610527610522366004613102565b610e37565b604080519384526020840192909252908201526060016102de565b34801561054d575f5ffd5b506040805180820190915260018152603160f81b6020820152610338565b348015610576575f5ffd5b506102f7610585366004613509565b610e5c565b348015610595575f5ffd5b506102f76105a4366004613577565b610e83565b3480156105b4575f5ffd5b506102f76105c3366004613633565b610f40565b3480156105d3575f5ffd5b506102f76105e2366004613102565b610f88565b3480156105f2575f5ffd5b506102f76106013660046136b4565b610f94565b348015610611575f5ffd5b506102f7610620366004613709565b610fe4565b348015610630575f5ffd5b506102f761063f3660046137c5565b6001600160a01b03165f9081526002602052604090205490565b348015610664575f5ffd5b5061066d611026565b6040516102de979695949392919061381a565b34801561068b575f5ffd5b506102f761069a366004613889565b611068565b3480156106aa575f5ffd5b506106b36110c0565b60405165ffffffffffff90911681526020016102de565b3480156106d5575f5ffd5b5060646102f7565b3480156106e8575f5ffd5b506102f76106f73660046138d6565b611147565b348015610707575f5ffd5b506102f761115d565b34801561071b575f5ffd5b506102ad61072a3660046137c5565b611176565b34801561073a575f5ffd5b506102f76107493660046133f6565b611187565b348015610759575f5ffd5b506102d2610768366004613102565b611194565b348015610778575f5ffd5b506102f7610787366004613102565b5f9081526004602052604090206001015465ffffffffffff1690565b3480156107ae575f5ffd5b505f6102f7565b3480156107c0575f5ffd5b506103b06107cf36600461392a565b61119c565b3480156107df575f5ffd5b506102f76107ee366004613102565b6111df565b6102ad6108013660046139c1565b611221565b348015610811575f5ffd5b506102f76108203660046133f6565b61129d565b348015610830575f5ffd5b506009546001600160a01b0316610379565b34801561084d575f5ffd5b506040805180820190915260208082527f737570706f72743d627261766f2671756f72756d3d666f722c6162737461696e90820152610338565b348015610892575f5ffd5b506102f77ff2aad550cf55f045cb27e9c559f9889fdfb6e6cdaa032301d6ea397784ae51d781565b3480156108c5575f5ffd5b506102f76108d4366004613a00565b6112d6565b3480156108e4575f5ffd5b506103b06108f3366004613a2a565b6112f5565b348015610903575f5ffd5b506102f7610912366004613102565b611338565b348015610922575f5ffd5b507f0000000000000000000000000000000000000000000000000000000000000000610379565b5f61095c6009546001600160a01b031690565b905090565b5f6001600160e01b031982166366defe7760e11b148061099157506001600160e01b031982166332a2ad4360e11b145b806109ac57506001600160e01b03198216630271189760e51b145b806109c757506301ffc9a760e01b6001600160e01b03198316145b92915050565b6109d56113d5565b6109de8161144e565b50565b6060600380546109f090613a81565b80601f0160208091040260200160405190810160405280929190818152602001828054610a1c90613a81565b8015610a675780601f10610a3e57610100808354040283529160200191610a67565b820191905f5260205f20905b815481529060010190602001808311610a4a57829003601f168201915b5050505050905090565b5f30610a7b610949565b6001600160a01b031614610aa257604051637485328f60e11b815260040160405180910390fd5b50630a85bd0160e11b949350505050565b5f5f610ac186868686611187565b9050610ad681610ad160046114e3565b611505565b505f610ae58288888888611542565b905065ffffffffffff811615610b5c575f82815260046020908152604091829020600101805465ffffffffffff191665ffffffffffff85169081179091558251858152918201527f9a2e42fd6722813d69113e7d0079d3d940171428df7373df9c7f7617cfda2892910160405180910390a1610b75565b604051634844252360e11b815260040160405180910390fd5b5095945050505050565b5f5f610b8d86868686611187565b9050610bad81610b9d60056114e3565b610ba760046114e3565b17611505565b505f818152600460205260409020805460ff60f01b1916600160f01b17905530610bd5610949565b6001600160a01b031614610c5e575f5b8651811015610c5c57306001600160a01b0316878281518110610c0a57610c0a613ab9565b60200260200101516001600160a01b031603610c5457610c54858281518110610c3557610c35613ab9565b602002602001015180519060200120600561155090919063ffffffff16565b600101610be5565b505b610c6b81878787876115b1565b30610c74610949565b6001600160a01b031614158015610ca057506005546001600160801b03808216600160801b9092041614155b15610caa575f6005555b6040518181527f712ae1383f79ac853f8d882153778e0260ef8f03b504e2866e0593e04d2b291f906020015b60405180910390a195945050505050565b5f90815260046020526040902054600160a01b900465ffffffffffff1690565b5f6109c7826115c5565b5f5f610d1f86868686611187565b905033610d2c82826116fe565b610d6057604051638fe5d8a960e01b8152600481018390526001600160a01b03821660248201526044015b60405180910390fd5b610d6c87878787611743565b979650505050505050565b60607f00000000000000000000000000000000000000000000000000000000000000006001600160a01b0316634bf5d7e96040518163ffffffff1660e01b81526004015f60405180830381865afa925050508015610df657506040513d5f823e601f3d908101601f19168201604052610df39190810190613acd565b60015b610e32575060408051808201909152601d81527f6d6f64653d626c6f636b6e756d6265722666726f6d3d64656661756c74000000602082015290565b919050565b5f818152600760205260409020805460018201546002909201549091905b9193909250565b5f80339050610e7b84828560405180602001604052805f815250611750565b949350505050565b5f610ec988888888888080601f0160208091040260200160405190810160405280939291908181526020018383808284375f920191909152508a92508991506117719050565b610ef1576040516394ab6c0760e01b81526001600160a01b0387166004820152602401610d57565b610f3488878988888080601f0160208091040260200160405190810160405280939291908181526020018383808284375f920191909152508a925061183e915050565b98975050505050505050565b5f80339050610d6c87828888888080601f0160208091040260200160405190810160405280939291908181526020018383808284375f920191909152508a925061183e915050565b5f6109c760088361191c565b5f80339050610fda86828787878080601f0160208091040260200160405190810160405280939291908181526020018383808284375f9201919091525061175092505050565b9695505050505050565b5f33610ff08184611969565b6110185760405163d9b3955760e01b81526001600160a01b0382166004820152602401610d57565b5f610d6c87878787866119ed565b5f6060805f5f5f6060611037611bee565b61103f611c1a565b604080515f80825260208201909252600f60f81b9b939a50919850469750309650945092509050565b5f61107585858585611c47565b61109d576040516394ab6c0760e01b81526001600160a01b0384166004820152602401610d57565b6110b785848660405180602001604052805f815250611750565b95945050505050565b5f7f00000000000000000000000000000000000000000000000000000000000000006001600160a01b03166391ddadf46040518163ffffffff1660e01b8152600401602060405180830381865afa92505050801561113b575060408051601f3d908101601f1916820190925261113891810190613b55565b60015b610e325761095c611cd0565b5f611153848484611cda565b90505b9392505050565b5f6111686008611d6d565b6001600160d01b0316905090565b61117e6113d5565b6109de81611db1565b5f6110b78585858561129d565b5f60016109c7565b5f306111a6610949565b6001600160a01b0316146111cd57604051637485328f60e11b815260040160405180910390fd5b5063bc197c8160e01b95945050505050565b5f8181526004602052604081205461121390600160d01b810463ffffffff1690600160a01b900465ffffffffffff16613b7a565b65ffffffffffff1692915050565b6112296113d5565b5f5f856001600160a01b0316858585604051611246929190613b98565b5f6040518083038185875af1925050503d805f8114611280576040519150601f19603f3d011682016040523d82523d5f602084013e611285565b606091505b50915091506112948282611e1a565b50505050505050565b5f848484846040516020016112b59493929190613c3a565b60408051601f19818403018152919052805160209091012095945050505050565b5f61115683836112f060408051602081019091525f815290565b611cda565b5f306112ff610949565b6001600160a01b03161461132657604051637485328f60e11b815260040160405180910390fd5b5063f23a6e6160e01b95945050505050565b604051632394e7a360e21b8152600481018290525f906109c7906001600160a01b037f00000000000000000000000000000000000000000000000000000000000000001690638e539e8c90602401602060405180830381865afa1580156113a1573d5f5f3e3d5ffd5b505050506040513d601f19601f820116820180604052508101906113c59190613c84565b6113ce84610f88565b6064611e36565b336113de610949565b6001600160a01b031614611407576040516347096e4760e01b8152336004820152602401610d57565b30611410610949565b6001600160a01b03161461144c575f803660405161142f929190613b98565b604051809103902090505b806114456005611ee6565b0361143a57505b565b60648082111561147b5760405163243e544560e01b81526004810183905260248101829052604401610d57565b5f61148461115d565b90506114a36114916110c0565b61149a85611f53565b60089190611f8a565b505060408051828152602081018590527f0553476bf02ef2726e8ce5ced78d63e26e602e4a2257b1f559418e24b4633997910160405180910390a1505050565b5f8160078111156114f6576114f6613489565b600160ff919091161b92915050565b5f5f61151084610d07565b90505f8361151d836114e3565b1603611156578381846040516331b75e4d60e01b8152600401610d5793929190613c9b565b5f610fda8686868686611fa4565b81546001600160801b03600160801b82048116918116600183019091160361157c5761157c6041612135565b6001600160801b038082165f90815260018086016020526040909120939093558354919092018216600160801b029116179055565b6115be8585858585612146565b5050505050565b5f5f6115d0836121d6565b905060058160078111156115e6576115e6613489565b146115f15792915050565b5f838152600a602052604090819020546009549151632c258a9f60e11b81526004810182905290916001600160a01b03169063584b153e90602401602060405180830381865afa158015611647573d5f5f3e3d5ffd5b505050506040513d601f19601f8201168201806040525081019061166b9190613cbd565b1561167a575060059392505050565b600954604051632ab0f52960e01b8152600481018390526001600160a01b0390911690632ab0f52990602401602060405180830381865afa1580156116c1573d5f5f3e3d5ffd5b505050506040513d601f19601f820116820180604052508101906116e59190613cbd565b156116f4575060079392505050565b5060029392505050565b5f8061170984610d07565b600781111561171a5761171a613489565b1480156111565750505f91825260046020526040909120546001600160a01b0391821691161490565b5f6110b785858585612307565b5f6110b78585858561176c60408051602081019091525f815290565b61183e565b5f610d6c856118387f3e83946653575f9a39005e1545185629e92736b7528ab20ca3816f315424a8118a8a8a6117c38c6001600160a01b03165f90815260026020526040902080546001810190915590565b8b516020808e01919091208c518d83012060405161181d98979695949301968752602087019590955260ff9390931660408601526001600160a01b03919091166060850152608084015260a083015260c082015260e00190565b6040516020818303038152906040528051906020012061239e565b846123ca565b5f61184d86610ad160016114e3565b505f6118628661185c89610ce7565b85611cda565b90505f611872888888858861243a565b905083515f036118c857866001600160a01b03167fb8e138887d0aa13bab447e82de9d5c1777041ecd21ca36ba824ff1e6c07ddda4898884896040516118bb9493929190613cdc565b60405180910390a2610d6c565b866001600160a01b03167fe2babfbac5889a709b63bb7f598b324e08bc5a4fb9ec647fb3cbc9ec07eb87128988848989604051611909959493929190613d03565b60405180910390a2979650505050505050565b5f5f5f61192885612536565b9250925050838265ffffffffffff161115611955576119506119498561258e565b86906125c0565b611957565b805b6001600160d01b031695945050505050565b80515f9060348110156119805760019150506109c7565b60131981840101516001600160b01b03198116692370726f706f7365723d60b01b146119b1576001925050506109c7565b5f5f6119c186602a860386612662565b91509150811580610d6c5750866001600160a01b0316816001600160a01b031614979650505050505050565b5f611a018686868680519060200120611187565b905084518651141580611a1657508351865114155b80611a2057508551155b15611a5557855184518651604051630447b05d60e41b8152600481019390935260248301919091526044820152606401610d57565b5f81815260046020526040902054600160a01b900465ffffffffffff1615611a9e5780611a8182610d07565b6040516331b75e4d60e01b8152610d579291905f90600401613c9b565b5f611c20611aaa6110c0565b65ffffffffffff16611abc9190613d3c565b90505f61c4e05f84815260046020526040902080546001600160a01b0319166001600160a01b038716178155909150611af48361258e565b815465ffffffffffff91909116600160a01b0265ffffffffffff60a01b19909116178155611b218261270b565b815463ffffffff91909116600160d01b0263ffffffff60d01b1990911617815588517f7d84a6263ae0d98d3329bd7b46bb4e8d6f98cd35a7adb45c274c8b7fd5ebd5e090859087908c908c906001600160401b03811115611b8457611b8461316d565b604051908082528060200260200182016040528015611bb757816020015b6060815260200190600190039081611ba25790505b508c89611bc48a82613d3c565b8e604051611bda99989796959493929190613d4f565b60405180910390a150505095945050505050565b606061095c7f00000000000000000000000000000000000000000000000000000000000000005f61273b565b606061095c7f0000000000000000000000000000000000000000000000000000000000000000600161273b565b5f6110b7836118387ff2aad550cf55f045cb27e9c559f9889fdfb6e6cdaa032301d6ea397784ae51d7888888611c998a6001600160a01b03165f90815260026020526040902080546001810190915590565b60408051602081019690965285019390935260ff90911660608401526001600160a01b0316608083015260a082015260c00161181d565b5f61095c4361258e565b5f7f0000000000000000000000000000000000000000000000000000000000000000604051630748d63560e31b81526001600160a01b038681166004830152602482018690529190911690633a46b1a890604401602060405180830381865afa158015611d49573d5f5f3e3d5ffd5b505050506040513d601f19601f820116820180604052508101906111539190613c84565b80545f908015611da957611d9383611d86600184613e2a565b5f91825260209091200190565b54600160301b90046001600160d01b0316611156565b5f9392505050565b600954604080516001600160a01b03928316815291831660208301527f08f74ea46ef7894f65eabfb5e6e695de773a000b47c529ab559178069b226401910160405180910390a1600980546001600160a01b0319166001600160a01b0392909216919091179055565b606082611e2f57611e2a826127e4565b6109c7565b50806109c7565b5f5f5f611e43868661280c565b91509150815f03611e6757838181611e5d57611e5d613e3d565b0492505050611156565b818411611e7e57611e7e6003851502601118612135565b5f848688095f868103871696879004966002600389028118808a02820302808a02820302808a02820302808a02820302808a02820302808a02909103029181900381900460010185841190960395909502919093039390930492909217029150509392505050565b80545f906001600160801b0380821691600160801b9004168103611f0e57611f0e6031612135565b6001600160801b038181165f908152600185810160205260408220805492905585546fffffffffffffffffffffffffffffffff19169301909116919091179092555090565b5f6001600160d01b03821115611f86576040516306dfcc6560e41b815260d0600482015260248101839052604401610d57565b5090565b5f80611f97858585612828565b915091505b935093915050565b5f5f60095f9054906101000a90046001600160a01b03166001600160a01b031663f27a0c926040518163ffffffff1660e01b8152600401602060405180830381865afa158015611ff6573d5f5f3e3d5ffd5b505050506040513d601f19601f8201168201806040525081019061201a9190613c84565b90505f3060601b6bffffffffffffffffffffffff1916841860095460405163b1c5f42760e01b81529192506001600160a01b03169063b1c5f4279061206b908a908a908a905f908890600401613e51565b602060405180830381865afa158015612086573d5f5f3e3d5ffd5b505050506040513d601f19601f820116820180604052508101906120aa9190613c84565b5f898152600a60205260408082209290925560095491516308f2a0bb60e41b81526001600160a01b0390921691638f2a0bb0916120f4918b918b918b919088908a90600401613e9e565b5f604051808303815f87803b15801561210b575f5ffd5b505af115801561211d573d5f5f3e3d5ffd5b50505050610f3482426121309190613d3c565b61258e565b634e487b715f52806020526024601cfd5b6009546001600160a01b031663e38335e5348686865f3060601b6bffffffffffffffffffffffff191688186040518763ffffffff1660e01b8152600401612191959493929190613e51565b5f604051808303818588803b1580156121a8575f5ffd5b505af11580156121ba573d5f5f3e3d5ffd5b5050505f9687525050600a602052505060408320929092555050565b5f818152600460205260408120805460ff600160f01b8204811691600160f81b900416811561220a57506007949350505050565b801561221b57506002949350505050565b5f61222586610ce7565b9050805f0361224a57604051636ad0607560e01b815260048101879052602401610d57565b5f6122536110c0565b65ffffffffffff16905080821061227057505f9695505050505050565b5f61227a886111df565b905081811061229157506001979650505050505050565b61229a88612978565b15806122b957505f888152600760205260409020805460019091015411155b156122cc57506003979650505050505050565b5f8881526004602052604090206001015465ffffffffffff165f036122f957506004979650505050505050565b506005979650505050505050565b5f5f612315868686866129ae565b5f818152600a60205260409020549091508015610b755760095460405163c4d252f560e01b8152600481018390526001600160a01b039091169063c4d252f5906024015f604051808303815f87803b15801561236f575f5ffd5b505af1158015612381573d5f5f3e3d5ffd5b5050505f838152600a602052604081205550509050949350505050565b5f6109c76123aa612a5d565b8360405161190160f01b8152600281019290925260228201526042902090565b5f836001600160a01b03163b5f03612428575f5f6123e88585612b86565b5090925090505f81600381111561240157612401613489565b14801561241f5750856001600160a01b0316826001600160a01b0316145b92505050611156565b612433848484612bcf565b9050611156565b5f8581526007602090815260408083206001600160a01b03881684526003810190925282205460ff161561248c576040516371c6af4960e01b81526001600160a01b0387166004820152602401610d57565b6001600160a01b0386165f9081526003820160205260409020805460ff1916600117905560ff85166124d55783815f015f8282546124ca9190613d3c565b9091555061252b9050565b5f1960ff8616016124f35783816001015f8282546124ca9190613d3c565b60011960ff8616016125125783816002015f8282546124ca9190613d3c565b6040516303599be160e11b815260040160405180910390fd5b509195945050505050565b80545f9081908190808203612554575f5f5f93509350935050610e55565b5f61256486611d86600185613e2a565b546001955065ffffffffffff81169450600160301b90046001600160d01b03169250610e55915050565b5f65ffffffffffff821115611f86576040516306dfcc6560e41b81526030600482015260248101839052604401610d57565b81545f908181600581111561261c575f6125d984612ca5565b6125e39085613e2a565b5f8881526020902090915081015465ffffffffffff908116908716101561260c5780915061261a565b612617816001613d3c565b92505b505b5f61262987878585612dfd565b905080156126565761264087611d86600184613e2a565b54600160301b90046001600160d01b0316610d6c565b505f9695505050505050565b5f5f845183118061267257508284115b1561268157505f905080611f9c565b5f61268d856001613d3c565b841180156126b5575061060f60f31b6126a98787016020015190565b6001600160f01b031916145b90505f6126c58215156002613ef5565b6126d0906028613d3c565b9050806126dd8787613e2a565b036126fe575f5f6126ef898989612e5c565b9096509450611f9c9350505050565b5f5f935093505050611f9c565b5f63ffffffff821115611f86576040516306dfcc6560e41b81526020600482015260248101839052604401610d57565b606060ff83146127555761274e83612f1d565b90506109c7565b81805461276190613a81565b80601f016020809104026020016040519081016040528092919081815260200182805461278d90613a81565b80156127d85780601f106127af576101008083540402835291602001916127d8565b820191905f5260205f20905b8154815290600101906020018083116127bb57829003601f168201915b505050505090506109c7565b8051156127f357805160208201fd5b60405163d6bda27560e01b815260040160405180910390fd5b5f805f1983850993909202808410938190039390930393915050565b82545f908190801561291e575f61284487611d86600185613e2a565b805490915065ffffffffffff80821691600160301b90046001600160d01b031690881682111561288757604051632520601d60e01b815260040160405180910390fd5b8765ffffffffffff168265ffffffffffff16036128c057825465ffffffffffff16600160301b6001600160d01b03891602178355612910565b6040805180820190915265ffffffffffff808a1682526001600160d01b03808a1660208085019182528d54600181018f555f8f81529190912094519151909216600160301b029216919091179101555b9450859350611f9c92505050565b50506040805180820190915265ffffffffffff80851682526001600160d01b0380851660208085019182528854600181018a555f8a815291822095519251909316600160301b029190931617920191909155905081611f9c565b5f818152600760205260408120600281015460018201546129999190613d3c565b6129a561091285610ce7565b11159392505050565b5f5f6129bc86868686611187565b9050612a0a816129cc60076114e3565b6129d660066114e3565b6129e060026114e3565b60016129ed600782613f0c565b6129f8906002614000565b612a029190613e2a565b181818611505565b505f818152600460205260409081902080546001600160f81b0316600160f81b179055517f789cf55be980739dad1d0699b93b58e806b51c9d96619bfa8fe0a28abaa7b30c90610cd69083815260200190565b5f306001600160a01b037f000000000000000000000000000000000000000000000000000000000000000016148015612ab557507f000000000000000000000000000000000000000000000000000000000000000046145b15612adf57507f000000000000000000000000000000000000000000000000000000000000000090565b61095c604080517f8b73c3c69bb8fe3d512ecc4cf759cc79239f7b179b0ffacaa9a75d522b39400f60208201527f0000000000000000000000000000000000000000000000000000000000000000918101919091527f000000000000000000000000000000000000000000000000000000000000000060608201524660808201523060a08201525f9060c00160405160208183030381529060405280519060200120905090565b5f5f5f8351604103612bbd576020840151604085015160608601515f1a612baf88828585612f5a565b955095509550505050612bc8565b505081515f91506002905b9250925092565b5f5f5f856001600160a01b03168585604051602401612bef92919061400e565b60408051601f198184030181529181526020820180516001600160e01b0316630b135d3f60e11b17905251612c249190614026565b5f60405180830381855afa9150503d805f8114612c5c576040519150601f19603f3d011682016040523d82523d5f602084013e612c61565b606091505b5091509150818015612c7557506020815110155b8015610fda57508051630b135d3f60e11b90612c9a9083016020908101908401613c84565b149695505050505050565b5f60018211612cb2575090565b816001600160801b8210612ccb5760809190911c9060401b5b680100000000000000008210612ce65760409190911c9060201b5b6401000000008210612cfd5760209190911c9060101b5b620100008210612d125760109190911c9060081b5b6101008210612d265760089190911c9060041b5b60108210612d395760049190911c9060021b5b60048210612d455760011b5b600302600190811c90818581612d5d57612d5d613e3d565b048201901c90506001818581612d7557612d75613e3d565b048201901c90506001818581612d8d57612d8d613e3d565b048201901c90506001818581612da557612da5613e3d565b048201901c90506001818581612dbd57612dbd613e3d565b048201901c90506001818581612dd557612dd5613e3d565b048201901c9050612df4818581612dee57612dee613e3d565b04821190565b90039392505050565b5f5b81831015612e54575f612e128484613022565b5f8781526020902090915065ffffffffffff86169082015465ffffffffffff161115612e4057809250612e4e565b612e4b816001613d3c565b93505b50612dff565b509392505050565b5f808481612e6b866001613d3c565b85118015612e93575061060f60f31b612e878388016020015190565b6001600160f01b031916145b90505f612ea38215156002613ef5565b90505f80612eb1838a613d3c565b90505b87811015612f0c575f612ed2612ecd8784016020015190565b61303c565b9050600f8160ff161115612ef1575f5f97509750505050505050611f9c565b612efc601084613ef5565b60ff909116019150600101612eb4565b506001999098509650505050505050565b60605f612f29836130b4565b6040805160208082528183019092529192505f91906020820181803683375050509182525060208101929092525090565b5f80807f7fffffffffffffffffffffffffffffff5d576e7357a4501ddfe92f46681b20a0841115612f9357505f91506003905082613018565b604080515f808252602082018084528a905260ff891692820192909252606081018790526080810186905260019060a0016020604051602081039080840390855afa158015612fe4573d5f5f3e3d5ffd5b5050604051601f1901519150506001600160a01b03811661300f57505f925060019150829050613018565b92505f91508190505b9450945094915050565b5f613030600284841861403c565b61115690848416613d3c565b5f60f882901c602f811180156130555750603a8160ff16105b1561306357602f19016109c7565b60608160ff16118015613079575060678160ff16105b1561308757605619016109c7565b60408160ff1611801561309d575060478160ff16105b156130ab57603619016109c7565b5060ff92915050565b5f60ff8216601f8111156109c757604051632cd44ac360e21b815260040160405180910390fd5b5f602082840312156130eb575f5ffd5b81356001600160e01b031981168114611156575f5ffd5b5f60208284031215613112575f5ffd5b5035919050565b5f81518084528060208401602086015e5f602082860101526020601f19601f83011685010191505092915050565b602081525f6111566020830184613119565b6001600160a01b03811681146109de575f5ffd5b634e487b7160e01b5f52604160045260245ffd5b604051601f8201601f191681016001600160401b03811182821017156131a9576131a961316d565b604052919050565b5f6001600160401b038211156131c9576131c961316d565b50601f01601f191660200190565b5f6131e96131e4846131b1565b613181565b90508281528383830111156131fc575f5ffd5b828260208301375f602084830101529392505050565b5f82601f830112613221575f5ffd5b611156838335602085016131d7565b5f5f5f5f60808587031215613243575f5ffd5b843561324e81613159565b9350602085013561325e81613159565b92506040850135915060608501356001600160401b0381111561327f575f5ffd5b61328b87828801613212565b91505092959194509250565b5f6001600160401b038211156132af576132af61316d565b5060051b60200190565b5f82601f8301126132c8575f5ffd5b81356132d66131e482613297565b8082825260208201915060208360051b8601019250858311156132f7575f5ffd5b602085015b83811015610b7557803561330f81613159565b8352602092830192016132fc565b5f82601f83011261332c575f5ffd5b813561333a6131e482613297565b8082825260208201915060208360051b86010192508583111561335b575f5ffd5b602085015b83811015610b75578035835260209283019201613360565b5f82601f830112613387575f5ffd5b81356133956131e482613297565b8082825260208201915060208360051b8601019250858311156133b6575f5ffd5b602085015b83811015610b755780356001600160401b038111156133d8575f5ffd5b6133e7886020838a0101613212565b845250602092830192016133bb565b5f5f5f5f60808587031215613409575f5ffd5b84356001600160401b0381111561341e575f5ffd5b61342a878288016132b9565b94505060208501356001600160401b03811115613445575f5ffd5b6134518782880161331d565b93505060408501356001600160401b0381111561346c575f5ffd5b61347887828801613378565b949793965093946060013593505050565b634e487b7160e01b5f52602160045260245ffd5b600881106134b957634e487b7160e01b5f52602160045260245ffd5b9052565b602081016109c7828461349d565b5f5f604083850312156134dc575f5ffd5b8235915060208301356134ee81613159565b809150509250929050565b803560ff81168114610e32575f5ffd5b5f5f6040838503121561351a575f5ffd5b8235915061352a602084016134f9565b90509250929050565b5f5f83601f840112613543575f5ffd5b5081356001600160401b03811115613559575f5ffd5b602083019150836020828501011115613570575f5ffd5b9250929050565b5f5f5f5f5f5f5f60c0888a03121561358d575f5ffd5b8735965061359d602089016134f9565b955060408801356135ad81613159565b945060608801356001600160401b038111156135c7575f5ffd5b6135d38a828b01613533565b90955093505060808801356001600160401b038111156135f1575f5ffd5b6135fd8a828b01613212565b92505060a08801356001600160401b03811115613618575f5ffd5b6136248a828b01613212565b91505092959891949750929550565b5f5f5f5f5f60808688031215613647575f5ffd5b85359450613657602087016134f9565b935060408601356001600160401b03811115613671575f5ffd5b61367d88828901613533565b90945092505060608601356001600160401b0381111561369b575f5ffd5b6136a788828901613212565b9150509295509295909350565b5f5f5f5f606085870312156136c7575f5ffd5b843593506136d7602086016134f9565b925060408501356001600160401b038111156136f1575f5ffd5b6136fd87828801613533565b95989497509550505050565b5f5f5f5f6080858703121561371c575f5ffd5b84356001600160401b03811115613731575f5ffd5b61373d878288016132b9565b94505060208501356001600160401b03811115613758575f5ffd5b6137648782880161331d565b93505060408501356001600160401b0381111561377f575f5ffd5b61378b87828801613378565b92505060608501356001600160401b038111156137a6575f5ffd5b8501601f810187136137b6575f5ffd5b61328b878235602084016131d7565b5f602082840312156137d5575f5ffd5b813561115681613159565b5f8151808452602084019350602083015f5b828110156138105781518652602095860195909101906001016137f2565b5093949350505050565b60ff60f81b8816815260e060208201525f61383860e0830189613119565b828103604084015261384a8189613119565b606084018890526001600160a01b038716608085015260a0840186905283810360c0850152905061387b81856137e0565b9a9950505050505050505050565b5f5f5f5f6080858703121561389c575f5ffd5b843593506138ac602086016134f9565b925060408501356138bc81613159565b915060608501356001600160401b0381111561327f575f5ffd5b5f5f5f606084860312156138e8575f5ffd5b83356138f381613159565b92506020840135915060408401356001600160401b03811115613914575f5ffd5b61392086828701613212565b9150509250925092565b5f5f5f5f5f60a0868803121561393e575f5ffd5b853561394981613159565b9450602086013561395981613159565b935060408601356001600160401b03811115613973575f5ffd5b61397f8882890161331d565b93505060608601356001600160401b0381111561399a575f5ffd5b6139a68882890161331d565b92505060808601356001600160401b0381111561369b575f5ffd5b5f5f5f5f606085870312156139d4575f5ffd5b84356139df81613159565b93506020850135925060408501356001600160401b038111156136f1575f5ffd5b5f5f60408385031215613a11575f5ffd5b8235613a1c81613159565b946020939093013593505050565b5f5f5f5f5f60a08688031215613a3e575f5ffd5b8535613a4981613159565b94506020860135613a5981613159565b9350604086013592506060860135915060808601356001600160401b0381111561369b575f5ffd5b600181811c90821680613a9557607f821691505b602082108103613ab357634e487b7160e01b5f52602260045260245ffd5b50919050565b634e487b7160e01b5f52603260045260245ffd5b5f60208284031215613add575f5ffd5b81516001600160401b03811115613af2575f5ffd5b8201601f81018413613b02575f5ffd5b8051613b106131e4826131b1565b818152856020838501011115613b24575f5ffd5b8160208401602083015e5f91810160200191909152949350505050565b634e487b7160e01b5f52601160045260245ffd5b5f60208284031215613b65575f5ffd5b815165ffffffffffff81168114611156575f5ffd5b65ffffffffffff81811683821601908111156109c7576109c7613b41565b818382375f9101908152919050565b5f8151808452602084019350602083015f5b828110156138105781516001600160a01b0316865260209586019590910190600101613bb9565b5f82825180855260208501945060208160051b830101602085015f5b83811015613c2e57601f19858403018852613c18838351613119565b6020988901989093509190910190600101613bfc565b50909695505050505050565b608081525f613c4c6080830187613ba7565b8281036020840152613c5e81876137e0565b90508281036040840152613c728186613be0565b91505082606083015295945050505050565b5f60208284031215613c94575f5ffd5b5051919050565b83815260608101613caf602083018561349d565b826040830152949350505050565b5f60208284031215613ccd575f5ffd5b81518015158114611156575f5ffd5b84815260ff84166020820152826040820152608060608201525f610fda6080830184613119565b85815260ff8516602082015283604082015260a060608201525f613d2a60a0830185613119565b8281036080840152610f348185613119565b808201808211156109c7576109c7613b41565b8981526001600160a01b0389166020820152610120604082018190525f90613d799083018a613ba7565b8281036060840152613d8b818a6137e0565b9050828103608084015280885180835260208301915060208160051b84010160208b015f5b83811015613de257601f19868403018552613dcc838351613119565b6020958601959093509190910190600101613db0565b505085810360a0870152613df6818b613be0565b93505050508560c08401528460e0840152828103610100840152613e1a8185613119565b9c9b505050505050505050505050565b818103818111156109c7576109c7613b41565b634e487b7160e01b5f52601260045260245ffd5b60a081525f613e6360a0830188613ba7565b8281036020840152613e7581886137e0565b90508281036040840152613e898187613be0565b60608401959095525050608001529392505050565b60c081525f613eb060c0830189613ba7565b8281036020840152613ec281896137e0565b90508281036040840152613ed68188613be0565b60608401969096525050608081019290925260a0909101529392505050565b80820281158282048414176109c7576109c7613b41565b60ff81811683821601908111156109c7576109c7613b41565b6001815b6001841115611f9c57808504811115613f4457613f44613b41565b6001841615613f5257908102905b60019390931c928002613f29565b5f82613f6e575060016109c7565b81613f7a57505f6109c7565b8160018114613f905760028114613f9a57613fb6565b60019150506109c7565b60ff841115613fab57613fab613b41565b50506001821b6109c7565b5060208310610133831016604e8410600b8410161715613fd9575081810a6109c7565b613fe55f198484613f25565b805f1904821115613ff857613ff8613b41565b029392505050565b5f61115660ff841683613f60565b828152604060208201525f6111536040830184613119565b5f82518060208501845e5f920191825250919050565b5f8261405657634e487b7160e01b5f52601260045260245ffd5b50049056fea2646970667358221220ce824b925e6ffd2409cdd50011fde1ef0270cf707d180ebb04e45a96e902bbeb64736f6c634300081b0033","linkReferences":{}},"methodIdentifiers":{"BALLOT_TYPEHASH()":"deaaa7cc","CLOCK_MODE()":"4bf5d7e9","COUNTING_MODE()":"dd4e2ba5","EXTENDED_BALLOT_TYPEHASH()":"2fe3e261","cancel(address[],uint256[],bytes[],bytes32)":"452115d6","castVote(uint256,uint8)":"56781388","castVoteBySig(uint256,uint8,address,bytes)":"8ff262e3","castVoteWithReason(uint256,uint8,string)":"7b3c71d3","castVoteWithReasonAndParams(uint256,uint8,string,bytes)":"5f398a14","castVoteWithReasonAndParamsBySig(uint256,uint8,address,string,bytes,bytes)":"5b8d0e0d","clock()":"91ddadf4","eip712Domain()":"84b0196e","execute(address[],uint256[],bytes[],bytes32)":"2656227d","getProposalId(address[],uint256[],bytes[],bytes32)":"a8f8a668","getVotes(address,uint256)":"eb9019d4","getVotesWithParams(address,uint256,bytes)":"9a802a6d","hasVoted(uint256,address)":"43859632","hashProposal(address[],uint256[],bytes[],bytes32)":"c59057e4","name()":"06fdde03","nonces(address)":"7ecebe00","onERC1155BatchReceived(address,address,uint256[],uint256[],bytes)":"bc197c81","onERC1155Received(address,address,uint256,uint256,bytes)":"f23a6e61","onERC721Received(address,address,uint256,bytes)":"150b7a02","proposalDeadline(uint256)":"c01f9e37","proposalEta(uint256)":"ab58fb8e","proposalNeedsQueuing(uint256)":"a9a95294","proposalProposer(uint256)":"143489d0","proposalSnapshot(uint256)":"2d63f693","proposalThreshold()":"b58131b0","proposalVotes(uint256)":"544ffc9c","propose(address[],uint256[],bytes[],string)":"7d5e81e2","queue(address[],uint256[],bytes[],bytes32)":"160cbed7","quorum(uint256)":"f8ce560a","quorumDenominator()":"97c3d334","quorumNumerator()":"a7713a70","quorumNumerator(uint256)":"60c4247f","relay(address,uint256,bytes)":"c28bc2fa","state(uint256)":"3e4f49e6","supportsInterface(bytes4)":"01ffc9a7","timelock()":"d33219b4","token()":"fc0c546a","updateQuorumNumerator(uint256)":"06f3f9e6","updateTimelock(address)":"a890c910","version()":"54fd4d50","votingDelay()":"3932abb1","votingPeriod()":"02a251a3"},"id":141}