{"abi":[{"type":"constructor","inputs":[{"name":"name","type":"string","internalType":"string"},{"name":"symbol","type":"string","internalType":"string"},{"name":"offset","type":"uint96","internalType":"uint96"},{"name":"delegates","type":"address[]","internalType":"address[]"},{"name":"receivers","type":"address[]","internalType":"address[]"},{"name":"amounts","type":"uint96[]","internalType":"uint96[]"}],"stateMutability":"nonpayable"},{"type":"function","name":"CLOCK_MODE","inputs":[],"outputs":[{"name":"","type":"string","internalType":"string"}],"stateMutability":"view"},{"type":"function","name":"approve","inputs":[{"name":"to","type":"address","internalType":"address"},{"name":"tokenId","type":"uint256","internalType":"uint256"}],"outputs":[],"stateMutability":"nonpayable"},{"type":"function","name":"balanceOf","inputs":[{"name":"owner","type":"address","internalType":"address"}],"outputs":[{"name":"","type":"uint256","internalType":"uint256"}],"stateMutability":"view"},{"type":"function","name":"clock","inputs":[],"outputs":[{"name":"","type":"uint48","internalType":"uint48"}],"stateMutability":"view"},{"type":"function","name":"delegate","inputs":[{"name":"delegatee","type":"address","internalType":"address"}],"outputs":[],"stateMutability":"nonpayable"},{"type":"function","name":"delegateBySig","inputs":[{"name":"delegatee","type":"address","internalType":"address"},{"name":"nonce","type":"uint256","internalType":"uint256"},{"name":"expiry","type":"uint256","internalType":"uint256"},{"name":"v","type":"uint8","internalType":"uint8"},{"name":"r","type":"bytes32","internalType":"bytes32"},{"name":"s","type":"bytes32","internalType":"bytes32"}],"outputs":[],"stateMutability":"nonpayable"},{"type":"function","name":"delegates","inputs":[{"name":"account","type":"address","internalType":"address"}],"outputs":[{"name":"","type":"address","internalType":"address"}],"stateMutability":"view"},{"type":"function","name":"eip712Domain","inputs":[],"outputs":[{"name":"fields","type":"bytes1","internalType":"bytes1"},{"name":"name","type":"string","internalType":"string"},{"name":"version","type":"string","internalType":"string"},{"name":"chainId","type":"uint256","internalType":"uint256"},{"name":"verifyingContract","type":"address","internalType":"address"},{"name":"salt","type":"bytes32","internalType":"bytes32"},{"name":"extensions","type":"uint256[]","internalType":"uint256[]"}],"stateMutability":"view"},{"type":"function","name":"getApproved","inputs":[{"name":"tokenId","type":"uint256","internalType":"uint256"}],"outputs":[{"name":"","type":"address","internalType":"address"}],"stateMutability":"view"},{"type":"function","name":"getPastTotalSupply","inputs":[{"name":"timepoint","type":"uint256","internalType":"uint256"}],"outputs":[{"name":"","type":"uint256","internalType":"uint256"}],"stateMutability":"view"},{"type":"function","name":"getPastVotes","inputs":[{"name":"account","type":"address","internalType":"address"},{"name":"timepoint","type":"uint256","internalType":"uint256"}],"outputs":[{"name":"","type":"uint256","internalType":"uint256"}],"stateMutability":"view"},{"type":"function","name":"getVotes","inputs":[{"name":"account","type":"address","internalType":"address"}],"outputs":[{"name":"","type":"uint256","internalType":"uint256"}],"stateMutability":"view"},{"type":"function","name":"isApprovedForAll","inputs":[{"name":"owner","type":"address","internalType":"address"},{"name":"operator","type":"address","internalType":"address"}],"outputs":[{"name":"","type":"bool","internalType":"bool"}],"stateMutability":"view"},{"type":"function","name":"name","inputs":[],"outputs":[{"name":"","type":"string","internalType":"string"}],"stateMutability":"view"},{"type":"function","name":"nonces","inputs":[{"name":"owner","type":"address","internalType":"address"}],"outputs":[{"name":"","type":"uint256","internalType":"uint256"}],"stateMutability":"view"},{"type":"function","name":"ownerOf","inputs":[{"name":"tokenId","type":"uint256","internalType":"uint256"}],"outputs":[{"name":"","type":"address","internalType":"address"}],"stateMutability":"view"},{"type":"function","name":"paused","inputs":[],"outputs":[{"name":"","type":"bool","internalType":"bool"}],"stateMutability":"view"},{"type":"function","name":"safeTransferFrom","inputs":[{"name":"from","type":"address","internalType":"address"},{"name":"to","type":"address","internalType":"address"},{"name":"tokenId","type":"uint256","internalType":"uint256"}],"outputs":[],"stateMutability":"nonpayable"},{"type":"function","name":"safeTransferFrom","inputs":[{"name":"from","type":"address","internalType":"address"},{"name":"to","type":"address","internalType":"address"},{"name":"tokenId","type":"uint256","internalType":"uint256"},{"name":"data","type":"bytes","internalType":"bytes"}],"outputs":[],"stateMutability":"nonpayable"},{"type":"function","name":"setApprovalForAll","inputs":[{"name":"operator","type":"address","internalType":"address"},{"name":"approved","type":"bool","internalType":"bool"}],"outputs":[],"stateMutability":"nonpayable"},{"type":"function","name":"supportsInterface","inputs":[{"name":"interfaceId","type":"bytes4","internalType":"bytes4"}],"outputs":[{"name":"","type":"bool","internalType":"bool"}],"stateMutability":"view"},{"type":"function","name":"symbol","inputs":[],"outputs":[{"name":"","type":"string","internalType":"string"}],"stateMutability":"view"},{"type":"function","name":"tokenURI","inputs":[{"name":"tokenId","type":"uint256","internalType":"uint256"}],"outputs":[{"name":"","type":"string","internalType":"string"}],"stateMutability":"view"},{"type":"function","name":"transferFrom","inputs":[{"name":"from","type":"address","internalType":"address"},{"name":"to","type":"address","internalType":"address"},{"name":"tokenId","type":"uint256","internalType":"uint256"}],"outputs":[],"stateMutability":"nonpayable"},{"type":"event","name":"Approval","inputs":[{"name":"owner","type":"address","indexed":true,"internalType":"address"},{"name":"approved","type":"address","indexed":true,"internalType":"address"},{"name":"tokenId","type":"uint256","indexed":true,"internalType":"uint256"}],"anonymous":false},{"type":"event","name":"ApprovalForAll","inputs":[{"name":"owner","type":"address","indexed":true,"internalType":"address"},{"name":"operator","type":"address","indexed":true,"internalType":"address"},{"name":"approved","type":"bool","indexed":false,"internalType":"bool"}],"anonymous":false},{"type":"event","name":"ConsecutiveTransfer","inputs":[{"name":"fromTokenId","type":"uint256","indexed":true,"internalType":"uint256"},{"name":"toTokenId","type":"uint256","indexed":false,"internalType":"uint256"},{"name":"fromAddress","type":"address","indexed":true,"internalType":"address"},{"name":"toAddress","type":"address","indexed":true,"internalType":"address"}],"anonymous":false},{"type":"event","name":"DelegateChanged","inputs":[{"name":"delegator","type":"address","indexed":true,"internalType":"address"},{"name":"fromDelegate","type":"address","indexed":true,"internalType":"address"},{"name":"toDelegate","type":"address","indexed":true,"internalType":"address"}],"anonymous":false},{"type":"event","name":"DelegateVotesChanged","inputs":[{"name":"delegate","type":"address","indexed":true,"internalType":"address"},{"name":"previousVotes","type":"uint256","indexed":false,"internalType":"uint256"},{"name":"newVotes","type":"uint256","indexed":false,"internalType":"uint256"}],"anonymous":false},{"type":"event","name":"EIP712DomainChanged","inputs":[],"anonymous":false},{"type":"event","name":"Paused","inputs":[{"name":"account","type":"address","indexed":false,"internalType":"address"}],"anonymous":false},{"type":"event","name":"Transfer","inputs":[{"name":"from","type":"address","indexed":true,"internalType":"address"},{"name":"to","type":"address","indexed":true,"internalType":"address"},{"name":"tokenId","type":"uint256","indexed":true,"internalType":"uint256"}],"anonymous":false},{"type":"event","name":"Unpaused","inputs":[{"name":"account","type":"address","indexed":false,"internalType":"address"}],"anonymous":false},{"type":"error","name":"CheckpointUnorderedInsertion","inputs":[]},{"type":"error","name":"ECDSAInvalidSignature","inputs":[]},{"type":"error","name":"ECDSAInvalidSignatureLength","inputs":[{"name":"length","type":"uint256","internalType":"uint256"}]},{"type":"error","name":"ECDSAInvalidSignatureS","inputs":[{"name":"s","type":"bytes32","internalType":"bytes32"}]},{"type":"error","name":"ERC5805FutureLookup","inputs":[{"name":"timepoint","type":"uint256","internalType":"uint256"},{"name":"clock","type":"uint48","internalType":"uint48"}]},{"type":"error","name":"ERC6372InconsistentClock","inputs":[]},{"type":"error","name":"ERC721ExceededMaxBatchMint","inputs":[{"name":"batchSize","type":"uint256","internalType":"uint256"},{"name":"maxBatch","type":"uint256","internalType":"uint256"}]},{"type":"error","name":"ERC721ForbiddenBatchBurn","inputs":[]},{"type":"error","name":"ERC721ForbiddenBatchMint","inputs":[]},{"type":"error","name":"ERC721ForbiddenMint","inputs":[]},{"type":"error","name":"ERC721IncorrectOwner","inputs":[{"name":"sender","type":"address","internalType":"address"},{"name":"tokenId","type":"uint256","internalType":"uint256"},{"name":"owner","type":"address","internalType":"address"}]},{"type":"error","name":"ERC721InsufficientApproval","inputs":[{"name":"operator","type":"address","internalType":"address"},{"name":"tokenId","type":"uint256","internalType":"uint256"}]},{"type":"error","name":"ERC721InvalidApprover","inputs":[{"name":"approver","type":"address","internalType":"address"}]},{"type":"error","name":"ERC721InvalidOperator","inputs":[{"name":"operator","type":"address","internalType":"address"}]},{"type":"error","name":"ERC721InvalidOwner","inputs":[{"name":"owner","type":"address","internalType":"address"}]},{"type":"error","name":"ERC721InvalidReceiver","inputs":[{"name":"receiver","type":"address","internalType":"address"}]},{"type":"error","name":"ERC721InvalidSender","inputs":[{"name":"sender","type":"address","internalType":"address"}]},{"type":"error","name":"ERC721NonexistentToken","inputs":[{"name":"tokenId","type":"uint256","internalType":"uint256"}]},{"type":"error","name":"EnforcedPause","inputs":[]},{"type":"error","name":"ExpectedPause","inputs":[]},{"type":"error","name":"InvalidAccountNonce","inputs":[{"name":"account","type":"address","internalType":"address"},{"name":"currentNonce","type":"uint256","internalType":"uint256"}]},{"type":"error","name":"InvalidShortString","inputs":[]},{"type":"error","name":"SafeCastOverflowedUintDowncast","inputs":[{"name":"bits","type":"uint8","internalType":"uint8"},{"name":"value","type":"uint256","internalType":"uint256"}]},{"type":"error","name":"StringTooLong","inputs":[{"name":"str","type":"string","internalType":"string"}]},{"type":"error","name":"VotesExpiredSignature","inputs":[{"name":"expiry","type":"uint256","internalType":"uint256"}]}],"bytecode":{"object":"0x610180604052348015610010575f5ffd5b506040516133ab3803806133ab83398101604081905261002f91610cd4565b6040805180820190915260018152603160f81b6020820152869081875f6100568382610e4b565b5060016100638282610e4b565b50610073915083905060096101dd565b6101205261008281600a6101dd565b61014052815160208084019190912060e052815190820120610100524660a05261010e60e05161010051604080517f8b73c3c69bb8fe3d512ecc4cf759cc79239f7b179b0ffacaa9a75d522b39400f60208201529081019290925260608201524660808201523060a08201525f9060c00160405160208183030381529060405280519060200120905090565b60805250503060c0526001600160601b038416610160525f5b835181101561017a5761017284828151811061014557610145610f05565b602002602001015185838151811061015f5761015f610f05565b602002602001015161020f60201b60201c565b600101610127565b505f5b82518110156101d1576101c883828151811061019b5761019b610f05565b60200260200101518383815181106101b5576101b5610f05565b602002602001015161028560201b60201c565b5060010161017d565b50505050505050611014565b5f6020835110156101f8576101f1836103bf565b9050610209565b816102038482610e4b565b5060ff90505b92915050565b6001600160a01b038281165f818152600c602052604080822080548686166001600160a01b0319821681179092559151919094169392849290917f3134e8a2e6d97e929a7e54011ea5485d7d196dd5f0ba4d4ef95803e8e3fc257f9190a4610280818361027b866103fc565b610406565b505050565b5f8061028f61055b565b90506001600160601b038316156103b857303b156102c0576040516329cfc83160e11b815260040160405180910390fd5b6001600160a01b0384166102ee57604051633250574960e11b81525f60048201526024015b60405180910390fd5b6113886001600160601b03841681101561032d576040516308f58e5760e41b81526001600160601b0385166004820152602481018290526044016102e5565b5f600161033a8685610f2d565b6103449190610f4c565b90506103526006828861058d565b506103689050866001600160601b0387166105a7565b6040516001600160601b0382811682526001600160a01b038816915f918616907fdeaa91b6123d068f5821d0fb0678463d1a8a6079fe8af5de3ce5e896dcf9133d9060200160405180910390a450505b9392505050565b5f5f829050601f815111156103e9578260405163305a27a960e01b81526004016102e59190610f6b565b80516103f482610fa0565b179392505050565b5f610209826105b5565b816001600160a01b0316836001600160a01b03161415801561042757505f81115b15610280576001600160a01b038316156104c4576001600160a01b0383165f908152600d602090815260408220829161047291906105fa901b6108701761046d86610605565b61063c565b6001600160d01b031691506001600160d01b03169150846001600160a01b03165f51602061338b5f395f51905f5283836040516104b9929190918252602082015260400190565b60405180910390a250505b6001600160a01b03821615610280576001600160a01b0382165f908152600d60209081526040822082916105059190610664901b61087b1761046d86610605565b6001600160d01b031691506001600160d01b03169150836001600160a01b03165f51602061338b5f395f51905f52838360405161054c929190918252602082015260400190565b60405180910390a25050505050565b5f8080610568600661066f565b50915091508161057b5761016051610586565b610586816001610f2d565b9250505090565b5f8061059a8585856106e5565b915091505b935093915050565b6105b1828261085f565b5050565b5f6001600160a01b0382166105df576040516322718ad960e21b81525f60048201526024016102e5565b506001600160a01b03165f9081526003602052604090205490565b5f6103b88284610fc3565b5f6001600160d01b03821115610638576040516306dfcc6560e41b815260d06004820152602481018390526044016102e5565b5090565b5f8061059a610649610899565b61065c610655886108a7565b868860201c565b8791906108e1565b5f6103b88284610fe2565b80545f908190819080820361068d575f5f5f935093509350506106de565b5f6106aa8661069d600185611001565b5f91825260209091200190565b54600195506001600160601b03811694506c0100000000000000000000000090046001600160a01b031692506106de915050565b9193909250565b82545f90819080156107fb575f6107018761069d600185611001565b80549091506001600160601b03808216916c0100000000000000000000000090046001600160a01b031690881682111561074e57604051632520601d60e01b815260040160405180910390fd5b876001600160601b0316826001600160601b0316036107935782546001600160601b03166c010000000000000000000000006001600160a01b038916021783556107ed565b604080518082019091526001600160601b03808a1682526001600160a01b03808a1660208085019182528d54600181018f555f8f815291909120945191519092166c01000000000000000000000000029216919091179101555b945085935061059f92505050565b5050604080518082019091526001600160601b0380851682526001600160a01b0380851660208085019182528854600181018a555f8a8152918220955192519093166c0100000000000000000000000002919093161792019190915590508161059f565b6001600160a01b0382165f90815260036020526040902080546001600160801b0383160190556105b15f836001600160801b0384166108ee565b5f6108a2610971565b905090565b80545f9080156108d9576108c08361069d600184611001565b54660100000000000090046001600160d01b03166103b8565b5f9392505050565b5f8061059a85858561097b565b6001600160a01b03831661091757610914600e61087b61066460201b1761046d84610605565b50505b6001600160a01b0382166109405761093d600e6108706105fa60201b1761046d84610605565b50505b6001600160a01b038381165f908152600c602052604080822054858416835291205461028092918216911683610406565b5f6108a243610ad6565b82545f9081908015610a79575f6109978761069d600185611001565b805490915065ffffffffffff80821691660100000000000090046001600160d01b03169088168211156109dd57604051632520601d60e01b815260040160405180910390fd5b8765ffffffffffff168265ffffffffffff1603610a1957825465ffffffffffff1666010000000000006001600160d01b038916021783556107ed565b6040805180820190915265ffffffffffff808a1682526001600160d01b03808a1660208085019182528d54600181018f555f8f81529190912094519151909216660100000000000002921691909117910155945085935061059f92505050565b50506040805180820190915265ffffffffffff80851682526001600160d01b0380851660208085019182528854600181018a555f8a815291822095519251909316660100000000000002919093161792019190915590508161059f565b5f65ffffffffffff821115610638576040516306dfcc6560e41b815260306004820152602481018390526044016102e5565b634e487b7160e01b5f52604160045260245ffd5b604051601f8201601f191681016001600160401b0381118282101715610b4457610b44610b08565b604052919050565b5f82601f830112610b5b575f5ffd5b81516001600160401b03811115610b7457610b74610b08565b610b87601f8201601f1916602001610b1c565b818152846020838601011115610b9b575f5ffd5b8160208501602083015e5f918101602001919091529392505050565b80516001600160601b0381168114610bcd575f5ffd5b919050565b5f6001600160401b03821115610bea57610bea610b08565b5060051b60200190565b5f82601f830112610c03575f5ffd5b8151610c16610c1182610bd2565b610b1c565b8082825260208201915060208360051b860101925085831115610c37575f5ffd5b602085015b83811015610c685780516001600160a01b0381168114610c5a575f5ffd5b835260209283019201610c3c565b5095945050505050565b5f82601f830112610c81575f5ffd5b8151610c8f610c1182610bd2565b8082825260208201915060208360051b860101925085831115610cb0575f5ffd5b602085015b83811015610c6857610cc681610bb7565b835260209283019201610cb5565b5f5f5f5f5f5f60c08789031215610ce9575f5ffd5b86516001600160401b03811115610cfe575f5ffd5b610d0a89828a01610b4c565b602089015190975090506001600160401b03811115610d27575f5ffd5b610d3389828a01610b4c565b955050610d4260408801610bb7565b60608801519094506001600160401b03811115610d5d575f5ffd5b610d6989828a01610bf4565b608089015190945090506001600160401b03811115610d86575f5ffd5b610d9289828a01610bf4565b60a089015190935090506001600160401b03811115610daf575f5ffd5b610dbb89828a01610c72565b9150509295509295509295565b600181811c90821680610ddc57607f821691505b602082108103610dfa57634e487b7160e01b5f52602260045260245ffd5b50919050565b601f82111561028057805f5260205f20601f840160051c81016020851015610e255750805b601f840160051c820191505b81811015610e44575f8155600101610e31565b5050505050565b81516001600160401b03811115610e6457610e64610b08565b610e7881610e728454610dc8565b84610e00565b6020601f821160018114610eaa575f8315610e935750848201515b5f19600385901b1c1916600184901b178455610e44565b5f84815260208120601f198516915b82811015610ed95787850151825560209485019460019092019101610eb9565b5084821015610ef657868401515f19600387901b60f8161c191681555b50505050600190811b01905550565b634e487b7160e01b5f52603260045260245ffd5b634e487b7160e01b5f52601160045260245ffd5b6001600160601b03818116838216019081111561020957610209610f19565b6001600160601b03828116828216039081111561020957610209610f19565b602081525f82518060208401528060208501604085015e5f604082850101526040601f19601f83011684010191505092915050565b80516020808301519190811015610dfa575f1960209190910360031b1b16919050565b6001600160d01b03828116828216039081111561020957610209610f19565b6001600160d01b03818116838216019081111561020957610209610f19565b8181038181111561020957610209610f19565b60805160a05160c05160e051610100516101205161014051610160516123156110765f395f81816116cd0152611b3001525f610a8b01525f610a5e01525f6113f301525f6113cb01525f61132601525f61135001525f61137a01526123155ff3fe608060405234801561000f575f5ffd5b5060043610610153575f3560e01c806370a08231116100bf5780639ab24eb0116100795780639ab24eb01461030f578063a22cb46514610322578063b88d4fde14610335578063c3cda52014610348578063c87b56dd1461035b578063e985e9c51461036e575f5ffd5b806370a082311461027f5780637ecebe001461029257806384b0196e146102ba5780638e539e8c146102d557806391ddadf4146102e857806395d89b4114610307575f5ffd5b806342842e0e1161011057806342842e0e146102085780634bf5d7e91461021b578063587cde1e146102235780635c19a95c1461024e5780635c975abb146102615780636352211e1461026c575f5ffd5b806301ffc9a71461015757806306fdde031461017f578063081812fc14610194578063095ea7b3146101bf57806323b872dd146101d45780633a46b1a8146101e7575b5f5ffd5b61016a610165366004611df3565b610381565b60405190151581526020015b60405180910390f35b6101876103d2565b6040516101769190611e3c565b6101a76101a2366004611e4e565b610461565b6040516001600160a01b039091168152602001610176565b6101d26101cd366004611e80565b610488565b005b6101d26101e2366004611ea8565b610497565b6101fa6101f5366004611e80565b610525565b604051908152602001610176565b6101d2610216366004611ea8565b61055f565b61018761057e565b6101a7610231366004611ee2565b6001600160a01b039081165f908152600c60205260409020541690565b6101d261025c366004611ee2565b6105f6565b60085460ff1661016a565b6101a761027a366004611e4e565b610601565b6101fa61028d366004611ee2565b61060b565b6101fa6102a0366004611ee2565b6001600160a01b03165f908152600b602052604090205490565b6102c2610650565b6040516101769796959493929190611efb565b6101fa6102e3366004611e4e565b610692565b6102f06106b6565b60405165ffffffffffff9091168152602001610176565b6101876106c4565b6101fa61031d366004611ee2565b6106d3565b6101d2610330366004611f91565b6106f3565b6101d2610343366004611fde565b6106fe565b6101d26103563660046120bb565b610716565b610187610369366004611e4e565b6107d2565b61016a61037c366004612116565b610843565b5f6001600160e01b031982166380ac58cd60e01b14806103b157506001600160e01b03198216635b5e139f60e01b145b806103cc57506301ffc9a760e01b6001600160e01b03198316145b92915050565b60605f80546103e090612147565b80601f016020809104026020016040519081016040528092919081815260200182805461040c90612147565b80156104575780601f1061042e57610100808354040283529160200191610457565b820191905f5260205f20905b81548152906001019060200180831161043a57829003601f168201915b5050505050905090565b5f61046b82610886565b505f828152600460205260409020546001600160a01b03166103cc565b6104938282336108bd565b5050565b6001600160a01b0382166104c557604051633250574960e11b81525f60048201526024015b60405180910390fd5b5f6104d18383336108ca565b9050836001600160a01b0316816001600160a01b03161461051f576040516364283d7b60e01b81526001600160a01b03808616600483015260248201849052821660448201526064016104bc565b50505050565b5f61054f610532836108de565b6001600160a01b0385165f908152600d602052604090209061092c565b6001600160d01b03169392505050565b61057983838360405180602001604052805f8152506106fe565b505050565b60606105886109dc565b65ffffffffffff166105986106b6565b65ffffffffffff16146105be576040516301bfc1c560e61b815260040160405180910390fd5b5060408051808201909152601d81527f6d6f64653d626c6f636b6e756d6265722666726f6d3d64656661756c74000000602082015290565b3361049381836109e6565b5f6103cc82610886565b5f6001600160a01b038216610635576040516322718ad960e21b81525f60048201526024016104bc565b506001600160a01b03165f9081526003602052604090205490565b5f6060805f5f5f6060610661610a57565b610669610a84565b604080515f80825260208201909252600f60f81b9b939a50919850469750309650945092509050565b5f6106a761069f836108de565b600e9061092c565b6001600160d01b031692915050565b5f6106bf6109dc565b905090565b6060600180546103e090612147565b6001600160a01b0381165f908152600d602052604081206106a790610ab1565b610493338383610ae8565b610709848484610497565b61051f3385858585610b86565b8342111561073a57604051632341d78760e11b8152600481018590526024016104bc565b604080517fe48329057bfd03d55e49b547132e39cffd9c1820ad7b9d4c5307691425d15adf60208201526001600160a01b0388169181019190915260608101869052608081018590525f906107b3906107ab9060a00160405160208183030381529060405280519060200120610cae565b858585610cda565b90506107bf8187610d06565b6107c981886109e6565b50505050505050565b60606107dd82610886565b505f6107f360408051602081019091525f815290565b90505f8151116108115760405180602001604052805f81525061083c565b8061081b84610d58565b60405160200161082c929190612196565b6040516020818303038152906040525b9392505050565b6001600160a01b039182165f90815260056020908152604080832093909416825291909152205460ff1690565b5f61083c82846121be565b5f61083c82846121dd565b5f5f61089183610de8565b90506001600160a01b0381166103cc57604051637e27328960e01b8152600481018490526024016104bc565b6105798383836001610df2565b5f6108d6848484610ef6565b949350505050565b5f5f6108e86106b6565b90508065ffffffffffff16831061092357604051637669fc0f60e11b81526004810184905265ffffffffffff821660248201526044016104bc565b61083c83610f11565b81545f9081816005811115610988575f61094584610f47565b61094f90856121fc565b5f8881526020902090915081015465ffffffffffff908116908716101561097857809150610986565b61098381600161220f565b92505b505b5f6109958787858561109f565b905080156109cf576109b9876109ac6001846121fc565b5f91825260209091200190565b54600160301b90046001600160d01b03166109d1565b5f5b979650505050505050565b5f6106bf43610f11565b6001600160a01b038281165f818152600c602052604080822080548686166001600160a01b0319821681179092559151919094169392849290917f3134e8a2e6d97e929a7e54011ea5485d7d196dd5f0ba4d4ef95803e8e3fc257f9190a46105798183610a52866110fe565b611108565b60606106bf7f00000000000000000000000000000000000000000000000000000000000000006009611271565b60606106bf7f0000000000000000000000000000000000000000000000000000000000000000600a611271565b80545f908015610ae057610aca836109ac6001846121fc565b54600160301b90046001600160d01b031661083c565b5f9392505050565b6001600160a01b038216610b1a57604051630b61174360e31b81526001600160a01b03831660048201526024016104bc565b6001600160a01b038381165f81815260056020908152604080832094871680845294825291829020805460ff191686151590811790915591519182527f17307eab39ab6107e8899845ad3d59bd9653f200f220920489ca2b5937696c31910160405180910390a3505050565b6001600160a01b0383163b15610ca757604051630a85bd0160e11b81526001600160a01b0384169063150b7a0290610bc8908890889087908790600401612222565b6020604051808303815f875af1925050508015610c02575060408051601f3d908101601f19168201909252610bff9181019061225e565b60015b610c69573d808015610c2f576040519150601f19603f3d011682016040523d82523d5f602084013e610c34565b606091505b5080515f03610c6157604051633250574960e11b81526001600160a01b03851660048201526024016104bc565b805160208201fd5b6001600160e01b03198116630a85bd0160e11b14610ca557604051633250574960e11b81526001600160a01b03851660048201526024016104bc565b505b5050505050565b5f6103cc610cba61131a565b8360405161190160f01b8152600281019290925260228201526042902090565b5f5f5f5f610cea88888888611443565b925092509250610cfa828261150b565b50909695505050505050565b6001600160a01b0382165f908152600b60205260409020805460018101909155818114610579576040516301d4b62360e61b81526001600160a01b0384166004820152602481018290526044016104bc565b60605f610d64836115c3565b60010190505f8167ffffffffffffffff811115610d8357610d83611fca565b6040519080825280601f01601f191660200182016040528015610dad576020820181803683370190505b5090508181016020015b5f19016f181899199a1a9b1b9c1cb0b131b232b360811b600a86061a8153600a8504945084610db757509392505050565b5f6103cc8261169a565b8080610e0657506001600160a01b03821615155b15610ec7575f610e1584610886565b90506001600160a01b03831615801590610e415750826001600160a01b0316816001600160a01b031614155b8015610e545750610e528184610843565b155b15610e7d5760405163a9fbf51f60e01b81526001600160a01b03841660048201526024016104bc565b8115610ec55783856001600160a01b0316826001600160a01b03167f8c5be1e5ebec7d5bd14f71427d1e84f3dd0314c0f7b2291e5b200ac8c7c3b92560405160405180910390a45b505b50505f90815260046020526040902080546001600160a01b0319166001600160a01b0392909216919091179055565b5f5f610f03858585611732565b90506108d681866001611746565b5f65ffffffffffff821115610f43576040516306dfcc6560e41b815260306004820152602481018390526044016104bc565b5090565b5f60018211610f54575090565b816001600160801b8210610f6d5760809190911c9060401b5b680100000000000000008210610f885760409190911c9060201b5b6401000000008210610f9f5760209190911c9060101b5b620100008210610fb45760109190911c9060081b5b6101008210610fc85760089190911c9060041b5b60108210610fdb5760049190911c9060021b5b60048210610fe75760011b5b600302600190811c90818581610fff57610fff612279565b048201901c9050600181858161101757611017612279565b048201901c9050600181858161102f5761102f612279565b048201901c9050600181858161104757611047612279565b048201901c9050600181858161105f5761105f612279565b048201901c9050600181858161107757611077612279565b048201901c905061109681858161109057611090612279565b04821190565b90039392505050565b5f5b818310156110f6575f6110b484846117bb565b5f8781526020902090915065ffffffffffff86169082015465ffffffffffff1611156110e2578092506110f0565b6110ed81600161220f565b93505b506110a1565b509392505050565b5f6103cc8261060b565b816001600160a01b0316836001600160a01b03161415801561112957505f81115b15610579576001600160a01b038316156111d0576001600160a01b0383165f908152600d60205260408120819061116b90610870611166866117d5565b611808565b6001600160d01b031691506001600160d01b03169150846001600160a01b03167fdec2bacdd2f05b59de34da9b523dff8be42e5e38e818c82fdb0bae774387a72483836040516111c5929190918252602082015260400190565b60405180910390a250505b6001600160a01b03821615610579576001600160a01b0382165f908152600d6020526040812081906112089061087b611166866117d5565b6001600160d01b031691506001600160d01b03169150836001600160a01b03167fdec2bacdd2f05b59de34da9b523dff8be42e5e38e818c82fdb0bae774387a7248383604051611262929190918252602082015260400190565b60405180910390a25050505050565b606060ff831461128b5761128483611840565b90506103cc565b81805461129790612147565b80601f01602080910402602001604051908101604052809291908181526020018280546112c390612147565b801561130e5780601f106112e55761010080835404028352916020019161130e565b820191905f5260205f20905b8154815290600101906020018083116112f157829003601f168201915b505050505090506103cc565b5f306001600160a01b037f00000000000000000000000000000000000000000000000000000000000000001614801561137257507f000000000000000000000000000000000000000000000000000000000000000046145b1561139c57507f000000000000000000000000000000000000000000000000000000000000000090565b6106bf604080517f8b73c3c69bb8fe3d512ecc4cf759cc79239f7b179b0ffacaa9a75d522b39400f60208201527f0000000000000000000000000000000000000000000000000000000000000000918101919091527f000000000000000000000000000000000000000000000000000000000000000060608201524660808201523060a08201525f9060c00160405160208183030381529060405280519060200120905090565b5f80807f7fffffffffffffffffffffffffffffff5d576e7357a4501ddfe92f46681b20a084111561147c57505f91506003905082611501565b604080515f808252602082018084528a905260ff891692820192909252606081018790526080810186905260019060a0016020604051602081039080840390855afa1580156114cd573d5f5f3e3d5ffd5b5050604051601f1901519150506001600160a01b0381166114f857505f925060019150829050611501565b92505f91508190505b9450945094915050565b5f82600381111561151e5761151e61228d565b03611527575050565b600182600381111561153b5761153b61228d565b036115595760405163f645eedf60e01b815260040160405180910390fd5b600282600381111561156d5761156d61228d565b0361158e5760405163fce698f760e01b8152600481018290526024016104bc565b60038260038111156115a2576115a261228d565b03610493576040516335e2f38360e21b8152600481018290526024016104bc565b5f8072184f03e93ff9f4daa797ed6e38ed64bf6a1f0160401b83106116015772184f03e93ff9f4daa797ed6e38ed64bf6a1f0160401b830492506040015b6d04ee2d6d415b85acef8100000000831061162d576d04ee2d6d415b85acef8100000000830492506020015b662386f26fc10000831061164b57662386f26fc10000830492506010015b6305f5e1008310611663576305f5e100830492506008015b612710831061167757612710830492506004015b60648310611689576064830492506002015b600a83106103cc5760010192915050565b5f818152600260205260408120546001600160a01b0316801515806116c557506001600160601b0383115b806116f857507f00000000000000000000000000000000000000000000000000000000000000006001600160601b031683105b156117035792915050565b600883901c5f90815260076020526040902054600160ff85161b16610ae05761172d60068461187d565b61083c565b5f61173b6118c2565b6108d68484846118e8565b6001600160a01b03831661176857611765600e61087b611166846117d5565b50505b6001600160a01b03821661178a57611787600e610870611166846117d5565b50505b6001600160a01b038381165f908152600c602052604080822054858416835291205461057992918216911683611108565b5f6117c960028484186122a1565b61083c9084841661220f565b5f6001600160d01b03821115610f43576040516306dfcc6560e41b815260d06004820152602481018390526044016104bc565b5f5f6118336118156106b6565b61182b61182188610ab1565b868863ffffffff16565b87919061199d565b915091505b935093915050565b60605f61184c836119aa565b6040805160208082528183019092529192505f91906020820181803683375050509182525060208101929092525090565b81545f908161188e858583856119d1565b90508181146118b7575f85815260209020810154600160601b90046001600160a01b03166118b9565b5f5b95945050505050565b60085460ff16156118e65760405163d93c066560e01b815260040160405180910390fd5b565b5f5f6118f5858585611a2a565b90506001600160a01b03811615801561190d5750303b155b1561192b576040516356c4a82960e11b815260040160405180910390fd5b6001600160a01b0385161580156119515750611945611b17565b6001600160601b031684105b80156119755750600884901c5f90815260076020526040902054600160ff86161b16155b156108d657600884901c5f9081526007602052604090208054600160ff87161b1790556108d6565b5f80611833858585611b66565b5f60ff8216601f8111156103cc57604051632cd44ac360e21b815260040160405180910390fd5b5f5b818310156110f6575f6119e684846117bb565b5f878152602090209091506001600160601b038616908201546001600160601b03161015611a2057611a1981600161220f565b9350611a24565b8092505b506119d3565b5f5f611a3584610de8565b90506001600160a01b03831615611a5157611a51818486611cb6565b6001600160a01b03811615611a8b57611a6c5f855f5f610df2565b6001600160a01b0381165f90815260036020526040902080545f190190555b6001600160a01b03851615611ab9576001600160a01b0385165f908152600360205260409020805460010190555b5f8481526002602052604080822080546001600160a01b0319166001600160a01b0389811691821790925591518793918516917fddf252ad1be2c89b69c2b068fc378daa952ba7f163c4a11628f55a4df523b3ef91a4949350505050565b5f5f5f611b246006611d1a565b509150915081611b54577f0000000000000000000000000000000000000000000000000000000000000000611b5f565b611b5f8160016122c0565b9250505090565b82545f9081908015611c5c575f611b82876109ac6001856121fc565b805490915065ffffffffffff80821691600160301b90046001600160d01b0316908816821115611bc557604051632520601d60e01b815260040160405180910390fd5b8765ffffffffffff168265ffffffffffff1603611bfe57825465ffffffffffff16600160301b6001600160d01b03891602178355611c4e565b6040805180820190915265ffffffffffff808a1682526001600160d01b03808a1660208085019182528d54600181018f555f8f81529190912094519151909216600160301b029216919091179101555b945085935061183892505050565b50506040805180820190915265ffffffffffff80851682526001600160d01b0380851660208085019182528854600181018a555f8a815291822095519251909316600160301b029190931617920191909155905081611838565b611cc1838383611d7a565b610579576001600160a01b038316611cef57604051637e27328960e01b8152600481018290526024016104bc565b60405163177e802f60e01b81526001600160a01b0383166004820152602481018290526044016104bc565b80545f9081908190808203611d38575f5f5f93509350935050611d73565b5f611d48866109ac6001856121fc565b54600195506001600160601b0381169450600160601b90046001600160a01b03169250611d73915050565b9193909250565b5f6001600160a01b038316158015906108d65750826001600160a01b0316846001600160a01b03161480611db35750611db38484610843565b806108d65750505f908152600460205260409020546001600160a01b03908116911614919050565b6001600160e01b031981168114611df0575f5ffd5b50565b5f60208284031215611e03575f5ffd5b813561083c81611ddb565b5f81518084528060208401602086015e5f602082860101526020601f19601f83011685010191505092915050565b602081525f61083c6020830184611e0e565b5f60208284031215611e5e575f5ffd5b5035919050565b80356001600160a01b0381168114611e7b575f5ffd5b919050565b5f5f60408385031215611e91575f5ffd5b611e9a83611e65565b946020939093013593505050565b5f5f5f60608486031215611eba575f5ffd5b611ec384611e65565b9250611ed160208501611e65565b929592945050506040919091013590565b5f60208284031215611ef2575f5ffd5b61083c82611e65565b60ff60f81b8816815260e060208201525f611f1960e0830189611e0e565b8281036040840152611f2b8189611e0e565b606084018890526001600160a01b038716608085015260a0840186905283810360c0850152845180825260208087019350909101905f5b81811015611f80578351835260209384019390920191600101611f62565b50909b9a5050505050505050505050565b5f5f60408385031215611fa2575f5ffd5b611fab83611e65565b915060208301358015158114611fbf575f5ffd5b809150509250929050565b634e487b7160e01b5f52604160045260245ffd5b5f5f5f5f60808587031215611ff1575f5ffd5b611ffa85611e65565b935061200860208601611e65565b925060408501359150606085013567ffffffffffffffff81111561202a575f5ffd5b8501601f8101871361203a575f5ffd5b803567ffffffffffffffff81111561205457612054611fca565b604051601f8201601f19908116603f0116810167ffffffffffffffff8111828210171561208357612083611fca565b60405281815282820160200189101561209a575f5ffd5b816020840160208301375f6020838301015280935050505092959194509250565b5f5f5f5f5f5f60c087890312156120d0575f5ffd5b6120d987611e65565b95506020870135945060408701359350606087013560ff811681146120fc575f5ffd5b9598949750929560808101359460a0909101359350915050565b5f5f60408385031215612127575f5ffd5b61213083611e65565b915061213e60208401611e65565b90509250929050565b600181811c9082168061215b57607f821691505b60208210810361217957634e487b7160e01b5f52602260045260245ffd5b50919050565b5f81518060208401855e5f93019283525090919050565b5f6108d66121a4838661217f565b8461217f565b634e487b7160e01b5f52601160045260245ffd5b6001600160d01b0382811682821603908111156103cc576103cc6121aa565b6001600160d01b0381811683821601908111156103cc576103cc6121aa565b818103818111156103cc576103cc6121aa565b808201808211156103cc576103cc6121aa565b6001600160a01b03858116825284166020820152604081018390526080606082018190525f9061225490830184611e0e565b9695505050505050565b5f6020828403121561226e575f5ffd5b815161083c81611ddb565b634e487b7160e01b5f52601260045260245ffd5b634e487b7160e01b5f52602160045260245ffd5b5f826122bb57634e487b7160e01b5f52601260045260245ffd5b500490565b6001600160601b0381811683821601908111156103cc576103cc6121aa56fea2646970667358221220d3884f049aaf93968f2f78f5767c9bbfde1efaf26bc7d85d933da7c1320032a964736f6c634300081b0033dec2bacdd2f05b59de34da9b523dff8be42e5e38e818c82fdb0bae774387a724","linkReferences":{}},"methodIdentifiers":{"CLOCK_MODE()":"4bf5d7e9","approve(address,uint256)":"095ea7b3","balanceOf(address)":"70a08231","clock()":"91ddadf4","delegate(address)":"5c19a95c","delegateBySig(address,uint256,uint256,uint8,bytes32,bytes32)":"c3cda520","delegates(address)":"587cde1e","eip712Domain()":"84b0196e","getApproved(uint256)":"081812fc","getPastTotalSupply(uint256)":"8e539e8c","getPastVotes(address,uint256)":"3a46b1a8","getVotes(address)":"9ab24eb0","isApprovedForAll(address,address)":"e985e9c5","name()":"06fdde03","nonces(address)":"7ecebe00","ownerOf(uint256)":"6352211e","paused()":"5c975abb","safeTransferFrom(address,address,uint256)":"42842e0e","safeTransferFrom(address,address,uint256,bytes)":"b88d4fde","setApprovalForAll(address,bool)":"a22cb465","supportsInterface(bytes4)":"01ffc9a7","symbol()":"95d89b41","tokenURI(uint256)":"c87b56dd","transferFrom(address,address,uint256)":"23b872dd"},"id":196}