{"abi":[{"type":"function","name":"bar","inputs":[],"outputs":[],"stateMutability":"nonpayable"},{"type":"function","name":"foo","inputs":[],"outputs":[],"stateMutability":"nonpayable"},{"type":"function","name":"multicall","inputs":[{"name":"data","type":"bytes[]","internalType":"bytes[]"}],"outputs":[{"name":"results","type":"bytes[]","internalType":"bytes[]"}],"stateMutability":"nonpayable"},{"type":"error","name":"AddressEmptyCode","inputs":[{"name":"target","type":"address","internalType":"address"}]},{"type":"error","name":"FailedCall","inputs":[]}],"bytecode":{"object":"0x6080604052348015600e575f5ffd5b5061042f8061001c5f395ff3fe608060405234801561000f575f5ffd5b506004361061003f575f3560e01c8063ac9650d814610043578063c29855781461006c578063febb0f7e1461006c575b5f5ffd5b610056610051366004610251565b61006e565b60405161006391906102c2565b60405180910390f35b005b604080515f8152602081019091526060908267ffffffffffffffff81111561009857610098610346565b6040519080825280602002602001820160405280156100cb57816020015b60608152602001906001900390816100b65790505b5091505f5b8381101561014c57610127308686848181106100ee576100ee61035a565b9050602002810190610100919061036e565b85604051602001610113939291906103cf565b604051602081830303815290604052610154565b8382815181106101395761013961035a565b60209081029190910101526001016100d0565b505092915050565b60605f5f846001600160a01b03168460405161017091906103ee565b5f60405180830381855af49150503d805f81146101a8576040519150601f19603f3d011682016040523d82523d5f602084013e6101ad565b606091505b50915091506101bd8583836101c6565b95945050505050565b6060826101db576101d682610229565b610222565b81511580156101f257506001600160a01b0384163b155b1561021f57604051639996b31560e01b81526001600160a01b038516600482015260240160405180910390fd5b50805b9392505050565b80511561023857805160208201fd5b60405163d6bda27560e01b815260040160405180910390fd5b5f5f60208385031215610262575f5ffd5b823567ffffffffffffffff811115610278575f5ffd5b8301601f81018513610288575f5ffd5b803567ffffffffffffffff81111561029e575f5ffd5b8560208260051b84010111156102b2575f5ffd5b6020919091019590945092505050565b5f602082016020835280845180835260408501915060408160051b8601019250602086015f5b8281101561033a57603f19878603018452815180518087528060208301602089015e5f602082890101526020601f19601f830116880101965050506020820191506020840193506001810190506102e8565b50929695505050505050565b634e487b7160e01b5f52604160045260245ffd5b634e487b7160e01b5f52603260045260245ffd5b5f5f8335601e19843603018112610383575f5ffd5b83018035915067ffffffffffffffff82111561039d575f5ffd5b6020019150368190038213156103b1575f5ffd5b9250929050565b5f81518060208401855e5f93019283525090919050565b828482375f8382015f81526103e481856103b8565b9695505050505050565b5f61022282846103b856fea2646970667358221220e3ca9f95698d90010a98a360a1e828bc4a6673fc73b4952e0919b8b106e596cc64736f6c634300081b0033","linkReferences":{}},"methodIdentifiers":{"bar()":"febb0f7e","foo()":"c2985578","multicall(bytes[])":"ac9650d8"},"id":151}