{"abi":[{"type":"constructor","inputs":[],"stateMutability":"nonpayable"},{"type":"function","name":"BURNER_ROLE","inputs":[],"outputs":[{"name":"","type":"bytes32","internalType":"bytes32"}],"stateMutability":"view"},{"type":"function","name":"DEFAULT_ADMIN_ROLE","inputs":[],"outputs":[{"name":"","type":"bytes32","internalType":"bytes32"}],"stateMutability":"view"},{"type":"function","name":"MINTER_ROLE","inputs":[],"outputs":[{"name":"","type":"bytes32","internalType":"bytes32"}],"stateMutability":"view"},{"type":"function","name":"allowance","inputs":[{"name":"owner","type":"address","internalType":"address"},{"name":"spender","type":"address","internalType":"address"}],"outputs":[{"name":"","type":"uint256","internalType":"uint256"}],"stateMutability":"view"},{"type":"function","name":"approve","inputs":[{"name":"spender","type":"address","internalType":"address"},{"name":"value","type":"uint256","internalType":"uint256"}],"outputs":[{"name":"","type":"bool","internalType":"bool"}],"stateMutability":"nonpayable"},{"type":"function","name":"balanceOf","inputs":[{"name":"account","type":"address","internalType":"address"}],"outputs":[{"name":"","type":"uint256","internalType":"uint256"}],"stateMutability":"view"},{"type":"function","name":"burn","inputs":[{"name":"from","type":"address","internalType":"address"},{"name":"amount","type":"uint256","internalType":"uint256"}],"outputs":[],"stateMutability":"nonpayable"},{"type":"function","name":"decimals","inputs":[],"outputs":[{"name":"","type":"uint8","internalType":"uint8"}],"stateMutability":"view"},{"type":"function","name":"getRoleAdmin","inputs":[{"name":"role","type":"bytes32","internalType":"bytes32"}],"outputs":[{"name":"","type":"bytes32","internalType":"bytes32"}],"stateMutability":"view"},{"type":"function","name":"grantRole","inputs":[{"name":"role","type":"bytes32","internalType":"bytes32"},{"name":"account","type":"address","internalType":"address"}],"outputs":[],"stateMutability":"nonpayable"},{"type":"function","name":"hasRole","inputs":[{"name":"role","type":"bytes32","internalType":"bytes32"},{"name":"account","type":"address","internalType":"address"}],"outputs":[{"name":"","type":"bool","internalType":"bool"}],"stateMutability":"view"},{"type":"function","name":"mint","inputs":[{"name":"to","type":"address","internalType":"address"},{"name":"amount","type":"uint256","internalType":"uint256"}],"outputs":[],"stateMutability":"nonpayable"},{"type":"function","name":"name","inputs":[],"outputs":[{"name":"","type":"string","internalType":"string"}],"stateMutability":"view"},{"type":"function","name":"renounceRole","inputs":[{"name":"role","type":"bytes32","internalType":"bytes32"},{"name":"callerConfirmation","type":"address","internalType":"address"}],"outputs":[],"stateMutability":"nonpayable"},{"type":"function","name":"revokeRole","inputs":[{"name":"role","type":"bytes32","internalType":"bytes32"},{"name":"account","type":"address","internalType":"address"}],"outputs":[],"stateMutability":"nonpayable"},{"type":"function","name":"supportsInterface","inputs":[{"name":"interfaceId","type":"bytes4","internalType":"bytes4"}],"outputs":[{"name":"","type":"bool","internalType":"bool"}],"stateMutability":"view"},{"type":"function","name":"symbol","inputs":[],"outputs":[{"name":"","type":"string","internalType":"string"}],"stateMutability":"view"},{"type":"function","name":"totalSupply","inputs":[],"outputs":[{"name":"","type":"uint256","internalType":"uint256"}],"stateMutability":"view"},{"type":"function","name":"transfer","inputs":[{"name":"to","type":"address","internalType":"address"},{"name":"value","type":"uint256","internalType":"uint256"}],"outputs":[{"name":"","type":"bool","internalType":"bool"}],"stateMutability":"nonpayable"},{"type":"function","name":"transferFrom","inputs":[{"name":"from","type":"address","internalType":"address"},{"name":"to","type":"address","internalType":"address"},{"name":"value","type":"uint256","internalType":"uint256"}],"outputs":[{"name":"","type":"bool","internalType":"bool"}],"stateMutability":"nonpayable"},{"type":"event","name":"Approval","inputs":[{"name":"owner","type":"address","indexed":true,"internalType":"address"},{"name":"spender","type":"address","indexed":true,"internalType":"address"},{"name":"value","type":"uint256","indexed":false,"internalType":"uint256"}],"anonymous":false},{"type":"event","name":"RoleAdminChanged","inputs":[{"name":"role","type":"bytes32","indexed":true,"internalType":"bytes32"},{"name":"previousAdminRole","type":"bytes32","indexed":true,"internalType":"bytes32"},{"name":"newAdminRole","type":"bytes32","indexed":true,"internalType":"bytes32"}],"anonymous":false},{"type":"event","name":"RoleGranted","inputs":[{"name":"role","type":"bytes32","indexed":true,"internalType":"bytes32"},{"name":"account","type":"address","indexed":true,"internalType":"address"},{"name":"sender","type":"address","indexed":true,"internalType":"address"}],"anonymous":false},{"type":"event","name":"RoleRevoked","inputs":[{"name":"role","type":"bytes32","indexed":true,"internalType":"bytes32"},{"name":"account","type":"address","indexed":true,"internalType":"address"},{"name":"sender","type":"address","indexed":true,"internalType":"address"}],"anonymous":false},{"type":"event","name":"Transfer","inputs":[{"name":"from","type":"address","indexed":true,"internalType":"address"},{"name":"to","type":"address","indexed":true,"internalType":"address"},{"name":"value","type":"uint256","indexed":false,"internalType":"uint256"}],"anonymous":false},{"type":"error","name":"AccessControlBadConfirmation","inputs":[]},{"type":"error","name":"AccessControlUnauthorizedAccount","inputs":[{"name":"account","type":"address","internalType":"address"},{"name":"neededRole","type":"bytes32","internalType":"bytes32"}]},{"type":"error","name":"ERC20InsufficientAllowance","inputs":[{"name":"spender","type":"address","internalType":"address"},{"name":"allowance","type":"uint256","internalType":"uint256"},{"name":"needed","type":"uint256","internalType":"uint256"}]},{"type":"error","name":"ERC20InsufficientBalance","inputs":[{"name":"sender","type":"address","internalType":"address"},{"name":"balance","type":"uint256","internalType":"uint256"},{"name":"needed","type":"uint256","internalType":"uint256"}]},{"type":"error","name":"ERC20InvalidApprover","inputs":[{"name":"approver","type":"address","internalType":"address"}]},{"type":"error","name":"ERC20InvalidReceiver","inputs":[{"name":"receiver","type":"address","internalType":"address"}]},{"type":"error","name":"ERC20InvalidSender","inputs":[{"name":"sender","type":"address","internalType":"address"}]},{"type":"error","name":"ERC20InvalidSpender","inputs":[{"name":"spender","type":"address","internalType":"address"}]}],"bytecode":{"object":"0x608060405234801561000f575f5ffd5b506040518060400160405280600781526020016626bcaa37b5b2b760c91b815250604051806040016040528060038152602001622a25a760e91b815250816003908161005b91906101c2565b50600461006882826101c2565b5061007791505f90503361007d565b5061027c565b5f8281526005602090815260408083206001600160a01b038516845290915281205460ff16610121575f8381526005602090815260408083206001600160a01b03861684529091529020805460ff191660011790556100d93390565b6001600160a01b0316826001600160a01b0316847f2f8788117e7eff1d82e926ec794901d17c78024a50270940304540a733656f0d60405160405180910390a4506001610124565b505f5b92915050565b634e487b7160e01b5f52604160045260245ffd5b600181811c9082168061015257607f821691505b60208210810361017057634e487b7160e01b5f52602260045260245ffd5b50919050565b601f8211156101bd57805f5260205f20601f840160051c8101602085101561019b5750805b601f840160051c820191505b818110156101ba575f81556001016101a7565b50505b505050565b81516001600160401b038111156101db576101db61012a565b6101ef816101e9845461013e565b84610176565b6020601f821160018114610221575f831561020a5750848201515b5f19600385901b1c1916600184901b1784556101ba565b5f84815260208120601f198516915b828110156102505787850151825560209485019460019092019101610230565b508482101561026d57868401515f19600387901b60f8161c191681555b50505050600190811b01905550565b610bc3806102895f395ff3fe608060405234801561000f575f5ffd5b5060043610610127575f3560e01c806340c10f19116100a9578063a217fddf1161006e578063a217fddf14610289578063a9059cbb14610290578063d5391393146102a3578063d547741f146102ca578063dd62ed3e146102dd575f5ffd5b806340c10f191461022057806370a082311461023357806391d148541461025b57806395d89b411461026e5780639dc29fac14610276575f5ffd5b8063248a9ca3116100ef578063248a9ca3146101a0578063282c51f3146101c25780632f2ff15d146101e9578063313ce567146101fe57806336568abe1461020d575f5ffd5b806301ffc9a71461012b57806306fdde0314610153578063095ea7b31461016857806318160ddd1461017b57806323b872dd1461018d575b5f5ffd5b61013e6101393660046109d4565b610315565b60405190151581526020015b60405180910390f35b61015b61034b565b60405161014a9190610a02565b61013e610176366004610a52565b6103db565b6002545b60405190815260200161014a565b61013e61019b366004610a7a565b6103f2565b61017f6101ae366004610ab4565b5f9081526005602052604090206001015490565b61017f7f3c11d16cbaffd01df69ce1c404f6340ee057498f5f00246190ea54220576a84881565b6101fc6101f7366004610acb565b610415565b005b6040516012815260200161014a565b6101fc61021b366004610acb565b61043f565b6101fc61022e366004610a52565b610477565b61017f610241366004610af5565b6001600160a01b03165f9081526020819052604090205490565b61013e610269366004610acb565b6104ab565b61015b6104d5565b6101fc610284366004610a52565b6104e4565b61017f5f81565b61013e61029e366004610a52565b610518565b61017f7f9f2df0fed2c77648de5860a4cc508cd0818c85b8b8a1ab4ceeef8d981c8956a681565b6101fc6102d8366004610acb565b610525565b61017f6102eb366004610b0e565b6001600160a01b039182165f90815260016020908152604080832093909416825291909152205490565b5f6001600160e01b03198216637965db0b60e01b148061034557506301ffc9a760e01b6001600160e01b03198316145b92915050565b60606003805461035a90610b36565b80601f016020809104026020016040519081016040528092919081815260200182805461038690610b36565b80156103d15780601f106103a8576101008083540402835291602001916103d1565b820191905f5260205f20905b8154815290600101906020018083116103b457829003601f168201915b5050505050905090565b5f336103e8818585610549565b5060019392505050565b5f336103ff858285610556565b61040a8585856105d1565b506001949350505050565b5f8281526005602052604090206001015461042f8161062e565b610439838361063b565b50505050565b6001600160a01b03811633146104685760405163334bd91960e11b815260040160405180910390fd5b61047282826106cc565b505050565b7f9f2df0fed2c77648de5860a4cc508cd0818c85b8b8a1ab4ceeef8d981c8956a66104a18161062e565b6104728383610737565b5f9182526005602090815260408084206001600160a01b0393909316845291905290205460ff1690565b60606004805461035a90610b36565b7f3c11d16cbaffd01df69ce1c404f6340ee057498f5f00246190ea54220576a84861050e8161062e565b610472838361076f565b5f336103e88185856105d1565b5f8281526005602052604090206001015461053f8161062e565b61043983836106cc565b61047283838360016107a3565b6001600160a01b038381165f908152600160209081526040808320938616835292905220545f1981101561043957818110156105c357604051637dc7a0d960e11b81526001600160a01b038416600482015260248101829052604481018390526064015b60405180910390fd5b61043984848484035f6107a3565b6001600160a01b0383166105fa57604051634b637e8f60e11b81525f60048201526024016105ba565b6001600160a01b0382166106235760405163ec442f0560e01b81525f60048201526024016105ba565b610472838383610875565b610638813361099b565b50565b5f61064683836104ab565b6106c5575f8381526005602090815260408083206001600160a01b03861684529091529020805460ff1916600117905561067d3390565b6001600160a01b0316826001600160a01b0316847f2f8788117e7eff1d82e926ec794901d17c78024a50270940304540a733656f0d60405160405180910390a4506001610345565b505f610345565b5f6106d783836104ab565b156106c5575f8381526005602090815260408083206001600160a01b0386168085529252808320805460ff1916905551339286917ff6391f5c32d9c69d2a47ea670b442974b53935d1edc7fd64eb21e047a839171b9190a4506001610345565b6001600160a01b0382166107605760405163ec442f0560e01b81525f60048201526024016105ba565b61076b5f8383610875565b5050565b6001600160a01b03821661079857604051634b637e8f60e11b81525f60048201526024016105ba565b61076b825f83610875565b6001600160a01b0384166107cc5760405163e602df0560e01b81525f60048201526024016105ba565b6001600160a01b0383166107f557604051634a1406b160e11b81525f60048201526024016105ba565b6001600160a01b038085165f908152600160209081526040808320938716835292905220829055801561043957826001600160a01b0316846001600160a01b03167f8c5be1e5ebec7d5bd14f71427d1e84f3dd0314c0f7b2291e5b200ac8c7c3b9258460405161086791815260200190565b60405180910390a350505050565b6001600160a01b03831661089f578060025f8282546108949190610b6e565b9091555061090f9050565b6001600160a01b0383165f90815260208190526040902054818110156108f15760405163391434e360e21b81526001600160a01b038516600482015260248101829052604481018390526064016105ba565b6001600160a01b0384165f9081526020819052604090209082900390555b6001600160a01b03821661092b57600280548290039055610949565b6001600160a01b0382165f9081526020819052604090208054820190555b816001600160a01b0316836001600160a01b03167fddf252ad1be2c89b69c2b068fc378daa952ba7f163c4a11628f55a4df523b3ef8360405161098e91815260200190565b60405180910390a3505050565b6109a582826104ab565b61076b5760405163e2517d3f60e01b81526001600160a01b0382166004820152602481018390526044016105ba565b5f602082840312156109e4575f5ffd5b81356001600160e01b0319811681146109fb575f5ffd5b9392505050565b602081525f82518060208401528060208501604085015e5f604082850101526040601f19601f83011684010191505092915050565b80356001600160a01b0381168114610a4d575f5ffd5b919050565b5f5f60408385031215610a63575f5ffd5b610a6c83610a37565b946020939093013593505050565b5f5f5f60608486031215610a8c575f5ffd5b610a9584610a37565b9250610aa360208501610a37565b929592945050506040919091013590565b5f60208284031215610ac4575f5ffd5b5035919050565b5f5f60408385031215610adc575f5ffd5b82359150610aec60208401610a37565b90509250929050565b5f60208284031215610b05575f5ffd5b6109fb82610a37565b5f5f60408385031215610b1f575f5ffd5b610b2883610a37565b9150610aec60208401610a37565b600181811c90821680610b4a57607f821691505b602082108103610b6857634e487b7160e01b5f52602260045260245ffd5b50919050565b8082018082111561034557634e487b7160e01b5f52601160045260245ffdfea264697066735822122002a616e04680fe964172b5cf4ee991bdaa3f7837657902fafad298c6f1d2c13964736f6c634300081b0033","linkReferences":{}},"methodIdentifiers":{"BURNER_ROLE()":"282c51f3","DEFAULT_ADMIN_ROLE()":"a217fddf","MINTER_ROLE()":"d5391393","allowance(address,address)":"dd62ed3e","approve(address,uint256)":"095ea7b3","balanceOf(address)":"70a08231","burn(address,uint256)":"9dc29fac","decimals()":"313ce567","getRoleAdmin(bytes32)":"248a9ca3","grantRole(bytes32,address)":"2f2ff15d","hasRole(bytes32,address)":"91d14854","mint(address,uint256)":"40c10f19","name()":"06fdde03","renounceRole(bytes32,address)":"36568abe","revokeRole(bytes32,address)":"d547741f","supportsInterface(bytes4)":"01ffc9a7","symbol()":"95d89b41","totalSupply()":"18160ddd","transfer(address,uint256)":"a9059cbb","transferFrom(address,address,uint256)":"23b872dd"},"id":134}