{"abi":[{"type":"function","name":"delegatedFunction","inputs":[],"outputs":[{"name":"","type":"bool","internalType":"bool"}],"stateMutability":"pure"},{"type":"function","name":"upgradeToAndCall","inputs":[{"name":"","type":"address","internalType":"address"},{"name":"","type":"bytes","internalType":"bytes"}],"outputs":[],"stateMutability":"payable"},{"type":"event","name":"ClashingImplementationCall","inputs":[],"anonymous":false}],"bytecode":{"object":"0x6080604052348015600e575f5ffd5b5061014f8061001c5f395ff3fe608060405260043610610028575f3560e01c80634f1ef2861461002c578063abf8e0e714610041575b5f5ffd5b61003f61003a36600461008e565b610061565b005b34801561004c575f5ffd5b50604080516001815290519081900360200190f35b6040517f87f295955c288a63c1ec9524b11bb3e2b47480139ca4755c7d6e1dacaa8c4b1b905f90a1505050565b5f5f5f604084860312156100a0575f5ffd5b83356001600160a01b03811681146100b6575f5ffd5b9250602084013567ffffffffffffffff8111156100d1575f5ffd5b8401601f810186136100e1575f5ffd5b803567ffffffffffffffff8111156100f7575f5ffd5b866020828401011115610108575f5ffd5b93966020919091019550929350505056fea26469706673582212208fcdb3981ccfc4c92d5afa628f9c2b7d80c581b799f7beb2b375c303e035fe1664736f6c634300081b0033","linkReferences":{}},"methodIdentifiers":{"delegatedFunction()":"abf8e0e7","upgradeToAndCall(address,bytes)":"4f1ef286"},"id":168}