{"abi":[{"type":"function","name":"current","inputs":[],"outputs":[{"name":"","type":"uint256","internalType":"uint256"}],"stateMutability":"view"},{"type":"function","name":"increment","inputs":[],"outputs":[],"stateMutability":"nonpayable"}],"bytecode":{"object":"0x6080604052348015600e575f5ffd5b5060ba80601a5f395ff3fe6080604052348015600e575f5ffd5b50600436106030575f3560e01c80639fa6a6e3146034578063d09de08a146048575b5f5ffd5b5f5460405190815260200160405180910390f35b604e6050565b005b5f5f8154605b906061565b90915550565b5f60018201607d57634e487b7160e01b5f52601160045260245ffd5b506001019056fea2646970667358221220b016e6139c5f5df14a72e0cf8a46152cca2a0d9ba4b6ffc29b00df47ca595bf064736f6c634300081b0033","linkReferences":{}},"methodIdentifiers":{"current()":"9fa6a6e3","increment()":"d09de08a"},"id":169}