{"abi":[{"type":"function","name":"UPGRADE_INTERFACE_VERSION","inputs":[],"outputs":[{"name":"","type":"string","internalType":"string"}],"stateMutability":"view"},{"type":"function","name":"current","inputs":[],"outputs":[{"name":"","type":"uint256","internalType":"uint256"}],"stateMutability":"view"},{"type":"function","name":"increment","inputs":[],"outputs":[],"stateMutability":"nonpayable"},{"type":"function","name":"proxiableUUID","inputs":[],"outputs":[{"name":"","type":"bytes32","internalType":"bytes32"}],"stateMutability":"view"},{"type":"function","name":"upgradeToAndCall","inputs":[{"name":"newImplementation","type":"address","internalType":"address"},{"name":"data","type":"bytes","internalType":"bytes"}],"outputs":[],"stateMutability":"payable"},{"type":"event","name":"Upgraded","inputs":[{"name":"implementation","type":"address","indexed":true,"internalType":"address"}],"anonymous":false},{"type":"error","name":"AddressEmptyCode","inputs":[{"name":"target","type":"address","internalType":"address"}]},{"type":"error","name":"ERC1967InvalidImplementation","inputs":[{"name":"implementation","type":"address","internalType":"address"}]},{"type":"error","name":"ERC1967NonPayable","inputs":[]},{"type":"error","name":"FailedCall","inputs":[]},{"type":"error","name":"UUPSUnauthorizedCallContext","inputs":[]},{"type":"error","name":"UUPSUnsupportedProxiableUUID","inputs":[{"name":"slot","type":"bytes32","internalType":"bytes32"}]}],"bytecode":{"object":"0x60a0604052306080523480156012575f5ffd5b506080516106776100395f395f818161013c0152818161016501526102a801526106775ff3fe608060405260043610610049575f3560e01c80634f1ef2861461004d57806352d1902d146100625780639fa6a6e314610089578063ad3cb1cc1461009c578063d09de08a146100d9575b5f5ffd5b61006061005b3660046104ca565b6100ed565b005b34801561006d575f5ffd5b50610076610103565b6040519081526020015b60405180910390f35b348015610094575f5ffd5b505f54610076565b3480156100a7575f5ffd5b506100cc604051806040016040528060058152602001640352e302e360dc1b81525081565b604051610080919061059b565b3480156100e4575f5ffd5b5061006061011e565b6100f5610131565b6100ff82826101d7565b5050565b5f61010c61029d565b505f5160206106225f395f51905f5290565b5f5f815461012b906105d0565b90915550565b306001600160a01b037f00000000000000000000000000000000000000000000000000000000000000001614806101b757507f00000000000000000000000000000000000000000000000000000000000000006001600160a01b03166101ab5f5160206106225f395f51905f52546001600160a01b031690565b6001600160a01b031614155b156101d55760405163703e46dd60e11b815260040160405180910390fd5b565b816001600160a01b03166352d1902d6040518163ffffffff1660e01b8152600401602060405180830381865afa925050508015610231575060408051601f3d908101601f1916820190925261022e918101906105f4565b60015b61025e57604051634c9c8ce360e01b81526001600160a01b03831660048201526024015b60405180910390fd5b5f5160206106225f395f51905f52811461028e57604051632a87526960e21b815260048101829052602401610255565b61029883836102e6565b505050565b306001600160a01b037f000000000000000000000000000000000000000000000000000000000000000016146101d55760405163703e46dd60e11b815260040160405180910390fd5b6102ef8261033b565b6040516001600160a01b038316907fbc7cd75a20ee27fd9adebab32041f755214dbc6bffa90cc0225b39da2e5c2d3b905f90a280511561033357610298828261039e565b6100ff610410565b806001600160a01b03163b5f0361037057604051634c9c8ce360e01b81526001600160a01b0382166004820152602401610255565b5f5160206106225f395f51905f5280546001600160a01b0319166001600160a01b0392909216919091179055565b60605f5f846001600160a01b0316846040516103ba919061060b565b5f60405180830381855af49150503d805f81146103f2576040519150601f19603f3d011682016040523d82523d5f602084013e6103f7565b606091505b509150915061040785838361042f565b95945050505050565b34156101d55760405163b398979f60e01b815260040160405180910390fd5b6060826104445761043f8261048e565b610487565b815115801561045b57506001600160a01b0384163b155b1561048457604051639996b31560e01b81526001600160a01b0385166004820152602401610255565b50805b9392505050565b80511561049d57805160208201fd5b60405163d6bda27560e01b815260040160405180910390fd5b634e487b7160e01b5f52604160045260245ffd5b5f5f604083850312156104db575f5ffd5b82356001600160a01b03811681146104f1575f5ffd5b9150602083013567ffffffffffffffff81111561050c575f5ffd5b8301601f8101851361051c575f5ffd5b803567ffffffffffffffff811115610536576105366104b6565b604051601f8201601f19908116603f0116810167ffffffffffffffff81118282101715610565576105656104b6565b60405281815282820160200187101561057c575f5ffd5b816020840160208301375f602083830101528093505050509250929050565b602081525f82518060208401528060208501604085015e5f604082850101526040601f19601f83011684010191505092915050565b5f600182016105ed57634e487b7160e01b5f52601160045260245ffd5b5060010190565b5f60208284031215610604575f5ffd5b5051919050565b5f82518060208501845e5f92019182525091905056fe360894a13ba1a3210667c828492db98dca3e2076cc3735a920a3ca505d382bbca264697066735822122050e816c13b80e46f36667782a6b021b9859369c9c368fc02dbc741bc1a4e99f764736f6c634300081b0033","linkReferences":{}},"methodIdentifiers":{"UPGRADE_INTERFACE_VERSION()":"ad3cb1cc","current()":"9fa6a6e3","increment()":"d09de08a","proxiableUUID()":"52d1902d","upgradeToAndCall(address,bytes)":"4f1ef286"},"id":169}