{
  "_format": "hh-sol-artifact-1",
  "contractName": "MultiSigWallet",
  "sourceName": "contracts/MultiSigWallet.sol",
  "abi": [
    {
      "inputs": [
        {
          "internalType": "address[]",
          "name": "_owners",
          "type": "address[]"
        },
        {
          "internalType": "uint256",
          "name": "_requiredConfirmations",
          "type": "uint256"
        }
      ],
      "stateMutability": "nonpayable",
      "type": "constructor"
    },
    {
      "anonymous": false,
      "inputs": [
        {
          "indexed": true,
          "internalType": "address",
          "name": "owner",
          "type": "address"
        },
        {
          "indexed": true,
          "internalType": "uint256",
          "name": "txIndex",
          "type": "uint256"
        }
      ],
      "name": "ConfirmTransaction",
      "type": "event"
    },
    {
      "anonymous": false,
      "inputs": [
        {
          "indexed": true,
          "internalType": "address",
          "name": "sender",
          "type": "address"
        },
        {
          "indexed": false,
          "internalType": "uint256",
          "name": "amount",
          "type": "uint256"
        },
        {
          "indexed": false,
          "internalType": "uint256",
          "name": "balance",
          "type": "uint256"
        }
      ],
      "name": "Deposit",
      "type": "event"
    },
    {
      "anonymous": false,
      "inputs": [
        {
          "indexed": true,
          "internalType": "address",
          "name": "owner",
          "type": "address"
        },
        {
          "indexed": true,
          "internalType": "uint256",
          "name": "txIndex",
          "type": "uint256"
        }
      ],
      "name": "ExecuteTransaction",
      "type": "event"
    },
    {
      "anonymous": false,
      "inputs": [
        {
          "indexed": true,
          "internalType": "address",
          "name": "owner",
          "type": "address"
        },
        {
          "indexed": true,
          "internalType": "uint256",
          "name": "txIndex",
          "type": "uint256"
        }
      ],
      "name": "RevokeConfirmation",
      "type": "event"
    },
    {
      "anonymous": false,
      "inputs": [
        {
          "indexed": true,
          "internalType": "address",
          "name": "owner",
          "type": "address"
        },
        {
          "indexed": true,
          "internalType": "uint256",
          "name": "txIndex",
          "type": "uint256"
        },
        {
          "indexed": true,
          "internalType": "address",
          "name": "to",
          "type": "address"
        },
        {
          "indexed": false,
          "internalType": "uint256",
          "name": "value",
          "type": "uint256"
        },
        {
          "indexed": false,
          "internalType": "bytes",
          "name": "data",
          "type": "bytes"
        }
      ],
      "name": "SubmitTransaction",
      "type": "event"
    },
    {
      "inputs": [
        {
          "internalType": "uint256",
          "name": "_txIndex",
          "type": "uint256"
        }
      ],
      "name": "confirmTransaction",
      "outputs": [],
      "stateMutability": "nonpayable",
      "type": "function"
    },
    {
      "inputs": [
        {
          "internalType": "uint256",
          "name": "",
          "type": "uint256"
        },
        {
          "internalType": "address",
          "name": "",
          "type": "address"
        }
      ],
      "name": "confirmations",
      "outputs": [
        {
          "internalType": "bool",
          "name": "",
          "type": "bool"
        }
      ],
      "stateMutability": "view",
      "type": "function"
    },
    {
      "inputs": [
        {
          "internalType": "uint256",
          "name": "_txIndex",
          "type": "uint256"
        }
      ],
      "name": "executeTransaction",
      "outputs": [],
      "stateMutability": "nonpayable",
      "type": "function"
    },
    {
      "inputs": [],
      "name": "getOwners",
      "outputs": [
        {
          "internalType": "address[]",
          "name": "",
          "type": "address[]"
        }
      ],
      "stateMutability": "view",
      "type": "function"
    },
    {
      "inputs": [
        {
          "internalType": "uint256",
          "name": "_txIndex",
          "type": "uint256"
        }
      ],
      "name": "getTransaction",
      "outputs": [
        {
          "internalType": "address",
          "name": "to",
          "type": "address"
        },
        {
          "internalType": "uint256",
          "name": "value",
          "type": "uint256"
        },
        {
          "internalType": "bytes",
          "name": "data",
          "type": "bytes"
        },
        {
          "internalType": "bool",
          "name": "executed",
          "type": "bool"
        },
        {
          "internalType": "uint256",
          "name": "confirmations",
          "type": "uint256"
        }
      ],
      "stateMutability": "view",
      "type": "function"
    },
    {
      "inputs": [],
      "name": "getTransactionCount",
      "outputs": [
        {
          "internalType": "uint256",
          "name": "",
          "type": "uint256"
        }
      ],
      "stateMutability": "view",
      "type": "function"
    },
    {
      "inputs": [
        {
          "internalType": "address",
          "name": "",
          "type": "address"
        }
      ],
      "name": "isOwner",
      "outputs": [
        {
          "internalType": "bool",
          "name": "",
          "type": "bool"
        }
      ],
      "stateMutability": "view",
      "type": "function"
    },
    {
      "inputs": [
        {
          "internalType": "uint256",
          "name": "",
          "type": "uint256"
        }
      ],
      "name": "owners",
      "outputs": [
        {
          "internalType": "address",
          "name": "",
          "type": "address"
        }
      ],
      "stateMutability": "view",
      "type": "function"
    },
    {
      "inputs": [],
      "name": "requiredConfirmations",
      "outputs": [
        {
          "internalType": "uint256",
          "name": "",
          "type": "uint256"
        }
      ],
      "stateMutability": "view",
      "type": "function"
    },
    {
      "inputs": [
        {
          "internalType": "uint256",
          "name": "_txIndex",
          "type": "uint256"
        }
      ],
      "name": "revokeConfirmation",
      "outputs": [],
      "stateMutability": "nonpayable",
      "type": "function"
    },
    {
      "inputs": [
        {
          "internalType": "address",
          "name": "_to",
          "type": "address"
        },
        {
          "internalType": "uint256",
          "name": "_value",
          "type": "uint256"
        },
        {
          "internalType": "bytes",
          "name": "_data",
          "type": "bytes"
        }
      ],
      "name": "submitTransaction",
      "outputs": [],
      "stateMutability": "nonpayable",
      "type": "function"
    },
    {
      "inputs": [
        {
          "internalType": "uint256",
          "name": "",
          "type": "uint256"
        }
      ],
      "name": "transactions",
      "outputs": [
        {
          "internalType": "address",
          "name": "to",
          "type": "address"
        },
        {
          "internalType": "uint256",
          "name": "value",
          "type": "uint256"
        },
        {
          "internalType": "bytes",
          "name": "data",
          "type": "bytes"
        },
        {
          "internalType": "bool",
          "name": "executed",
          "type": "bool"
        },
        {
          "internalType": "uint256",
          "name": "confirmations",
          "type": "uint256"
        }
      ],
      "stateMutability": "view",
      "type": "function"
    },
    {
      "stateMutability": "payable",
      "type": "receive"
    }
  ],
  "bytecode": "0x608060405234801561001057600080fd5b5060405161143438038061143483398101604081905261002f91610251565b60008251116100775760405162461bcd60e51b815260206004820152600f60248201526e13dddb995c9cc81c995c5d5a5c9959608a1b60448201526064015b60405180910390fd5b600081118015610088575081518111155b6100d45760405162461bcd60e51b815260206004820152601e60248201527f496e76616c696420726571756972656420636f6e6669726d6174696f6e730000604482015260640161006e565b60005b82518110156102155760008382815181106100f4576100f461032a565b6020026020010151905060006001600160a01b0316816001600160a01b0316036101505760405162461bcd60e51b815260206004820152600d60248201526c24b73b30b634b21037bbb732b960991b604482015260640161006e565b6001600160a01b03811660009081526001602052604090205460ff16156101ac5760405162461bcd60e51b815260206004820152601060248201526f4f776e6572206e6f7420756e6971756560801b604482015260640161006e565b6001600160a01b031660008181526001602081905260408220805460ff191682179055815480820183559180527f290decd9548b62a8d60345a988386fc84ba6bc95484008f6362f93160ef3e56390910180546001600160a01b031916909217909155016100d7565b5060025550610340565b634e487b7160e01b600052604160045260246000fd5b80516001600160a01b038116811461024c57600080fd5b919050565b6000806040838503121561026457600080fd5b82516001600160401b0381111561027a57600080fd5b8301601f8101851361028b57600080fd5b80516001600160401b038111156102a4576102a461021f565b604051600582901b90603f8201601f191681016001600160401b03811182821017156102d2576102d261021f565b6040529182526020818401810192908101888411156102f057600080fd5b6020850194505b838510156103165761030885610235565b8152602094850194016102f7565b506020969096015195979596505050505050565b634e487b7160e01b600052603260045260246000fd5b6110e58061034f6000396000f3fe6080604052600436106100ab5760003560e01c806382e717f71161006457806382e717f71461021b5780639ace38c214610231578063a0e67e2b14610251578063c01a8c8414610273578063c642747414610293578063ee22610b146102b357600080fd5b8063025e7c27146100f157806320ea8d861461012e5780632e7700f0146101505780632f54bf6e1461016f57806333ea3dc8146101af5780633411c81c146101e057600080fd5b366100ec576040805134815247602082015233917f90890809c654f11d6e72a28fa60149770a0d11ec6c92319d6ceb2bb0a4ea1a15910160405180910390a2005b600080fd5b3480156100fd57600080fd5b5061011161010c366004610bc5565b6102d3565b6040516001600160a01b0390911681526020015b60405180910390f35b34801561013a57600080fd5b5061014e610149366004610bc5565b6102fd565b005b34801561015c57600080fd5b506003545b604051908152602001610125565b34801561017b57600080fd5b5061019f61018a366004610bfa565b60016020526000908152604090205460ff1681565b6040519015158152602001610125565b3480156101bb57600080fd5b506101cf6101ca366004610bc5565b61048c565b604051610125959493929190610c62565b3480156101ec57600080fd5b5061019f6101fb366004610c9d565b600460209081526000928352604080842090915290825290205460ff1681565b34801561022757600080fd5b5061016160025481565b34801561023d57600080fd5b506101cf61024c366004610bc5565b610587565b34801561025d57600080fd5b50610266610660565b6040516101259190610cc9565b34801561027f57600080fd5b5061014e61028e366004610bc5565b6106c2565b34801561029f57600080fd5b5061014e6102ae366004610d2b565b610852565b3480156102bf57600080fd5b5061014e6102ce366004610bc5565b6109d2565b600081815481106102e357600080fd5b6000918252602090912001546001600160a01b0316905081565b3360009081526001602052604090205460ff166103355760405162461bcd60e51b815260040161032c90610dfe565b60405180910390fd5b600354819081106103585760405162461bcd60e51b815260040161032c90610e21565b816003818154811061036c5761036c610e4c565b600091825260209091206003600590920201015460ff16156103a05760405162461bcd60e51b815260040161032c90610e62565b600083815260046020908152604080832033845290915290205460ff166103fc5760405162461bcd60e51b815260206004820152601060248201526f151e081b9bdd0818dbdb999a5c9b595960821b604482015260640161032c565b60008381526004602090815260408083203384529091529020805460ff1916905560038054600191908590811061043557610435610e4c565b906000526020600020906005020160040160008282546104559190610ea5565b9091555050604051839033907ff0dca620e2e81f7841d07bcc105e1704fb01475b278a9d4c236e1c62945edd5590600090a3505050565b60008060606000806000600387815481106104a9576104a9610e4c565b6000918252602090912060059091020180546001820154600383015460048401546002850180549596506001600160a01b039094169492939260ff9092169183906104f390610ebe565b80601f016020809104026020016040519081016040528092919081815260200182805461051f90610ebe565b801561056c5780601f106105415761010080835404028352916020019161056c565b820191906000526020600020905b81548152906001019060200180831161054f57829003601f168201915b50505050509250955095509550955095505091939590929450565b6003818154811061059757600080fd5b60009182526020909120600590910201805460018201546002830180546001600160a01b0390931694509092916105cd90610ebe565b80601f01602080910402602001604051908101604052809291908181526020018280546105f990610ebe565b80156106465780601f1061061b57610100808354040283529160200191610646565b820191906000526020600020905b81548152906001019060200180831161062957829003601f168201915b505050506003830154600490930154919260ff1691905085565b606060008054806020026020016040519081016040528092919081815260200182805480156106b857602002820191906000526020600020905b81546001600160a01b0316815260019091019060200180831161069a575b5050505050905090565b3360009081526001602052604090205460ff166106f15760405162461bcd60e51b815260040161032c90610dfe565b600354819081106107145760405162461bcd60e51b815260040161032c90610e21565b816003818154811061072857610728610e4c565b600091825260209091206003600590920201015460ff161561075c5760405162461bcd60e51b815260040161032c90610e62565b6000838152600460209081526040808320338452909152902054839060ff16156107bf5760405162461bcd60e51b8152602060048201526014602482015273151e08185b1c9958591e4818dbdb999a5c9b595960621b604482015260640161032c565b60008481526004602090815260408083203384529091529020805460ff1916600190811790915560038054869081106107fa576107fa610e4c565b9060005260206000209060050201600401600082825461081a9190610ef8565b9091555050604051849033907f5cbe105e36805f7820e291f799d5794ff948af2a5f664e580382defb6339004190600090a350505050565b3360009081526001602052604090205460ff166108815760405162461bcd60e51b815260040161032c90610dfe565b600380546040805160a0810182526001600160a01b03878116825260208201878152928201868152600060608401819052608084018190526001860187559590955281517fc2575a0e9e593c00f959f8c92f12db2869c3395a3b0502d05e2516446f71f85b6005860290810180546001600160a01b0319169290931691909117825592517fc2575a0e9e593c00f959f8c92f12db2869c3395a3b0502d05e2516446f71f85c84015593519293909290917fc2575a0e9e593c00f959f8c92f12db2869c3395a3b0502d05e2516446f71f85d019061095e9082610f5a565b50606082015160038201805460ff19169115159190911790556080909101516004909101556040516001600160a01b03851690829033907fd5a05bf70715ad82a09a756320284a1b54c9ff74cd0f8cce6219e79b563fe59d906109c49088908890611019565b60405180910390a450505050565b3360009081526001602052604090205460ff16610a015760405162461bcd60e51b815260040161032c90610dfe565b60035481908110610a245760405162461bcd60e51b815260040161032c90610e21565b8160038181548110610a3857610a38610e4c565b600091825260209091206003600590920201015460ff1615610a6c5760405162461bcd60e51b815260040161032c90610e62565b600060038481548110610a8157610a81610e4c565b9060005260206000209060050201905060025481600401541015610adb5760405162461bcd60e51b8152602060048201526011602482015270086c2dcdcdee840caf0cac6eae8ca40e8f607b1b604482015260640161032c565b60038101805460ff191660019081179091558154908201546040516000926001600160a01b03169190610b1290600286019061103a565b60006040518083038185875af1925050503d8060008114610b4f576040519150601f19603f3d011682016040523d82523d6000602084013e610b54565b606091505b5050905080610b915760405162461bcd60e51b8152602060048201526009602482015268151e0819985a5b195960ba1b604482015260640161032c565b604051859033907f5445f318f4f5fcfb66592e68e0cc5822aa15664039bd5f0ffde24c5a8142b1ac90600090a35050505050565b600060208284031215610bd757600080fd5b5035919050565b80356001600160a01b0381168114610bf557600080fd5b919050565b600060208284031215610c0c57600080fd5b610c1582610bde565b9392505050565b6000815180845260005b81811015610c4257602081850181015186830182015201610c26565b506000602082860101526020601f19601f83011685010191505092915050565b60018060a01b038616815284602082015260a060408201526000610c8960a0830186610c1c565b931515606083015250608001529392505050565b60008060408385031215610cb057600080fd5b82359150610cc060208401610bde565b90509250929050565b602080825282518282018190526000918401906040840190835b81811015610d0a5783516001600160a01b0316835260209384019390920191600101610ce3565b509095945050505050565b634e487b7160e01b600052604160045260246000fd5b600080600060608486031215610d4057600080fd5b610d4984610bde565b925060208401359150604084013567ffffffffffffffff811115610d6c57600080fd5b8401601f81018613610d7d57600080fd5b803567ffffffffffffffff811115610d9757610d97610d15565b604051601f8201601f19908116603f0116810167ffffffffffffffff81118282101715610dc657610dc6610d15565b604052818152828201602001881015610dde57600080fd5b816020840160208301376000602083830101528093505050509250925092565b6020808252600990820152682737ba1037bbb732b960b91b604082015260600190565b602080825260119082015270151e08191bd95cc81b9bdd08195e1a5cdd607a1b604082015260600190565b634e487b7160e01b600052603260045260246000fd5b602080825260139082015272151e08185b1c9958591e48195e1958dd5d1959606a1b604082015260600190565b634e487b7160e01b600052601160045260246000fd5b81810381811115610eb857610eb8610e8f565b92915050565b600181811c90821680610ed257607f821691505b602082108103610ef257634e487b7160e01b600052602260045260246000fd5b50919050565b80820180821115610eb857610eb8610e8f565b601f821115610f5557806000526020600020601f840160051c81016020851015610f325750805b601f840160051c820191505b81811015610f525760008155600101610f3e565b50505b505050565b815167ffffffffffffffff811115610f7457610f74610d15565b610f8881610f828454610ebe565b84610f0b565b6020601f821160018114610fbc5760008315610fa45750848201515b600019600385901b1c1916600184901b178455610f52565b600084815260208120601f198516915b82811015610fec5787850151825560209485019460019092019101610fcc565b508482101561100a5786840151600019600387901b60f8161c191681555b50505050600190811b01905550565b8281526040602082015260006110326040830184610c1c565b949350505050565b600080835461104881610ebe565b60018216801561105f5760018114611074576110a4565b60ff19831686528115158202860193506110a4565b86600052602060002060005b8381101561109c57815488820152600190910190602001611080565b505081860193505b50919594505050505056fea264697066735822122073fab14ab3537c5ff84cf87c28048342e28410df6afe770e4566cbe5ca4befe364736f6c634300081c0033",
  "linkReferences": {},
  "deployedLinkReferences": {}
}