{"abi":[{"type":"constructor","inputs":[{"name":"originalOwner","type":"address","internalType":"address"}],"stateMutability":"nonpayable"},{"type":"function","name":"isValidSignature","inputs":[{"name":"hash","type":"bytes32","internalType":"bytes32"},{"name":"signature","type":"bytes","internalType":"bytes"}],"outputs":[{"name":"magicValue","type":"bytes4","internalType":"bytes4"}],"stateMutability":"view"},{"type":"function","name":"owner","inputs":[],"outputs":[{"name":"","type":"address","internalType":"address"}],"stateMutability":"view"},{"type":"function","name":"renounceOwnership","inputs":[],"outputs":[],"stateMutability":"nonpayable"},{"type":"function","name":"transferOwnership","inputs":[{"name":"newOwner","type":"address","internalType":"address"}],"outputs":[],"stateMutability":"nonpayable"},{"type":"event","name":"OwnershipTransferred","inputs":[{"name":"previousOwner","type":"address","indexed":true,"internalType":"address"},{"name":"newOwner","type":"address","indexed":true,"internalType":"address"}],"anonymous":false},{"type":"error","name":"ECDSAInvalidSignature","inputs":[]},{"type":"error","name":"ECDSAInvalidSignatureLength","inputs":[{"name":"length","type":"uint256","internalType":"uint256"}]},{"type":"error","name":"ECDSAInvalidSignatureS","inputs":[{"name":"s","type":"bytes32","internalType":"bytes32"}]},{"type":"error","name":"OwnableInvalidOwner","inputs":[{"name":"owner","type":"address","internalType":"address"}]},{"type":"error","name":"OwnableUnauthorizedAccount","inputs":[{"name":"account","type":"address","internalType":"address"}]}],"bytecode":{"object":"0x6080604052348015600e575f5ffd5b506040516105e23803806105e2833981016040819052602b9160b4565b806001600160a01b038116605857604051631e4fbdf760e01b81525f600482015260240160405180910390fd5b605f816065565b505060df565b5f80546001600160a01b038381166001600160a01b0319831681178455604051919092169283917f8be0079c531659141344cd1fd0a4f28419497f9722a3daafe3b4186f6b6457e09190a35050565b5f6020828403121560c3575f5ffd5b81516001600160a01b038116811460d8575f5ffd5b9392505050565b6104f6806100ec5f395ff3fe608060405234801561000f575f5ffd5b506004361061004a575f3560e01c80631626ba7e1461004e578063715018a61461007f5780638da5cb5b14610089578063f2fde38b146100a3575b5f5ffd5b61006161005c3660046103c9565b6100b6565b6040516001600160e01b031990911681526020015b60405180910390f35b6100876100f0565b005b5f546040516001600160a01b039091168152602001610076565b6100876100b1366004610486565b610103565b5f80546001600160a01b03166100cc8484610145565b6001600160a01b0316146100e0575f6100e9565b630b135d3f60e11b5b9392505050565b6100f861016d565b6101015f610199565b565b61010b61016d565b6001600160a01b03811661013957604051631e4fbdf760e01b81525f60048201526024015b60405180910390fd5b61014281610199565b50565b5f5f5f5f61015386866101e8565b9250925092506101638282610231565b5090949350505050565b5f546001600160a01b031633146101015760405163118cdaa760e01b8152336004820152602401610130565b5f80546001600160a01b038381166001600160a01b0319831681178455604051919092169283917f8be0079c531659141344cd1fd0a4f28419497f9722a3daafe3b4186f6b6457e09190a35050565b5f5f5f835160410361021f576020840151604085015160608601515f1a610211888285856102ed565b95509550955050505061022a565b505081515f91506002905b9250925092565b5f826003811115610244576102446104ac565b0361024d575050565b6001826003811115610261576102616104ac565b0361027f5760405163f645eedf60e01b815260040160405180910390fd5b6002826003811115610293576102936104ac565b036102b45760405163fce698f760e01b815260048101829052602401610130565b60038260038111156102c8576102c86104ac565b036102e9576040516335e2f38360e21b815260048101829052602401610130565b5050565b5f80807f7fffffffffffffffffffffffffffffff5d576e7357a4501ddfe92f46681b20a084111561032657505f915060039050826103ab565b604080515f808252602082018084528a905260ff891692820192909252606081018790526080810186905260019060a0016020604051602081039080840390855afa158015610377573d5f5f3e3d5ffd5b5050604051601f1901519150506001600160a01b0381166103a257505f9250600191508290506103ab565b92505f91508190505b9450945094915050565b634e487b7160e01b5f52604160045260245ffd5b5f5f604083850312156103da575f5ffd5b82359150602083013567ffffffffffffffff8111156103f7575f5ffd5b8301601f81018513610407575f5ffd5b803567ffffffffffffffff811115610421576104216103b5565b604051601f8201601f19908116603f0116810167ffffffffffffffff81118282101715610450576104506103b5565b604052818152828201602001871015610467575f5ffd5b816020840160208301375f602083830101528093505050509250929050565b5f60208284031215610496575f5ffd5b81356001600160a01b03811681146100e9575f5ffd5b634e487b7160e01b5f52602160045260245ffdfea264697066735822122011ec679d8b2b7790de27caf3b0ebf8c5284c197b7b2108f70c273cd00fa26e7b64736f6c634300081b0033","linkReferences":{}},"methodIdentifiers":{"isValidSignature(bytes32,bytes)":"1626ba7e","owner()":"8da5cb5b","renounceOwnership()":"715018a6","transferOwnership(address)":"f2fde38b"},"id":99}