{"abi":[{"type":"function","name":"allowance","inputs":[{"name":"token","type":"address","internalType":"contract IERC20"},{"name":"owner","type":"address","internalType":"address"},{"name":"spender","type":"address","internalType":"address"}],"outputs":[],"stateMutability":"nonpayable"},{"type":"function","name":"balanceOf","inputs":[{"name":"token","type":"address","internalType":"contract IERC20"},{"name":"account","type":"address","internalType":"address"}],"outputs":[],"stateMutability":"nonpayable"},{"type":"function","name":"decimals","inputs":[{"name":"token","type":"address","internalType":"contract IERC20Metadata"}],"outputs":[],"stateMutability":"nonpayable"},{"type":"function","name":"name","inputs":[{"name":"token","type":"address","internalType":"contract IERC20Metadata"}],"outputs":[],"stateMutability":"nonpayable"},{"type":"function","name":"symbol","inputs":[{"name":"token","type":"address","internalType":"contract IERC20Metadata"}],"outputs":[],"stateMutability":"nonpayable"},{"type":"function","name":"totalSupply","inputs":[{"name":"token","type":"address","internalType":"contract IERC20"}],"outputs":[],"stateMutability":"nonpayable"},{"type":"event","name":"ERC20Allowance","inputs":[{"name":"token","type":"address","indexed":false,"internalType":"contract IERC20"},{"name":"owner","type":"address","indexed":false,"internalType":"address"},{"name":"spender","type":"address","indexed":false,"internalType":"address"},{"name":"allowance","type":"uint256","indexed":false,"internalType":"uint256"}],"anonymous":false},{"type":"event","name":"ERC20BalanceOf","inputs":[{"name":"token","type":"address","indexed":false,"internalType":"contract IERC20"},{"name":"account","type":"address","indexed":false,"internalType":"address"},{"name":"balanceOf","type":"uint256","indexed":false,"internalType":"uint256"}],"anonymous":false},{"type":"event","name":"ERC20Decimals","inputs":[{"name":"token","type":"address","indexed":false,"internalType":"contract IERC20Metadata"},{"name":"decimals","type":"uint8","indexed":false,"internalType":"uint8"}],"anonymous":false},{"type":"event","name":"ERC20Name","inputs":[{"name":"token","type":"address","indexed":false,"internalType":"contract IERC20Metadata"},{"name":"name","type":"string","indexed":false,"internalType":"string"}],"anonymous":false},{"type":"event","name":"ERC20Symbol","inputs":[{"name":"token","type":"address","indexed":false,"internalType":"contract IERC20Metadata"},{"name":"symbol","type":"string","indexed":false,"internalType":"string"}],"anonymous":false},{"type":"event","name":"ERC20TotalSupply","inputs":[{"name":"token","type":"address","indexed":false,"internalType":"contract IERC20"},{"name":"totalSupply","type":"uint256","indexed":false,"internalType":"uint256"}],"anonymous":false}],"bytecode":{"object":"0x6080604052348015600e575f5ffd5b506106dc8061001c5f395ff3fe608060405234801561000f575f5ffd5b5060043610610060575f3560e01c80630198489214610064578063927da10514610079578063a86e35761461008c578063d449a8321461009f578063e4dc2aa4146100b2578063f7888aec146100c5575b5f5ffd5b6100776100723660046104c3565b6100d8565b005b6100776100873660046104e5565b610175565b61007761009a3660046104c3565b61024f565b6100776100ad3660046104c3565b6102ac565b6100776100c03660046104c3565b61034f565b6100776100d336600461052d565b6103f0565b7f0485ca5375889f98baa3c2b6f4c5017f42445d46a8ea34301831f4c0656aeaef81826001600160a01b03166306fdde036040518163ffffffff1660e01b81526004015f60405180830381865afa158015610135573d5f5f3e3d5ffd5b505050506040513d5f823e601f3d908101601f1916820160405261015c9190810190610578565b60405161016a92919061062b565b60405180910390a150565b604051636eb1769f60e11b81526001600160a01b03808416600483015280831660248301527fe09eed224b4f51d932c9802d15235a4e3d83e6e98746fbd17672bfa0c68cf2a59185918591859184169063dd62ed3e90604401602060405180830381865afa1580156101e9573d5f5f3e3d5ffd5b505050506040513d601f19601f8201168201806040525081019061020d919061066f565b60405161024294939291906001600160a01b039485168152928416602084015292166040820152606081019190915260800190565b60405180910390a1505050565b7f26e04705bb26a7efc42c2fc229535a30faa3fff9a04cd15ed4a729c9bc4d35bf81826001600160a01b03166395d89b416040518163ffffffff1660e01b81526004015f60405180830381865afa158015610135573d5f5f3e3d5ffd5b7f85bc872b16b9db2e4ada370573ffd396602bfdacec01f732f2b5ab6f42f2443581826001600160a01b031663313ce5676040518163ffffffff1660e01b8152600401602060405180830381865afa15801561030a573d5f5f3e3d5ffd5b505050506040513d601f19601f8201168201806040525081019061032e9190610686565b604080516001600160a01b03909316835260ff90911660208301520161016a565b7f6485fd49c668ab31aa6e76b818c9492f82e9a3727f8dbd1ded1f7a785b2c982e81826001600160a01b03166318160ddd6040518163ffffffff1660e01b8152600401602060405180830381865afa1580156103ad573d5f5f3e3d5ffd5b505050506040513d601f19601f820116820180604052508101906103d1919061066f565b604080516001600160a01b03909316835260208301919091520161016a565b6040516370a0823160e01b81526001600160a01b0380831660048301527ffa069972e8d8e0f3228defb44d5b7c9bc6c3f08ef98bc7d6a31a5ad2993a97959184918491908316906370a0823190602401602060405180830381865afa15801561045b573d5f5f3e3d5ffd5b505050506040513d601f19601f8201168201806040525081019061047f919061066f565b604080516001600160a01b0394851681529390921660208401529082015260600160405180910390a15050565b6001600160a01b03811681146104c0575f5ffd5b50565b5f602082840312156104d3575f5ffd5b81356104de816104ac565b9392505050565b5f5f5f606084860312156104f7575f5ffd5b8335610502816104ac565b92506020840135610512816104ac565b91506040840135610522816104ac565b809150509250925092565b5f5f6040838503121561053e575f5ffd5b8235610549816104ac565b91506020830135610559816104ac565b809150509250929050565b634e487b7160e01b5f52604160045260245ffd5b5f60208284031215610588575f5ffd5b815167ffffffffffffffff81111561059e575f5ffd5b8201601f810184136105ae575f5ffd5b805167ffffffffffffffff8111156105c8576105c8610564565b604051601f8201601f19908116603f0116810167ffffffffffffffff811182821017156105f7576105f7610564565b60405281815282820160200186101561060e575f5ffd5b8160208401602083015e5f91810160200191909152949350505050565b60018060a01b0383168152604060208201525f82518060408401528060208501606085015e5f606082850101526060601f19601f8301168401019150509392505050565b5f6020828403121561067f575f5ffd5b5051919050565b5f60208284031215610696575f5ffd5b815160ff811681146104de575f5ffdfea264697066735822122045015d9d3cf015707219c838b7e60a146acb6ef331957d7faad20efa95d3edf464736f6c634300081b0033","linkReferences":{}},"methodIdentifiers":{"allowance(address,address,address)":"927da105","balanceOf(address,address)":"f7888aec","decimals(address)":"d449a832","name(address)":"01984892","symbol(address)":"a86e3576","totalSupply(address)":"e4dc2aa4"},"id":182}