{"abi":[{"type":"function","name":"bytesMap","inputs":[{"name":"key","type":"uint256","internalType":"uint256"}],"outputs":[{"name":"","type":"bytes","internalType":"bytes"}],"stateMutability":"view"},{"type":"function","name":"getAddressSlot","inputs":[{"name":"slot","type":"bytes32","internalType":"bytes32"}],"outputs":[{"name":"","type":"address","internalType":"address"}],"stateMutability":"view"},{"type":"function","name":"getBooleanSlot","inputs":[{"name":"slot","type":"bytes32","internalType":"bytes32"}],"outputs":[{"name":"","type":"bool","internalType":"bool"}],"stateMutability":"view"},{"type":"function","name":"getBytes32Slot","inputs":[{"name":"slot","type":"bytes32","internalType":"bytes32"}],"outputs":[{"name":"","type":"bytes32","internalType":"bytes32"}],"stateMutability":"view"},{"type":"function","name":"getBytesSlot","inputs":[{"name":"slot","type":"bytes32","internalType":"bytes32"}],"outputs":[{"name":"","type":"bytes","internalType":"bytes"}],"stateMutability":"view"},{"type":"function","name":"getBytesStorage","inputs":[{"name":"key","type":"uint256","internalType":"uint256"}],"outputs":[{"name":"","type":"bytes","internalType":"bytes"}],"stateMutability":"view"},{"type":"function","name":"getInt256Slot","inputs":[{"name":"slot","type":"bytes32","internalType":"bytes32"}],"outputs":[{"name":"","type":"int256","internalType":"int256"}],"stateMutability":"view"},{"type":"function","name":"getStringSlot","inputs":[{"name":"slot","type":"bytes32","internalType":"bytes32"}],"outputs":[{"name":"","type":"string","internalType":"string"}],"stateMutability":"view"},{"type":"function","name":"getStringStorage","inputs":[{"name":"key","type":"uint256","internalType":"uint256"}],"outputs":[{"name":"","type":"string","internalType":"string"}],"stateMutability":"view"},{"type":"function","name":"getUint256Slot","inputs":[{"name":"slot","type":"bytes32","internalType":"bytes32"}],"outputs":[{"name":"","type":"uint256","internalType":"uint256"}],"stateMutability":"view"},{"type":"function","name":"multicall","inputs":[{"name":"data","type":"bytes[]","internalType":"bytes[]"}],"outputs":[{"name":"results","type":"bytes[]","internalType":"bytes[]"}],"stateMutability":"nonpayable"},{"type":"function","name":"setAddressSlot","inputs":[{"name":"slot","type":"bytes32","internalType":"bytes32"},{"name":"value","type":"address","internalType":"address"}],"outputs":[],"stateMutability":"nonpayable"},{"type":"function","name":"setBooleanSlot","inputs":[{"name":"slot","type":"bytes32","internalType":"bytes32"},{"name":"value","type":"bool","internalType":"bool"}],"outputs":[],"stateMutability":"nonpayable"},{"type":"function","name":"setBytes32Slot","inputs":[{"name":"slot","type":"bytes32","internalType":"bytes32"},{"name":"value","type":"bytes32","internalType":"bytes32"}],"outputs":[],"stateMutability":"nonpayable"},{"type":"function","name":"setBytesSlot","inputs":[{"name":"slot","type":"bytes32","internalType":"bytes32"},{"name":"value","type":"bytes","internalType":"bytes"}],"outputs":[],"stateMutability":"nonpayable"},{"type":"function","name":"setBytesStorage","inputs":[{"name":"key","type":"uint256","internalType":"uint256"},{"name":"value","type":"bytes","internalType":"bytes"}],"outputs":[],"stateMutability":"nonpayable"},{"type":"function","name":"setInt256Slot","inputs":[{"name":"slot","type":"bytes32","internalType":"bytes32"},{"name":"value","type":"int256","internalType":"int256"}],"outputs":[],"stateMutability":"nonpayable"},{"type":"function","name":"setStringSlot","inputs":[{"name":"slot","type":"bytes32","internalType":"bytes32"},{"name":"value","type":"string","internalType":"string"}],"outputs":[],"stateMutability":"nonpayable"},{"type":"function","name":"setStringStorage","inputs":[{"name":"key","type":"uint256","internalType":"uint256"},{"name":"value","type":"string","internalType":"string"}],"outputs":[],"stateMutability":"nonpayable"},{"type":"function","name":"setUint256Slot","inputs":[{"name":"slot","type":"bytes32","internalType":"bytes32"},{"name":"value","type":"uint256","internalType":"uint256"}],"outputs":[],"stateMutability":"nonpayable"},{"type":"function","name":"stringMap","inputs":[{"name":"key","type":"uint256","internalType":"uint256"}],"outputs":[{"name":"","type":"string","internalType":"string"}],"stateMutability":"view"},{"type":"error","name":"AddressEmptyCode","inputs":[{"name":"target","type":"address","internalType":"address"}]},{"type":"error","name":"FailedCall","inputs":[]}],"bytecode":{"object":"0x6080604052348015600e575f5ffd5b50610abf8061001c5f395ff3fe608060405234801561000f575f5ffd5b5060043610610132575f3560e01c806383681c5b116100b4578063ac9650d811610079578063ac9650d814610246578063b62b81ef146101cc578063b86c5dd514610266578063dd4e276214610174578063df6e58d614610291578063e8ff0b1d146102a4575f5ffd5b806383681c5b146101df578063913a2e3214610204578063949a352c146101745780639b22f34314610217578063a55a27f61461022a575f5ffd5b806347e57533116100fa57806347e57533146101cc5780634c650c86146101df5780635a46e25d146101f15780636e0e0483146101df578063767e35e014610204575f5ffd5b80630afb30ba146101365780631e133d0f1461014b57806329c027e01461017457806337f4a46d146101945780633e60bd78146101b9575b5f5ffd5b6101496101443660046106ac565b6102d7565b005b61015e6101593660046106f4565b6102fb565b60405161016b9190610739565b60405180910390f35b6101866101823660046106f4565b5490565b60405190815260200161016b565b6101a96101a23660046106f4565b5460ff1690565b604051901515815260200161016b565b6101496101c73660046106ac565b610392565b61015e6101da3660046106f4565b6103a8565b6101496101ed36600461074b565b9055565b61015e6101ff3660046106f4565b61043a565b6101496102123660046106ac565b610452565b61015e6102253660046106f4565b61045a565b61014961023836600461076b565b815460ff1916901515179055565b61025961025436600461079d565b61046f565b60405161016b919061080e565b610149610274366004610871565b81546001600160a01b0319166001600160a01b0391909116179055565b61015e61029f3660046106f4565b610555565b6102bf6102b23660046106f4565b546001600160a01b031690565b6040516001600160a01b03909116815260200161016b565b5f838152600160205260409020829082905b916102f5919083610937565b50505050565b5f6020819052908152604090208054610313906108b3565b80601f016020809104026020016040519081016040528092919081815260200182805461033f906108b3565b801561038a5780601f106103615761010080835404028352916020019161038a565b820191905f5260205f20905b81548152906001019060200180831161036d57829003601f168201915b505050505081565b5f838152602081905260409020829082906102e9565b6060815b80546103b7906108b3565b80601f01602080910402602001604051908101604052809291908181526020018280546103e3906108b3565b801561042e5780601f106104055761010080835404028352916020019161042e565b820191905f5260205f20905b81548152906001019060200180831161041157829003601f168201915b50505050509050919050565b60016020525f908152604090208054610313906108b3565b8181846102e9565b5f8181526001602052604090206060906103ac565b604080515f8152602081019091526060908267ffffffffffffffff8111156104995761049961089f565b6040519080825280602002602001820160405280156104cc57816020015b60608152602001906001900390816104b75790505b5091505f5b8381101561054d57610528308686848181106104ef576104ef6109f1565b90506020028101906105019190610a05565b8560405160200161051493929190610a5f565b60405160208183030381529060405261056a565b83828151811061053a5761053a6109f1565b60209081029190910101526001016104d1565b505092915050565b5f8181526020819052604090206060906103ac565b60605f5f846001600160a01b0316846040516105869190610a7e565b5f60405180830381855af49150503d805f81146105be576040519150601f19603f3d011682016040523d82523d5f602084013e6105c3565b606091505b50915091506105d38583836105dc565b95945050505050565b6060826105f1576105ec8261063f565b610638565b815115801561060857506001600160a01b0384163b155b1561063557604051639996b31560e01b81526001600160a01b038516600482015260240160405180910390fd5b50805b9392505050565b80511561064e57805160208201fd5b60405163d6bda27560e01b815260040160405180910390fd5b5f5f83601f840112610677575f5ffd5b50813567ffffffffffffffff81111561068e575f5ffd5b6020830191508360208285010111156106a5575f5ffd5b9250929050565b5f5f5f604084860312156106be575f5ffd5b83359250602084013567ffffffffffffffff8111156106db575f5ffd5b6106e786828701610667565b9497909650939450505050565b5f60208284031215610704575f5ffd5b5035919050565b5f81518084528060208401602086015e5f602082860101526020601f19601f83011685010191505092915050565b602081525f610638602083018461070b565b5f5f6040838503121561075c575f5ffd5b50508035926020909101359150565b5f5f6040838503121561077c575f5ffd5b8235915060208301358015158114610792575f5ffd5b809150509250929050565b5f5f602083850312156107ae575f5ffd5b823567ffffffffffffffff8111156107c4575f5ffd5b8301601f810185136107d4575f5ffd5b803567ffffffffffffffff8111156107ea575f5ffd5b8560208260051b84010111156107fe575f5ffd5b6020919091019590945092505050565b5f602082016020835280845180835260408501915060408160051b8601019250602086015f5b8281101561086557603f1987860301845261085085835161070b565b94506020938401939190910190600101610834565b50929695505050505050565b5f5f60408385031215610882575f5ffd5b8235915060208301356001600160a01b0381168114610792575f5ffd5b634e487b7160e01b5f52604160045260245ffd5b600181811c908216806108c757607f821691505b6020821081036108e557634e487b7160e01b5f52602260045260245ffd5b50919050565b601f82111561093257805f5260205f20601f840160051c810160208510156109105750805b601f840160051c820191505b8181101561092f575f815560010161091c565b50505b505050565b67ffffffffffffffff83111561094f5761094f61089f565b6109638361095d83546108b3565b836108eb565b5f601f841160018114610994575f851561097d5750838201355b5f19600387901b1c1916600186901b17835561092f565b5f83815260208120601f198716915b828110156109c357868501358255602094850194600190920191016109a3565b50868210156109df575f1960f88860031b161c19848701351681555b505060018560011b0183555050505050565b634e487b7160e01b5f52603260045260245ffd5b5f5f8335601e19843603018112610a1a575f5ffd5b83018035915067ffffffffffffffff821115610a34575f5ffd5b6020019150368190038213156106a5575f5ffd5b5f81518060208401855e5f93019283525090919050565b828482375f8382015f8152610a748185610a48565b9695505050505050565b5f6106388284610a4856fea2646970667358221220dee180951176c1aa3ef42d34476059ffefd279ac141efa3d96c223b61a4293a064736f6c634300081b0033","linkReferences":{}},"methodIdentifiers":{"bytesMap(uint256)":"5a46e25d","getAddressSlot(bytes32)":"e8ff0b1d","getBooleanSlot(bytes32)":"37f4a46d","getBytes32Slot(bytes32)":"dd4e2762","getBytesSlot(bytes32)":"47e57533","getBytesStorage(uint256)":"9b22f343","getInt256Slot(bytes32)":"29c027e0","getStringSlot(bytes32)":"b62b81ef","getStringStorage(uint256)":"df6e58d6","getUint256Slot(bytes32)":"949a352c","multicall(bytes[])":"ac9650d8","setAddressSlot(bytes32,address)":"b86c5dd5","setBooleanSlot(bytes32,bool)":"a55a27f6","setBytes32Slot(bytes32,bytes32)":"6e0e0483","setBytesSlot(bytes32,bytes)":"767e35e0","setBytesStorage(uint256,bytes)":"0afb30ba","setInt256Slot(bytes32,int256)":"83681c5b","setStringSlot(bytes32,string)":"913a2e32","setStringStorage(uint256,string)":"3e60bd78","setUint256Slot(bytes32,uint256)":"4c650c86","stringMap(uint256)":"1e133d0f"},"id":120}