{"abi":[{"type":"constructor","inputs":[{"name":"_paymentToken","type":"address","internalType":"address"},{"name":"_ticketNFT","type":"address","internalType":"address"},{"name":"_name","type":"string","internalType":"string"},{"name":"_date","type":"uint256","internalType":"uint256"},{"name":"_price","type":"uint256","internalType":"uint256"},{"name":"_maxTickets","type":"uint256","internalType":"uint256"}],"stateMutability":"nonpayable"},{"type":"function","name":"buyTicket","inputs":[],"outputs":[],"stateMutability":"nonpayable"},{"type":"function","name":"cancelEvent","inputs":[],"outputs":[],"stateMutability":"nonpayable"},{"type":"function","name":"eventInfo","inputs":[],"outputs":[{"name":"name","type":"string","internalType":"string"},{"name":"date","type":"uint256","internalType":"uint256"},{"name":"price","type":"uint256","internalType":"uint256"},{"name":"maxTickets","type":"uint256","internalType":"uint256"},{"name":"ticketsSold","type":"uint256","internalType":"uint256"},{"name":"active","type":"bool","internalType":"bool"}],"stateMutability":"view"},{"type":"function","name":"getRemainingTickets","inputs":[],"outputs":[{"name":"","type":"uint256","internalType":"uint256"}],"stateMutability":"view"},{"type":"function","name":"getTicketCount","inputs":[],"outputs":[{"name":"","type":"uint256","internalType":"uint256"}],"stateMutability":"view"},{"type":"function","name":"owner","inputs":[],"outputs":[{"name":"","type":"address","internalType":"address"}],"stateMutability":"view"},{"type":"function","name":"paymentToken","inputs":[],"outputs":[{"name":"","type":"address","internalType":"contract EventToken"}],"stateMutability":"view"},{"type":"function","name":"ticketNFT","inputs":[],"outputs":[{"name":"","type":"address","internalType":"contract BasicNFT"}],"stateMutability":"view"},{"type":"function","name":"ticketsOwned","inputs":[{"name":"","type":"address","internalType":"address"}],"outputs":[{"name":"","type":"uint256","internalType":"uint256"}],"stateMutability":"view"},{"type":"function","name":"withdrawFunds","inputs":[],"outputs":[],"stateMutability":"nonpayable"},{"type":"event","name":"EventCancelled","inputs":[],"anonymous":false},{"type":"event","name":"TicketPurchased","inputs":[{"name":"buyer","type":"address","indexed":true,"internalType":"address"},{"name":"ticketId","type":"uint256","indexed":false,"internalType":"uint256"}],"anonymous":false}],"bytecode":{"object":"0x608060405234801561000f575f5ffd5b5060405161179438038061179483398181016040528101906100319190610365565b855f5f6101000a81548173ffffffffffffffffffffffffffffffffffffffff021916908373ffffffffffffffffffffffffffffffffffffffff1602179055508460015f6101000a81548173ffffffffffffffffffffffffffffffffffffffff021916908373ffffffffffffffffffffffffffffffffffffffff1602179055503360025f6101000a81548173ffffffffffffffffffffffffffffffffffffffff021916908373ffffffffffffffffffffffffffffffffffffffff1602179055506040518060c001604052808581526020018481526020018381526020018281526020015f81526020016001151581525060035f820151815f0190816101359190610611565b506020820151816001015560408201518160020155606082015181600301556080820151816004015560a0820151816005015f6101000a81548160ff0219169083151502179055509050505050505050506106e0565b5f604051905090565b5f5ffd5b5f5ffd5b5f73ffffffffffffffffffffffffffffffffffffffff82169050919050565b5f6101c58261019c565b9050919050565b6101d5816101bb565b81146101df575f5ffd5b50565b5f815190506101f0816101cc565b92915050565b5f5ffd5b5f5ffd5b5f601f19601f8301169050919050565b7f4e487b71000000000000000000000000000000000000000000000000000000005f52604160045260245ffd5b610244826101fe565b810181811067ffffffffffffffff821117156102635761026261020e565b5b80604052505050565b5f61027561018b565b9050610281828261023b565b919050565b5f67ffffffffffffffff8211156102a05761029f61020e565b5b6102a9826101fe565b9050602081019050919050565b8281835e5f83830152505050565b5f6102d66102d184610286565b61026c565b9050828152602081018484840111156102f2576102f16101fa565b5b6102fd8482856102b6565b509392505050565b5f82601f830112610319576103186101f6565b5b81516103298482602086016102c4565b91505092915050565b5f819050919050565b61034481610332565b811461034e575f5ffd5b50565b5f8151905061035f8161033b565b92915050565b5f5f5f5f5f5f60c0878903121561037f5761037e610194565b5b5f61038c89828a016101e2565b965050602061039d89828a016101e2565b955050604087015167ffffffffffffffff8111156103be576103bd610198565b5b6103ca89828a01610305565b94505060606103db89828a01610351565b93505060806103ec89828a01610351565b92505060a06103fd89828a01610351565b9150509295509295509295565b5f81519050919050565b7f4e487b71000000000000000000000000000000000000000000000000000000005f52602260045260245ffd5b5f600282049050600182168061045857607f821691505b60208210810361046b5761046a610414565b5b50919050565b5f819050815f5260205f209050919050565b5f6020601f8301049050919050565b5f82821b905092915050565b5f600883026104cd7fffffffffffffffffffffffffffffffffffffffffffffffffffffffffffffffff82610492565b6104d78683610492565b95508019841693508086168417925050509392505050565b5f819050919050565b5f61051261050d61050884610332565b6104ef565b610332565b9050919050565b5f819050919050565b61052b836104f8565b61053f61053782610519565b84845461049e565b825550505050565b5f5f905090565b610556610547565b610561818484610522565b505050565b5b81811015610584576105795f8261054e565b600181019050610567565b5050565b601f8211156105c95761059a81610471565b6105a384610483565b810160208510156105b2578190505b6105c66105be85610483565b830182610566565b50505b505050565b5f82821c905092915050565b5f6105e95f19846008026105ce565b1980831691505092915050565b5f61060183836105da565b9150826002028217905092915050565b61061a8261040a565b67ffffffffffffffff8111156106335761063261020e565b5b61063d8254610441565b610648828285610588565b5f60209050601f831160018114610679575f8415610667578287015190505b61067185826105f6565b8655506106d8565b601f19841661068786610471565b5f5b828110156106ae57848901518255600182019150602085019450602081019050610689565b868310156106cb57848901516106c7601f8916826105da565b8355505b6001600288020188555050505b505050505050565b6110a7806106ed5f395ff3fe608060405234801561000f575f5ffd5b506004361061009c575f3560e01c8063951e202111610064578063951e202114610122578063b1b410f514610152578063b393391b14610175578063edca914c14610193578063fb6c95371461019d5761009c565b806321c63a47146100a057806324600fc3146100be5780633013ce29146100c857806370cc89ad146100e65780638da5cb5b14610104575b5f5ffd5b6100a86101a7565b6040516100b59190610990565b60405180910390f35b6100c66101b3565b005b6100d06103df565b6040516100dd9190610a23565b60405180910390f35b6100ee610403565b6040516100fb9190610990565b60405180910390f35b61010c61041e565b6040516101199190610a5c565b60405180910390f35b61013c60048036038101906101379190610aa3565b610443565b6040516101499190610990565b60405180910390f35b61015a610458565b60405161016c96959493929190610b58565b60405180910390f35b61017d610513565b60405161018a9190610bde565b60405180910390f35b61019b610538565b005b6101a561089f565b005b5f600360040154905090565b60025f9054906101000a900473ffffffffffffffffffffffffffffffffffffffff1673ffffffffffffffffffffffffffffffffffffffff163373ffffffffffffffffffffffffffffffffffffffff1614610242576040517f08c379a000000000000000000000000000000000000000000000000000000000815260040161023990610c41565b60405180910390fd5b5f5f5f9054906101000a900473ffffffffffffffffffffffffffffffffffffffff1673ffffffffffffffffffffffffffffffffffffffff166370a08231306040518263ffffffff1660e01b815260040161029c9190610a5c565b602060405180830381865afa1580156102b7573d5f5f3e3d5ffd5b505050506040513d601f19601f820116820180604052508101906102db9190610c89565b90505f811161031f576040517f08c379a000000000000000000000000000000000000000000000000000000000815260040161031690610cfe565b60405180910390fd5b5f5f9054906101000a900473ffffffffffffffffffffffffffffffffffffffff1673ffffffffffffffffffffffffffffffffffffffff1663a9059cbb60025f9054906101000a900473ffffffffffffffffffffffffffffffffffffffff16836040518363ffffffff1660e01b815260040161039b929190610d1c565b6020604051808303815f875af11580156103b7573d5f5f3e3d5ffd5b505050506040513d601f19601f820116820180604052508101906103db9190610d6d565b5050565b5f5f9054906101000a900473ffffffffffffffffffffffffffffffffffffffff1681565b5f60036004015460038001546104199190610dc5565b905090565b60025f9054906101000a900473ffffffffffffffffffffffffffffffffffffffff1681565b6009602052805f5260405f205f915090505481565b6003805f01805461046890610e25565b80601f016020809104026020016040519081016040528092919081815260200182805461049490610e25565b80156104df5780601f106104b6576101008083540402835291602001916104df565b820191905f5260205f20905b8154815290600101906020018083116104c257829003601f168201915b505050505090806001015490806002015490806003015490806004015490806005015f9054906101000a900460ff16905086565b60015f9054906101000a900473ffffffffffffffffffffffffffffffffffffffff1681565b60036005015f9054906101000a900460ff16610589576040517f08c379a000000000000000000000000000000000000000000000000000000000815260040161058090610e9f565b60405180910390fd5b6003800154600360040154106105d4576040517f08c379a00000000000000000000000000000000000000000000000000000000081526004016105cb90610f07565b60405180910390fd5b5f60095f3373ffffffffffffffffffffffffffffffffffffffff1673ffffffffffffffffffffffffffffffffffffffff1681526020019081526020015f205414610653576040517f08c379a000000000000000000000000000000000000000000000000000000000815260040161064a90610f6f565b60405180910390fd5b5f5f9054906101000a900473ffffffffffffffffffffffffffffffffffffffff1673ffffffffffffffffffffffffffffffffffffffff166323b872dd3360025f9054906101000a900473ffffffffffffffffffffffffffffffffffffffff166003600201546040518463ffffffff1660e01b81526004016106d693929190610f8d565b6020604051808303815f875af11580156106f2573d5f5f3e3d5ffd5b505050506040513d601f19601f820116820180604052508101906107169190610d6d565b610755576040517f08c379a000000000000000000000000000000000000000000000000000000000815260040161074c9061100c565b60405180910390fd5b5f60015f9054906101000a900473ffffffffffffffffffffffffffffffffffffffff1673ffffffffffffffffffffffffffffffffffffffff16636a627842336040518263ffffffff1660e01b81526004016107b09190610a5c565b6020604051808303815f875af11580156107cc573d5f5f3e3d5ffd5b505050506040513d601f19601f820116820180604052508101906107f09190610c89565b90508060095f3373ffffffffffffffffffffffffffffffffffffffff1673ffffffffffffffffffffffffffffffffffffffff1681526020019081526020015f208190555060036004015f8154809291906108499061102a565b91905055503373ffffffffffffffffffffffffffffffffffffffff167f0668f5b446eb814fe35b3206f43f14bd8567ba04ddaf7a3ee56516929ab22ccb826040516108949190610990565b60405180910390a250565b60025f9054906101000a900473ffffffffffffffffffffffffffffffffffffffff1673ffffffffffffffffffffffffffffffffffffffff163373ffffffffffffffffffffffffffffffffffffffff161461092e576040517f08c379a000000000000000000000000000000000000000000000000000000000815260040161092590610c41565b60405180910390fd5b5f60036005015f6101000a81548160ff0219169083151502179055507fc423524f667a9459893f10159c8a95981a43fb77edd414f6325d8439604ad41860405160405180910390a1565b5f819050919050565b61098a81610978565b82525050565b5f6020820190506109a35f830184610981565b92915050565b5f73ffffffffffffffffffffffffffffffffffffffff82169050919050565b5f819050919050565b5f6109eb6109e66109e1846109a9565b6109c8565b6109a9565b9050919050565b5f6109fc826109d1565b9050919050565b5f610a0d826109f2565b9050919050565b610a1d81610a03565b82525050565b5f602082019050610a365f830184610a14565b92915050565b5f610a46826109a9565b9050919050565b610a5681610a3c565b82525050565b5f602082019050610a6f5f830184610a4d565b92915050565b5f5ffd5b610a8281610a3c565b8114610a8c575f5ffd5b50565b5f81359050610a9d81610a79565b92915050565b5f60208284031215610ab857610ab7610a75565b5b5f610ac584828501610a8f565b91505092915050565b5f81519050919050565b5f82825260208201905092915050565b8281835e5f83830152505050565b5f601f19601f8301169050919050565b5f610b1082610ace565b610b1a8185610ad8565b9350610b2a818560208601610ae8565b610b3381610af6565b840191505092915050565b5f8115159050919050565b610b5281610b3e565b82525050565b5f60c0820190508181035f830152610b708189610b06565b9050610b7f6020830188610981565b610b8c6040830187610981565b610b996060830186610981565b610ba66080830185610981565b610bb360a0830184610b49565b979650505050505050565b5f610bc8826109f2565b9050919050565b610bd881610bbe565b82525050565b5f602082019050610bf15f830184610bcf565b92915050565b7f4e6f74206f776e657200000000000000000000000000000000000000000000005f82015250565b5f610c2b600983610ad8565b9150610c3682610bf7565b602082019050919050565b5f6020820190508181035f830152610c5881610c1f565b9050919050565b610c6881610978565b8114610c72575f5ffd5b50565b5f81519050610c8381610c5f565b92915050565b5f60208284031215610c9e57610c9d610a75565b5b5f610cab84828501610c75565b91505092915050565b7f4e6f2066756e647320746f2077697468647261770000000000000000000000005f82015250565b5f610ce8601483610ad8565b9150610cf382610cb4565b602082019050919050565b5f6020820190508181035f830152610d1581610cdc565b9050919050565b5f604082019050610d2f5f830185610a4d565b610d3c6020830184610981565b9392505050565b610d4c81610b3e565b8114610d56575f5ffd5b50565b5f81519050610d6781610d43565b92915050565b5f60208284031215610d8257610d81610a75565b5b5f610d8f84828501610d59565b91505092915050565b7f4e487b71000000000000000000000000000000000000000000000000000000005f52601160045260245ffd5b5f610dcf82610978565b9150610dda83610978565b9250828203905081811115610df257610df1610d98565b5b92915050565b7f4e487b71000000000000000000000000000000000000000000000000000000005f52602260045260245ffd5b5f6002820490506001821680610e3c57607f821691505b602082108103610e4f57610e4e610df8565b5b50919050565b7f4576656e74206e6f7420616374697665000000000000000000000000000000005f82015250565b5f610e89601083610ad8565b9150610e9482610e55565b602082019050919050565b5f6020820190508181035f830152610eb681610e7d565b9050919050565b7f536f6c64206f75740000000000000000000000000000000000000000000000005f82015250565b5f610ef1600883610ad8565b9150610efc82610ebd565b602082019050919050565b5f6020820190508181035f830152610f1e81610ee5565b9050919050565b7f416c726561647920686173207469636b657400000000000000000000000000005f82015250565b5f610f59601283610ad8565b9150610f6482610f25565b602082019050919050565b5f6020820190508181035f830152610f8681610f4d565b9050919050565b5f606082019050610fa05f830186610a4d565b610fad6020830185610a4d565b610fba6040830184610981565b949350505050565b7f5061796d656e74206661696c65640000000000000000000000000000000000005f82015250565b5f610ff6600e83610ad8565b915061100182610fc2565b602082019050919050565b5f6020820190508181035f83015261102381610fea565b9050919050565b5f61103482610978565b91507fffffffffffffffffffffffffffffffffffffffffffffffffffffffffffffffff820361106657611065610d98565b5b60018201905091905056fea264697066735822122053236ede46e2ca1bb65955e95a651a61f1cc67a4c8c22ded366ce47563f758f564736f6c634300081c0033","linkReferences":{}},"methodIdentifiers":{"buyTicket()":"edca914c","cancelEvent()":"fb6c9537","eventInfo()":"b1b410f5","getRemainingTickets()":"70cc89ad","getTicketCount()":"21c63a47","owner()":"8da5cb5b","paymentToken()":"3013ce29","ticketNFT()":"b393391b","ticketsOwned(address)":"951e2021","withdrawFunds()":"24600fc3"},"id":19}