{"abi":[{"type":"function","name":"get","inputs":[],"outputs":[{"name":"","type":"bool","internalType":"bool"}],"stateMutability":"pure"},{"type":"function","name":"initialize","inputs":[{"name":"_value","type":"uint256","internalType":"uint256"},{"name":"_text","type":"string","internalType":"string"},{"name":"_values","type":"uint256[]","internalType":"uint256[]"}],"outputs":[],"stateMutability":"nonpayable"},{"type":"function","name":"initializeNonPayable","inputs":[],"outputs":[],"stateMutability":"nonpayable"},{"type":"function","name":"initializeNonPayableWithValue","inputs":[{"name":"_value","type":"uint256","internalType":"uint256"}],"outputs":[],"stateMutability":"nonpayable"},{"type":"function","name":"initializePayable","inputs":[],"outputs":[],"stateMutability":"payable"},{"type":"function","name":"initializePayableWithValue","inputs":[{"name":"_value","type":"uint256","internalType":"uint256"}],"outputs":[],"stateMutability":"payable"},{"type":"function","name":"migrate","inputs":[{"name":"newVal","type":"uint256","internalType":"uint256"}],"outputs":[],"stateMutability":"payable"},{"type":"function","name":"reverts","inputs":[],"outputs":[],"stateMutability":"pure"},{"type":"function","name":"text","inputs":[],"outputs":[{"name":"","type":"string","internalType":"string"}],"stateMutability":"view"},{"type":"function","name":"unsafeOverrideAdmin","inputs":[{"name":"newAdmin","type":"address","internalType":"address"}],"outputs":[],"stateMutability":"nonpayable"},{"type":"function","name":"value","inputs":[],"outputs":[{"name":"","type":"uint256","internalType":"uint256"}],"stateMutability":"view"},{"type":"function","name":"values","inputs":[{"name":"","type":"uint256","internalType":"uint256"}],"outputs":[{"name":"","type":"uint256","internalType":"uint256"}],"stateMutability":"view"},{"type":"function","name":"version","inputs":[],"outputs":[{"name":"","type":"string","internalType":"string"}],"stateMutability":"pure"}],"bytecode":{"object":"0x6080604052348015600e575f5ffd5b506107458061001c5f395ff3fe6080604052600436106100bf575f3560e01c806354fd4d501161007c578063763e283111610057578063763e28311461020b5780639fba1f9a14610225578063d31f8b6b1461022e578063e79f5bee14610195575f5ffd5b806354fd4d50146101a75780635e383d21146101d15780636d4ce63c146101f0575f5ffd5b806319af86e7146100c35780631f1bd69214610120578063227367d51461014a5780633bccbbc91461015f5780633fa4f24514610173578063454b060814610195575b5f5ffd5b3480156100ce575f5ffd5b5061011e6100dd3660046103cb565b7fb53127684a568b3173ae13b9f8a6016e243e63b6e8ee1178d6a717850b5d610380546001600160a01b0319166001600160a01b0392909216919091179055565b005b34801561012b575f5ffd5b5061013461024d565b60405161014191906103f8565b60405180910390f35b348015610155575f5ffd5b5061011e600a5f55565b34801561016a575f5ffd5b5061011e6102d9565b34801561017e575f5ffd5b506101875f5481565b604051908152602001610141565b61011e6101a336600461042d565b5f55565b3480156101b2575f5ffd5b506040805180820190915260028152612b1960f11b6020820152610134565b3480156101dc575f5ffd5b506101876101eb36600461042d565b610325565b3480156101fb575f5ffd5b5060405160018152602001610141565b348015610216575f5ffd5b5061011e6101a336600461042d565b61011e60645f55565b348015610239575f5ffd5b5061011e610248366004610509565b610344565b6001805461025a906105d0565b80601f0160208091040260200160405190810160405280929190818152602001828054610286906105d0565b80156102d15780601f106102a8576101008083540402835291602001916102d1565b820191905f5260205f20905b8154815290600101906020018083116102b457829003601f168201915b505050505081565b60405162461bcd60e51b815260206004820152601c60248201527f44756d6d79496d706c656d656e746174696f6e20726576657274656400000000604482015260640160405180910390fd5b60028181548110610334575f80fd5b5f91825260209091200154905081565b5f83905560016103548382610654565b50805161036890600290602084019061036e565b50505050565b828054828255905f5260205f209081019282156103a7579160200282015b828111156103a757825182559160200191906001019061038c565b506103b39291506103b7565b5090565b5b808211156103b3575f81556001016103b8565b5f602082840312156103db575f5ffd5b81356001600160a01b03811681146103f1575f5ffd5b9392505050565b602081525f82518060208401528060208501604085015e5f604082850101526040601f19601f83011684010191505092915050565b5f6020828403121561043d575f5ffd5b5035919050565b634e487b7160e01b5f52604160045260245ffd5b604051601f8201601f1916810167ffffffffffffffff8111828210171561048157610481610444565b604052919050565b5f82601f830112610498575f5ffd5b813567ffffffffffffffff8111156104b2576104b2610444565b8060051b6104c260208201610458565b918252602081850181019290810190868411156104dd575f5ffd5b6020860192505b838310156104ff5782358252602092830192909101906104e4565b9695505050505050565b5f5f5f6060848603121561051b575f5ffd5b83359250602084013567ffffffffffffffff811115610538575f5ffd5b8401601f81018613610548575f5ffd5b803567ffffffffffffffff81111561056257610562610444565b610575601f8201601f1916602001610458565b818152876020838501011115610589575f5ffd5b816020840160208301375f60208383010152809450505050604084013567ffffffffffffffff8111156105ba575f5ffd5b6105c686828701610489565b9150509250925092565b600181811c908216806105e457607f821691505b60208210810361060257634e487b7160e01b5f52602260045260245ffd5b50919050565b601f82111561064f57805f5260205f20601f840160051c8101602085101561062d5750805b601f840160051c820191505b8181101561064c575f8155600101610639565b50505b505050565b815167ffffffffffffffff81111561066e5761066e610444565b6106828161067c84546105d0565b84610608565b6020601f8211600181146106b4575f831561069d5750848201515b5f19600385901b1c1916600184901b17845561064c565b5f84815260208120601f198516915b828110156106e357878501518255602094850194600190920191016106c3565b508482101561070057868401515f19600387901b60f8161c191681555b50505050600190811b0190555056fea26469706673582212201bb0b2f040fabc80a003a86e41c3412439e62f5ede222319006ae9611184530764736f6c634300081b0033","linkReferences":{}},"methodIdentifiers":{"get()":"6d4ce63c","initialize(uint256,string,uint256[])":"d31f8b6b","initializeNonPayable()":"227367d5","initializeNonPayableWithValue(uint256)":"763e2831","initializePayable()":"9fba1f9a","initializePayableWithValue(uint256)":"e79f5bee","migrate(uint256)":"454b0608","reverts()":"3bccbbc9","text()":"1f1bd692","unsafeOverrideAdmin(address)":"19af86e7","value()":"3fa4f245","values(uint256)":"5e383d21","version()":"54fd4d50"},"id":97}