{"abi":[{"type":"function","name":"get","inputs":[],"outputs":[{"name":"","type":"bool","internalType":"bool"}],"stateMutability":"pure"},{"type":"function","name":"initialize","inputs":[{"name":"_value","type":"uint256","internalType":"uint256"},{"name":"_text","type":"string","internalType":"string"},{"name":"_values","type":"uint256[]","internalType":"uint256[]"}],"outputs":[],"stateMutability":"nonpayable"},{"type":"function","name":"initializeNonPayable","inputs":[],"outputs":[],"stateMutability":"nonpayable"},{"type":"function","name":"initializeNonPayableWithValue","inputs":[{"name":"_value","type":"uint256","internalType":"uint256"}],"outputs":[],"stateMutability":"nonpayable"},{"type":"function","name":"initializePayable","inputs":[],"outputs":[],"stateMutability":"payable"},{"type":"function","name":"initializePayableWithValue","inputs":[{"name":"_value","type":"uint256","internalType":"uint256"}],"outputs":[],"stateMutability":"payable"},{"type":"function","name":"reverts","inputs":[],"outputs":[],"stateMutability":"pure"},{"type":"function","name":"text","inputs":[],"outputs":[{"name":"","type":"string","internalType":"string"}],"stateMutability":"view"},{"type":"function","name":"unsafeOverrideAdmin","inputs":[{"name":"newAdmin","type":"address","internalType":"address"}],"outputs":[],"stateMutability":"nonpayable"},{"type":"function","name":"value","inputs":[],"outputs":[{"name":"","type":"uint256","internalType":"uint256"}],"stateMutability":"view"},{"type":"function","name":"values","inputs":[{"name":"","type":"uint256","internalType":"uint256"}],"outputs":[{"name":"","type":"uint256","internalType":"uint256"}],"stateMutability":"view"},{"type":"function","name":"version","inputs":[],"outputs":[{"name":"","type":"string","internalType":"string"}],"stateMutability":"pure"}],"bytecode":{"object":"0x6080604052348015600e575f5ffd5b5061072b8061001c5f395ff3fe6080604052600436106100a5575f3560e01c80635e383d21116100625780635e383d21146101a55780636d4ce63c146101c4578063763e2831146101df5780639fba1f9a146101fd578063d31f8b6b14610206578063e79f5bee14610225575f5ffd5b806319af86e7146100a95780631f1bd69214610106578063227367d5146101305780633bccbbc9146101455780633fa4f2451461015957806354fd4d501461017b575b5f5ffd5b3480156100b4575f5ffd5b506101046100c33660046103b1565b7fb53127684a568b3173ae13b9f8a6016e243e63b6e8ee1178d6a717850b5d610380546001600160a01b0319166001600160a01b0392909216919091179055565b005b348015610111575f5ffd5b5061011a610233565b60405161012791906103de565b60405180910390f35b34801561013b575f5ffd5b50610104600a5f55565b348015610150575f5ffd5b506101046102bf565b348015610164575f5ffd5b5061016d5f5481565b604051908152602001610127565b348015610186575f5ffd5b50604080518082019091526002815261563160f01b602082015261011a565b3480156101b0575f5ffd5b5061016d6101bf366004610413565b61030b565b3480156101cf575f5ffd5b5060405160018152602001610127565b3480156101ea575f5ffd5b506101046101f9366004610413565b5f55565b61010460645f55565b348015610211575f5ffd5b506101046102203660046104ef565b61032a565b6101046101f9366004610413565b60018054610240906105b6565b80601f016020809104026020016040519081016040528092919081815260200182805461026c906105b6565b80156102b75780601f1061028e576101008083540402835291602001916102b7565b820191905f5260205f20905b81548152906001019060200180831161029a57829003601f168201915b505050505081565b60405162461bcd60e51b815260206004820152601c60248201527f44756d6d79496d706c656d656e746174696f6e20726576657274656400000000604482015260640160405180910390fd5b6002818154811061031a575f80fd5b5f91825260209091200154905081565b5f839055600161033a838261063a565b50805161034e906002906020840190610354565b50505050565b828054828255905f5260205f2090810192821561038d579160200282015b8281111561038d578251825591602001919060010190610372565b5061039992915061039d565b5090565b5b80821115610399575f815560010161039e565b5f602082840312156103c1575f5ffd5b81356001600160a01b03811681146103d7575f5ffd5b9392505050565b602081525f82518060208401528060208501604085015e5f604082850101526040601f19601f83011684010191505092915050565b5f60208284031215610423575f5ffd5b5035919050565b634e487b7160e01b5f52604160045260245ffd5b604051601f8201601f1916810167ffffffffffffffff811182821017156104675761046761042a565b604052919050565b5f82601f83011261047e575f5ffd5b813567ffffffffffffffff8111156104985761049861042a565b8060051b6104a86020820161043e565b918252602081850181019290810190868411156104c3575f5ffd5b6020860192505b838310156104e55782358252602092830192909101906104ca565b9695505050505050565b5f5f5f60608486031215610501575f5ffd5b83359250602084013567ffffffffffffffff81111561051e575f5ffd5b8401601f8101861361052e575f5ffd5b803567ffffffffffffffff8111156105485761054861042a565b61055b601f8201601f191660200161043e565b81815287602083850101111561056f575f5ffd5b816020840160208301375f60208383010152809450505050604084013567ffffffffffffffff8111156105a0575f5ffd5b6105ac8682870161046f565b9150509250925092565b600181811c908216806105ca57607f821691505b6020821081036105e857634e487b7160e01b5f52602260045260245ffd5b50919050565b601f82111561063557805f5260205f20601f840160051c810160208510156106135750805b601f840160051c820191505b81811015610632575f815560010161061f565b50505b505050565b815167ffffffffffffffff8111156106545761065461042a565b6106688161066284546105b6565b846105ee565b6020601f82116001811461069a575f83156106835750848201515b5f19600385901b1c1916600184901b178455610632565b5f84815260208120601f198516915b828110156106c957878501518255602094850194600190920191016106a9565b50848210156106e657868401515f19600387901b60f8161c191681555b50505050600190811b0190555056fea264697066735822122023ecce474ae6977b9d2e701f79bbedd1dea23e962798f50511177a230dc6a39764736f6c634300081b0033","linkReferences":{}},"methodIdentifiers":{"get()":"6d4ce63c","initialize(uint256,string,uint256[])":"d31f8b6b","initializeNonPayable()":"227367d5","initializeNonPayableWithValue(uint256)":"763e2831","initializePayable()":"9fba1f9a","initializePayableWithValue(uint256)":"e79f5bee","reverts()":"3bccbbc9","text()":"1f1bd692","unsafeOverrideAdmin(address)":"19af86e7","value()":"3fa4f245","values(uint256)":"5e383d21","version()":"54fd4d50"},"id":97}