{"abi":[{"type":"function","name":"mockFunction","inputs":[],"outputs":[{"name":"","type":"string","internalType":"string"}],"stateMutability":"payable"},{"type":"function","name":"mockFunctionEmptyReturn","inputs":[],"outputs":[],"stateMutability":"payable"},{"type":"function","name":"mockFunctionExtra","inputs":[],"outputs":[],"stateMutability":"payable"},{"type":"function","name":"mockFunctionNonPayable","inputs":[],"outputs":[{"name":"","type":"string","internalType":"string"}],"stateMutability":"nonpayable"},{"type":"function","name":"mockFunctionOutOfGas","inputs":[],"outputs":[],"stateMutability":"payable"},{"type":"function","name":"mockFunctionRevertsNoReason","inputs":[],"outputs":[],"stateMutability":"payable"},{"type":"function","name":"mockFunctionRevertsReason","inputs":[],"outputs":[],"stateMutability":"payable"},{"type":"function","name":"mockFunctionThrows","inputs":[],"outputs":[],"stateMutability":"payable"},{"type":"function","name":"mockFunctionWithArgs","inputs":[{"name":"a","type":"uint256","internalType":"uint256"},{"name":"b","type":"uint256","internalType":"uint256"}],"outputs":[{"name":"","type":"string","internalType":"string"}],"stateMutability":"payable"},{"type":"function","name":"mockFunctionWritesStorage","inputs":[{"name":"slot","type":"bytes32","internalType":"bytes32"},{"name":"value","type":"bytes32","internalType":"bytes32"}],"outputs":[{"name":"","type":"string","internalType":"string"}],"stateMutability":"nonpayable"},{"type":"function","name":"mockStaticFunction","inputs":[],"outputs":[{"name":"","type":"string","internalType":"string"}],"stateMutability":"pure"},{"type":"event","name":"MockFunctionCalled","inputs":[],"anonymous":false},{"type":"event","name":"MockFunctionCalledExtra","inputs":[{"name":"caller","type":"address","indexed":false,"internalType":"address"},{"name":"value","type":"uint256","indexed":false,"internalType":"uint256"}],"anonymous":false},{"type":"event","name":"MockFunctionCalledWithArgs","inputs":[{"name":"a","type":"uint256","indexed":false,"internalType":"uint256"},{"name":"b","type":"uint256","indexed":false,"internalType":"uint256"}],"anonymous":false}],"bytecode":{"object":"0x6080604052348015600e575f5ffd5b506103ea8061001c5f395ff3fe60806040526004361061009a575f3560e01c8063425397a211610062578063425397a2146100e957806343c8d21814610125578063a793ab471461012d578063c292d81c14610135578063c8fc76961461013d578063fdb273251461016b575f5ffd5b80630c0349681461009e5780630f63e42c146100a85780632c81d638146100d25780633bcfaa14146100d95780633e6fec04146100e1575b5f5ffd5b6100a661017e565b005b3480156100b3575f5ffd5b506100bc6101ca565b6040516100c99190610327565b60405180910390f35b6100a65f5ffd5b6100a6610216565b6100bc6101ca565b3480156100f4575f5ffd5b506100bc61010336600461035c565b90556040805180820190915260068152650c1e0c4c8ccd60d21b602082015290565b6100a6610220565b6100a661025a565b6100a661029d565b348015610148575f5ffd5b506040805180820190915260068152650c1e0c4c8ccd60d21b60208201526100bc565b6100bc61017936600461035c565b6102c7565b60405162461bcd60e51b815260206004820152601b60248201527f43616c6c52656365697665724d6f636b3a20726576657274696e670000000000604482015260640160405180910390fd5b6040516060907f52c66ed6ec9ca819cba26fe2b2650059270d8981b295af300187a964f54a8c23905f90a1506040805180820190915260068152650c1e0c4c8ccd60d21b602082015290565b61021e61037c565b565b604080513381523460208201527fffa33d28bf6be9e1816e7ffd5fd5a09754144c76f7c08b5325dd3f6ef2c288f6910160405180910390a1565b5f5b5f80546001810182559080527f290decd9548b62a8d60345a988386fc84ba6bc95484008f6362f93160ef3e5630181905561029681610390565b905061025c565b6040517f52c66ed6ec9ca819cba26fe2b2650059270d8981b295af300187a964f54a8c23905f90a1565b60408051838152602081018390526060917f2b42b3c9af4187c86225f201736204c7597312c830cb5c2537dff6ef24b946ae910160405180910390a1506040805180820190915260068152650c1e0c4c8ccd60d21b602082015292915050565b602081525f82518060208401528060208501604085015e5f604082850101526040601f19601f83011684010191505092915050565b5f5f6040838503121561036d575f5ffd5b50508035926020909101359150565b634e487b7160e01b5f52600160045260245ffd5b5f600182016103ad57634e487b7160e01b5f52601160045260245ffd5b506001019056fea264697066735822122091ff462a2f2e0bf16506a3489d92ba29a600046d808e2c1d70d75132e8e837f764736f6c634300081b0033","linkReferences":{}},"methodIdentifiers":{"mockFunction()":"3e6fec04","mockFunctionEmptyReturn()":"c292d81c","mockFunctionExtra()":"43c8d218","mockFunctionNonPayable()":"0f63e42c","mockFunctionOutOfGas()":"a793ab47","mockFunctionRevertsNoReason()":"2c81d638","mockFunctionRevertsReason()":"0c034968","mockFunctionThrows()":"3bcfaa14","mockFunctionWithArgs(uint256,uint256)":"fdb27325","mockFunctionWritesStorage(bytes32,bytes32)":"425397a2","mockStaticFunction()":"c8fc7696"},"id":94}