{"abi":[{"type":"constructor","inputs":[{"name":"trustedForwarder_","type":"address","internalType":"address"}],"stateMutability":"nonpayable"},{"type":"function","name":"isTrustedForwarder","inputs":[{"name":"forwarder","type":"address","internalType":"address"}],"outputs":[{"name":"","type":"bool","internalType":"bool"}],"stateMutability":"view"},{"type":"function","name":"mockFunction","inputs":[],"outputs":[{"name":"","type":"string","internalType":"string"}],"stateMutability":"payable"},{"type":"function","name":"mockFunctionEmptyReturn","inputs":[],"outputs":[],"stateMutability":"payable"},{"type":"function","name":"mockFunctionExtra","inputs":[],"outputs":[],"stateMutability":"payable"},{"type":"function","name":"mockFunctionNonPayable","inputs":[],"outputs":[{"name":"","type":"string","internalType":"string"}],"stateMutability":"nonpayable"},{"type":"function","name":"mockFunctionOutOfGas","inputs":[],"outputs":[],"stateMutability":"payable"},{"type":"function","name":"mockFunctionRevertsNoReason","inputs":[],"outputs":[],"stateMutability":"payable"},{"type":"function","name":"mockFunctionRevertsReason","inputs":[],"outputs":[],"stateMutability":"payable"},{"type":"function","name":"mockFunctionThrows","inputs":[],"outputs":[],"stateMutability":"payable"},{"type":"function","name":"mockFunctionWithArgs","inputs":[{"name":"a","type":"uint256","internalType":"uint256"},{"name":"b","type":"uint256","internalType":"uint256"}],"outputs":[{"name":"","type":"string","internalType":"string"}],"stateMutability":"payable"},{"type":"function","name":"mockFunctionWritesStorage","inputs":[{"name":"slot","type":"bytes32","internalType":"bytes32"},{"name":"value","type":"bytes32","internalType":"bytes32"}],"outputs":[{"name":"","type":"string","internalType":"string"}],"stateMutability":"nonpayable"},{"type":"function","name":"mockStaticFunction","inputs":[],"outputs":[{"name":"","type":"string","internalType":"string"}],"stateMutability":"pure"},{"type":"event","name":"MockFunctionCalled","inputs":[],"anonymous":false},{"type":"event","name":"MockFunctionCalledExtra","inputs":[{"name":"caller","type":"address","indexed":false,"internalType":"address"},{"name":"value","type":"uint256","indexed":false,"internalType":"uint256"}],"anonymous":false},{"type":"event","name":"MockFunctionCalledWithArgs","inputs":[{"name":"a","type":"uint256","indexed":false,"internalType":"uint256"},{"name":"b","type":"uint256","indexed":false,"internalType":"uint256"}],"anonymous":false}],"bytecode":{"object":"0x6080604052348015600e575f5ffd5b506040516104e73803806104e7833981016040819052602b91604f565b600180546001600160a01b0319166001600160a01b0392909216919091179055607a565b5f60208284031215605e575f5ffd5b81516001600160a01b03811681146073575f5ffd5b9392505050565b610460806100875f395ff3fe6080604052600436106100a5575f3560e01c806343c8d2181161006257806343c8d21814610130578063572b6c0514610138578063a793ab4714610176578063c292d81c1461017e578063c8fc769614610186578063fdb27325146101b4575f5ffd5b80630c034968146100a95780630f63e42c146100b35780632c81d638146100dd5780633bcfaa14146100e45780633e6fec04146100ec578063425397a2146100f4575b5f5ffd5b6100b16101c7565b005b3480156100be575f5ffd5b506100c7610213565b6040516100d49190610370565b60405180910390f35b6100b15f5ffd5b6100b161025f565b6100c7610213565b3480156100ff575f5ffd5b506100c761010e3660046103a5565b90556040805180820190915260068152650c1e0c4c8ccd60d21b602082015290565b6100b1610269565b348015610143575f5ffd5b506101666101523660046103c5565b6001546001600160a01b0391821691161490565b60405190151581526020016100d4565b6100b16102a3565b6100b16102e6565b348015610191575f5ffd5b506040805180820190915260068152650c1e0c4c8ccd60d21b60208201526100c7565b6100c76101c23660046103a5565b610310565b60405162461bcd60e51b815260206004820152601b60248201527f43616c6c52656365697665724d6f636b3a20726576657274696e670000000000604482015260640160405180910390fd5b6040516060907f52c66ed6ec9ca819cba26fe2b2650059270d8981b295af300187a964f54a8c23905f90a1506040805180820190915260068152650c1e0c4c8ccd60d21b602082015290565b6102676103f2565b565b604080513381523460208201527fffa33d28bf6be9e1816e7ffd5fd5a09754144c76f7c08b5325dd3f6ef2c288f6910160405180910390a1565b5f5b5f80546001810182559080527f290decd9548b62a8d60345a988386fc84ba6bc95484008f6362f93160ef3e563018190556102df81610406565b90506102a5565b6040517f52c66ed6ec9ca819cba26fe2b2650059270d8981b295af300187a964f54a8c23905f90a1565b60408051838152602081018390526060917f2b42b3c9af4187c86225f201736204c7597312c830cb5c2537dff6ef24b946ae910160405180910390a1506040805180820190915260068152650c1e0c4c8ccd60d21b602082015292915050565b602081525f82518060208401528060208501604085015e5f604082850101526040601f19601f83011684010191505092915050565b5f5f604083850312156103b6575f5ffd5b50508035926020909101359150565b5f602082840312156103d5575f5ffd5b81356001600160a01b03811681146103eb575f5ffd5b9392505050565b634e487b7160e01b5f52600160045260245ffd5b5f6001820161042357634e487b7160e01b5f52601160045260245ffd5b506001019056fea26469706673582212202be6c0f3035ff766a17a68f2923a86aebd24ac6fec2411511a3d1daf4c7bf93464736f6c634300081b0033","linkReferences":{}},"methodIdentifiers":{"isTrustedForwarder(address)":"572b6c05","mockFunction()":"3e6fec04","mockFunctionEmptyReturn()":"c292d81c","mockFunctionExtra()":"43c8d218","mockFunctionNonPayable()":"0f63e42c","mockFunctionOutOfGas()":"a793ab47","mockFunctionRevertsNoReason()":"2c81d638","mockFunctionRevertsReason()":"0c034968","mockFunctionThrows()":"3bcfaa14","mockFunctionWithArgs(uint256,uint256)":"fdb27325","mockFunctionWritesStorage(bytes32,bytes32)":"425397a2","mockStaticFunction()":"c8fc7696"},"id":94}