{"abi":[{"type":"constructor","inputs":[{"name":"array","type":"address[]","internalType":"address[]"}],"stateMutability":"nonpayable"},{"type":"function","name":"length","inputs":[],"outputs":[{"name":"","type":"uint256","internalType":"uint256"}],"stateMutability":"view"},{"type":"function","name":"sort","inputs":[{"name":"array","type":"address[]","internalType":"address[]"}],"outputs":[{"name":"","type":"address[]","internalType":"address[]"}],"stateMutability":"pure"},{"type":"function","name":"sortReverse","inputs":[{"name":"array","type":"address[]","internalType":"address[]"}],"outputs":[{"name":"","type":"address[]","internalType":"address[]"}],"stateMutability":"pure"},{"type":"function","name":"unsafeAccess","inputs":[{"name":"pos","type":"uint256","internalType":"uint256"}],"outputs":[{"name":"","type":"address","internalType":"address"}],"stateMutability":"view"},{"type":"function","name":"unsafeSetLength","inputs":[{"name":"newLength","type":"uint256","internalType":"uint256"}],"outputs":[],"stateMutability":"nonpayable"}],"bytecode":{"object":"0x608060405234801561000f575f5ffd5b5060405161059938038061059983398101604081905261002e916100ed565b8051610040905f906020840190610047565b50506101b7565b828054828255905f5260205f2090810192821561009a579160200282015b8281111561009a57825182546001600160a01b0319166001600160a01b03909116178255602090920191600190910190610065565b506100a69291506100aa565b5090565b5b808211156100a6575f81556001016100ab565b634e487b7160e01b5f52604160045260245ffd5b80516001600160a01b03811681146100e8575f5ffd5b919050565b5f602082840312156100fd575f5ffd5b81516001600160401b03811115610112575f5ffd5b8201601f81018413610122575f5ffd5b80516001600160401b0381111561013b5761013b6100be565b604051600582901b90603f8201601f191681016001600160401b0381118282101715610169576101696100be565b604052918252602081840181019290810187841115610186575f5ffd5b6020850194505b838510156101ac5761019e856100d2565b81526020948501940161018d565b509695505050505050565b6103d5806101c45f395ff3fe608060405234801561000f575f5ffd5b5060043610610055575f3560e01c8063128424a7146100595780631f7b6d321461008257806340aa934d1461009257806346d1dbac146100bd578063e9fdbeba146100d0575b5f5ffd5b61006c610067366004610272565b6100e5565b604051610079919061033d565b60405180910390f35b5f54604051908152602001610079565b6100a56100a0366004610388565b6100f6565b6040516001600160a01b039091168152602001610079565b61006c6100cb366004610272565b610111565b6100e36100de366004610388565b61011f565b005b60606100f08261012b565b92915050565b5f6101018183610140565b546001600160a01b031692915050565b60606100f082610167610178565b6101285f829055565b50565b60606101398261018c610190565b5090919050565b5f8261015f61015c84610158845f9081526020902090565b0190565b90565b949350505050565b6001600160a01b0390811691161190565b60606101848383610190565b509192915050565b1190565b6060610139602084016101a2856101a8565b846101bf565b5f81516020026101b88360200190565b0192915050565b604083830310156101cf57505050565b5f6101d8845190565b905083602081015b8481101561021a576101fd6101f3825190565b848663ffffffff16565b15610212576020919091018051825182528252905b6020016101e0565b50845181518652815261022e8582856101bf565b61023c8160200185856101bf565b5050505050565b634e487b7160e01b5f52604160045260245ffd5b80356001600160a01b038116811461026d575f5ffd5b919050565b5f60208284031215610282575f5ffd5b813567ffffffffffffffff811115610298575f5ffd5b8201601f810184136102a8575f5ffd5b803567ffffffffffffffff8111156102c2576102c2610243565b8060051b604051601f19603f830116810181811067ffffffffffffffff821117156102ef576102ef610243565b60405291825260208184018101929081018784111561030c575f5ffd5b6020850194505b838510156103325761032485610257565b815260209485019401610313565b509695505050505050565b602080825282518282018190525f918401906040840190835b8181101561037d5783516001600160a01b0316835260209384019390920191600101610356565b509095945050505050565b5f60208284031215610398575f5ffd5b503591905056fea2646970667358221220487a7c2d4811815456f4c648bc8050bfc35ea7b7f5752f3cfe7201bf097f192564736f6c634300081b0033","linkReferences":{}},"methodIdentifiers":{"length()":"1f7b6d32","sort(address[])":"128424a7","sortReverse(address[])":"46d1dbac","unsafeAccess(uint256)":"40aa934d","unsafeSetLength(uint256)":"e9fdbeba"},"id":90}