{"abi":[{"type":"constructor","inputs":[{"name":"array","type":"bytes32[]","internalType":"bytes32[]"}],"stateMutability":"nonpayable"},{"type":"function","name":"length","inputs":[],"outputs":[{"name":"","type":"uint256","internalType":"uint256"}],"stateMutability":"view"},{"type":"function","name":"sort","inputs":[{"name":"array","type":"bytes32[]","internalType":"bytes32[]"}],"outputs":[{"name":"","type":"bytes32[]","internalType":"bytes32[]"}],"stateMutability":"pure"},{"type":"function","name":"sortReverse","inputs":[{"name":"array","type":"bytes32[]","internalType":"bytes32[]"}],"outputs":[{"name":"","type":"bytes32[]","internalType":"bytes32[]"}],"stateMutability":"pure"},{"type":"function","name":"unsafeAccess","inputs":[{"name":"pos","type":"uint256","internalType":"uint256"}],"outputs":[{"name":"","type":"bytes32","internalType":"bytes32"}],"stateMutability":"view"},{"type":"function","name":"unsafeSetLength","inputs":[{"name":"newLength","type":"uint256","internalType":"uint256"}],"outputs":[],"stateMutability":"nonpayable"}],"bytecode":{"object":"0x608060405234801561000f575f5ffd5b5060405161050938038061050983398101604081905261002e916100b8565b8051610040905f906020840190610047565b505061017f565b828054828255905f5260205f20908101928215610080579160200282015b82811115610080578251825591602001919060010190610065565b5061008c929150610090565b5090565b5b8082111561008c575f8155600101610091565b634e487b7160e01b5f52604160045260245ffd5b5f602082840312156100c8575f5ffd5b81516001600160401b038111156100dd575f5ffd5b8201601f810184136100ed575f5ffd5b80516001600160401b03811115610106576101066100a4565b604051600582901b90603f8201601f191681016001600160401b0381118282101715610134576101346100a4565b604052918252602081840181019290810187841115610151575f5ffd5b6020850194505b8385101561017457845180825260209586019590935001610158565b509695505050505050565b61037d8061018c5f395ff3fe608060405234801561000f575f5ffd5b5060043610610055575f3560e01c80631f7b6d3214610059578063216ee6551461006f57806340aa934d1461008f5780638ea613b7146100a2578063e9fdbeba146100b5575b5f5ffd5b5f545b6040519081526020015b60405180910390f35b61008261007d366004610226565b6100ca565b60405161006691906102ee565b61005c61009d366004610330565b6100de565b6100826100b0366004610226565b6100f0565b6100c86100c3366004610330565b6100fb565b005b60606100d88261010761010b565b92915050565b5f6100e9818361011f565b5492915050565b60606100d882610146565b6101045f829055565b50565b1090565b6060610117838361015b565b509192915050565b5f8261013e61013b84610137845f9081526020902090565b0190565b90565b949350505050565b60606101548261017361015b565b5090919050565b60606101546020840161016d85610177565b8461018e565b1190565b5f81516020026101878360200190565b0192915050565b6040838303101561019e57505050565b5f6101a7845190565b905083602081015b848110156101e9576101cc6101c2825190565b848663ffffffff16565b156101e1576020919091018051825182528252905b6020016101af565b5084518151865281526101fd85828561018e565b61020b81602001858561018e565b5050505050565b634e487b7160e01b5f52604160045260245ffd5b5f60208284031215610236575f5ffd5b813567ffffffffffffffff81111561024c575f5ffd5b8201601f8101841361025c575f5ffd5b803567ffffffffffffffff81111561027657610276610212565b8060051b604051601f19603f830116810181811067ffffffffffffffff821117156102a3576102a3610212565b6040529182526020818401810192908101878411156102c0575f5ffd5b6020850194505b838510156102e3578435808252602095860195909350016102c7565b509695505050505050565b602080825282518282018190525f918401906040840190835b81811015610325578351835260209384019390920191600101610307565b509095945050505050565b5f60208284031215610340575f5ffd5b503591905056fea26469706673582212206be302206b697aac8783bdc46467dbcc6fc74525ac292194adb83b4ff9c209d364736f6c634300081b0033","linkReferences":{}},"methodIdentifiers":{"length()":"1f7b6d32","sort(bytes32[])":"8ea613b7","sortReverse(bytes32[])":"216ee655","unsafeAccess(uint256)":"40aa934d","unsafeSetLength(uint256)":"e9fdbeba"},"id":90}