{"abi":[{"type":"constructor","inputs":[{"name":"array","type":"string[]","internalType":"string[]"}],"stateMutability":"nonpayable"},{"type":"function","name":"length","inputs":[],"outputs":[{"name":"","type":"uint256","internalType":"uint256"}],"stateMutability":"view"},{"type":"function","name":"unsafeAccess","inputs":[{"name":"pos","type":"uint256","internalType":"uint256"}],"outputs":[{"name":"","type":"string","internalType":"string"}],"stateMutability":"view"},{"type":"function","name":"unsafeSetLength","inputs":[{"name":"newLength","type":"uint256","internalType":"uint256"}],"outputs":[],"stateMutability":"nonpayable"}],"bytecode":{"object":"0x608060405234801561000f575f5ffd5b506040516105cc3803806105cc83398101604081905261002e91610149565b8051610040905f906020840190610047565b50506103ab565b828054828255905f5260205f2090810192821561008b579160200282015b8281111561008b578251829061007b90826102f1565b5091602001919060010190610065565b5061009792915061009b565b5090565b80821115610097575f6100ae82826100b7565b5060010161009b565b5080546100c39061026d565b5f825580601f106100d2575050565b601f0160209004905f5260205f20908101906100ee91906100f1565b50565b5b80821115610097575f81556001016100f2565b634e487b7160e01b5f52604160045260245ffd5b604051601f8201601f191681016001600160401b038111828210171561014157610141610105565b604052919050565b5f60208284031215610159575f5ffd5b81516001600160401b0381111561016e575f5ffd5b8201601f8101841361017e575f5ffd5b80516001600160401b0381111561019757610197610105565b8060051b6101a760208201610119565b918252602081840181019290810190878411156101c2575f5ffd5b6020850192505b838310156102625782516001600160401b038111156101e6575f5ffd5b8501603f810189136101f6575f5ffd5b60208101516001600160401b0381111561021257610212610105565b610225601f8201601f1916602001610119565b8181526040838301018b1015610239575f5ffd5b8160408401602083015e5f602083830101528085525050506020820191506020830192506101c9565b979650505050505050565b600181811c9082168061028157607f821691505b60208210810361029f57634e487b7160e01b5f52602260045260245ffd5b50919050565b601f8211156102ec57805f5260205f20601f840160051c810160208510156102ca5750805b601f840160051c820191505b818110156102e9575f81556001016102d6565b50505b505050565b81516001600160401b0381111561030a5761030a610105565b61031e81610318845461026d565b846102a5565b6020601f821160018114610350575f83156103395750848201515b5f19600385901b1c1916600184901b1784556102e9565b5f84815260208120601f198516915b8281101561037f578785015182556020948501946001909201910161035f565b508482101561039c57868401515f19600387901b60f8161c191681555b50505050600190811b01905550565b610214806103b85f395ff3fe608060405234801561000f575f5ffd5b506004361061003f575f3560e01c80631f7b6d321461004357806340aa934d14610058578063e9fdbeba14610078575b5f5ffd5b5f546040519081526020015b60405180910390f35b61006b61006636600461015a565b61008d565b60405161004f9190610171565b61008b61008636600461015a565b610127565b005b60606100995f83610133565b80546100a4906101a6565b80601f01602080910402602001604051908101604052809291908181526020018280546100d0906101a6565b801561011b5780601f106100f25761010080835404028352916020019161011b565b820191905f5260205f20905b8154815290600101906020018083116100fe57829003601f168201915b50505050509050919050565b6101305f829055565b50565b5f8261015261014f8461014b845f9081526020902090565b0190565b90565b949350505050565b5f6020828403121561016a575f5ffd5b5035919050565b602081525f82518060208401528060208501604085015e5f604082850101526040601f19601f83011684010191505092915050565b600181811c908216806101ba57607f821691505b6020821081036101d857634e487b7160e01b5f52602260045260245ffd5b5091905056fea26469706673582212207e9defc01d75ff1a4b00d51361e25524baf4bf5a4146ae6125f8c0372ea5f22864736f6c634300081b0033","linkReferences":{}},"methodIdentifiers":{"length()":"1f7b6d32","unsafeAccess(uint256)":"40aa934d","unsafeSetLength(uint256)":"e9fdbeba"},"id":90}