{"abi":[{"type":"constructor","inputs":[{"name":"array","type":"uint256[]","internalType":"uint256[]"}],"stateMutability":"nonpayable"},{"type":"function","name":"findUpperBound","inputs":[{"name":"value","type":"uint256","internalType":"uint256"}],"outputs":[{"name":"","type":"uint256","internalType":"uint256"}],"stateMutability":"view"},{"type":"function","name":"length","inputs":[],"outputs":[{"name":"","type":"uint256","internalType":"uint256"}],"stateMutability":"view"},{"type":"function","name":"lowerBound","inputs":[{"name":"value","type":"uint256","internalType":"uint256"}],"outputs":[{"name":"","type":"uint256","internalType":"uint256"}],"stateMutability":"view"},{"type":"function","name":"lowerBoundMemory","inputs":[{"name":"array","type":"uint256[]","internalType":"uint256[]"},{"name":"value","type":"uint256","internalType":"uint256"}],"outputs":[{"name":"","type":"uint256","internalType":"uint256"}],"stateMutability":"pure"},{"type":"function","name":"sort","inputs":[{"name":"array","type":"uint256[]","internalType":"uint256[]"}],"outputs":[{"name":"","type":"uint256[]","internalType":"uint256[]"}],"stateMutability":"pure"},{"type":"function","name":"sortReverse","inputs":[{"name":"array","type":"uint256[]","internalType":"uint256[]"}],"outputs":[{"name":"","type":"uint256[]","internalType":"uint256[]"}],"stateMutability":"pure"},{"type":"function","name":"unsafeAccess","inputs":[{"name":"pos","type":"uint256","internalType":"uint256"}],"outputs":[{"name":"","type":"uint256","internalType":"uint256"}],"stateMutability":"view"},{"type":"function","name":"unsafeSetLength","inputs":[{"name":"newLength","type":"uint256","internalType":"uint256"}],"outputs":[],"stateMutability":"nonpayable"},{"type":"function","name":"upperBound","inputs":[{"name":"value","type":"uint256","internalType":"uint256"}],"outputs":[{"name":"","type":"uint256","internalType":"uint256"}],"stateMutability":"view"},{"type":"function","name":"upperBoundMemory","inputs":[{"name":"array","type":"uint256[]","internalType":"uint256[]"},{"name":"value","type":"uint256","internalType":"uint256"}],"outputs":[{"name":"","type":"uint256","internalType":"uint256"}],"stateMutability":"pure"}],"bytecode":{"object":"0x608060405234801561000f575f5ffd5b5060405161088238038061088283398101604081905261002e916100b8565b8051610040905f906020840190610047565b505061017f565b828054828255905f5260205f20908101928215610080579160200282015b82811115610080578251825591602001919060010190610065565b5061008c929150610090565b5090565b5b8082111561008c575f8155600101610091565b634e487b7160e01b5f52604160045260245ffd5b5f602082840312156100c8575f5ffd5b81516001600160401b038111156100dd575f5ffd5b8201601f810184136100ed575f5ffd5b80516001600160401b03811115610106576101066100a4565b604051600582901b90603f8201601f191681016001600160401b0381118282101715610134576101346100a4565b604052918252602081840181019290810187841115610151575f5ffd5b6020850194505b8385101561017457845180825260209586019590935001610158565b509695505050505050565b6106f68061018c5f395ff3fe608060405234801561000f575f5ffd5b506004361061009b575f3560e01c806340aa934d1161006357806340aa934d1461011257806374380a78146101255780639ec8b02614610138578063e9fdbeba1461014b578063ed44001714610160575f5ffd5b8063054615f61461009f5780631f7b6d32146100c5578063206ce879146100cc578063233c1d6a146100ec57806333e3a58a146100ff575b5f5ffd5b6100b26100ad36600461059a565b610173565b6040519081526020015b60405180910390f35b5f546100b2565b6100df6100da3660046105dc565b610187565b6040516100bc919061060e565b6100b26100fa366004610650565b610195565b6100b261010d366004610650565b6101a0565b6100b2610120366004610650565b6101ab565b6100b2610133366004610650565b6101bd565b6100df6101463660046105dc565b6101c8565b61015e610159366004610650565b6101d3565b005b6100b261016e36600461059a565b6101df565b5f61017e83836101ea565b90505b92915050565b606061018182610244610248565b5f6101818183610267565b5f61018181836102ba565b5f6101b68183610357565b5492915050565b5f610181818361037e565b6060610181826103d1565b6101dc5f829055565b50565b5f61017e83836103df565b81515f908190808203610201575f92505050610181565b8082101561023c575f6102148383610431565b60208082028801015190915085111561023257806001019250610236565b8091505b50610201565b509392505050565b1090565b60606102606020840161025a8561044b565b84610462565b5090919050565b81545f90819080820361027e575f92505050610181565b8082101561023c575f6102918383610431565b90508461029e8783610357565b5411156102ad578091506102b4565b8060010192505b5061027e565b81545f9081908082036102d1575f92505050610181565b80821015610314575f6102e48383610431565b9050846102f18783610357565b5411156103005780915061030e565b61030b81600161067b565b92505b506102d1565b5f821180156103365750836103338661032e60018661068e565b610357565b54145b1561034f5761034660018361068e565b92505050610181565b509050610181565b5f826103766103738461036f845f9081526020902090565b0190565b90565b949350505050565b81545f908190808203610395575f92505050610181565b8082101561023c575f6103a88383610431565b9050846103b58783610357565b5410156103c7578060010192506103cb565b8091505b50610395565b6060610260826104e6610248565b81515f9081908082036103f6575f92505050610181565b8082101561023c575f6104098383610431565b6020808202880101519091508510156104245780915061042b565b8060010192505b506103f6565b5f61043f60028484186106a1565b61017e9084841661067b565b5f815160200261045b8360200190565b0192915050565b6040838303101561047257505050565b5f61047b845190565b905083602081015b848110156104bd576104a0610496825190565b848663ffffffff16565b156104b5576020919091018051825182528252905b602001610483565b5084518151865281526104d1858285610462565b6104df816020018585610462565b5050505050565b1190565b634e487b7160e01b5f52604160045260245ffd5b5f82601f83011261050d575f5ffd5b813567ffffffffffffffff811115610527576105276104ea565b8060051b604051601f19603f830116810181811067ffffffffffffffff82111715610554576105546104ea565b604052918252602081850181019290810186841115610571575f5ffd5b6020860192505b83831015610590578235815260209283019201610578565b5095945050505050565b5f5f604083850312156105ab575f5ffd5b823567ffffffffffffffff8111156105c1575f5ffd5b6105cd858286016104fe565b95602094909401359450505050565b5f602082840312156105ec575f5ffd5b813567ffffffffffffffff811115610602575f5ffd5b610376848285016104fe565b602080825282518282018190525f918401906040840190835b81811015610645578351835260209384019390920191600101610627565b509095945050505050565b5f60208284031215610660575f5ffd5b5035919050565b634e487b7160e01b5f52601160045260245ffd5b8082018082111561018157610181610667565b8181038181111561018157610181610667565b5f826106bb57634e487b7160e01b5f52601260045260245ffd5b50049056fea2646970667358221220741a0f3482cebafacf50d6aaad7abf1e6873c324e783c84d7f66328965a55db364736f6c634300081b0033","linkReferences":{}},"methodIdentifiers":{"findUpperBound(uint256)":"33e3a58a","length()":"1f7b6d32","lowerBound(uint256)":"74380a78","lowerBoundMemory(uint256[],uint256)":"054615f6","sort(uint256[])":"9ec8b026","sortReverse(uint256[])":"206ce879","unsafeAccess(uint256)":"40aa934d","unsafeSetLength(uint256)":"e9fdbeba","upperBound(uint256)":"233c1d6a","upperBoundMemory(uint256[],uint256)":"ed440017"},"id":90}