{"abi":[{"type":"function","name":"multicall","inputs":[{"name":"data","type":"bytes[]","internalType":"bytes[]"}],"outputs":[{"name":"results","type":"bytes[]","internalType":"bytes[]"}],"stateMutability":"nonpayable"},{"type":"function","name":"tloadAddress","inputs":[{"name":"slot","type":"bytes32","internalType":"bytes32"}],"outputs":[],"stateMutability":"nonpayable"},{"type":"function","name":"tloadBoolean","inputs":[{"name":"slot","type":"bytes32","internalType":"bytes32"}],"outputs":[],"stateMutability":"nonpayable"},{"type":"function","name":"tloadBytes32","inputs":[{"name":"slot","type":"bytes32","internalType":"bytes32"}],"outputs":[],"stateMutability":"nonpayable"},{"type":"function","name":"tloadInt256","inputs":[{"name":"slot","type":"bytes32","internalType":"bytes32"}],"outputs":[],"stateMutability":"nonpayable"},{"type":"function","name":"tloadUint256","inputs":[{"name":"slot","type":"bytes32","internalType":"bytes32"}],"outputs":[],"stateMutability":"nonpayable"},{"type":"function","name":"tstore","inputs":[{"name":"slot","type":"bytes32","internalType":"bytes32"},{"name":"value","type":"address","internalType":"address"}],"outputs":[],"stateMutability":"nonpayable"},{"type":"function","name":"tstore","inputs":[{"name":"slot","type":"bytes32","internalType":"bytes32"},{"name":"value","type":"bool","internalType":"bool"}],"outputs":[],"stateMutability":"nonpayable"},{"type":"function","name":"tstore","inputs":[{"name":"slot","type":"bytes32","internalType":"bytes32"},{"name":"value","type":"uint256","internalType":"uint256"}],"outputs":[],"stateMutability":"nonpayable"},{"type":"function","name":"tstore","inputs":[{"name":"slot","type":"bytes32","internalType":"bytes32"},{"name":"value","type":"int256","internalType":"int256"}],"outputs":[],"stateMutability":"nonpayable"},{"type":"function","name":"tstore","inputs":[{"name":"slot","type":"bytes32","internalType":"bytes32"},{"name":"value","type":"bytes32","internalType":"bytes32"}],"outputs":[],"stateMutability":"nonpayable"},{"type":"event","name":"AddressValue","inputs":[{"name":"slot","type":"bytes32","indexed":false,"internalType":"bytes32"},{"name":"value","type":"address","indexed":false,"internalType":"address"}],"anonymous":false},{"type":"event","name":"BooleanValue","inputs":[{"name":"slot","type":"bytes32","indexed":false,"internalType":"bytes32"},{"name":"value","type":"bool","indexed":false,"internalType":"bool"}],"anonymous":false},{"type":"event","name":"Bytes32Value","inputs":[{"name":"slot","type":"bytes32","indexed":false,"internalType":"bytes32"},{"name":"value","type":"bytes32","indexed":false,"internalType":"bytes32"}],"anonymous":false},{"type":"event","name":"Int256Value","inputs":[{"name":"slot","type":"bytes32","indexed":false,"internalType":"bytes32"},{"name":"value","type":"int256","indexed":false,"internalType":"int256"}],"anonymous":false},{"type":"event","name":"Uint256Value","inputs":[{"name":"slot","type":"bytes32","indexed":false,"internalType":"bytes32"},{"name":"value","type":"uint256","indexed":false,"internalType":"uint256"}],"anonymous":false},{"type":"error","name":"AddressEmptyCode","inputs":[{"name":"target","type":"address","internalType":"address"}]},{"type":"error","name":"FailedCall","inputs":[]}],"bytecode":{"object":"0x6080604052348015600e575f5ffd5b506106da8061001c5f395ff3fe608060405234801561000f575f5ffd5b50600436106100a6575f3560e01c806385daa7b41161006e57806385daa7b414610101578063938ee4c8146100f3578063ac9650d814610114578063ba96e3ea1461013d578063bd4522bb14610150578063d25bb762146100f3575f5ffd5b806320656eb6146100aa5780632ddc1e8f146100bf5780634912c97c146100d25780635d6f2b93146100e5578063824bd70b146100f3575b5f5ffd5b6100bd6100b8366004610465565b610163565b005b6100bd6100cd36600461047c565b6101a4565b6100bd6100e0366004610465565b6101b2565b6100bd6100cd3660046104b5565b6100bd6100cd3660046104dc565b6100bd61010f366004610465565b6101db565b6101276101223660046104fc565b610213565b604051610134919061056d565b60405180910390f35b6100bd61014b366004610465565b6102f9565b6100bd61015e366004610465565b610338565b7f71eecf44688d15d894339e18504cad8f6634d454a9496b065503cebfac1f9b6381805c5b604080519283526020830191909152015b60405180910390a150565b6101ae8282610361565b5050565b7fbf9aaddfa8a1b987c7c32a9295dea19fb7b4e3b5b05f05c831f3634ef90e1a5e81805c610188565b60408051828152825c151560208201527f3d52ff56f17a99f5b126ffe58fc0ff5637819d2f2390fcb898ca339d5c7af2b39101610199565b604080515f8152602081019091526060908267ffffffffffffffff81111561023d5761023d6105f1565b60405190808252806020026020018201604052801561027057816020015b606081526020019060019003908161025b5790505b5091505f5b838110156102f1576102cc3086868481811061029357610293610605565b90506020028101906102a59190610619565b856040516020016102b89392919061067a565b604051602081830303815290604052610368565b8382815181106102de576102de610605565b6020908102919091010152600101610275565b505092915050565b604080518281526001600160a01b03835c1660208201527f28adb451742b081abc04788984120a5256bb9cb76cd5b61a181c8a088c08e49d9101610199565b7faa96f8aa155cc584d3b4080ac3c322f1347d2b82ac812e67a8ee926d3057a19881805c610188565b80825d5050565b60605f5f846001600160a01b0316846040516103849190610699565b5f60405180830381855af49150503d805f81146103bc576040519150601f19603f3d011682016040523d82523d5f602084013e6103c1565b606091505b50915091506103d18583836103da565b95945050505050565b6060826103ef576103ea8261043d565b610436565b815115801561040657506001600160a01b0384163b155b1561043357604051639996b31560e01b81526001600160a01b038516600482015260240160405180910390fd5b50805b9392505050565b80511561044c57805160208201fd5b60405163d6bda27560e01b815260040160405180910390fd5b5f60208284031215610475575f5ffd5b5035919050565b5f5f6040838503121561048d575f5ffd5b8235915060208301356001600160a01b03811681146104aa575f5ffd5b809150509250929050565b5f5f604083850312156104c6575f5ffd5b82359150602083013580151581146104aa575f5ffd5b5f5f604083850312156104ed575f5ffd5b50508035926020909101359150565b5f5f6020838503121561050d575f5ffd5b823567ffffffffffffffff811115610523575f5ffd5b8301601f81018513610533575f5ffd5b803567ffffffffffffffff811115610549575f5ffd5b8560208260051b840101111561055d575f5ffd5b6020919091019590945092505050565b5f602082016020835280845180835260408501915060408160051b8601019250602086015f5b828110156105e557603f19878603018452815180518087528060208301602089015e5f602082890101526020601f19601f83011688010196505050602082019150602084019350600181019050610593565b50929695505050505050565b634e487b7160e01b5f52604160045260245ffd5b634e487b7160e01b5f52603260045260245ffd5b5f5f8335601e1984360301811261062e575f5ffd5b83018035915067ffffffffffffffff821115610648575f5ffd5b60200191503681900382131561065c575f5ffd5b9250929050565b5f81518060208401855e5f93019283525090919050565b828482375f8382015f815261068f8185610663565b9695505050505050565b5f610436828461066356fea2646970667358221220ab6ee8980294021b34cd7ee567cee2393123b7930e1d1730a1d0abc24437ec6d64736f6c634300081b0033","linkReferences":{}},"methodIdentifiers":{"multicall(bytes[])":"ac9650d8","tloadAddress(bytes32)":"ba96e3ea","tloadBoolean(bytes32)":"85daa7b4","tloadBytes32(bytes32)":"4912c97c","tloadInt256(bytes32)":"20656eb6","tloadUint256(bytes32)":"bd4522bb","tstore(bytes32,address)":"2ddc1e8f","tstore(bytes32,bool)":"5d6f2b93","tstore(bytes32,bytes32)":"d25bb762","tstore(bytes32,int256)":"938ee4c8","tstore(bytes32,uint256)":"824bd70b"},"id":122}