{"abi":[{"type":"function","name":"allowance","inputs":[{"name":"owner","type":"address","internalType":"address"},{"name":"spender","type":"address","internalType":"address"}],"outputs":[{"name":"","type":"uint256","internalType":"uint256"}],"stateMutability":"view"},{"type":"function","name":"approve","inputs":[{"name":"spender","type":"address","internalType":"address"},{"name":"value","type":"uint256","internalType":"uint256"}],"outputs":[{"name":"","type":"bool","internalType":"bool"}],"stateMutability":"nonpayable"},{"type":"function","name":"balanceOf","inputs":[{"name":"account","type":"address","internalType":"address"}],"outputs":[{"name":"","type":"uint256","internalType":"uint256"}],"stateMutability":"view"},{"type":"function","name":"decimals","inputs":[],"outputs":[{"name":"","type":"uint8","internalType":"uint8"}],"stateMutability":"view"},{"type":"function","name":"functionCall","inputs":[{"name":"target","type":"address","internalType":"address"},{"name":"data","type":"bytes","internalType":"bytes"}],"outputs":[{"name":"","type":"bytes","internalType":"bytes"}],"stateMutability":"nonpayable"},{"type":"function","name":"name","inputs":[],"outputs":[{"name":"","type":"string","internalType":"string"}],"stateMutability":"view"},{"type":"function","name":"scheduleReenter","inputs":[{"name":"when","type":"uint8","internalType":"enum ERC20Reentrant.Type"},{"name":"target","type":"address","internalType":"address"},{"name":"data","type":"bytes","internalType":"bytes"}],"outputs":[],"stateMutability":"nonpayable"},{"type":"function","name":"symbol","inputs":[],"outputs":[{"name":"","type":"string","internalType":"string"}],"stateMutability":"view"},{"type":"function","name":"totalSupply","inputs":[],"outputs":[{"name":"","type":"uint256","internalType":"uint256"}],"stateMutability":"view"},{"type":"function","name":"transfer","inputs":[{"name":"to","type":"address","internalType":"address"},{"name":"value","type":"uint256","internalType":"uint256"}],"outputs":[{"name":"","type":"bool","internalType":"bool"}],"stateMutability":"nonpayable"},{"type":"function","name":"transferFrom","inputs":[{"name":"from","type":"address","internalType":"address"},{"name":"to","type":"address","internalType":"address"},{"name":"value","type":"uint256","internalType":"uint256"}],"outputs":[{"name":"","type":"bool","internalType":"bool"}],"stateMutability":"nonpayable"},{"type":"event","name":"Approval","inputs":[{"name":"owner","type":"address","indexed":true,"internalType":"address"},{"name":"spender","type":"address","indexed":true,"internalType":"address"},{"name":"value","type":"uint256","indexed":false,"internalType":"uint256"}],"anonymous":false},{"type":"event","name":"Transfer","inputs":[{"name":"from","type":"address","indexed":true,"internalType":"address"},{"name":"to","type":"address","indexed":true,"internalType":"address"},{"name":"value","type":"uint256","indexed":false,"internalType":"uint256"}],"anonymous":false},{"type":"error","name":"AddressEmptyCode","inputs":[{"name":"target","type":"address","internalType":"address"}]},{"type":"error","name":"ERC20InsufficientAllowance","inputs":[{"name":"spender","type":"address","internalType":"address"},{"name":"allowance","type":"uint256","internalType":"uint256"},{"name":"needed","type":"uint256","internalType":"uint256"}]},{"type":"error","name":"ERC20InsufficientBalance","inputs":[{"name":"sender","type":"address","internalType":"address"},{"name":"balance","type":"uint256","internalType":"uint256"},{"name":"needed","type":"uint256","internalType":"uint256"}]},{"type":"error","name":"ERC20InvalidApprover","inputs":[{"name":"approver","type":"address","internalType":"address"}]},{"type":"error","name":"ERC20InvalidReceiver","inputs":[{"name":"receiver","type":"address","internalType":"address"}]},{"type":"error","name":"ERC20InvalidSender","inputs":[{"name":"sender","type":"address","internalType":"address"}]},{"type":"error","name":"ERC20InvalidSpender","inputs":[{"name":"spender","type":"address","internalType":"address"}]},{"type":"error","name":"FailedCall","inputs":[]},{"type":"error","name":"InsufficientBalance","inputs":[{"name":"balance","type":"uint256","internalType":"uint256"},{"name":"needed","type":"uint256","internalType":"uint256"}]}],"bytecode":{"object":"0x608060405234801561000f575f5ffd5b5060405180604001604052806004815260200163151154d560e21b815250604051806040016040528060038152602001621514d560ea1b81525081600390816100589190610105565b5060046100658282610105565b5050506101bf565b634e487b7160e01b5f52604160045260245ffd5b600181811c9082168061009557607f821691505b6020821081036100b357634e487b7160e01b5f52602260045260245ffd5b50919050565b601f82111561010057805f5260205f20601f840160051c810160208510156100de5750805b601f840160051c820191505b818110156100fd575f81556001016100ea565b50505b505050565b81516001600160401b0381111561011e5761011e61006d565b6101328161012c8454610081565b846100b9565b6020601f821160018114610164575f831561014d5750848201515b5f19600385901b1c1916600184901b1784556100fd565b5f84815260208120601f198516915b828110156101935787850151825560209485019460019092019101610173565b50848210156101b057868401515f19600387901b60f8161c191681555b50505050600190811b01905550565b610c70806101cc5f395ff3fe608060405234801561000f575f5ffd5b50600436106100a6575f3560e01c806370a082311161006e57806370a082311461011f57806395d89b4114610147578063a0b5ffb01461014f578063a9059cbb14610162578063cd594b6314610175578063dd62ed3e1461018a575f5ffd5b806306fdde03146100aa578063095ea7b3146100c857806318160ddd146100eb57806323b872dd146100fd578063313ce56714610110575b5f5ffd5b6100b26101c2565b6040516100bf919061087b565b60405180910390f35b6100db6100d63660046108a8565b610252565b60405190151581526020016100bf565b6002545b6040519081526020016100bf565b6100db61010b3660046108d0565b61026b565b604051601281526020016100bf565b6100ef61012d36600461090a565b6001600160a01b03165f9081526020819052604090205490565b6100b2610290565b6100b261015d366004610937565b61029f565b6100db6101703660046108a8565b6102ab565b6101886101833660046109fb565b6102b8565b005b6100ef610198366004610a8a565b6001600160a01b039182165f90815260016020908152604080832093909416825291909152205490565b6060600380546101d190610abb565b80601f01602080910402602001604051908101604052809291908181526020018280546101fd90610abb565b80156102485780601f1061021f57610100808354040283529160200191610248565b820191905f5260205f20905b81548152906001019060200180831161022b57829003601f168201915b5050505050905090565b5f3361025f818585610310565b60019150505b92915050565b5f33610278858285610322565b6102838585856103a3565b60019150505b9392505050565b6060600480546101d190610abb565b60606102898383610400565b5f3361025f8185856103a3565b6005805485919060ff191660018360028111156102d7576102d7610af3565b021790555060058054610100600160a81b0319166101006001600160a01b038616021790556006610309828483610b4b565b5050505050565b61031d838383600161040d565b505050565b6001600160a01b038381165f908152600160209081526040808320938616835292905220545f1981101561039d578181101561038f57604051637dc7a0d960e11b81526001600160a01b038416600482015260248101829052604481018390526064015b60405180910390fd5b61039d84848484035f61040d565b50505050565b6001600160a01b0383166103cc57604051634b637e8f60e11b81525f6004820152602401610386565b6001600160a01b0382166103f55760405163ec442f0560e01b81525f6004820152602401610386565b61031d8383836104df565b606061028983835f610603565b6001600160a01b0384166104365760405163e602df0560e01b81525f6004820152602401610386565b6001600160a01b03831661045f57604051634a1406b160e11b81525f6004820152602401610386565b6001600160a01b038085165f908152600160209081526040808320938716835292905220829055801561039d57826001600160a01b0316846001600160a01b03167f8c5be1e5ebec7d5bd14f71427d1e84f3dd0314c0f7b2291e5b200ac8c7c3b925846040516104d191815260200190565b60405180910390a350505050565b600160055460ff1660028111156104f8576104f8610af3565b036105ad576005805460ff191690819055600680546105ab9261010090046001600160a01b0316919061052a90610abb565b80601f016020809104026020016040519081016040528092919081815260200182805461055690610abb565b80156105a15780601f10610578576101008083540402835291602001916105a1565b820191905f5260205f20905b81548152906001019060200180831161058457829003601f168201915b505050505061029f565b505b6105b88383836106a3565b600260055460ff1660028111156105d1576105d1610af3565b0361031d576005805460ff1916908190556006805461039d9261010090046001600160a01b0316919061052a90610abb565b60608147101561062f5760405163cf47918160e01b815247600482015260248101839052604401610386565b5f5f856001600160a01b0316848660405161064a9190610c05565b5f6040518083038185875af1925050503d805f8114610684576040519150601f19603f3d011682016040523d82523d5f602084013e610689565b606091505b50915091506106998683836107c9565b9695505050505050565b6001600160a01b0383166106cd578060025f8282546106c29190610c1b565b9091555061073d9050565b6001600160a01b0383165f908152602081905260409020548181101561071f5760405163391434e360e21b81526001600160a01b03851660048201526024810182905260448101839052606401610386565b6001600160a01b0384165f9081526020819052604090209082900390555b6001600160a01b03821661075957600280548290039055610777565b6001600160a01b0382165f9081526020819052604090208054820190555b816001600160a01b0316836001600160a01b03167fddf252ad1be2c89b69c2b068fc378daa952ba7f163c4a11628f55a4df523b3ef836040516107bc91815260200190565b60405180910390a3505050565b6060826107de576107d982610825565b610289565b81511580156107f557506001600160a01b0384163b155b1561081e57604051639996b31560e01b81526001600160a01b0385166004820152602401610386565b5080610289565b80511561083457805160208201fd5b60405163d6bda27560e01b815260040160405180910390fd5b5f81518084528060208401602086015e5f602082860101526020601f19601f83011685010191505092915050565b602081525f610289602083018461084d565b80356001600160a01b03811681146108a3575f5ffd5b919050565b5f5f604083850312156108b9575f5ffd5b6108c28361088d565b946020939093013593505050565b5f5f5f606084860312156108e2575f5ffd5b6108eb8461088d565b92506108f96020850161088d565b929592945050506040919091013590565b5f6020828403121561091a575f5ffd5b6102898261088d565b634e487b7160e01b5f52604160045260245ffd5b5f5f60408385031215610948575f5ffd5b6109518361088d565b9150602083013567ffffffffffffffff81111561096c575f5ffd5b8301601f8101851361097c575f5ffd5b803567ffffffffffffffff81111561099657610996610923565b604051601f8201601f19908116603f0116810167ffffffffffffffff811182821017156109c5576109c5610923565b6040528181528282016020018710156109dc575f5ffd5b816020840160208301375f602083830101528093505050509250929050565b5f5f5f5f60608587031215610a0e575f5ffd5b843560038110610a1c575f5ffd5b9350610a2a6020860161088d565b9250604085013567ffffffffffffffff811115610a45575f5ffd5b8501601f81018713610a55575f5ffd5b803567ffffffffffffffff811115610a6b575f5ffd5b876020828401011115610a7c575f5ffd5b949793965060200194505050565b5f5f60408385031215610a9b575f5ffd5b610aa48361088d565b9150610ab26020840161088d565b90509250929050565b600181811c90821680610acf57607f821691505b602082108103610aed57634e487b7160e01b5f52602260045260245ffd5b50919050565b634e487b7160e01b5f52602160045260245ffd5b601f82111561031d57805f5260205f20601f840160051c81016020851015610b2c5750805b601f840160051c820191505b81811015610309575f8155600101610b38565b67ffffffffffffffff831115610b6357610b63610923565b610b7783610b718354610abb565b83610b07565b5f601f841160018114610ba8575f8515610b915750838201355b5f19600387901b1c1916600186901b178355610309565b5f83815260208120601f198716915b82811015610bd75786850135825560209485019460019092019101610bb7565b5086821015610bf3575f1960f88860031b161c19848701351681555b505060018560011b0183555050505050565b5f82518060208501845e5f920191825250919050565b8082018082111561026557634e487b7160e01b5f52601160045260245ffdfea26469706673582212200b90876f9362943ab048af4041c8a8973a9a138f1204f26251c4f2c2881bc04e64736f6c634300081b0033","linkReferences":{}},"methodIdentifiers":{"allowance(address,address)":"dd62ed3e","approve(address,uint256)":"095ea7b3","balanceOf(address)":"70a08231","decimals()":"313ce567","functionCall(address,bytes)":"a0b5ffb0","name()":"06fdde03","scheduleReenter(uint8,address,bytes)":"cd594b63","symbol()":"95d89b41","totalSupply()":"18160ddd","transfer(address,uint256)":"a9059cbb","transferFrom(address,address,uint256)":"23b872dd"},"id":186}