{"abi":[{"type":"function","name":"checkReturnValues","inputs":[{"name":"multicallToken","type":"address","internalType":"contract ERC20MulticallMock"},{"name":"recipients","type":"address[]","internalType":"address[]"},{"name":"amounts","type":"uint256[]","internalType":"uint256[]"}],"outputs":[],"stateMutability":"nonpayable"}],"bytecode":{"object":"0x6080604052348015600e575f5ffd5b5061057c8061001c5f395ff3fe608060405234801561000f575f5ffd5b5060043610610029575f3560e01c8063b568d0161461002d575b5f5ffd5b61004061003b36600461027e565b610042565b005b5f8367ffffffffffffffff81111561005c5761005c610300565b60405190808252806020026020018201604052801561008f57816020015b606081526020019060019003908161007a5790505b5090505f5b8481101561015a57866001600160a01b031663a9059cbb8787848181106100bd576100bd610314565b90506020020160208101906100d29190610328565b8686858181106100e4576100e4610314565b6040516001600160a01b0390941660248501526020029190910135604483015250606401604051602081830303815290604052915060e01b6020820180516001600160e01b03838183161783525050505082828151811061014757610147610314565b6020908102919091010152600101610094565b50604051631592ca1b60e31b81525f906001600160a01b0388169063ac9650d89061018990859060040161034a565b5f604051808303815f875af11580156101a4573d5f5f3e3d5ffd5b505050506040513d5f823e601f3d908101601f191682016040526101cb91908101906103ff565b90505f5b8151811015610215578181815181106101ea576101ea610314565b60200260200101518060200190518101906102059190610527565b61020d575f5ffd5b6001016101cf565b5050505050505050565b6001600160a01b0381168114610233575f5ffd5b50565b5f5f83601f840112610246575f5ffd5b50813567ffffffffffffffff81111561025d575f5ffd5b6020830191508360208260051b8501011115610277575f5ffd5b9250929050565b5f5f5f5f5f60608688031215610292575f5ffd5b853561029d8161021f565b9450602086013567ffffffffffffffff8111156102b8575f5ffd5b6102c488828901610236565b909550935050604086013567ffffffffffffffff8111156102e3575f5ffd5b6102ef88828901610236565b969995985093965092949392505050565b634e487b7160e01b5f52604160045260245ffd5b634e487b7160e01b5f52603260045260245ffd5b5f60208284031215610338575f5ffd5b81356103438161021f565b9392505050565b5f602082016020835280845180835260408501915060408160051b8601019250602086015f5b828110156103c257603f19878603018452815180518087528060208301602089015e5f602082890101526020601f19601f83011688010196505050602082019150602084019350600181019050610370565b50929695505050505050565b604051601f8201601f1916810167ffffffffffffffff811182821017156103f7576103f7610300565b604052919050565b5f6020828403121561040f575f5ffd5b815167ffffffffffffffff811115610425575f5ffd5b8201601f81018413610435575f5ffd5b805167ffffffffffffffff81111561044f5761044f610300565b8060051b61045f602082016103ce565b9182526020818401810192908101908784111561047a575f5ffd5b6020850192505b8383101561051c57825167ffffffffffffffff81111561049f575f5ffd5b8501603f810189136104af575f5ffd5b602081015167ffffffffffffffff8111156104cc576104cc610300565b6104df601f8201601f19166020016103ce565b8181526040838301018b10156104f3575f5ffd5b8160408401602083015e5f60208383010152808552505050602082019150602083019250610481565b979650505050505050565b5f60208284031215610537575f5ffd5b81518015158114610343575f5ffdfea26469706673582212207802d2a0b0b43db41c4c31f0829d2198baddcb56a21cf03eea5ae831e299562e64736f6c634300081b0033","linkReferences":{}},"methodIdentifiers":{"checkReturnValues(address,address[],uint256[])":"b568d016"},"id":111}