{"abi":[{"type":"function","name":"execute","inputs":[{"name":"calls","type":"tuple[]","internalType":"struct BatchCaller.Call[]","components":[{"name":"target","type":"address","internalType":"address"},{"name":"value","type":"uint256","internalType":"uint256"},{"name":"data","type":"bytes","internalType":"bytes"}]}],"outputs":[{"name":"","type":"bytes[]","internalType":"bytes[]"}],"stateMutability":"nonpayable"},{"type":"error","name":"AddressEmptyCode","inputs":[{"name":"target","type":"address","internalType":"address"}]},{"type":"error","name":"FailedCall","inputs":[]},{"type":"error","name":"InsufficientBalance","inputs":[{"name":"balance","type":"uint256","internalType":"uint256"},{"name":"needed","type":"uint256","internalType":"uint256"}]}],"bytecode":{"object":"0x6080604052348015600e575f5ffd5b506104cb8061001c5f395ff3fe608060405234801561000f575f5ffd5b5060043610610029575f3560e01c80633f707e6b1461002d575b5f5ffd5b61004061003b3660046102d4565b610056565b60405161004d9190610345565b60405180910390f35b60605f8267ffffffffffffffff811115610072576100726103c9565b6040519080825280602002602001820160405280156100a557816020015b60608152602001906001900390816100905790505b5090505f5b838110156101a15761017c8585838181106100c7576100c76103dd565b90506020028101906100d991906103f1565b6100e790602081019061040f565b8686848181106100f9576100f96103dd565b905060200281019061010b91906103f1565b610119906040810190610435565b8080601f0160208091040260200160405190810160405280939291908181526020018383808284375f920191909152508a9250899150869050818110610161576101616103dd565b905060200281019061017391906103f1565b602001356101a9565b82828151811061018e5761018e6103dd565b60209081029190910101526001016100aa565b509392505050565b6060814710156101da5760405163cf47918160e01b8152476004820152602481018390526044015b60405180910390fd5b5f5f856001600160a01b031684866040516101f5919061047f565b5f6040518083038185875af1925050503d805f811461022f576040519150601f19603f3d011682016040523d82523d5f602084013e610234565b606091505b5091509150610244868383610250565b925050505b9392505050565b60608261026557610260826102ac565b610249565b815115801561027c57506001600160a01b0384163b155b156102a557604051639996b31560e01b81526001600160a01b03851660048201526024016101d1565b5080610249565b8051156102bb57805160208201fd5b60405163d6bda27560e01b815260040160405180910390fd5b5f5f602083850312156102e5575f5ffd5b823567ffffffffffffffff8111156102fb575f5ffd5b8301601f8101851361030b575f5ffd5b803567ffffffffffffffff811115610321575f5ffd5b8560208260051b8401011115610335575f5ffd5b6020919091019590945092505050565b5f602082016020835280845180835260408501915060408160051b8601019250602086015f5b828110156103bd57603f19878603018452815180518087528060208301602089015e5f602082890101526020601f19601f8301168801019650505060208201915060208401935060018101905061036b565b50929695505050505050565b634e487b7160e01b5f52604160045260245ffd5b634e487b7160e01b5f52603260045260245ffd5b5f8235605e19833603018112610405575f5ffd5b9190910192915050565b5f6020828403121561041f575f5ffd5b81356001600160a01b0381168114610249575f5ffd5b5f5f8335601e1984360301811261044a575f5ffd5b83018035915067ffffffffffffffff821115610464575f5ffd5b602001915036819003821315610478575f5ffd5b9250929050565b5f82518060208501845e5f92019182525091905056fea264697066735822122090ba68137771c6eb14b5e28d30b2ded2e205058b0c2fc249168bc3c4bb17828a64736f6c634300081b0033","linkReferences":{}},"methodIdentifiers":{"execute((address,uint256,bytes)[])":"3f707e6b"},"id":93}