{
  "_format": "hh-sol-artifact-1",
  "contractName": "DudenNFTFactory",
  "sourceName": "contracts/DudenNFTFactory.sol",
  "abi": [
    {
      "anonymous": false,
      "inputs": [
        {
          "indexed": true,
          "internalType": "address",
          "name": "collectionAddress",
          "type": "address"
        },
        {
          "indexed": true,
          "internalType": "address",
          "name": "creator",
          "type": "address"
        },
        {
          "indexed": false,
          "internalType": "string",
          "name": "name",
          "type": "string"
        },
        {
          "indexed": false,
          "internalType": "string",
          "name": "symbol",
          "type": "string"
        },
        {
          "indexed": false,
          "internalType": "uint256",
          "name": "timestamp",
          "type": "uint256"
        }
      ],
      "name": "CollectionCreated",
      "type": "event"
    },
    {
      "inputs": [],
      "name": "createCollection",
      "outputs": [
        {
          "internalType": "address",
          "name": "collectionAddress",
          "type": "address"
        }
      ],
      "stateMutability": "nonpayable",
      "type": "function"
    },
    {
      "inputs": [
        {
          "internalType": "uint256",
          "name": "count",
          "type": "uint256"
        }
      ],
      "name": "createMultipleCollections",
      "outputs": [
        {
          "internalType": "address[]",
          "name": "collectionAddresses",
          "type": "address[]"
        }
      ],
      "stateMutability": "nonpayable",
      "type": "function"
    },
    {
      "inputs": [
        {
          "internalType": "uint256",
          "name": "",
          "type": "uint256"
        }
      ],
      "name": "deployedCollections",
      "outputs": [
        {
          "internalType": "contract DudenNFT",
          "name": "",
          "type": "address"
        }
      ],
      "stateMutability": "view",
      "type": "function"
    },
    {
      "inputs": [],
      "name": "getAllCollections",
      "outputs": [
        {
          "internalType": "address[]",
          "name": "collections",
          "type": "address[]"
        }
      ],
      "stateMutability": "view",
      "type": "function"
    },
    {
      "inputs": [
        {
          "internalType": "uint256",
          "name": "collectionIndex",
          "type": "uint256"
        }
      ],
      "name": "getCollectionDetails",
      "outputs": [
        {
          "internalType": "address",
          "name": "collectionAddress",
          "type": "address"
        },
        {
          "internalType": "address",
          "name": "creator",
          "type": "address"
        },
        {
          "internalType": "string",
          "name": "name",
          "type": "string"
        },
        {
          "internalType": "string",
          "name": "symbol",
          "type": "string"
        }
      ],
      "stateMutability": "view",
      "type": "function"
    },
    {
      "inputs": [
        {
          "internalType": "address",
          "name": "user",
          "type": "address"
        }
      ],
      "name": "getUserCollectionCount",
      "outputs": [
        {
          "internalType": "uint256",
          "name": "count",
          "type": "uint256"
        }
      ],
      "stateMutability": "view",
      "type": "function"
    },
    {
      "inputs": [
        {
          "internalType": "address",
          "name": "user",
          "type": "address"
        }
      ],
      "name": "getUserCollections",
      "outputs": [
        {
          "internalType": "address[]",
          "name": "collections",
          "type": "address[]"
        }
      ],
      "stateMutability": "view",
      "type": "function"
    },
    {
      "inputs": [],
      "name": "totalCollections",
      "outputs": [
        {
          "internalType": "uint256",
          "name": "",
          "type": "uint256"
        }
      ],
      "stateMutability": "view",
      "type": "function"
    },
    {
      "inputs": [
        {
          "internalType": "address",
          "name": "",
          "type": "address"
        },
        {
          "internalType": "uint256",
          "name": "",
          "type": "uint256"
        }
      ],
      "name": "userCollections",
      "outputs": [
        {
          "internalType": "contract DudenNFT",
          "name": "",
          "type": "address"
        }
      ],
      "stateMutability": "view",
      "type": "function"
    }
  ],
  "bytecode": "0x6080604052348015600f57600080fd5b506121b38061001f6000396000f3fe608060405234801561001057600080fd5b50600436106100935760003560e01c80636804a958116100665780636804a958146100fa57806372264ee61461010f5780638cf6b0e8146101225780639aa5ad8c1461014b578063a1cc10081461015e57600080fd5b806331d9b40914610098578063428a6171146100c857806361d9db2d146100db578063647f1a9c146100f2575b600080fd5b6100ab6100a63660046107fd565b610181565b6040516001600160a01b0390911681526020015b60405180910390f35b6100ab6100d636600461082e565b6101ab565b6100e460025481565b6040519081526020016100bf565b6100ab6101e3565b6101026102e3565b6040516100bf919061085a565b61010261011d3660046107fd565b6103a1565b6100e46101303660046108a6565b6001600160a01b031660009081526001602052604090205490565b6101026101593660046108a6565b610569565b61017161016c3660046107fd565b610640565b6040516100bf949392919061091a565b6000818154811061019157600080fd5b6000918252602090912001546001600160a01b0316905081565b600160205281600052604060002081815481106101c757600080fd5b6000918252602090912001546001600160a01b03169150829050565b6000806040516101f2906107f0565b604051809103906000f08015801561020e573d6000803e3d6000fd5b5060008054600181810183557f290decd9548b62a8d60345a988386fc84ba6bc95484008f6362f93160ef3e56390910180546001600160a01b0385166001600160a01b0319918216811790925533845260208381526040852080549485018155855284209092018054909216179055600280549293509061028e83610963565b9190505550336001600160a01b0316816001600160a01b03167f7697d6df79350f3236f33512b2cff1f0c0d6c9fc7466cc4723189d4618e9fd52426040516102d6919061098a565b60405180910390a3919050565b60005460609067ffffffffffffffff811115610301576103016109cb565b60405190808252806020026020018201604052801561032a578160200160208202803683370190505b50905060005b60005481101561039d576000818154811061034d5761034d6109e1565b9060005260206000200160009054906101000a90046001600160a01b031682828151811061037d5761037d6109e1565b6001600160a01b0390921660209283029190910190910152600101610330565b5090565b60606000821180156103b45750600a8211155b6103f55760405162461bcd60e51b815260206004820152600d60248201526c125b9d985b1a590818dbdd5b9d609a1b60448201526064015b60405180910390fd5b8167ffffffffffffffff81111561040e5761040e6109cb565b604051908082528060200260200182016040528015610437578160200160208202803683370190505b50905060005b82811015610563576000604051610453906107f0565b604051809103906000f08015801561046f573d6000803e3d6000fd5b5060008054600181810183557f290decd9548b62a8d60345a988386fc84ba6bc95484008f6362f93160ef3e56390910180546001600160a01b0385166001600160a01b031991821681179092553384526020838152604085208054948501815585528420909201805490921617905560028054929350906104ef83610963565b919050555080838381518110610507576105076109e1565b6001600160a01b03928316602091820292909201015260405133918316907f7697d6df79350f3236f33512b2cff1f0c0d6c9fc7466cc4723189d4618e9fd529061055290429061098a565b60405180910390a35060010161043d565b50919050565b6001600160a01b038116600090815260016020526040902080546060919067ffffffffffffffff81111561059f5761059f6109cb565b6040519080825280602002602001820160405280156105c8578160200160208202803683370190505b50915060005b8154811015610639578181815481106105e9576105e96109e1565b9060005260206000200160009054906101000a90046001600160a01b0316838281518110610619576106196109e1565b6001600160a01b03909216602092830291909101909101526001016105ce565b5050919050565b600080606080600080549050851061068a5760405162461bcd60e51b815260206004820152600d60248201526c092dcecc2d8d2c840d2dcc8caf609b1b60448201526064016103ec565b600080868154811061069e5761069e6109e1565b6000918252602091829020015460408051638da5cb5b60e01b815290516001600160a01b0390921697508793508392638da5cb5b926004808401938290030181865afa1580156106f2573d6000803e3d6000fd5b505050506040513d601f19601f8201168201806040525081019061071691906109f7565b9350806001600160a01b03166306fdde036040518163ffffffff1660e01b8152600401600060405180830381865afa158015610756573d6000803e3d6000fd5b505050506040513d6000823e601f3d908101601f1916820160405261077e9190810190610a14565b9250806001600160a01b03166395d89b416040518163ffffffff1660e01b8152600401600060405180830381865afa1580156107be573d6000803e3d6000fd5b505050506040513d6000823e601f3d908101601f191682016040526107e69190810190610a14565b9150509193509193565b6116b480610aca83390190565b60006020828403121561080f57600080fd5b5035919050565b6001600160a01b038116811461082b57600080fd5b50565b6000806040838503121561084157600080fd5b823561084c81610816565b946020939093013593505050565b602080825282518282018190526000918401906040840190835b8181101561089b5783516001600160a01b0316835260209384019390920191600101610874565b509095945050505050565b6000602082840312156108b857600080fd5b81356108c381610816565b9392505050565b60005b838110156108e55781810151838201526020016108cd565b50506000910152565b600081518084526109068160208601602086016108ca565b601f01601f19169290920160200192915050565b6001600160a01b03858116825284166020820152608060408201819052600090610946908301856108ee565b828103606084015261095881856108ee565b979650505050505050565b60006001820161098357634e487b7160e01b600052601160045260246000fd5b5060010190565b6060808252600490820152634455444560e01b608082015260a0602082018190526003908201526244444560e81b60c0820152604081019190915260e00190565b634e487b7160e01b600052604160045260246000fd5b634e487b7160e01b600052603260045260246000fd5b600060208284031215610a0957600080fd5b81516108c381610816565b600060208284031215610a2657600080fd5b815167ffffffffffffffff811115610a3d57600080fd5b8201601f81018413610a4e57600080fd5b805167ffffffffffffffff811115610a6857610a686109cb565b604051601f8201601f19908116603f0116810167ffffffffffffffff81118282101715610a9757610a976109cb565b604052818152828201602001861015610aaf57600080fd5b610ac08260208301602086016108ca565b9594505050505056fe608060405234801561001057600080fd5b5033604051806040016040528060048152602001634455444560e01b8152506040518060400160405280600381526020016244444560e81b815250816000908161005a9190610198565b5060016100678282610198565b5050506001600160a01b03811661009857604051631e4fbdf760e01b81526000600482015260240160405180910390fd5b6100a1816100a7565b50610256565b600780546001600160a01b038381166001600160a01b0319831681179093556040519116919082907f8be0079c531659141344cd1fd0a4f28419497f9722a3daafe3b4186f6b6457e090600090a35050565b634e487b7160e01b600052604160045260246000fd5b600181811c9082168061012357607f821691505b60208210810361014357634e487b7160e01b600052602260045260246000fd5b50919050565b601f82111561019357806000526020600020601f840160051c810160208510156101705750805b601f840160051c820191505b81811015610190576000815560010161017c565b50505b505050565b81516001600160401b038111156101b1576101b16100f9565b6101c5816101bf845461010f565b84610149565b6020601f8211600181146101f957600083156101e15750848201515b600019600385901b1c1916600184901b178455610190565b600084815260208120601f198516915b828110156102295787850151825560209485019460019092019101610209565b50848210156102475786840151600019600387901b60f8161c191681555b50505050600190811b01905550565b61144f806102656000396000f3fe608060405234801561001057600080fd5b50600436106101215760003560e01c806370a08231116100ad578063a22cb46511610071578063a22cb4651461024c578063b88d4fde1461025f578063c87b56dd14610272578063e985e9c514610285578063f2fde38b1461029857600080fd5b806370a0823114610210578063715018a61461022357806378ce90351461022b5780638da5cb5b1461023357806395d89b411461024457600080fd5b806323b872dd116100f457806323b872dd146101a357806342842e0e146101b65780634c8a900f146101c957806354ba0f27146101dc5780636352211e146101fd57600080fd5b806301ffc9a71461012657806306fdde031461014e578063081812fc14610163578063095ea7b31461018e575b600080fd5b610139610134366004610f4c565b6102ab565b60405190151581526020015b60405180910390f35b6101566102d6565b6040516101459190610fb9565b610176610171366004610fcc565b610368565b6040516001600160a01b039091168152602001610145565b6101a161019c366004610ffc565b610391565b005b6101a16101b1366004611026565b6103a0565b6101a16101c4366004611026565b610430565b6101a16101d7366004610ffc565b610450565b6101ef6101ea366004611063565b610475565b604051908152602001610145565b61017661020b366004610fcc565b6104ca565b6101ef61021e366004611063565b6104d5565b6101a161051d565b610156610531565b6007546001600160a01b0316610176565b61015661054d565b6101a161025a36600461107e565b61055c565b6101a161026d3660046110d0565b610567565b610156610280366004610fcc565b61057f565b6101396102933660046111b4565b610690565b6101a16102a6366004611063565b6106be565b60006001600160e01b03198216632483248360e11b14806102d057506102d0826106fc565b92915050565b6060600080546102e5906111e7565b80601f0160208091040260200160405190810160405280929190818152602001828054610311906111e7565b801561035e5780601f106103335761010080835404028352916020019161035e565b820191906000526020600020905b81548152906001019060200180831161034157829003601f168201915b5050505050905090565b60006103738261074c565b506000828152600460205260409020546001600160a01b03166102d0565b61039c828233610785565b5050565b6001600160a01b0382166103cf57604051633250574960e11b8152600060048201526024015b60405180910390fd5b60006103dc838333610792565b9050836001600160a01b0316816001600160a01b03161461042a576040516364283d7b60e01b81526001600160a01b03808616600483015260248201849052821660448201526064016103c6565b50505050565b61044b83838360405180602001604052806000815250610567565b505050565b61045861088b565b60005b8181101561044b5761046c83610475565b5060010161045b565b600061047f61088b565b60088054908190600061049183611221565b91905055506104a083826108b8565b6104c2816040518060800160405280604281526020016113d86042913961091d565b90505b919050565b60006102d08261074c565b60006001600160a01b038216610501576040516322718ad960e21b8152600060048201526024016103c6565b506001600160a01b031660009081526003602052604090205490565b61052561088b565b61052f600061096d565b565b6040518060800160405280604281526020016113d86042913981565b6060600180546102e5906111e7565b61039c3383836109bf565b6105728484846103a0565b61042a3385858585610a5e565b606061058a8261074c565b50600082815260066020526040812080546105a4906111e7565b80601f01602080910402602001604051908101604052809291908181526020018280546105d0906111e7565b801561061d5780601f106105f25761010080835404028352916020019161061d565b820191906000526020600020905b81548152906001019060200180831161060057829003601f168201915b50505050509050600061063b60408051602081019091526000815290565b9050805160000361064d575092915050565b81511561067f578082604051602001610667929190611248565b60405160208183030381529060405292505050919050565b61068884610b89565b949350505050565b6001600160a01b03918216600090815260056020908152604080832093909416825291909152205460ff1690565b6106c661088b565b6001600160a01b0381166106f057604051631e4fbdf760e01b8152600060048201526024016103c6565b6106f98161096d565b50565b60006001600160e01b031982166380ac58cd60e01b148061072d57506001600160e01b03198216635b5e139f60e01b145b806102d057506301ffc9a760e01b6001600160e01b03198316146102d0565b6000818152600260205260408120546001600160a01b0316806104c257604051637e27328960e01b8152600481018490526024016103c6565b61044b8383836001610bfe565b6000828152600260205260408120546001600160a01b03908116908316156107bf576107bf818486610d04565b6001600160a01b038116156107fd576107dc600085600080610bfe565b6001600160a01b038116600090815260036020526040902080546000190190555b6001600160a01b0385161561082c576001600160a01b0385166000908152600360205260409020805460010190555b60008481526002602052604080822080546001600160a01b0319166001600160a01b0389811691821790925591518793918516917fddf252ad1be2c89b69c2b068fc378daa952ba7f163c4a11628f55a4df523b3ef91a4949350505050565b6007546001600160a01b0316331461052f5760405163118cdaa760e01b81523360048201526024016103c6565b6001600160a01b0382166108e257604051633250574960e11b8152600060048201526024016103c6565b60006108f083836000610792565b90506001600160a01b0381161561044b576040516339e3563760e11b8152600060048201526024016103c6565b600082815260066020526040902061093582826112be565b506040518281527ff8e1a15aba9398e019f0b49df1a4fde98ee17ae345cb5f6b5e2c27f5033e8ce79060200160405180910390a15050565b600780546001600160a01b038381166001600160a01b0319831681179093556040519116919082907f8be0079c531659141344cd1fd0a4f28419497f9722a3daafe3b4186f6b6457e090600090a35050565b6001600160a01b0382166109f157604051630b61174360e31b81526001600160a01b03831660048201526024016103c6565b6001600160a01b03838116600081815260056020908152604080832094871680845294825291829020805460ff191686151590811790915591519182527f17307eab39ab6107e8899845ad3d59bd9653f200f220920489ca2b5937696c31910160405180910390a3505050565b6001600160a01b0383163b15610b8257604051630a85bd0160e11b81526001600160a01b0384169063150b7a0290610aa090889088908790879060040161137d565b6020604051808303816000875af1925050508015610adb575060408051601f3d908101601f19168201909252610ad8918101906113ba565b60015b610b44573d808015610b09576040519150601f19603f3d011682016040523d82523d6000602084013e610b0e565b606091505b508051600003610b3c57604051633250574960e11b81526001600160a01b03851660048201526024016103c6565b805160208201fd5b6001600160e01b03198116630a85bd0160e11b14610b8057604051633250574960e11b81526001600160a01b03851660048201526024016103c6565b505b5050505050565b6060610b948261074c565b506000610bac60408051602081019091526000815290565b90506000815111610bcc5760405180602001604052806000815250610bf7565b80610bd684610d68565b604051602001610be7929190611248565b6040516020818303038152906040525b9392505050565b8080610c1257506001600160a01b03821615155b15610cd4576000610c228461074c565b90506001600160a01b03831615801590610c4e5750826001600160a01b0316816001600160a01b031614155b8015610c615750610c5f8184610690565b155b15610c8a5760405163a9fbf51f60e01b81526001600160a01b03841660048201526024016103c6565b8115610cd25783856001600160a01b0316826001600160a01b03167f8c5be1e5ebec7d5bd14f71427d1e84f3dd0314c0f7b2291e5b200ac8c7c3b92560405160405180910390a45b505b5050600090815260046020526040902080546001600160a01b0319166001600160a01b0392909216919091179055565b610d0f838383610dfb565b61044b576001600160a01b038316610d3d57604051637e27328960e01b8152600481018290526024016103c6565b60405163177e802f60e01b81526001600160a01b0383166004820152602481018290526044016103c6565b60606000610d7583610e5e565b600101905060008167ffffffffffffffff811115610d9557610d956110ba565b6040519080825280601f01601f191660200182016040528015610dbf576020820181803683370190505b5090508181016020015b600019016f181899199a1a9b1b9c1cb0b131b232b360811b600a86061a8153600a8504945084610dc957509392505050565b60006001600160a01b038316158015906106885750826001600160a01b0316846001600160a01b03161480610e355750610e358484610690565b806106885750506000908152600460205260409020546001600160a01b03908116911614919050565b60008072184f03e93ff9f4daa797ed6e38ed64bf6a1f0160401b8310610e9d5772184f03e93ff9f4daa797ed6e38ed64bf6a1f0160401b830492506040015b6d04ee2d6d415b85acef81000000008310610ec9576d04ee2d6d415b85acef8100000000830492506020015b662386f26fc100008310610ee757662386f26fc10000830492506010015b6305f5e1008310610eff576305f5e100830492506008015b6127108310610f1357612710830492506004015b60648310610f25576064830492506002015b600a83106104c25760010192915050565b6001600160e01b0319811681146106f957600080fd5b600060208284031215610f5e57600080fd5b8135610bf781610f36565b60005b83811015610f84578181015183820152602001610f6c565b50506000910152565b60008151808452610fa5816020860160208601610f69565b601f01601f19169290920160200192915050565b602081526000610bf76020830184610f8d565b600060208284031215610fde57600080fd5b5035919050565b80356001600160a01b03811681146104c557600080fd5b6000806040838503121561100f57600080fd5b61101883610fe5565b946020939093013593505050565b60008060006060848603121561103b57600080fd5b61104484610fe5565b925061105260208501610fe5565b929592945050506040919091013590565b60006020828403121561107557600080fd5b610bf782610fe5565b6000806040838503121561109157600080fd5b61109a83610fe5565b9150602083013580151581146110af57600080fd5b809150509250929050565b634e487b7160e01b600052604160045260246000fd5b600080600080608085870312156110e657600080fd5b6110ef85610fe5565b93506110fd60208601610fe5565b925060408501359150606085013567ffffffffffffffff81111561112057600080fd5b8501601f8101871361113157600080fd5b803567ffffffffffffffff81111561114b5761114b6110ba565b604051601f8201601f19908116603f0116810167ffffffffffffffff8111828210171561117a5761117a6110ba565b60405281815282820160200189101561119257600080fd5b8160208401602083013760006020838301015280935050505092959194509250565b600080604083850312156111c757600080fd5b6111d083610fe5565b91506111de60208401610fe5565b90509250929050565b600181811c908216806111fb57607f821691505b60208210810361121b57634e487b7160e01b600052602260045260246000fd5b50919050565b60006001820161124157634e487b7160e01b600052601160045260246000fd5b5060010190565b6000835161125a818460208801610f69565b83519083019061126e818360208801610f69565b01949350505050565b601f82111561044b57806000526020600020601f840160051c8101602085101561129e5750805b601f840160051c820191505b81811015610b8257600081556001016112aa565b815167ffffffffffffffff8111156112d8576112d86110ba565b6112ec816112e684546111e7565b84611277565b6020601f82116001811461132057600083156113085750848201515b600019600385901b1c1916600184901b178455610b82565b600084815260208120601f198516915b828110156113505787850151825560209485019460019092019101611330565b508482101561136e5786840151600019600387901b60f8161c191681555b50505050600190811b01905550565b6001600160a01b03858116825284166020820152604081018390526080606082018190526000906113b090830184610f8d565b9695505050505050565b6000602082840312156113cc57600080fd5b8151610bf781610f3656fe697066733a2f2f6261666b72656967776c6e3275366c78743471776d62346b6a37656f6761686e6f6c646873617875677977346a6e696b696c76746c6e6433693479a26469706673582212202d5184bee5b4631cb0e69cd52b3661277d79a80d185bf52224a8b6500834672764736f6c634300081c0033a26469706673582212201f726f762e6d3fe68c53b926ba993a0cdd16d91c418abceda98b7bd58e8a8fee64736f6c634300081c0033",
  "linkReferences": {},
  "deployedLinkReferences": {}
}