{"abi":[{"type":"function","name":"gramps","inputs":[],"outputs":[{"name":"","type":"string","internalType":"string"}],"stateMutability":"view"},{"type":"function","name":"initialize","inputs":[],"outputs":[],"stateMutability":"nonpayable"},{"type":"function","name":"initialize","inputs":[{"name":"value","type":"string","internalType":"string"}],"outputs":[],"stateMutability":"nonpayable"},{"type":"function","name":"isHuman","inputs":[],"outputs":[{"name":"","type":"bool","internalType":"bool"}],"stateMutability":"view"},{"type":"event","name":"Initialized","inputs":[{"name":"version","type":"uint64","indexed":false,"internalType":"uint64"}],"anonymous":false},{"type":"error","name":"InvalidInitialization","inputs":[]},{"type":"error","name":"NotInitializing","inputs":[]}],"bytecode":{"object":"0x6080604052348015600e575f5ffd5b5061065a8061001c5f395ff3fe608060405234801561000f575f5ffd5b506004361061004a575f3560e01c80634a6c9db61461004e5780638129fc1c1461006f578063f62d188814610079578063fa39851f1461008c575b5f5ffd5b5f5461005a9060ff1681565b60405190151581526020015b60405180910390f35b6100776100a1565b005b610077610087366004610400565b6101ad565b6100946102bb565b60405161006691906104b3565b7ff0c57e16840df040f15088dc2f81fe391c3923bec73e23a9662efc9c229c6a008054600160401b810460ff16159067ffffffffffffffff165f811580156100e65750825b90505f8267ffffffffffffffff1660011480156101025750303b155b905081158015610110575080155b1561012e5760405163f92ee8a960e01b815260040160405180910390fd5b845467ffffffffffffffff19166001178555831561015857845460ff60401b1916600160401b1785555b610160610347565b83156101a657845460ff60401b19168555604051600181527fc7f505b2f371ae2175ee4913f4499e1f2633a7b5936321eed1cdaeb6115181d29060200160405180910390a15b5050505050565b7ff0c57e16840df040f15088dc2f81fe391c3923bec73e23a9662efc9c229c6a008054600160401b810460ff16159067ffffffffffffffff165f811580156101f25750825b90505f8267ffffffffffffffff16600114801561020e5750303b155b90508115801561021c575080155b1561023a5760405163f92ee8a960e01b815260040160405180910390fd5b845467ffffffffffffffff19166001178555831561026457845460ff60401b1916600160401b1785555b61026d86610359565b83156102b357845460ff60401b19168555604051600181527fc7f505b2f371ae2175ee4913f4499e1f2633a7b5936321eed1cdaeb6115181d29060200160405180910390a15b505050505050565b600180546102c8906104e8565b80601f01602080910402602001604051908101604052809291908181526020018280546102f4906104e8565b801561033f5780601f106103165761010080835404028352916020019161033f565b820191905f5260205f20905b81548152906001019060200180831161032257829003601f168201915b505050505081565b61034f610375565b6103576103be565b565b610361610375565b610369610347565b610372816103d4565b50565b7ff0c57e16840df040f15088dc2f81fe391c3923bec73e23a9662efc9c229c6a0054600160401b900460ff1661035757604051631afcd79f60e31b815260040160405180910390fd5b6103c6610375565b5f805460ff19166001179055565b6103dc610375565b60016103e88282610569565b5050565b634e487b7160e01b5f52604160045260245ffd5b5f60208284031215610410575f5ffd5b813567ffffffffffffffff811115610426575f5ffd5b8201601f81018413610436575f5ffd5b803567ffffffffffffffff811115610450576104506103ec565b604051601f8201601f19908116603f0116810167ffffffffffffffff8111828210171561047f5761047f6103ec565b604052818152828201602001861015610496575f5ffd5b816020840160208301375f91810160200191909152949350505050565b602081525f82518060208401528060208501604085015e5f604082850101526040601f19601f83011684010191505092915050565b600181811c908216806104fc57607f821691505b60208210810361051a57634e487b7160e01b5f52602260045260245ffd5b50919050565b601f82111561056457805f5260205f20601f840160051c810160208510156105455750805b601f840160051c820191505b818110156101a6575f8155600101610551565b505050565b815167ffffffffffffffff811115610583576105836103ec565b6105978161059184546104e8565b84610520565b6020601f8211600181146105c9575f83156105b25750848201515b5f19600385901b1c1916600184901b1784556101a6565b5f84815260208120601f198516915b828110156105f857878501518255602094850194600190920191016105d8565b508482101561061557868401515f19600387901b60f8161c191681555b50505050600190811b0190555056fea2646970667358221220cead3776a3ed456148825c92e015ac8d42b07f215f9aa9fcbae79995a118f7c064736f6c634300081b0033","linkReferences":{}},"methodIdentifiers":{"gramps()":"fa39851f","initialize()":"8129fc1c","initialize(string)":"f62d1888","isHuman()":"4a6c9db6"},"id":112}