{"abi":[{"type":"function","name":"callSender","inputs":[{"name":"data","type":"bytes","internalType":"bytes"}],"outputs":[],"stateMutability":"nonpayable"}],"bytecode":{"object":"0x6080604052348015600e575f5ffd5b506101a88061001c5f395ff3fe608060405234801561000f575f5ffd5b5060043610610029575f3560e01c8063f8123dd51461002d575b5f5ffd5b61004061003b3660046100f5565b610042565b005b5f336001600160a01b0316838360405161005d929190610163565b5f604051808303815f865af19150503d805f8114610096576040519150601f19603f3d011682016040523d82523d5f602084013e61009b565b606091505b50509050806100f05760405162461bcd60e51b815260206004820152601d60248201527f5265656e7472616e637941747461636b3a206661696c65642063616c6c000000604482015260640160405180910390fd5b505050565b5f5f60208385031215610106575f5ffd5b823567ffffffffffffffff81111561011c575f5ffd5b8301601f8101851361012c575f5ffd5b803567ffffffffffffffff811115610142575f5ffd5b856020828401011115610153575f5ffd5b6020919091019590945092505050565b818382375f910190815291905056fea2646970667358221220cbe586fbf6ef65254c8f948adfec150227341ba11407e7b4f0464cdf7d0c59cb64736f6c634300081b0033","linkReferences":{}},"methodIdentifiers":{"callSender(bytes)":"f8123dd5"},"id":114}