{"abi":[{"type":"function","name":"_setImmediate","inputs":[{"name":"immediate","type":"bool","internalType":"bool"}],"outputs":[],"stateMutability":"nonpayable"},{"type":"function","name":"canCall","inputs":[{"name":"","type":"address","internalType":"address"},{"name":"","type":"address","internalType":"address"},{"name":"","type":"bytes4","internalType":"bytes4"}],"outputs":[{"name":"immediate","type":"bool","internalType":"bool"}],"stateMutability":"view"}],"bytecode":{"object":"0x6080604052348015600e575f5ffd5b5061014f8061001c5f395ff3fe608060405234801561000f575f5ffd5b5060043610610034575f3560e01c80633e5047b214610038578063b70096131461005a575b5f5ffd5b610058610046366004610088565b5f805460ff1916911515919091179055565b005b6100746100683660046100c9565b5f5460ff169392505050565b604051901515815260200160405180910390f35b5f60208284031215610098575f5ffd5b813580151581146100a7575f5ffd5b9392505050565b80356001600160a01b03811681146100c4575f5ffd5b919050565b5f5f5f606084860312156100db575f5ffd5b6100e4846100ae565b92506100f2602085016100ae565b915060408401356001600160e01b03198116811461010e575f5ffd5b80915050925092509256fea26469706673582212201c2def1481d90ba8f71e3603fe8612f33932e0c50b2df06c5b1369f0e679fe2964736f6c634300081b0033","linkReferences":{}},"methodIdentifiers":{"_setImmediate(bool)":"3e5047b2","canCall(address,address,bytes4)":"b7009613"},"id":91}