{"abi":[{"type":"function","name":"canCall","inputs":[{"name":"","type":"address","internalType":"address"},{"name":"","type":"address","internalType":"address"},{"name":"","type":"bytes4","internalType":"bytes4"}],"outputs":[],"stateMutability":"view"}],"bytecode":{"object":"0x6080604052348015600e575f5ffd5b5060d680601a5f395ff3fe6080604052348015600e575f5ffd5b50600436106026575f3560e01c8063b700961314602a575b5f5ffd5b603a60353660046056565b505050565b005b80356001600160a01b03811681146051575f5ffd5b919050565b5f5f5f606084860312156067575f5ffd5b606e84603c565b9250607a60208501603c565b915060408401356001600160e01b0319811681146095575f5ffd5b80915050925092509256fea264697066735822122071422db1619a5865f5aa8fcb1c69e6d9d44288f1ccd18ea5fe3119c1455eff6964736f6c634300081b0033","linkReferences":{}},"methodIdentifiers":{"canCall(address,address,bytes4)":"b7009613"},"id":91}