{"abi":[{"type":"function","name":"canCall","inputs":[{"name":"","type":"address","internalType":"address"},{"name":"","type":"address","internalType":"address"},{"name":"","type":"bytes4","internalType":"bytes4"}],"outputs":[{"name":"","type":"bool","internalType":"bool"}],"stateMutability":"pure"}],"bytecode":{"object":"0x6080604052348015600e575f5ffd5b506101518061001c5f395ff3fe608060405234801561000f575f5ffd5b5060043610610029575f3560e01c8063b70096131461002d575b5f5ffd5b61004061003b3660046100cb565b610054565b604051901515815260200160405180910390f35b60405162461bcd60e51b815260206004820152602560248201527f417574686f726974794e6f44656c61794d6f636b3a206e6f7420696d706c656d604482015264195b9d195960da1b60648201525f9060840160405180910390fd5b80356001600160a01b03811681146100c6575f5ffd5b919050565b5f5f5f606084860312156100dd575f5ffd5b6100e6846100b0565b92506100f4602085016100b0565b915060408401356001600160e01b031981168114610110575f5ffd5b80915050925092509256fea26469706673582212203049ad697b1a6475a13f3b9073cdf4fd244efeca6b5ced8c09ddfeee1710970f64736f6c634300081b0033","linkReferences":{}},"methodIdentifiers":{"canCall(address,address,bytes4)":"b7009613"},"id":91}