{
  "_format": "hh-sol-artifact-1",
  "contractName": "DudenNFT",
  "sourceName": "contracts/DudenNFT.sol",
  "abi": [
    {
      "inputs": [],
      "stateMutability": "nonpayable",
      "type": "constructor"
    },
    {
      "inputs": [
        {
          "internalType": "address",
          "name": "sender",
          "type": "address"
        },
        {
          "internalType": "uint256",
          "name": "tokenId",
          "type": "uint256"
        },
        {
          "internalType": "address",
          "name": "owner",
          "type": "address"
        }
      ],
      "name": "ERC721IncorrectOwner",
      "type": "error"
    },
    {
      "inputs": [
        {
          "internalType": "address",
          "name": "operator",
          "type": "address"
        },
        {
          "internalType": "uint256",
          "name": "tokenId",
          "type": "uint256"
        }
      ],
      "name": "ERC721InsufficientApproval",
      "type": "error"
    },
    {
      "inputs": [
        {
          "internalType": "address",
          "name": "approver",
          "type": "address"
        }
      ],
      "name": "ERC721InvalidApprover",
      "type": "error"
    },
    {
      "inputs": [
        {
          "internalType": "address",
          "name": "operator",
          "type": "address"
        }
      ],
      "name": "ERC721InvalidOperator",
      "type": "error"
    },
    {
      "inputs": [
        {
          "internalType": "address",
          "name": "owner",
          "type": "address"
        }
      ],
      "name": "ERC721InvalidOwner",
      "type": "error"
    },
    {
      "inputs": [
        {
          "internalType": "address",
          "name": "receiver",
          "type": "address"
        }
      ],
      "name": "ERC721InvalidReceiver",
      "type": "error"
    },
    {
      "inputs": [
        {
          "internalType": "address",
          "name": "sender",
          "type": "address"
        }
      ],
      "name": "ERC721InvalidSender",
      "type": "error"
    },
    {
      "inputs": [
        {
          "internalType": "uint256",
          "name": "tokenId",
          "type": "uint256"
        }
      ],
      "name": "ERC721NonexistentToken",
      "type": "error"
    },
    {
      "inputs": [
        {
          "internalType": "address",
          "name": "owner",
          "type": "address"
        }
      ],
      "name": "OwnableInvalidOwner",
      "type": "error"
    },
    {
      "inputs": [
        {
          "internalType": "address",
          "name": "account",
          "type": "address"
        }
      ],
      "name": "OwnableUnauthorizedAccount",
      "type": "error"
    },
    {
      "anonymous": false,
      "inputs": [
        {
          "indexed": true,
          "internalType": "address",
          "name": "owner",
          "type": "address"
        },
        {
          "indexed": true,
          "internalType": "address",
          "name": "approved",
          "type": "address"
        },
        {
          "indexed": true,
          "internalType": "uint256",
          "name": "tokenId",
          "type": "uint256"
        }
      ],
      "name": "Approval",
      "type": "event"
    },
    {
      "anonymous": false,
      "inputs": [
        {
          "indexed": true,
          "internalType": "address",
          "name": "owner",
          "type": "address"
        },
        {
          "indexed": true,
          "internalType": "address",
          "name": "operator",
          "type": "address"
        },
        {
          "indexed": false,
          "internalType": "bool",
          "name": "approved",
          "type": "bool"
        }
      ],
      "name": "ApprovalForAll",
      "type": "event"
    },
    {
      "anonymous": false,
      "inputs": [
        {
          "indexed": false,
          "internalType": "uint256",
          "name": "_fromTokenId",
          "type": "uint256"
        },
        {
          "indexed": false,
          "internalType": "uint256",
          "name": "_toTokenId",
          "type": "uint256"
        }
      ],
      "name": "BatchMetadataUpdate",
      "type": "event"
    },
    {
      "anonymous": false,
      "inputs": [
        {
          "indexed": false,
          "internalType": "uint256",
          "name": "_tokenId",
          "type": "uint256"
        }
      ],
      "name": "MetadataUpdate",
      "type": "event"
    },
    {
      "anonymous": false,
      "inputs": [
        {
          "indexed": true,
          "internalType": "address",
          "name": "previousOwner",
          "type": "address"
        },
        {
          "indexed": true,
          "internalType": "address",
          "name": "newOwner",
          "type": "address"
        }
      ],
      "name": "OwnershipTransferred",
      "type": "event"
    },
    {
      "anonymous": false,
      "inputs": [
        {
          "indexed": true,
          "internalType": "address",
          "name": "from",
          "type": "address"
        },
        {
          "indexed": true,
          "internalType": "address",
          "name": "to",
          "type": "address"
        },
        {
          "indexed": true,
          "internalType": "uint256",
          "name": "tokenId",
          "type": "uint256"
        }
      ],
      "name": "Transfer",
      "type": "event"
    },
    {
      "inputs": [],
      "name": "TOKEN_URI",
      "outputs": [
        {
          "internalType": "string",
          "name": "",
          "type": "string"
        }
      ],
      "stateMutability": "view",
      "type": "function"
    },
    {
      "inputs": [
        {
          "internalType": "address",
          "name": "to",
          "type": "address"
        },
        {
          "internalType": "uint256",
          "name": "tokenId",
          "type": "uint256"
        }
      ],
      "name": "approve",
      "outputs": [],
      "stateMutability": "nonpayable",
      "type": "function"
    },
    {
      "inputs": [
        {
          "internalType": "address",
          "name": "owner",
          "type": "address"
        }
      ],
      "name": "balanceOf",
      "outputs": [
        {
          "internalType": "uint256",
          "name": "",
          "type": "uint256"
        }
      ],
      "stateMutability": "view",
      "type": "function"
    },
    {
      "inputs": [
        {
          "internalType": "uint256",
          "name": "tokenId",
          "type": "uint256"
        }
      ],
      "name": "getApproved",
      "outputs": [
        {
          "internalType": "address",
          "name": "",
          "type": "address"
        }
      ],
      "stateMutability": "view",
      "type": "function"
    },
    {
      "inputs": [
        {
          "internalType": "address",
          "name": "owner",
          "type": "address"
        },
        {
          "internalType": "address",
          "name": "operator",
          "type": "address"
        }
      ],
      "name": "isApprovedForAll",
      "outputs": [
        {
          "internalType": "bool",
          "name": "",
          "type": "bool"
        }
      ],
      "stateMutability": "view",
      "type": "function"
    },
    {
      "inputs": [
        {
          "internalType": "address",
          "name": "to",
          "type": "address"
        },
        {
          "internalType": "uint256",
          "name": "amount",
          "type": "uint256"
        }
      ],
      "name": "mintMultipleNFTs",
      "outputs": [],
      "stateMutability": "nonpayable",
      "type": "function"
    },
    {
      "inputs": [
        {
          "internalType": "address",
          "name": "to",
          "type": "address"
        }
      ],
      "name": "mintNFT",
      "outputs": [
        {
          "internalType": "uint256",
          "name": "",
          "type": "uint256"
        }
      ],
      "stateMutability": "nonpayable",
      "type": "function"
    },
    {
      "inputs": [],
      "name": "name",
      "outputs": [
        {
          "internalType": "string",
          "name": "",
          "type": "string"
        }
      ],
      "stateMutability": "view",
      "type": "function"
    },
    {
      "inputs": [],
      "name": "owner",
      "outputs": [
        {
          "internalType": "address",
          "name": "",
          "type": "address"
        }
      ],
      "stateMutability": "view",
      "type": "function"
    },
    {
      "inputs": [
        {
          "internalType": "uint256",
          "name": "tokenId",
          "type": "uint256"
        }
      ],
      "name": "ownerOf",
      "outputs": [
        {
          "internalType": "address",
          "name": "",
          "type": "address"
        }
      ],
      "stateMutability": "view",
      "type": "function"
    },
    {
      "inputs": [],
      "name": "renounceOwnership",
      "outputs": [],
      "stateMutability": "nonpayable",
      "type": "function"
    },
    {
      "inputs": [
        {
          "internalType": "address",
          "name": "from",
          "type": "address"
        },
        {
          "internalType": "address",
          "name": "to",
          "type": "address"
        },
        {
          "internalType": "uint256",
          "name": "tokenId",
          "type": "uint256"
        }
      ],
      "name": "safeTransferFrom",
      "outputs": [],
      "stateMutability": "nonpayable",
      "type": "function"
    },
    {
      "inputs": [
        {
          "internalType": "address",
          "name": "from",
          "type": "address"
        },
        {
          "internalType": "address",
          "name": "to",
          "type": "address"
        },
        {
          "internalType": "uint256",
          "name": "tokenId",
          "type": "uint256"
        },
        {
          "internalType": "bytes",
          "name": "data",
          "type": "bytes"
        }
      ],
      "name": "safeTransferFrom",
      "outputs": [],
      "stateMutability": "nonpayable",
      "type": "function"
    },
    {
      "inputs": [
        {
          "internalType": "address",
          "name": "operator",
          "type": "address"
        },
        {
          "internalType": "bool",
          "name": "approved",
          "type": "bool"
        }
      ],
      "name": "setApprovalForAll",
      "outputs": [],
      "stateMutability": "nonpayable",
      "type": "function"
    },
    {
      "inputs": [
        {
          "internalType": "bytes4",
          "name": "interfaceId",
          "type": "bytes4"
        }
      ],
      "name": "supportsInterface",
      "outputs": [
        {
          "internalType": "bool",
          "name": "",
          "type": "bool"
        }
      ],
      "stateMutability": "view",
      "type": "function"
    },
    {
      "inputs": [],
      "name": "symbol",
      "outputs": [
        {
          "internalType": "string",
          "name": "",
          "type": "string"
        }
      ],
      "stateMutability": "view",
      "type": "function"
    },
    {
      "inputs": [
        {
          "internalType": "uint256",
          "name": "tokenId",
          "type": "uint256"
        }
      ],
      "name": "tokenURI",
      "outputs": [
        {
          "internalType": "string",
          "name": "",
          "type": "string"
        }
      ],
      "stateMutability": "view",
      "type": "function"
    },
    {
      "inputs": [
        {
          "internalType": "address",
          "name": "from",
          "type": "address"
        },
        {
          "internalType": "address",
          "name": "to",
          "type": "address"
        },
        {
          "internalType": "uint256",
          "name": "tokenId",
          "type": "uint256"
        }
      ],
      "name": "transferFrom",
      "outputs": [],
      "stateMutability": "nonpayable",
      "type": "function"
    },
    {
      "inputs": [
        {
          "internalType": "address",
          "name": "newOwner",
          "type": "address"
        }
      ],
      "name": "transferOwnership",
      "outputs": [],
      "stateMutability": "nonpayable",
      "type": "function"
    }
  ],
  "bytecode": "0x608060405234801561001057600080fd5b5033604051806040016040528060048152602001634455444560e01b8152506040518060400160405280600381526020016244444560e81b815250816000908161005a9190610198565b5060016100678282610198565b5050506001600160a01b03811661009857604051631e4fbdf760e01b81526000600482015260240160405180910390fd5b6100a1816100a7565b50610256565b600780546001600160a01b038381166001600160a01b0319831681179093556040519116919082907f8be0079c531659141344cd1fd0a4f28419497f9722a3daafe3b4186f6b6457e090600090a35050565b634e487b7160e01b600052604160045260246000fd5b600181811c9082168061012357607f821691505b60208210810361014357634e487b7160e01b600052602260045260246000fd5b50919050565b601f82111561019357806000526020600020601f840160051c810160208510156101705750805b601f840160051c820191505b81811015610190576000815560010161017c565b50505b505050565b81516001600160401b038111156101b1576101b16100f9565b6101c5816101bf845461010f565b84610149565b6020601f8211600181146101f957600083156101e15750848201515b600019600385901b1c1916600184901b178455610190565b600084815260208120601f198516915b828110156102295787850151825560209485019460019092019101610209565b50848210156102475786840151600019600387901b60f8161c191681555b50505050600190811b01905550565b61144f806102656000396000f3fe608060405234801561001057600080fd5b50600436106101215760003560e01c806370a08231116100ad578063a22cb46511610071578063a22cb4651461024c578063b88d4fde1461025f578063c87b56dd14610272578063e985e9c514610285578063f2fde38b1461029857600080fd5b806370a0823114610210578063715018a61461022357806378ce90351461022b5780638da5cb5b1461023357806395d89b411461024457600080fd5b806323b872dd116100f457806323b872dd146101a357806342842e0e146101b65780634c8a900f146101c957806354ba0f27146101dc5780636352211e146101fd57600080fd5b806301ffc9a71461012657806306fdde031461014e578063081812fc14610163578063095ea7b31461018e575b600080fd5b610139610134366004610f4c565b6102ab565b60405190151581526020015b60405180910390f35b6101566102d6565b6040516101459190610fb9565b610176610171366004610fcc565b610368565b6040516001600160a01b039091168152602001610145565b6101a161019c366004610ffc565b610391565b005b6101a16101b1366004611026565b6103a0565b6101a16101c4366004611026565b610430565b6101a16101d7366004610ffc565b610450565b6101ef6101ea366004611063565b610475565b604051908152602001610145565b61017661020b366004610fcc565b6104ca565b6101ef61021e366004611063565b6104d5565b6101a161051d565b610156610531565b6007546001600160a01b0316610176565b61015661054d565b6101a161025a36600461107e565b61055c565b6101a161026d3660046110d0565b610567565b610156610280366004610fcc565b61057f565b6101396102933660046111b4565b610690565b6101a16102a6366004611063565b6106be565b60006001600160e01b03198216632483248360e11b14806102d057506102d0826106fc565b92915050565b6060600080546102e5906111e7565b80601f0160208091040260200160405190810160405280929190818152602001828054610311906111e7565b801561035e5780601f106103335761010080835404028352916020019161035e565b820191906000526020600020905b81548152906001019060200180831161034157829003601f168201915b5050505050905090565b60006103738261074c565b506000828152600460205260409020546001600160a01b03166102d0565b61039c828233610785565b5050565b6001600160a01b0382166103cf57604051633250574960e11b8152600060048201526024015b60405180910390fd5b60006103dc838333610792565b9050836001600160a01b0316816001600160a01b03161461042a576040516364283d7b60e01b81526001600160a01b03808616600483015260248201849052821660448201526064016103c6565b50505050565b61044b83838360405180602001604052806000815250610567565b505050565b61045861088b565b60005b8181101561044b5761046c83610475565b5060010161045b565b600061047f61088b565b60088054908190600061049183611221565b91905055506104a083826108b8565b6104c2816040518060800160405280604281526020016113d86042913961091d565b90505b919050565b60006102d08261074c565b60006001600160a01b038216610501576040516322718ad960e21b8152600060048201526024016103c6565b506001600160a01b031660009081526003602052604090205490565b61052561088b565b61052f600061096d565b565b6040518060800160405280604281526020016113d86042913981565b6060600180546102e5906111e7565b61039c3383836109bf565b6105728484846103a0565b61042a3385858585610a5e565b606061058a8261074c565b50600082815260066020526040812080546105a4906111e7565b80601f01602080910402602001604051908101604052809291908181526020018280546105d0906111e7565b801561061d5780601f106105f25761010080835404028352916020019161061d565b820191906000526020600020905b81548152906001019060200180831161060057829003601f168201915b50505050509050600061063b60408051602081019091526000815290565b9050805160000361064d575092915050565b81511561067f578082604051602001610667929190611248565b60405160208183030381529060405292505050919050565b61068884610b89565b949350505050565b6001600160a01b03918216600090815260056020908152604080832093909416825291909152205460ff1690565b6106c661088b565b6001600160a01b0381166106f057604051631e4fbdf760e01b8152600060048201526024016103c6565b6106f98161096d565b50565b60006001600160e01b031982166380ac58cd60e01b148061072d57506001600160e01b03198216635b5e139f60e01b145b806102d057506301ffc9a760e01b6001600160e01b03198316146102d0565b6000818152600260205260408120546001600160a01b0316806104c257604051637e27328960e01b8152600481018490526024016103c6565b61044b8383836001610bfe565b6000828152600260205260408120546001600160a01b03908116908316156107bf576107bf818486610d04565b6001600160a01b038116156107fd576107dc600085600080610bfe565b6001600160a01b038116600090815260036020526040902080546000190190555b6001600160a01b0385161561082c576001600160a01b0385166000908152600360205260409020805460010190555b60008481526002602052604080822080546001600160a01b0319166001600160a01b0389811691821790925591518793918516917fddf252ad1be2c89b69c2b068fc378daa952ba7f163c4a11628f55a4df523b3ef91a4949350505050565b6007546001600160a01b0316331461052f5760405163118cdaa760e01b81523360048201526024016103c6565b6001600160a01b0382166108e257604051633250574960e11b8152600060048201526024016103c6565b60006108f083836000610792565b90506001600160a01b0381161561044b576040516339e3563760e11b8152600060048201526024016103c6565b600082815260066020526040902061093582826112be565b506040518281527ff8e1a15aba9398e019f0b49df1a4fde98ee17ae345cb5f6b5e2c27f5033e8ce79060200160405180910390a15050565b600780546001600160a01b038381166001600160a01b0319831681179093556040519116919082907f8be0079c531659141344cd1fd0a4f28419497f9722a3daafe3b4186f6b6457e090600090a35050565b6001600160a01b0382166109f157604051630b61174360e31b81526001600160a01b03831660048201526024016103c6565b6001600160a01b03838116600081815260056020908152604080832094871680845294825291829020805460ff191686151590811790915591519182527f17307eab39ab6107e8899845ad3d59bd9653f200f220920489ca2b5937696c31910160405180910390a3505050565b6001600160a01b0383163b15610b8257604051630a85bd0160e11b81526001600160a01b0384169063150b7a0290610aa090889088908790879060040161137d565b6020604051808303816000875af1925050508015610adb575060408051601f3d908101601f19168201909252610ad8918101906113ba565b60015b610b44573d808015610b09576040519150601f19603f3d011682016040523d82523d6000602084013e610b0e565b606091505b508051600003610b3c57604051633250574960e11b81526001600160a01b03851660048201526024016103c6565b805160208201fd5b6001600160e01b03198116630a85bd0160e11b14610b8057604051633250574960e11b81526001600160a01b03851660048201526024016103c6565b505b5050505050565b6060610b948261074c565b506000610bac60408051602081019091526000815290565b90506000815111610bcc5760405180602001604052806000815250610bf7565b80610bd684610d68565b604051602001610be7929190611248565b6040516020818303038152906040525b9392505050565b8080610c1257506001600160a01b03821615155b15610cd4576000610c228461074c565b90506001600160a01b03831615801590610c4e5750826001600160a01b0316816001600160a01b031614155b8015610c615750610c5f8184610690565b155b15610c8a5760405163a9fbf51f60e01b81526001600160a01b03841660048201526024016103c6565b8115610cd25783856001600160a01b0316826001600160a01b03167f8c5be1e5ebec7d5bd14f71427d1e84f3dd0314c0f7b2291e5b200ac8c7c3b92560405160405180910390a45b505b5050600090815260046020526040902080546001600160a01b0319166001600160a01b0392909216919091179055565b610d0f838383610dfb565b61044b576001600160a01b038316610d3d57604051637e27328960e01b8152600481018290526024016103c6565b60405163177e802f60e01b81526001600160a01b0383166004820152602481018290526044016103c6565b60606000610d7583610e5e565b600101905060008167ffffffffffffffff811115610d9557610d956110ba565b6040519080825280601f01601f191660200182016040528015610dbf576020820181803683370190505b5090508181016020015b600019016f181899199a1a9b1b9c1cb0b131b232b360811b600a86061a8153600a8504945084610dc957509392505050565b60006001600160a01b038316158015906106885750826001600160a01b0316846001600160a01b03161480610e355750610e358484610690565b806106885750506000908152600460205260409020546001600160a01b03908116911614919050565b60008072184f03e93ff9f4daa797ed6e38ed64bf6a1f0160401b8310610e9d5772184f03e93ff9f4daa797ed6e38ed64bf6a1f0160401b830492506040015b6d04ee2d6d415b85acef81000000008310610ec9576d04ee2d6d415b85acef8100000000830492506020015b662386f26fc100008310610ee757662386f26fc10000830492506010015b6305f5e1008310610eff576305f5e100830492506008015b6127108310610f1357612710830492506004015b60648310610f25576064830492506002015b600a83106104c25760010192915050565b6001600160e01b0319811681146106f957600080fd5b600060208284031215610f5e57600080fd5b8135610bf781610f36565b60005b83811015610f84578181015183820152602001610f6c565b50506000910152565b60008151808452610fa5816020860160208601610f69565b601f01601f19169290920160200192915050565b602081526000610bf76020830184610f8d565b600060208284031215610fde57600080fd5b5035919050565b80356001600160a01b03811681146104c557600080fd5b6000806040838503121561100f57600080fd5b61101883610fe5565b946020939093013593505050565b60008060006060848603121561103b57600080fd5b61104484610fe5565b925061105260208501610fe5565b929592945050506040919091013590565b60006020828403121561107557600080fd5b610bf782610fe5565b6000806040838503121561109157600080fd5b61109a83610fe5565b9150602083013580151581146110af57600080fd5b809150509250929050565b634e487b7160e01b600052604160045260246000fd5b600080600080608085870312156110e657600080fd5b6110ef85610fe5565b93506110fd60208601610fe5565b925060408501359150606085013567ffffffffffffffff81111561112057600080fd5b8501601f8101871361113157600080fd5b803567ffffffffffffffff81111561114b5761114b6110ba565b604051601f8201601f19908116603f0116810167ffffffffffffffff8111828210171561117a5761117a6110ba565b60405281815282820160200189101561119257600080fd5b8160208401602083013760006020838301015280935050505092959194509250565b600080604083850312156111c757600080fd5b6111d083610fe5565b91506111de60208401610fe5565b90509250929050565b600181811c908216806111fb57607f821691505b60208210810361121b57634e487b7160e01b600052602260045260246000fd5b50919050565b60006001820161124157634e487b7160e01b600052601160045260246000fd5b5060010190565b6000835161125a818460208801610f69565b83519083019061126e818360208801610f69565b01949350505050565b601f82111561044b57806000526020600020601f840160051c8101602085101561129e5750805b601f840160051c820191505b81811015610b8257600081556001016112aa565b815167ffffffffffffffff8111156112d8576112d86110ba565b6112ec816112e684546111e7565b84611277565b6020601f82116001811461132057600083156113085750848201515b600019600385901b1c1916600184901b178455610b82565b600084815260208120601f198516915b828110156113505787850151825560209485019460019092019101611330565b508482101561136e5786840151600019600387901b60f8161c191681555b50505050600190811b01905550565b6001600160a01b03858116825284166020820152604081018390526080606082018190526000906113b090830184610f8d565b9695505050505050565b6000602082840312156113cc57600080fd5b8151610bf781610f3656fe697066733a2f2f6261666b72656967776c6e3275366c78743471776d62346b6a37656f6761686e6f6c646873617875677977346a6e696b696c76746c6e6433693479a26469706673582212202d5184bee5b4631cb0e69cd52b3661277d79a80d185bf52224a8b6500834672764736f6c634300081c0033",
  "linkReferences": {},
  "deployedLinkReferences": {}
}