{"abi":[{"type":"function","name":"disableReentrancy","inputs":[],"outputs":[],"stateMutability":"nonpayable"},{"type":"function","name":"enableRentrancy","inputs":[{"name":"target","type":"address","internalType":"address"},{"name":"data","type":"bytes","internalType":"bytes"}],"outputs":[],"stateMutability":"nonpayable"},{"type":"function","name":"reenter","inputs":[],"outputs":[],"stateMutability":"nonpayable"},{"type":"error","name":"AddressEmptyCode","inputs":[{"name":"target","type":"address","internalType":"address"}]},{"type":"error","name":"FailedCall","inputs":[]},{"type":"error","name":"InsufficientBalance","inputs":[{"name":"balance","type":"uint256","internalType":"uint256"},{"name":"needed","type":"uint256","internalType":"uint256"}]}],"bytecode":{"object":"0x6080604052348015600e575f5ffd5b506104c28061001c5f395ff3fe608060405234801561000f575f5ffd5b506004361061003f575f3560e01c80633654421b14610043578063a0fe97e314610058578063cc23fb1c14610060575b5f5ffd5b610056610051366004610299565b610072565b005b61005661009f565b6100566002805460ff19166001179055565b5f80546001600160a01b0319166001600160a01b03851617905560016100998284836103bc565b50505050565b60025460ff1661015a576002805460ff191660019081179091555f548154610158926001600160a01b0390921691906100d790610338565b80601f016020809104026020016040519081016040528092919081815260200182805461010390610338565b801561014e5780601f106101255761010080835404028352916020019161014e565b820191905f5260205f20905b81548152906001019060200180831161013157829003601f168201915b505050505061015c565b505b565b606061016983835f610170565b9392505050565b6060814710156101a15760405163cf47918160e01b8152476004820152602481018390526044015b60405180910390fd5b5f5f856001600160a01b031684866040516101bc9190610476565b5f6040518083038185875af1925050503d805f81146101f6576040519150601f19603f3d011682016040523d82523d5f602084013e6101fb565b606091505b509150915061020b868383610215565b9695505050505050565b60608261022a5761022582610271565b610169565b815115801561024157506001600160a01b0384163b155b1561026a57604051639996b31560e01b81526001600160a01b0385166004820152602401610198565b5080610169565b80511561028057805160208201fd5b60405163d6bda27560e01b815260040160405180910390fd5b5f5f5f604084860312156102ab575f5ffd5b83356001600160a01b03811681146102c1575f5ffd5b9250602084013567ffffffffffffffff8111156102dc575f5ffd5b8401601f810186136102ec575f5ffd5b803567ffffffffffffffff811115610302575f5ffd5b866020828401011115610313575f5ffd5b939660209190910195509293505050565b634e487b7160e01b5f52604160045260245ffd5b600181811c9082168061034c57607f821691505b60208210810361036a57634e487b7160e01b5f52602260045260245ffd5b50919050565b601f8211156103b757805f5260205f20601f840160051c810160208510156103955750805b601f840160051c820191505b818110156103b4575f81556001016103a1565b50505b505050565b67ffffffffffffffff8311156103d4576103d4610324565b6103e8836103e28354610338565b83610370565b5f601f841160018114610419575f85156104025750838201355b5f19600387901b1c1916600186901b1783556103b4565b5f83815260208120601f198716915b828110156104485786850135825560209485019460019092019101610428565b5086821015610464575f1960f88860031b161c19848701351681555b505060018560011b0183555050505050565b5f82518060208501845e5f92019182525091905056fea2646970667358221220650e1088e04b64e9876bf952d39d221081f1c9e32f59222dacf79ecac1b4e8eb64736f6c634300081b0033","linkReferences":{}},"methodIdentifiers":{"disableReentrancy()":"cc23fb1c","enableRentrancy(address,bytes)":"3654421b","reenter()":"a0fe97e3"},"id":121}