{"abi":[{"type":"constructor","inputs":[],"stateMutability":"nonpayable"},{"type":"function","name":"GOLD","inputs":[],"outputs":[{"name":"","type":"uint256","internalType":"uint256"}],"stateMutability":"view"},{"type":"function","name":"SHIELD","inputs":[],"outputs":[{"name":"","type":"uint256","internalType":"uint256"}],"stateMutability":"view"},{"type":"function","name":"SILVER","inputs":[],"outputs":[{"name":"","type":"uint256","internalType":"uint256"}],"stateMutability":"view"},{"type":"function","name":"SWORD","inputs":[],"outputs":[{"name":"","type":"uint256","internalType":"uint256"}],"stateMutability":"view"},{"type":"function","name":"THORS_HAMMER","inputs":[],"outputs":[{"name":"","type":"uint256","internalType":"uint256"}],"stateMutability":"view"},{"type":"function","name":"allowance","inputs":[{"name":"owner","type":"address","internalType":"address"},{"name":"spender","type":"address","internalType":"address"},{"name":"id","type":"uint256","internalType":"uint256"}],"outputs":[{"name":"","type":"uint256","internalType":"uint256"}],"stateMutability":"view"},{"type":"function","name":"approve","inputs":[{"name":"spender","type":"address","internalType":"address"},{"name":"id","type":"uint256","internalType":"uint256"},{"name":"amount","type":"uint256","internalType":"uint256"}],"outputs":[{"name":"","type":"bool","internalType":"bool"}],"stateMutability":"nonpayable"},{"type":"function","name":"balanceOf","inputs":[{"name":"owner","type":"address","internalType":"address"},{"name":"id","type":"uint256","internalType":"uint256"}],"outputs":[{"name":"","type":"uint256","internalType":"uint256"}],"stateMutability":"view"},{"type":"function","name":"decimals","inputs":[{"name":"id","type":"uint256","internalType":"uint256"}],"outputs":[{"name":"","type":"uint8","internalType":"uint8"}],"stateMutability":"view"},{"type":"function","name":"isOperator","inputs":[{"name":"owner","type":"address","internalType":"address"},{"name":"spender","type":"address","internalType":"address"}],"outputs":[{"name":"","type":"bool","internalType":"bool"}],"stateMutability":"view"},{"type":"function","name":"name","inputs":[{"name":"id","type":"uint256","internalType":"uint256"}],"outputs":[{"name":"","type":"string","internalType":"string"}],"stateMutability":"view"},{"type":"function","name":"setOperator","inputs":[{"name":"spender","type":"address","internalType":"address"},{"name":"approved","type":"bool","internalType":"bool"}],"outputs":[{"name":"","type":"bool","internalType":"bool"}],"stateMutability":"nonpayable"},{"type":"function","name":"supportsInterface","inputs":[{"name":"interfaceId","type":"bytes4","internalType":"bytes4"}],"outputs":[{"name":"","type":"bool","internalType":"bool"}],"stateMutability":"view"},{"type":"function","name":"symbol","inputs":[{"name":"id","type":"uint256","internalType":"uint256"}],"outputs":[{"name":"","type":"string","internalType":"string"}],"stateMutability":"view"},{"type":"function","name":"transfer","inputs":[{"name":"receiver","type":"address","internalType":"address"},{"name":"id","type":"uint256","internalType":"uint256"},{"name":"amount","type":"uint256","internalType":"uint256"}],"outputs":[{"name":"","type":"bool","internalType":"bool"}],"stateMutability":"nonpayable"},{"type":"function","name":"transferFrom","inputs":[{"name":"sender","type":"address","internalType":"address"},{"name":"receiver","type":"address","internalType":"address"},{"name":"id","type":"uint256","internalType":"uint256"},{"name":"amount","type":"uint256","internalType":"uint256"}],"outputs":[{"name":"","type":"bool","internalType":"bool"}],"stateMutability":"nonpayable"},{"type":"event","name":"Approval","inputs":[{"name":"owner","type":"address","indexed":true,"internalType":"address"},{"name":"spender","type":"address","indexed":true,"internalType":"address"},{"name":"id","type":"uint256","indexed":true,"internalType":"uint256"},{"name":"amount","type":"uint256","indexed":false,"internalType":"uint256"}],"anonymous":false},{"type":"event","name":"ERC6909DecimalsUpdated","inputs":[{"name":"id","type":"uint256","indexed":true,"internalType":"uint256"},{"name":"newDecimals","type":"uint8","indexed":false,"internalType":"uint8"}],"anonymous":false},{"type":"event","name":"ERC6909NameUpdated","inputs":[{"name":"id","type":"uint256","indexed":true,"internalType":"uint256"},{"name":"newName","type":"string","indexed":false,"internalType":"string"}],"anonymous":false},{"type":"event","name":"ERC6909SymbolUpdated","inputs":[{"name":"id","type":"uint256","indexed":true,"internalType":"uint256"},{"name":"newSymbol","type":"string","indexed":false,"internalType":"string"}],"anonymous":false},{"type":"event","name":"OperatorSet","inputs":[{"name":"owner","type":"address","indexed":true,"internalType":"address"},{"name":"spender","type":"address","indexed":true,"internalType":"address"},{"name":"approved","type":"bool","indexed":false,"internalType":"bool"}],"anonymous":false},{"type":"event","name":"Transfer","inputs":[{"name":"caller","type":"address","indexed":false,"internalType":"address"},{"name":"sender","type":"address","indexed":true,"internalType":"address"},{"name":"receiver","type":"address","indexed":true,"internalType":"address"},{"name":"id","type":"uint256","indexed":true,"internalType":"uint256"},{"name":"amount","type":"uint256","indexed":false,"internalType":"uint256"}],"anonymous":false},{"type":"error","name":"ERC6909InsufficientAllowance","inputs":[{"name":"spender","type":"address","internalType":"address"},{"name":"allowance","type":"uint256","internalType":"uint256"},{"name":"needed","type":"uint256","internalType":"uint256"},{"name":"id","type":"uint256","internalType":"uint256"}]},{"type":"error","name":"ERC6909InsufficientBalance","inputs":[{"name":"sender","type":"address","internalType":"address"},{"name":"balance","type":"uint256","internalType":"uint256"},{"name":"needed","type":"uint256","internalType":"uint256"},{"name":"id","type":"uint256","internalType":"uint256"}]},{"type":"error","name":"ERC6909InvalidApprover","inputs":[{"name":"approver","type":"address","internalType":"address"}]},{"type":"error","name":"ERC6909InvalidReceiver","inputs":[{"name":"receiver","type":"address","internalType":"address"}]},{"type":"error","name":"ERC6909InvalidSender","inputs":[{"name":"sender","type":"address","internalType":"address"}]},{"type":"error","name":"ERC6909InvalidSpender","inputs":[{"name":"spender","type":"address","internalType":"address"}]}],"bytecode":{"object":"0x608060405234801561000f575f5ffd5b5061001b5f60126100ae565b610027600160126100ae565b610033600360096100ae565b61003f600460096100ae565b610052335f670de0b6b3a7640000610108565b61007c3360017d90e40fbeea1d3a4abc8955e946fe31cdcf66f634e1000000000000000000610108565b6100893360026001610108565b610099336003633b9aca00610108565b6100a9336004633b9aca00610108565b61029e565b5f82815260036020908152604091829020600201805460ff191660ff8516908117909155915191825283917fc7435874568017e6134c851002a405d733521c0f4c63f9f25f3a32a4d595b729910160405180910390a25050565b6001600160a01b03831661013657604051630b8bbd6160e41b81525f60048201526024015b60405180910390fd5b6101425f848484610147565b505050565b336001600160a01b038516156101e0576001600160a01b0385165f90815260208181526040808320868452909152902054828110156101b9576040516302c6d3fb60e61b81526001600160a01b038716600482015260248101829052604481018490526064810185905260840161012d565b6001600160a01b0386165f9081526020818152604080832087845290915290209083900390555b6001600160a01b03841615610225576001600160a01b0384165f908152602081815260408083208684529091528120805484929061021f908490610279565b90915550505b604080516001600160a01b03838116825260208201859052859281881692918916917f1b3d7edb2e9c0b0e7c525b20aaaef0f5940d2ed71663c7d39266ecafac728859910160405180910390a45050505050565b8082018082111561029857634e487b7160e01b5f52601160045260245ffd5b92915050565b610a82806102ab5f395ff3fe608060405234801561000f575f5ffd5b50600436106100f9575f3560e01c80634e41a1fb11610093578063b6363cf211610063578063b6363cf214610243578063d562e2041461027e578063e3e55f0814610286578063fe99049a1461028e575f5ffd5b80634e41a1fb146101d6578063558a7297146101e9578063598af9e7146101fc5780635b2725ed1461023b575f5ffd5b806313dc989f116100ce57806313dc989f1461017d5780633e4bee38146101855780633f47e6621461018c578063426a8493146101c3575f5ffd5b8062ad800c146100fd578062fdd58e1461012657806301ffc9a714610147578063095bcdb61461016a575b5f5ffd5b61011061010b366004610825565b6102a1565b60405161011d919061083c565b60405180910390f35b61013961013436600461088c565b610340565b60405190815260200161011d565b61015a6101553660046108b4565b610368565b604051901515815260200161011d565b61015a6101783660046108e2565b61039c565b610139600381565b6101395f81565b6101b161019a366004610825565b5f9081526003602052604090206002015460ff1690565b60405160ff909116815260200161011d565b61015a6101d13660046108e2565b6103b3565b6101106101e4366004610825565b6103c0565b61015a6101f7366004610912565b6103df565b61013961020a36600461094b565b6001600160a01b039283165f9081526002602090815260408083209490951682529283528381209181529152205490565b610139600481565b61015a610251366004610985565b6001600160a01b039182165f90815260016020908152604080832093909416825291909152205460ff1690565b610139600281565b610139600181565b61015a61029c3660046109b6565b6103f4565b5f8181526003602052604090208054606091906102bd906109f5565b80601f01602080910402602001604051908101604052809291908181526020018280546102e9906109f5565b80156103345780601f1061030b57610100808354040283529160200191610334565b820191905f5260205f20905b81548152906001019060200180831161031757829003601f168201915b50505050509050919050565b6001600160a01b0382165f908152602081815260408083208484529091529020545b92915050565b5f6001600160e01b03198216630f632fb360e01b148061036257506301ffc9a760e01b6001600160e01b0319831614610362565b5f6103a93385858561045d565b5060019392505050565b5f6103a9338585856104c6565b5f8181526003602052604090206001018054606091906102bd906109f5565b5f6103eb338484610585565b50600192915050565b5f336001600160a01b038616811480159061043457506001600160a01b038087165f9081526001602090815260408083209385168352929052205460ff16155b156104455761044586828686610643565b6104518686868661045d565b50600195945050505050565b6001600160a01b03841661048b576040516301486a4160e71b81525f60048201526024015b60405180910390fd5b6001600160a01b0383166104b457604051630b8bbd6160e41b81525f6004820152602401610482565b6104c0848484846106f3565b50505050565b6001600160a01b0384166104ef5760405163198ecd5360e31b81525f6004820152602401610482565b6001600160a01b03831661051857604051636f65f46560e01b81525f6004820152602401610482565b6001600160a01b038481165f8181526002602090815260408083209488168084529482528083208784528252918290208590559051848152859392917fb3fd5071835887567a0671151121894ddccc2842f1d10bedad13e0d17cace9a7910160405180910390a450505050565b6001600160a01b0383166105ae5760405163198ecd5360e31b81525f6004820152602401610482565b6001600160a01b0382166105d757604051636f65f46560e01b81525f6004820152602401610482565b6001600160a01b038381165f81815260016020908152604080832094871680845294825291829020805460ff191686151590811790915591519182527fceb576d9f15e4e200fdb5096d64d5dfd667e16def20c1eefd14256d8e3faa267910160405180910390a3505050565b6001600160a01b038481165f9081526002602090815260408083209387168352928152828220858352905220545f198110156106ec57818110156106ba57604051632c51fead60e11b81526001600160a01b0385166004820152602481018290526044810183905260648101849052608401610482565b6001600160a01b038086165f908152600260209081526040808320938816835292815282822086835290522082820390555b5050505050565b336001600160a01b0385161561078c576001600160a01b0385165f9081526020818152604080832086845290915290205482811015610765576040516302c6d3fb60e61b81526001600160a01b0387166004820152602481018290526044810184905260648101859052608401610482565b6001600160a01b0386165f9081526020818152604080832087845290915290209083900390555b6001600160a01b038416156107d1576001600160a01b0384165f90815260208181526040808320868452909152812080548492906107cb908490610a2d565b90915550505b604080516001600160a01b03838116825260208201859052859281881692918916917f1b3d7edb2e9c0b0e7c525b20aaaef0f5940d2ed71663c7d39266ecafac728859910160405180910390a45050505050565b5f60208284031215610835575f5ffd5b5035919050565b602081525f82518060208401528060208501604085015e5f604082850101526040601f19601f83011684010191505092915050565b80356001600160a01b0381168114610887575f5ffd5b919050565b5f5f6040838503121561089d575f5ffd5b6108a683610871565b946020939093013593505050565b5f602082840312156108c4575f5ffd5b81356001600160e01b0319811681146108db575f5ffd5b9392505050565b5f5f5f606084860312156108f4575f5ffd5b6108fd84610871565b95602085013595506040909401359392505050565b5f5f60408385031215610923575f5ffd5b61092c83610871565b915060208301358015158114610940575f5ffd5b809150509250929050565b5f5f5f6060848603121561095d575f5ffd5b61096684610871565b925061097460208501610871565b929592945050506040919091013590565b5f5f60408385031215610996575f5ffd5b61099f83610871565b91506109ad60208401610871565b90509250929050565b5f5f5f5f608085870312156109c9575f5ffd5b6109d285610871565b93506109e060208601610871565b93969395505050506040820135916060013590565b600181811c90821680610a0957607f821691505b602082108103610a2757634e487b7160e01b5f52602260045260245ffd5b50919050565b8082018082111561036257634e487b7160e01b5f52601160045260245ffdfea2646970667358221220995a7ee788592fc2a796c8d3dd93a76a419e92e29d10198769794584908d180e64736f6c634300081b0033","linkReferences":{}},"methodIdentifiers":{"GOLD()":"3e4bee38","SHIELD()":"5b2725ed","SILVER()":"e3e55f08","SWORD()":"13dc989f","THORS_HAMMER()":"d562e204","allowance(address,address,uint256)":"598af9e7","approve(address,uint256,uint256)":"426a8493","balanceOf(address,uint256)":"00fdd58e","decimals(uint256)":"3f47e662","isOperator(address,address)":"b6363cf2","name(uint256)":"00ad800c","setOperator(address,bool)":"558a7297","supportsInterface(bytes4)":"01ffc9a7","symbol(uint256)":"4e41a1fb","transfer(address,uint256,uint256)":"095bcdb6","transferFrom(address,address,uint256,uint256)":"fe99049a"},"id":148}