{"abi":[{"type":"function","name":"encode","inputs":[{"name":"input","type":"bytes","internalType":"bytes"}],"outputs":[{"name":"","type":"string","internalType":"string"}],"stateMutability":"pure"}],"bytecode":{"object":"0x6080604052348015600e575f5ffd5b506103ee8061001c5f395ff3fe608060405234801561000f575f5ffd5b5060043610610029575f3560e01c806312496a1b1461002d575b5f5ffd5b61004061003b366004610233565b610056565b60405161004d91906102e6565b60405180910390f35b60408051602081019091525f19815260609061007183610078565b9392505050565b606061009e826040518060600160405280604081526020016103796040913960016100a4565b92915050565b606083515f036100c2575060408051602081019091525f8152610071565b5f826100f2576003855160046100d8919061032f565b6100e3906002610346565b6100ed9190610359565b610117565b6003855160026101029190610346565b61010c9190610359565b61011790600461032f565b90505f8167ffffffffffffffff8111156101335761013361021f565b6040519080825280601f01601f19166020018201604052801561015d576020820181803683370190505b509050600185016020820187885189016020810180515f82525b828410156101d2576003840193508351603f8160121c168701518653600186019550603f81600c1c168701518653600186019550603f8160061c168701518653600186019550603f8116870151865350600185019450610177565b905250508515610213576003885106600181146101f6576002811461020957610211565b603d6001830353603d6002830353610211565b603d60018303535b505b50909695505050505050565b634e487b7160e01b5f52604160045260245ffd5b5f60208284031215610243575f5ffd5b813567ffffffffffffffff811115610259575f5ffd5b8201601f81018413610269575f5ffd5b803567ffffffffffffffff8111156102835761028361021f565b604051601f8201601f19908116603f0116810167ffffffffffffffff811182821017156102b2576102b261021f565b6040528181528282016020018610156102c9575f5ffd5b816020840160208301375f91810160200191909152949350505050565b602081525f82518060208401528060208501604085015e5f604082850101526040601f19601f83011684010191505092915050565b634e487b7160e01b5f52601160045260245ffd5b808202811582820484141761009e5761009e61031b565b8082018082111561009e5761009e61031b565b5f8261037357634e487b7160e01b5f52601260045260245ffd5b50049056fe4142434445464748494a4b4c4d4e4f505152535455565758595a6162636465666768696a6b6c6d6e6f707172737475767778797a303132333435363738392b2fa264697066735822122015d8c8eec6b615421bfc810c38fc5df1e7fe675abf725b4c96b6114c8d8c0f1264736f6c634300081b0033","linkReferences":{}},"methodIdentifiers":{"encode(bytes)":"12496a1b"},"id":92}