{
  "contracts/SchoolManagement.sol": {
    "SchoolManagement": {
      "abi": [
        {
          "inputs": [],
          "stateMutability": "nonpayable",
          "type": "constructor"
        },
        {
          "anonymous": false,
          "inputs": [
            {
              "indexed": false,
              "internalType": "uint256",
              "name": "id",
              "type": "uint256"
            }
          ],
          "name": "StudentDeleted",
          "type": "event"
        },
        {
          "anonymous": false,
          "inputs": [
            {
              "indexed": false,
              "internalType": "uint256",
              "name": "id",
              "type": "uint256"
            },
            {
              "indexed": false,
              "internalType": "string",
              "name": "name",
              "type": "string"
            },
            {
              "indexed": false,
              "internalType": "uint256",
              "name": "age",
              "type": "uint256"
            }
          ],
          "name": "StudentRegistered",
          "type": "event"
        },
        {
          "anonymous": false,
          "inputs": [
            {
              "indexed": false,
              "internalType": "uint256",
              "name": "id",
              "type": "uint256"
            },
            {
              "indexed": false,
              "internalType": "enum SchoolManagement.Status",
              "name": "status",
              "type": "uint8"
            }
          ],
          "name": "StudentStatusChanged",
          "type": "event"
        },
        {
          "anonymous": false,
          "inputs": [
            {
              "indexed": false,
              "internalType": "uint256",
              "name": "id",
              "type": "uint256"
            },
            {
              "indexed": false,
              "internalType": "string",
              "name": "name",
              "type": "string"
            },
            {
              "indexed": false,
              "internalType": "uint256",
              "name": "age",
              "type": "uint256"
            }
          ],
          "name": "StudentUpdated",
          "type": "event"
        },
        {
          "inputs": [
            {
              "internalType": "uint256",
              "name": "_id",
              "type": "uint256"
            },
            {
              "internalType": "enum SchoolManagement.Status",
              "name": "_status",
              "type": "uint8"
            }
          ],
          "name": "changeStudentStatus",
          "outputs": [],
          "stateMutability": "nonpayable",
          "type": "function"
        },
        {
          "inputs": [
            {
              "internalType": "uint256",
              "name": "_id",
              "type": "uint256"
            }
          ],
          "name": "deleteStudent",
          "outputs": [],
          "stateMutability": "nonpayable",
          "type": "function"
        },
        {
          "inputs": [],
          "name": "getAllStudents",
          "outputs": [
            {
              "components": [
                {
                  "internalType": "uint256",
                  "name": "id",
                  "type": "uint256"
                },
                {
                  "internalType": "string",
                  "name": "name",
                  "type": "string"
                },
                {
                  "internalType": "uint256",
                  "name": "age",
                  "type": "uint256"
                },
                {
                  "internalType": "enum SchoolManagement.Status",
                  "name": "status",
                  "type": "uint8"
                }
              ],
              "internalType": "struct SchoolManagement.Student[]",
              "name": "",
              "type": "tuple[]"
            }
          ],
          "stateMutability": "view",
          "type": "function"
        },
        {
          "inputs": [
            {
              "internalType": "uint256",
              "name": "_id",
              "type": "uint256"
            }
          ],
          "name": "getStudent",
          "outputs": [
            {
              "components": [
                {
                  "internalType": "uint256",
                  "name": "id",
                  "type": "uint256"
                },
                {
                  "internalType": "string",
                  "name": "name",
                  "type": "string"
                },
                {
                  "internalType": "uint256",
                  "name": "age",
                  "type": "uint256"
                },
                {
                  "internalType": "enum SchoolManagement.Status",
                  "name": "status",
                  "type": "uint8"
                }
              ],
              "internalType": "struct SchoolManagement.Student",
              "name": "",
              "type": "tuple"
            }
          ],
          "stateMutability": "view",
          "type": "function"
        },
        {
          "inputs": [],
          "name": "getTotalStudents",
          "outputs": [
            {
              "internalType": "uint256",
              "name": "",
              "type": "uint256"
            }
          ],
          "stateMutability": "view",
          "type": "function"
        },
        {
          "inputs": [
            {
              "internalType": "string",
              "name": "_name",
              "type": "string"
            },
            {
              "internalType": "uint256",
              "name": "_age",
              "type": "uint256"
            }
          ],
          "name": "registerStudent",
          "outputs": [
            {
              "internalType": "uint256",
              "name": "",
              "type": "uint256"
            }
          ],
          "stateMutability": "nonpayable",
          "type": "function"
        },
        {
          "inputs": [
            {
              "internalType": "uint256",
              "name": "_id",
              "type": "uint256"
            },
            {
              "internalType": "string",
              "name": "_name",
              "type": "string"
            },
            {
              "internalType": "uint256",
              "name": "_age",
              "type": "uint256"
            }
          ],
          "name": "updateStudent",
          "outputs": [],
          "stateMutability": "nonpayable",
          "type": "function"
        }
      ],
      "evm": {
        "bytecode": {
          "linkReferences": {},
          "object": "608060405234801561001057600080fd5b5060018081905550611671806100276000396000f3fe608060405234801561001057600080fd5b506004361061007d5760003560e01c8063781b03781161005b578063781b037814610100578063b645307d1461011c578063e9e3092714610138578063ec7505b1146101565761007d565b806312a0b7441461008257806328bcb51a146100b2578063642f9163146100d0575b600080fd5b61009c60048036038101906100979190610bd2565b610172565b6040516100a99190610c3d565b60405180910390f35b6100ba610298565b6040516100c79190610c3d565b60405180910390f35b6100ea60048036038101906100e59190610c58565b6102a4565b6040516100f79190610ded565b60405180910390f35b61011a60048036038101906101159190610e34565b61044c565b005b61013660048036038101906101319190610c58565b610561565b005b610140610743565b60405161014d9190610f99565b60405180910390f35b610170600480360381019061016b9190610fbb565b610883565b005b60008060405180608001604052806001548152602001858152602001848152602001600060028111156101a8576101a7610d13565b5b815250905060008190806001815401808255809150506001900390600052602060002090600402016000909190919091506000820151816000015560208201518160010190816101f89190611236565b506040820151816002015560608201518160030160006101000a81548160ff0219169083600281111561022e5761022d610d13565b5b021790555050507f7e0aa9ca7c6fadb07f8d4e10b349c9dd7cad6287621771f3ddc7b72db3789d8c600154858560405161026a93929190611352565b60405180910390a160016000815480929190610285906113bf565b9190505550806000015191505092915050565b60008080549050905090565b6102ac6109ab565b60005b60008054905081101561040b5782600082815481106102d1576102d0611407565b5b906000526020600020906004020160000154036103fe57600081815481106102fc576102fb611407565b5b90600052602060002090600402016040518060800160405290816000820154815260200160018201805461032f90611059565b80601f016020809104026020016040519081016040528092919081815260200182805461035b90611059565b80156103a85780601f1061037d576101008083540402835291602001916103a8565b820191906000526020600020905b81548152906001019060200180831161038b57829003601f168201915b50505050508152602001600282015481526020016003820160009054906101000a900460ff1660028111156103e0576103df610d13565b5b60028111156103f2576103f1610d13565b5b81525050915050610447565b80806001019150506102af565b506040517f08c379a000000000000000000000000000000000000000000000000000000000815260040161043e90611482565b60405180910390fd5b919050565b60005b60008054905081101561052157826000828154811061047157610470611407565b5b9060005260206000209060040201600001540361051457816000828154811061049d5761049c611407565b5b906000526020600020906004020160030160006101000a81548160ff021916908360028111156104d0576104cf610d13565b5b02179055507f81dbcbc6bbb37391e640ecd16d4028e2e85f8df16bb9d4d5fd1425505ad463d383836040516105069291906114b1565b60405180910390a15061055d565b808060010191505061044f565b506040517f08c379a000000000000000000000000000000000000000000000000000000000815260040161055490611482565b60405180910390fd5b5050565b60005b60008054905081101561070457816000828154811061058657610585611407565b5b906000526020600020906004020160000154036106f7577f34de6b871245ed0a89b82912e8e5ee6d9c3104b3e5bb1d67a71ad7e68239e41c826040516105cc9190610c3d565b60405180910390a1600060016000805490506105e891906114da565b815481106105f9576105f8611407565b5b90600052602060002090600402016000828154811061061b5761061a611407565b5b906000526020600020906004020160008201548160000155600182018160010190816106479190611524565b50600282015481600201556003820160009054906101000a900460ff168160030160006101000a81548160ff0219169083600281111561068a57610689610d13565b5b021790555090505060008054806106a4576106a361160c565b5b60019003818190600052602060002090600402016000808201600090556001820160006106d191906109e5565b60028201600090556003820160006101000a81549060ff02191690555050905550610740565b8080600101915050610564565b506040517f08c379a000000000000000000000000000000000000000000000000000000000815260040161073790611482565b60405180910390fd5b50565b60606000805480602002602001604051908101604052809291908181526020016000905b8282101561087a5783829060005260206000209060040201604051806080016040529081600082015481526020016001820180546107a490611059565b80601f01602080910402602001604051908101604052809291908181526020018280546107d090611059565b801561081d5780601f106107f25761010080835404028352916020019161081d565b820191906000526020600020905b81548152906001019060200180831161080057829003601f168201915b50505050508152602001600282015481526020016003820160009054906101000a900460ff16600281111561085557610854610d13565b5b600281111561086757610866610d13565b5b8152505081526020019060010190610767565b50505050905090565b60005b60008054905081101561096a5783600082815481106108a8576108a7611407565b5b9060005260206000209060040201600001540361095d5782600082815481106108d4576108d3611407565b5b906000526020600020906004020160010190816108f19190611236565b50816000828154811061090757610906611407565b5b9060005260206000209060040201600201819055507f4357c5c5b9644041ac4ee3cc6cb2955092b15b49004dd53d4ec2fc556826b8b984848460405161094f93929190611352565b60405180910390a1506109a6565b8080600101915050610886565b506040517f08c379a000000000000000000000000000000000000000000000000000000000815260040161099d90611482565b60405180910390fd5b505050565b6040518060800160405280600081526020016060815260200160008152602001600060028111156109df576109de610d13565b5b81525090565b5080546109f190611059565b6000825580601f10610a035750610a22565b601f016020900490600052602060002090810190610a219190610a25565b5b50565b5b80821115610a3e576000816000905550600101610a26565b5090565b6000604051905090565b600080fd5b600080fd5b600080fd5b600080fd5b6000601f19601f8301169050919050565b7f4e487b7100000000000000000000000000000000000000000000000000000000600052604160045260246000fd5b610aa982610a60565b810181811067ffffffffffffffff82111715610ac857610ac7610a71565b5b80604052505050565b6000610adb610a42565b9050610ae78282610aa0565b919050565b600067ffffffffffffffff821115610b0757610b06610a71565b5b610b1082610a60565b9050602081019050919050565b82818337600083830152505050565b6000610b3f610b3a84610aec565b610ad1565b905082815260208101848484011115610b5b57610b5a610a5b565b5b610b66848285610b1d565b509392505050565b600082601f830112610b8357610b82610a56565b5b8135610b93848260208601610b2c565b91505092915050565b6000819050919050565b610baf81610b9c565b8114610bba57600080fd5b50565b600081359050610bcc81610ba6565b92915050565b60008060408385031215610be957610be8610a4c565b5b600083013567ffffffffffffffff811115610c0757610c06610a51565b5b610c1385828601610b6e565b9250506020610c2485828601610bbd565b9150509250929050565b610c3781610b9c565b82525050565b6000602082019050610c526000830184610c2e565b92915050565b600060208284031215610c6e57610c6d610a4c565b5b6000610c7c84828501610bbd565b91505092915050565b610c8e81610b9c565b82525050565b600081519050919050565b600082825260208201905092915050565b60005b83811015610cce578082015181840152602081019050610cb3565b60008484015250505050565b6000610ce582610c94565b610cef8185610c9f565b9350610cff818560208601610cb0565b610d0881610a60565b840191505092915050565b7f4e487b7100000000000000000000000000000000000000000000000000000000600052602160045260246000fd5b60038110610d5357610d52610d13565b5b50565b6000819050610d6482610d42565b919050565b6000610d7482610d56565b9050919050565b610d8481610d69565b82525050565b6000608083016000830151610da26000860182610c85565b5060208301518482036020860152610dba8282610cda565b9150506040830151610dcf6040860182610c85565b506060830151610de26060860182610d7b565b508091505092915050565b60006020820190508181036000830152610e078184610d8a565b905092915050565b60038110610e1c57600080fd5b50565b600081359050610e2e81610e0f565b92915050565b60008060408385031215610e4b57610e4a610a4c565b5b6000610e5985828601610bbd565b9250506020610e6a85828601610e1f565b9150509250929050565b600081519050919050565b600082825260208201905092915050565b6000819050602082019050919050565b6000608083016000830151610eb86000860182610c85565b5060208301518482036020860152610ed08282610cda565b9150506040830151610ee56040860182610c85565b506060830151610ef86060860182610d7b565b508091505092915050565b6000610f0f8383610ea0565b905092915050565b6000602082019050919050565b6000610f2f82610e74565b610f398185610e7f565b935083602082028501610f4b85610e90565b8060005b85811015610f875784840389528151610f688582610f03565b9450610f7383610f17565b925060208a01995050600181019050610f4f565b50829750879550505050505092915050565b60006020820190508181036000830152610fb38184610f24565b905092915050565b600080600060608486031215610fd457610fd3610a4c565b5b6000610fe286828701610bbd565b935050602084013567ffffffffffffffff81111561100357611002610a51565b5b61100f86828701610b6e565b925050604061102086828701610bbd565b9150509250925092565b7f4e487b7100000000000000000000000000000000000000000000000000000000600052602260045260246000fd5b6000600282049050600182168061107157607f821691505b6020821081036110845761108361102a565b5b50919050565b60008190508160005260206000209050919050565b60006020601f8301049050919050565b600082821b905092915050565b6000600883026110ec7fffffffffffffffffffffffffffffffffffffffffffffffffffffffffffffffff826110af565b6110f686836110af565b95508019841693508086168417925050509392505050565b6000819050919050565b600061113361112e61112984610b9c565b61110e565b610b9c565b9050919050565b6000819050919050565b61114d83611118565b6111616111598261113a565b8484546110bc565b825550505050565b600090565b611176611169565b611181818484611144565b505050565b5b818110156111a55761119a60008261116e565b600181019050611187565b5050565b601f8211156111ea576111bb8161108a565b6111c48461109f565b810160208510156111d3578190505b6111e76111df8561109f565b830182611186565b50505b505050565b600082821c905092915050565b600061120d600019846008026111ef565b1980831691505092915050565b600061122683836111fc565b9150826002028217905092915050565b61123f82610c94565b67ffffffffffffffff81111561125857611257610a71565b5b6112628254611059565b61126d8282856111a9565b600060209050601f8311600181146112a0576000841561128e578287015190505b611298858261121a565b865550611300565b601f1984166112ae8661108a565b60005b828110156112d6578489015182556001820191506020850194506020810190506112b1565b868310156112f357848901516112ef601f8916826111fc565b8355505b6001600288020188555050505b505050505050565b600082825260208201905092915050565b600061132482610c94565b61132e8185611308565b935061133e818560208601610cb0565b61134781610a60565b840191505092915050565b60006060820190506113676000830186610c2e565b81810360208301526113798185611319565b90506113886040830184610c2e565b949350505050565b7f4e487b7100000000000000000000000000000000000000000000000000000000600052601160045260246000fd5b60006113ca82610b9c565b91507fffffffffffffffffffffffffffffffffffffffffffffffffffffffffffffffff82036113fc576113fb611390565b5b600182019050919050565b7f4e487b7100000000000000000000000000000000000000000000000000000000600052603260045260246000fd5b7f53747564656e74206e6f7420666f756e64000000000000000000000000000000600082015250565b600061146c601183611308565b915061147782611436565b602082019050919050565b6000602082019050818103600083015261149b8161145f565b9050919050565b6114ab81610d69565b82525050565b60006040820190506114c66000830185610c2e565b6114d360208301846114a2565b9392505050565b60006114e582610b9c565b91506114f083610b9c565b925082820390508181111561150857611507611390565b5b92915050565b60008154905061151d81611059565b9050919050565b81810361153257505061160a565b61153b8261150e565b67ffffffffffffffff81111561155457611553610a71565b5b61155e8254611059565b6115698282856111a9565b6000601f8311600181146115985760008415611586578287015490505b611590858261121a565b865550611603565b601f1984166115a68761108a565b96506115b18661108a565b60005b828110156115d9578489015482556001820191506001850194506020810190506115b4565b868310156115f657848901546115f2601f8916826111fc565b8355505b6001600288020188555050505b5050505050505b565b7f4e487b7100000000000000000000000000000000000000000000000000000000600052603160045260246000fdfea2646970667358221220d2b17fb7cfa6afa0efa2cf16f818a268696b18b5994930af73b7ae83a3e4fe1c64736f6c63430008170033",
          "opcodes": "PUSH1 0x80 PUSH1 0x40 MSTORE CALLVALUE DUP1 ISZERO PUSH2 0x10 JUMPI PUSH1 0x0 DUP1 REVERT JUMPDEST POP PUSH1 0x1 DUP1 DUP2 SWAP1 SSTORE POP PUSH2 0x1671 DUP1 PUSH2 0x27 PUSH1 0x0 CODECOPY PUSH1 0x0 RETURN INVALID PUSH1 0x80 PUSH1 0x40 MSTORE CALLVALUE DUP1 ISZERO PUSH2 0x10 JUMPI PUSH1 0x0 DUP1 REVERT JUMPDEST POP PUSH1 0x4 CALLDATASIZE LT PUSH2 0x7D JUMPI PUSH1 0x0 CALLDATALOAD PUSH1 0xE0 SHR DUP1 PUSH4 0x781B0378 GT PUSH2 0x5B JUMPI DUP1 PUSH4 0x781B0378 EQ PUSH2 0x100 JUMPI DUP1 PUSH4 0xB645307D EQ PUSH2 0x11C JUMPI DUP1 PUSH4 0xE9E30927 EQ PUSH2 0x138 JUMPI DUP1 PUSH4 0xEC7505B1 EQ PUSH2 0x156 JUMPI PUSH2 0x7D JUMP JUMPDEST DUP1 PUSH4 0x12A0B744 EQ PUSH2 0x82 JUMPI DUP1 PUSH4 0x28BCB51A EQ PUSH2 0xB2 JUMPI DUP1 PUSH4 0x642F9163 EQ PUSH2 0xD0 JUMPI JUMPDEST PUSH1 0x0 DUP1 REVERT JUMPDEST PUSH2 0x9C PUSH1 0x4 DUP1 CALLDATASIZE SUB DUP2 ADD SWAP1 PUSH2 0x97 SWAP2 SWAP1 PUSH2 0xBD2 JUMP JUMPDEST PUSH2 0x172 JUMP JUMPDEST PUSH1 0x40 MLOAD PUSH2 0xA9 SWAP2 SWAP1 PUSH2 0xC3D JUMP JUMPDEST PUSH1 0x40 MLOAD DUP1 SWAP2 SUB SWAP1 RETURN JUMPDEST PUSH2 0xBA PUSH2 0x298 JUMP JUMPDEST PUSH1 0x40 MLOAD PUSH2 0xC7 SWAP2 SWAP1 PUSH2 0xC3D JUMP JUMPDEST PUSH1 0x40 MLOAD DUP1 SWAP2 SUB SWAP1 RETURN JUMPDEST PUSH2 0xEA PUSH1 0x4 DUP1 CALLDATASIZE SUB DUP2 ADD SWAP1 PUSH2 0xE5 SWAP2 SWAP1 PUSH2 0xC58 JUMP JUMPDEST PUSH2 0x2A4 JUMP JUMPDEST PUSH1 0x40 MLOAD PUSH2 0xF7 SWAP2 SWAP1 PUSH2 0xDED JUMP JUMPDEST PUSH1 0x40 MLOAD DUP1 SWAP2 SUB SWAP1 RETURN JUMPDEST PUSH2 0x11A PUSH1 0x4 DUP1 CALLDATASIZE SUB DUP2 ADD SWAP1 PUSH2 0x115 SWAP2 SWAP1 PUSH2 0xE34 JUMP JUMPDEST PUSH2 0x44C JUMP JUMPDEST STOP JUMPDEST PUSH2 0x136 PUSH1 0x4 DUP1 CALLDATASIZE SUB DUP2 ADD SWAP1 PUSH2 0x131 SWAP2 SWAP1 PUSH2 0xC58 JUMP JUMPDEST PUSH2 0x561 JUMP JUMPDEST STOP JUMPDEST PUSH2 0x140 PUSH2 0x743 JUMP JUMPDEST PUSH1 0x40 MLOAD PUSH2 0x14D SWAP2 SWAP1 PUSH2 0xF99 JUMP JUMPDEST PUSH1 0x40 MLOAD DUP1 SWAP2 SUB SWAP1 RETURN JUMPDEST PUSH2 0x170 PUSH1 0x4 DUP1 CALLDATASIZE SUB DUP2 ADD SWAP1 PUSH2 0x16B SWAP2 SWAP1 PUSH2 0xFBB JUMP JUMPDEST PUSH2 0x883 JUMP JUMPDEST STOP JUMPDEST PUSH1 0x0 DUP1 PUSH1 0x40 MLOAD DUP1 PUSH1 0x80 ADD PUSH1 0x40 MSTORE DUP1 PUSH1 0x1 SLOAD DUP2 MSTORE PUSH1 0x20 ADD DUP6 DUP2 MSTORE PUSH1 0x20 ADD DUP5 DUP2 MSTORE PUSH1 0x20 ADD PUSH1 0x0 PUSH1 0x2 DUP2 GT ISZERO PUSH2 0x1A8 JUMPI PUSH2 0x1A7 PUSH2 0xD13 JUMP JUMPDEST JUMPDEST DUP2 MSTORE POP SWAP1 POP PUSH1 0x0 DUP2 SWAP1 DUP1 PUSH1 0x1 DUP2 SLOAD ADD DUP1 DUP3 SSTORE DUP1 SWAP2 POP POP PUSH1 0x1 SWAP1 SUB SWAP1 PUSH1 0x0 MSTORE PUSH1 0x20 PUSH1 0x0 KECCAK256 SWAP1 PUSH1 0x4 MUL ADD PUSH1 0x0 SWAP1 SWAP2 SWAP1 SWAP2 SWAP1 SWAP2 POP PUSH1 0x0 DUP3 ADD MLOAD DUP2 PUSH1 0x0 ADD SSTORE PUSH1 0x20 DUP3 ADD MLOAD DUP2 PUSH1 0x1 ADD SWAP1 DUP2 PUSH2 0x1F8 SWAP2 SWAP1 PUSH2 0x1236 JUMP JUMPDEST POP PUSH1 0x40 DUP3 ADD MLOAD DUP2 PUSH1 0x2 ADD SSTORE PUSH1 0x60 DUP3 ADD MLOAD DUP2 PUSH1 0x3 ADD PUSH1 0x0 PUSH2 0x100 EXP DUP2 SLOAD DUP2 PUSH1 0xFF MUL NOT AND SWAP1 DUP4 PUSH1 0x2 DUP2 GT ISZERO PUSH2 0x22E JUMPI PUSH2 0x22D PUSH2 0xD13 JUMP JUMPDEST JUMPDEST MUL OR SWAP1 SSTORE POP POP POP PUSH32 0x7E0AA9CA7C6FADB07F8D4E10B349C9DD7CAD6287621771F3DDC7B72DB3789D8C PUSH1 0x1 SLOAD DUP6 DUP6 PUSH1 0x40 MLOAD PUSH2 0x26A SWAP4 SWAP3 SWAP2 SWAP1 PUSH2 0x1352 JUMP JUMPDEST PUSH1 0x40 MLOAD DUP1 SWAP2 SUB SWAP1 LOG1 PUSH1 0x1 PUSH1 0x0 DUP2 SLOAD DUP1 SWAP3 SWAP2 SWAP1 PUSH2 0x285 SWAP1 PUSH2 0x13BF JUMP JUMPDEST SWAP2 SWAP1 POP SSTORE POP DUP1 PUSH1 0x0 ADD MLOAD SWAP2 POP POP SWAP3 SWAP2 POP POP JUMP JUMPDEST PUSH1 0x0 DUP1 DUP1 SLOAD SWAP1 POP SWAP1 POP SWAP1 JUMP JUMPDEST PUSH2 0x2AC PUSH2 0x9AB JUMP JUMPDEST PUSH1 0x0 JUMPDEST PUSH1 0x0 DUP1 SLOAD SWAP1 POP DUP2 LT ISZERO PUSH2 0x40B JUMPI DUP3 PUSH1 0x0 DUP3 DUP2 SLOAD DUP2 LT PUSH2 0x2D1 JUMPI PUSH2 0x2D0 PUSH2 0x1407 JUMP JUMPDEST JUMPDEST SWAP1 PUSH1 0x0 MSTORE PUSH1 0x20 PUSH1 0x0 KECCAK256 SWAP1 PUSH1 0x4 MUL ADD PUSH1 0x0 ADD SLOAD SUB PUSH2 0x3FE JUMPI PUSH1 0x0 DUP2 DUP2 SLOAD DUP2 LT PUSH2 0x2FC JUMPI PUSH2 0x2FB PUSH2 0x1407 JUMP JUMPDEST JUMPDEST SWAP1 PUSH1 0x0 MSTORE PUSH1 0x20 PUSH1 0x0 KECCAK256 SWAP1 PUSH1 0x4 MUL ADD PUSH1 0x40 MLOAD DUP1 PUSH1 0x80 ADD PUSH1 0x40 MSTORE SWAP1 DUP2 PUSH1 0x0 DUP3 ADD SLOAD DUP2 MSTORE PUSH1 0x20 ADD PUSH1 0x1 DUP3 ADD DUP1 SLOAD PUSH2 0x32F SWAP1 PUSH2 0x1059 JUMP JUMPDEST DUP1 PUSH1 0x1F ADD PUSH1 0x20 DUP1 SWAP2 DIV MUL PUSH1 0x20 ADD PUSH1 0x40 MLOAD SWAP1 DUP2 ADD PUSH1 0x40 MSTORE DUP1 SWAP3 SWAP2 SWAP1 DUP2 DUP2 MSTORE PUSH1 0x20 ADD DUP3 DUP1 SLOAD PUSH2 0x35B SWAP1 PUSH2 0x1059 JUMP JUMPDEST DUP1 ISZERO PUSH2 0x3A8 JUMPI DUP1 PUSH1 0x1F LT PUSH2 0x37D JUMPI PUSH2 0x100 DUP1 DUP4 SLOAD DIV MUL DUP4 MSTORE SWAP2 PUSH1 0x20 ADD SWAP2 PUSH2 0x3A8 JUMP JUMPDEST DUP3 ADD SWAP2 SWAP1 PUSH1 0x0 MSTORE PUSH1 0x20 PUSH1 0x0 KECCAK256 SWAP1 JUMPDEST DUP2 SLOAD DUP2 MSTORE SWAP1 PUSH1 0x1 ADD SWAP1 PUSH1 0x20 ADD DUP1 DUP4 GT PUSH2 0x38B JUMPI DUP3 SWAP1 SUB PUSH1 0x1F AND DUP3 ADD SWAP2 JUMPDEST POP POP POP POP POP DUP2 MSTORE PUSH1 0x20 ADD PUSH1 0x2 DUP3 ADD SLOAD DUP2 MSTORE PUSH1 0x20 ADD PUSH1 0x3 DUP3 ADD PUSH1 0x0 SWAP1 SLOAD SWAP1 PUSH2 0x100 EXP SWAP1 DIV PUSH1 0xFF AND PUSH1 0x2 DUP2 GT ISZERO PUSH2 0x3E0 JUMPI PUSH2 0x3DF PUSH2 0xD13 JUMP JUMPDEST JUMPDEST PUSH1 0x2 DUP2 GT ISZERO PUSH2 0x3F2 JUMPI PUSH2 0x3F1 PUSH2 0xD13 JUMP JUMPDEST JUMPDEST DUP2 MSTORE POP POP SWAP2 POP POP PUSH2 0x447 JUMP JUMPDEST DUP1 DUP1 PUSH1 0x1 ADD SWAP2 POP POP PUSH2 0x2AF JUMP JUMPDEST POP PUSH1 0x40 MLOAD PUSH32 0x8C379A000000000000000000000000000000000000000000000000000000000 DUP2 MSTORE PUSH1 0x4 ADD PUSH2 0x43E SWAP1 PUSH2 0x1482 JUMP JUMPDEST PUSH1 0x40 MLOAD DUP1 SWAP2 SUB SWAP1 REVERT JUMPDEST SWAP2 SWAP1 POP JUMP JUMPDEST PUSH1 0x0 JUMPDEST PUSH1 0x0 DUP1 SLOAD SWAP1 POP DUP2 LT ISZERO PUSH2 0x521 JUMPI DUP3 PUSH1 0x0 DUP3 DUP2 SLOAD DUP2 LT PUSH2 0x471 JUMPI PUSH2 0x470 PUSH2 0x1407 JUMP JUMPDEST JUMPDEST SWAP1 PUSH1 0x0 MSTORE PUSH1 0x20 PUSH1 0x0 KECCAK256 SWAP1 PUSH1 0x4 MUL ADD PUSH1 0x0 ADD SLOAD SUB PUSH2 0x514 JUMPI DUP2 PUSH1 0x0 DUP3 DUP2 SLOAD DUP2 LT PUSH2 0x49D JUMPI PUSH2 0x49C PUSH2 0x1407 JUMP JUMPDEST JUMPDEST SWAP1 PUSH1 0x0 MSTORE PUSH1 0x20 PUSH1 0x0 KECCAK256 SWAP1 PUSH1 0x4 MUL ADD PUSH1 0x3 ADD PUSH1 0x0 PUSH2 0x100 EXP DUP2 SLOAD DUP2 PUSH1 0xFF MUL NOT AND SWAP1 DUP4 PUSH1 0x2 DUP2 GT ISZERO PUSH2 0x4D0 JUMPI PUSH2 0x4CF PUSH2 0xD13 JUMP JUMPDEST JUMPDEST MUL OR SWAP1 SSTORE POP PUSH32 0x81DBCBC6BBB37391E640ECD16D4028E2E85F8DF16BB9D4D5FD1425505AD463D3 DUP4 DUP4 PUSH1 0x40 MLOAD PUSH2 0x506 SWAP3 SWAP2 SWAP1 PUSH2 0x14B1 JUMP JUMPDEST PUSH1 0x40 MLOAD DUP1 SWAP2 SUB SWAP1 LOG1 POP PUSH2 0x55D JUMP JUMPDEST DUP1 DUP1 PUSH1 0x1 ADD SWAP2 POP POP PUSH2 0x44F JUMP JUMPDEST POP PUSH1 0x40 MLOAD PUSH32 0x8C379A000000000000000000000000000000000000000000000000000000000 DUP2 MSTORE PUSH1 0x4 ADD PUSH2 0x554 SWAP1 PUSH2 0x1482 JUMP JUMPDEST PUSH1 0x40 MLOAD DUP1 SWAP2 SUB SWAP1 REVERT JUMPDEST POP POP JUMP JUMPDEST PUSH1 0x0 JUMPDEST PUSH1 0x0 DUP1 SLOAD SWAP1 POP DUP2 LT ISZERO PUSH2 0x704 JUMPI DUP2 PUSH1 0x0 DUP3 DUP2 SLOAD DUP2 LT PUSH2 0x586 JUMPI PUSH2 0x585 PUSH2 0x1407 JUMP JUMPDEST JUMPDEST SWAP1 PUSH1 0x0 MSTORE PUSH1 0x20 PUSH1 0x0 KECCAK256 SWAP1 PUSH1 0x4 MUL ADD PUSH1 0x0 ADD SLOAD SUB PUSH2 0x6F7 JUMPI PUSH32 0x34DE6B871245ED0A89B82912E8E5EE6D9C3104B3E5BB1D67A71AD7E68239E41C DUP3 PUSH1 0x40 MLOAD PUSH2 0x5CC SWAP2 SWAP1 PUSH2 0xC3D JUMP JUMPDEST PUSH1 0x40 MLOAD DUP1 SWAP2 SUB SWAP1 LOG1 PUSH1 0x0 PUSH1 0x1 PUSH1 0x0 DUP1 SLOAD SWAP1 POP PUSH2 0x5E8 SWAP2 SWAP1 PUSH2 0x14DA JUMP JUMPDEST DUP2 SLOAD DUP2 LT PUSH2 0x5F9 JUMPI PUSH2 0x5F8 PUSH2 0x1407 JUMP JUMPDEST JUMPDEST SWAP1 PUSH1 0x0 MSTORE PUSH1 0x20 PUSH1 0x0 KECCAK256 SWAP1 PUSH1 0x4 MUL ADD PUSH1 0x0 DUP3 DUP2 SLOAD DUP2 LT PUSH2 0x61B JUMPI PUSH2 0x61A PUSH2 0x1407 JUMP JUMPDEST JUMPDEST SWAP1 PUSH1 0x0 MSTORE PUSH1 0x20 PUSH1 0x0 KECCAK256 SWAP1 PUSH1 0x4 MUL ADD PUSH1 0x0 DUP3 ADD SLOAD DUP2 PUSH1 0x0 ADD SSTORE PUSH1 0x1 DUP3 ADD DUP2 PUSH1 0x1 ADD SWAP1 DUP2 PUSH2 0x647 SWAP2 SWAP1 PUSH2 0x1524 JUMP JUMPDEST POP PUSH1 0x2 DUP3 ADD SLOAD DUP2 PUSH1 0x2 ADD SSTORE PUSH1 0x3 DUP3 ADD PUSH1 0x0 SWAP1 SLOAD SWAP1 PUSH2 0x100 EXP SWAP1 DIV PUSH1 0xFF AND DUP2 PUSH1 0x3 ADD PUSH1 0x0 PUSH2 0x100 EXP DUP2 SLOAD DUP2 PUSH1 0xFF MUL NOT AND SWAP1 DUP4 PUSH1 0x2 DUP2 GT ISZERO PUSH2 0x68A JUMPI PUSH2 0x689 PUSH2 0xD13 JUMP JUMPDEST JUMPDEST MUL OR SWAP1 SSTORE POP SWAP1 POP POP PUSH1 0x0 DUP1 SLOAD DUP1 PUSH2 0x6A4 JUMPI PUSH2 0x6A3 PUSH2 0x160C JUMP JUMPDEST JUMPDEST PUSH1 0x1 SWAP1 SUB DUP2 DUP2 SWAP1 PUSH1 0x0 MSTORE PUSH1 0x20 PUSH1 0x0 KECCAK256 SWAP1 PUSH1 0x4 MUL ADD PUSH1 0x0 DUP1 DUP3 ADD PUSH1 0x0 SWAP1 SSTORE PUSH1 0x1 DUP3 ADD PUSH1 0x0 PUSH2 0x6D1 SWAP2 SWAP1 PUSH2 0x9E5 JUMP JUMPDEST PUSH1 0x2 DUP3 ADD PUSH1 0x0 SWAP1 SSTORE PUSH1 0x3 DUP3 ADD PUSH1 0x0 PUSH2 0x100 EXP DUP2 SLOAD SWAP1 PUSH1 0xFF MUL NOT AND SWAP1 SSTORE POP POP SWAP1 SSTORE POP PUSH2 0x740 JUMP JUMPDEST DUP1 DUP1 PUSH1 0x1 ADD SWAP2 POP POP PUSH2 0x564 JUMP JUMPDEST POP PUSH1 0x40 MLOAD PUSH32 0x8C379A000000000000000000000000000000000000000000000000000000000 DUP2 MSTORE PUSH1 0x4 ADD PUSH2 0x737 SWAP1 PUSH2 0x1482 JUMP JUMPDEST PUSH1 0x40 MLOAD DUP1 SWAP2 SUB SWAP1 REVERT JUMPDEST POP JUMP JUMPDEST PUSH1 0x60 PUSH1 0x0 DUP1 SLOAD DUP1 PUSH1 0x20 MUL PUSH1 0x20 ADD PUSH1 0x40 MLOAD SWAP1 DUP2 ADD PUSH1 0x40 MSTORE DUP1 SWAP3 SWAP2 SWAP1 DUP2 DUP2 MSTORE PUSH1 0x20 ADD PUSH1 0x0 SWAP1 JUMPDEST DUP3 DUP3 LT ISZERO PUSH2 0x87A JUMPI DUP4 DUP3 SWAP1 PUSH1 0x0 MSTORE PUSH1 0x20 PUSH1 0x0 KECCAK256 SWAP1 PUSH1 0x4 MUL ADD PUSH1 0x40 MLOAD DUP1 PUSH1 0x80 ADD PUSH1 0x40 MSTORE SWAP1 DUP2 PUSH1 0x0 DUP3 ADD SLOAD DUP2 MSTORE PUSH1 0x20 ADD PUSH1 0x1 DUP3 ADD DUP1 SLOAD PUSH2 0x7A4 SWAP1 PUSH2 0x1059 JUMP JUMPDEST DUP1 PUSH1 0x1F ADD PUSH1 0x20 DUP1 SWAP2 DIV MUL PUSH1 0x20 ADD PUSH1 0x40 MLOAD SWAP1 DUP2 ADD PUSH1 0x40 MSTORE DUP1 SWAP3 SWAP2 SWAP1 DUP2 DUP2 MSTORE PUSH1 0x20 ADD DUP3 DUP1 SLOAD PUSH2 0x7D0 SWAP1 PUSH2 0x1059 JUMP JUMPDEST DUP1 ISZERO PUSH2 0x81D JUMPI DUP1 PUSH1 0x1F LT PUSH2 0x7F2 JUMPI PUSH2 0x100 DUP1 DUP4 SLOAD DIV MUL DUP4 MSTORE SWAP2 PUSH1 0x20 ADD SWAP2 PUSH2 0x81D JUMP JUMPDEST DUP3 ADD SWAP2 SWAP1 PUSH1 0x0 MSTORE PUSH1 0x20 PUSH1 0x0 KECCAK256 SWAP1 JUMPDEST DUP2 SLOAD DUP2 MSTORE SWAP1 PUSH1 0x1 ADD SWAP1 PUSH1 0x20 ADD DUP1 DUP4 GT PUSH2 0x800 JUMPI DUP3 SWAP1 SUB PUSH1 0x1F AND DUP3 ADD SWAP2 JUMPDEST POP POP POP POP POP DUP2 MSTORE PUSH1 0x20 ADD PUSH1 0x2 DUP3 ADD SLOAD DUP2 MSTORE PUSH1 0x20 ADD PUSH1 0x3 DUP3 ADD PUSH1 0x0 SWAP1 SLOAD SWAP1 PUSH2 0x100 EXP SWAP1 DIV PUSH1 0xFF AND PUSH1 0x2 DUP2 GT ISZERO PUSH2 0x855 JUMPI PUSH2 0x854 PUSH2 0xD13 JUMP JUMPDEST JUMPDEST PUSH1 0x2 DUP2 GT ISZERO PUSH2 0x867 JUMPI PUSH2 0x866 PUSH2 0xD13 JUMP JUMPDEST JUMPDEST DUP2 MSTORE POP POP DUP2 MSTORE PUSH1 0x20 ADD SWAP1 PUSH1 0x1 ADD SWAP1 PUSH2 0x767 JUMP JUMPDEST POP POP POP POP SWAP1 POP SWAP1 JUMP JUMPDEST PUSH1 0x0 JUMPDEST PUSH1 0x0 DUP1 SLOAD SWAP1 POP DUP2 LT ISZERO PUSH2 0x96A JUMPI DUP4 PUSH1 0x0 DUP3 DUP2 SLOAD DUP2 LT PUSH2 0x8A8 JUMPI PUSH2 0x8A7 PUSH2 0x1407 JUMP JUMPDEST JUMPDEST SWAP1 PUSH1 0x0 MSTORE PUSH1 0x20 PUSH1 0x0 KECCAK256 SWAP1 PUSH1 0x4 MUL ADD PUSH1 0x0 ADD SLOAD SUB PUSH2 0x95D JUMPI DUP3 PUSH1 0x0 DUP3 DUP2 SLOAD DUP2 LT PUSH2 0x8D4 JUMPI PUSH2 0x8D3 PUSH2 0x1407 JUMP JUMPDEST JUMPDEST SWAP1 PUSH1 0x0 MSTORE PUSH1 0x20 PUSH1 0x0 KECCAK256 SWAP1 PUSH1 0x4 MUL ADD PUSH1 0x1 ADD SWAP1 DUP2 PUSH2 0x8F1 SWAP2 SWAP1 PUSH2 0x1236 JUMP JUMPDEST POP DUP2 PUSH1 0x0 DUP3 DUP2 SLOAD DUP2 LT PUSH2 0x907 JUMPI PUSH2 0x906 PUSH2 0x1407 JUMP JUMPDEST JUMPDEST SWAP1 PUSH1 0x0 MSTORE PUSH1 0x20 PUSH1 0x0 KECCAK256 SWAP1 PUSH1 0x4 MUL ADD PUSH1 0x2 ADD DUP2 SWAP1 SSTORE POP PUSH32 0x4357C5C5B9644041AC4EE3CC6CB2955092B15B49004DD53D4EC2FC556826B8B9 DUP5 DUP5 DUP5 PUSH1 0x40 MLOAD PUSH2 0x94F SWAP4 SWAP3 SWAP2 SWAP1 PUSH2 0x1352 JUMP JUMPDEST PUSH1 0x40 MLOAD DUP1 SWAP2 SUB SWAP1 LOG1 POP PUSH2 0x9A6 JUMP JUMPDEST DUP1 DUP1 PUSH1 0x1 ADD SWAP2 POP POP PUSH2 0x886 JUMP JUMPDEST POP PUSH1 0x40 MLOAD PUSH32 0x8C379A000000000000000000000000000000000000000000000000000000000 DUP2 MSTORE PUSH1 0x4 ADD PUSH2 0x99D SWAP1 PUSH2 0x1482 JUMP JUMPDEST PUSH1 0x40 MLOAD DUP1 SWAP2 SUB SWAP1 REVERT JUMPDEST POP POP POP JUMP JUMPDEST PUSH1 0x40 MLOAD DUP1 PUSH1 0x80 ADD PUSH1 0x40 MSTORE DUP1 PUSH1 0x0 DUP2 MSTORE PUSH1 0x20 ADD PUSH1 0x60 DUP2 MSTORE PUSH1 0x20 ADD PUSH1 0x0 DUP2 MSTORE PUSH1 0x20 ADD PUSH1 0x0 PUSH1 0x2 DUP2 GT ISZERO PUSH2 0x9DF JUMPI PUSH2 0x9DE PUSH2 0xD13 JUMP JUMPDEST JUMPDEST DUP2 MSTORE POP SWAP1 JUMP JUMPDEST POP DUP1 SLOAD PUSH2 0x9F1 SWAP1 PUSH2 0x1059 JUMP JUMPDEST PUSH1 0x0 DUP3 SSTORE DUP1 PUSH1 0x1F LT PUSH2 0xA03 JUMPI POP PUSH2 0xA22 JUMP JUMPDEST PUSH1 0x1F ADD PUSH1 0x20 SWAP1 DIV SWAP1 PUSH1 0x0 MSTORE PUSH1 0x20 PUSH1 0x0 KECCAK256 SWAP1 DUP2 ADD SWAP1 PUSH2 0xA21 SWAP2 SWAP1 PUSH2 0xA25 JUMP JUMPDEST JUMPDEST POP JUMP JUMPDEST JUMPDEST DUP1 DUP3 GT ISZERO PUSH2 0xA3E JUMPI PUSH1 0x0 DUP2 PUSH1 0x0 SWAP1 SSTORE POP PUSH1 0x1 ADD PUSH2 0xA26 JUMP JUMPDEST POP SWAP1 JUMP JUMPDEST PUSH1 0x0 PUSH1 0x40 MLOAD SWAP1 POP SWAP1 JUMP JUMPDEST PUSH1 0x0 DUP1 REVERT JUMPDEST PUSH1 0x0 DUP1 REVERT JUMPDEST PUSH1 0x0 DUP1 REVERT JUMPDEST PUSH1 0x0 DUP1 REVERT JUMPDEST PUSH1 0x0 PUSH1 0x1F NOT PUSH1 0x1F DUP4 ADD AND SWAP1 POP SWAP2 SWAP1 POP JUMP JUMPDEST PUSH32 0x4E487B7100000000000000000000000000000000000000000000000000000000 PUSH1 0x0 MSTORE PUSH1 0x41 PUSH1 0x4 MSTORE PUSH1 0x24 PUSH1 0x0 REVERT JUMPDEST PUSH2 0xAA9 DUP3 PUSH2 0xA60 JUMP JUMPDEST DUP2 ADD DUP2 DUP2 LT PUSH8 0xFFFFFFFFFFFFFFFF DUP3 GT OR ISZERO PUSH2 0xAC8 JUMPI PUSH2 0xAC7 PUSH2 0xA71 JUMP JUMPDEST JUMPDEST DUP1 PUSH1 0x40 MSTORE POP POP POP JUMP JUMPDEST PUSH1 0x0 PUSH2 0xADB PUSH2 0xA42 JUMP JUMPDEST SWAP1 POP PUSH2 0xAE7 DUP3 DUP3 PUSH2 0xAA0 JUMP JUMPDEST SWAP2 SWAP1 POP JUMP JUMPDEST PUSH1 0x0 PUSH8 0xFFFFFFFFFFFFFFFF DUP3 GT ISZERO PUSH2 0xB07 JUMPI PUSH2 0xB06 PUSH2 0xA71 JUMP JUMPDEST JUMPDEST PUSH2 0xB10 DUP3 PUSH2 0xA60 JUMP JUMPDEST SWAP1 POP PUSH1 0x20 DUP2 ADD SWAP1 POP SWAP2 SWAP1 POP JUMP JUMPDEST DUP3 DUP2 DUP4 CALLDATACOPY PUSH1 0x0 DUP4 DUP4 ADD MSTORE POP POP POP JUMP JUMPDEST PUSH1 0x0 PUSH2 0xB3F PUSH2 0xB3A DUP5 PUSH2 0xAEC JUMP JUMPDEST PUSH2 0xAD1 JUMP JUMPDEST SWAP1 POP DUP3 DUP2 MSTORE PUSH1 0x20 DUP2 ADD DUP5 DUP5 DUP5 ADD GT ISZERO PUSH2 0xB5B JUMPI PUSH2 0xB5A PUSH2 0xA5B JUMP JUMPDEST JUMPDEST PUSH2 0xB66 DUP5 DUP3 DUP6 PUSH2 0xB1D JUMP JUMPDEST POP SWAP4 SWAP3 POP POP POP JUMP JUMPDEST PUSH1 0x0 DUP3 PUSH1 0x1F DUP4 ADD SLT PUSH2 0xB83 JUMPI PUSH2 0xB82 PUSH2 0xA56 JUMP JUMPDEST JUMPDEST DUP2 CALLDATALOAD PUSH2 0xB93 DUP5 DUP3 PUSH1 0x20 DUP7 ADD PUSH2 0xB2C JUMP JUMPDEST SWAP2 POP POP SWAP3 SWAP2 POP POP JUMP JUMPDEST PUSH1 0x0 DUP2 SWAP1 POP SWAP2 SWAP1 POP JUMP JUMPDEST PUSH2 0xBAF DUP2 PUSH2 0xB9C JUMP JUMPDEST DUP2 EQ PUSH2 0xBBA JUMPI PUSH1 0x0 DUP1 REVERT JUMPDEST POP JUMP JUMPDEST PUSH1 0x0 DUP2 CALLDATALOAD SWAP1 POP PUSH2 0xBCC DUP2 PUSH2 0xBA6 JUMP JUMPDEST SWAP3 SWAP2 POP POP JUMP JUMPDEST PUSH1 0x0 DUP1 PUSH1 0x40 DUP4 DUP6 SUB SLT ISZERO PUSH2 0xBE9 JUMPI PUSH2 0xBE8 PUSH2 0xA4C JUMP JUMPDEST JUMPDEST PUSH1 0x0 DUP4 ADD CALLDATALOAD PUSH8 0xFFFFFFFFFFFFFFFF DUP2 GT ISZERO PUSH2 0xC07 JUMPI PUSH2 0xC06 PUSH2 0xA51 JUMP JUMPDEST JUMPDEST PUSH2 0xC13 DUP6 DUP3 DUP7 ADD PUSH2 0xB6E JUMP JUMPDEST SWAP3 POP POP PUSH1 0x20 PUSH2 0xC24 DUP6 DUP3 DUP7 ADD PUSH2 0xBBD JUMP JUMPDEST SWAP2 POP POP SWAP3 POP SWAP3 SWAP1 POP JUMP JUMPDEST PUSH2 0xC37 DUP2 PUSH2 0xB9C JUMP JUMPDEST DUP3 MSTORE POP POP JUMP JUMPDEST PUSH1 0x0 PUSH1 0x20 DUP3 ADD SWAP1 POP PUSH2 0xC52 PUSH1 0x0 DUP4 ADD DUP5 PUSH2 0xC2E JUMP JUMPDEST SWAP3 SWAP2 POP POP JUMP JUMPDEST PUSH1 0x0 PUSH1 0x20 DUP3 DUP5 SUB SLT ISZERO PUSH2 0xC6E JUMPI PUSH2 0xC6D PUSH2 0xA4C JUMP JUMPDEST JUMPDEST PUSH1 0x0 PUSH2 0xC7C DUP5 DUP3 DUP6 ADD PUSH2 0xBBD JUMP JUMPDEST SWAP2 POP POP SWAP3 SWAP2 POP POP JUMP JUMPDEST PUSH2 0xC8E DUP2 PUSH2 0xB9C JUMP JUMPDEST DUP3 MSTORE POP POP JUMP JUMPDEST PUSH1 0x0 DUP2 MLOAD SWAP1 POP SWAP2 SWAP1 POP JUMP JUMPDEST PUSH1 0x0 DUP3 DUP3 MSTORE PUSH1 0x20 DUP3 ADD SWAP1 POP SWAP3 SWAP2 POP POP JUMP JUMPDEST PUSH1 0x0 JUMPDEST DUP4 DUP2 LT ISZERO PUSH2 0xCCE JUMPI DUP1 DUP3 ADD MLOAD DUP2 DUP5 ADD MSTORE PUSH1 0x20 DUP2 ADD SWAP1 POP PUSH2 0xCB3 JUMP JUMPDEST PUSH1 0x0 DUP5 DUP5 ADD MSTORE POP POP POP POP JUMP JUMPDEST PUSH1 0x0 PUSH2 0xCE5 DUP3 PUSH2 0xC94 JUMP JUMPDEST PUSH2 0xCEF DUP2 DUP6 PUSH2 0xC9F JUMP JUMPDEST SWAP4 POP PUSH2 0xCFF DUP2 DUP6 PUSH1 0x20 DUP7 ADD PUSH2 0xCB0 JUMP JUMPDEST PUSH2 0xD08 DUP2 PUSH2 0xA60 JUMP JUMPDEST DUP5 ADD SWAP2 POP POP SWAP3 SWAP2 POP POP JUMP JUMPDEST PUSH32 0x4E487B7100000000000000000000000000000000000000000000000000000000 PUSH1 0x0 MSTORE PUSH1 0x21 PUSH1 0x4 MSTORE PUSH1 0x24 PUSH1 0x0 REVERT JUMPDEST PUSH1 0x3 DUP2 LT PUSH2 0xD53 JUMPI PUSH2 0xD52 PUSH2 0xD13 JUMP JUMPDEST JUMPDEST POP JUMP JUMPDEST PUSH1 0x0 DUP2 SWAP1 POP PUSH2 0xD64 DUP3 PUSH2 0xD42 JUMP JUMPDEST SWAP2 SWAP1 POP JUMP JUMPDEST PUSH1 0x0 PUSH2 0xD74 DUP3 PUSH2 0xD56 JUMP JUMPDEST SWAP1 POP SWAP2 SWAP1 POP JUMP JUMPDEST PUSH2 0xD84 DUP2 PUSH2 0xD69 JUMP JUMPDEST DUP3 MSTORE POP POP JUMP JUMPDEST PUSH1 0x0 PUSH1 0x80 DUP4 ADD PUSH1 0x0 DUP4 ADD MLOAD PUSH2 0xDA2 PUSH1 0x0 DUP7 ADD DUP3 PUSH2 0xC85 JUMP JUMPDEST POP PUSH1 0x20 DUP4 ADD MLOAD DUP5 DUP3 SUB PUSH1 0x20 DUP7 ADD MSTORE PUSH2 0xDBA DUP3 DUP3 PUSH2 0xCDA JUMP JUMPDEST SWAP2 POP POP PUSH1 0x40 DUP4 ADD MLOAD PUSH2 0xDCF PUSH1 0x40 DUP7 ADD DUP3 PUSH2 0xC85 JUMP JUMPDEST POP PUSH1 0x60 DUP4 ADD MLOAD PUSH2 0xDE2 PUSH1 0x60 DUP7 ADD DUP3 PUSH2 0xD7B JUMP JUMPDEST POP DUP1 SWAP2 POP POP SWAP3 SWAP2 POP POP JUMP JUMPDEST PUSH1 0x0 PUSH1 0x20 DUP3 ADD SWAP1 POP DUP2 DUP2 SUB PUSH1 0x0 DUP4 ADD MSTORE PUSH2 0xE07 DUP2 DUP5 PUSH2 0xD8A JUMP JUMPDEST SWAP1 POP SWAP3 SWAP2 POP POP JUMP JUMPDEST PUSH1 0x3 DUP2 LT PUSH2 0xE1C JUMPI PUSH1 0x0 DUP1 REVERT JUMPDEST POP JUMP JUMPDEST PUSH1 0x0 DUP2 CALLDATALOAD SWAP1 POP PUSH2 0xE2E DUP2 PUSH2 0xE0F JUMP JUMPDEST SWAP3 SWAP2 POP POP JUMP JUMPDEST PUSH1 0x0 DUP1 PUSH1 0x40 DUP4 DUP6 SUB SLT ISZERO PUSH2 0xE4B JUMPI PUSH2 0xE4A PUSH2 0xA4C JUMP JUMPDEST JUMPDEST PUSH1 0x0 PUSH2 0xE59 DUP6 DUP3 DUP7 ADD PUSH2 0xBBD JUMP JUMPDEST SWAP3 POP POP PUSH1 0x20 PUSH2 0xE6A DUP6 DUP3 DUP7 ADD PUSH2 0xE1F JUMP JUMPDEST SWAP2 POP POP SWAP3 POP SWAP3 SWAP1 POP JUMP JUMPDEST PUSH1 0x0 DUP2 MLOAD SWAP1 POP SWAP2 SWAP1 POP JUMP JUMPDEST PUSH1 0x0 DUP3 DUP3 MSTORE PUSH1 0x20 DUP3 ADD SWAP1 POP SWAP3 SWAP2 POP POP JUMP JUMPDEST PUSH1 0x0 DUP2 SWAP1 POP PUSH1 0x20 DUP3 ADD SWAP1 POP SWAP2 SWAP1 POP JUMP JUMPDEST PUSH1 0x0 PUSH1 0x80 DUP4 ADD PUSH1 0x0 DUP4 ADD MLOAD PUSH2 0xEB8 PUSH1 0x0 DUP7 ADD DUP3 PUSH2 0xC85 JUMP JUMPDEST POP PUSH1 0x20 DUP4 ADD MLOAD DUP5 DUP3 SUB PUSH1 0x20 DUP7 ADD MSTORE PUSH2 0xED0 DUP3 DUP3 PUSH2 0xCDA JUMP JUMPDEST SWAP2 POP POP PUSH1 0x40 DUP4 ADD MLOAD PUSH2 0xEE5 PUSH1 0x40 DUP7 ADD DUP3 PUSH2 0xC85 JUMP JUMPDEST POP PUSH1 0x60 DUP4 ADD MLOAD PUSH2 0xEF8 PUSH1 0x60 DUP7 ADD DUP3 PUSH2 0xD7B JUMP JUMPDEST POP DUP1 SWAP2 POP POP SWAP3 SWAP2 POP POP JUMP JUMPDEST PUSH1 0x0 PUSH2 0xF0F DUP4 DUP4 PUSH2 0xEA0 JUMP JUMPDEST SWAP1 POP SWAP3 SWAP2 POP POP JUMP JUMPDEST PUSH1 0x0 PUSH1 0x20 DUP3 ADD SWAP1 POP SWAP2 SWAP1 POP JUMP JUMPDEST PUSH1 0x0 PUSH2 0xF2F DUP3 PUSH2 0xE74 JUMP JUMPDEST PUSH2 0xF39 DUP2 DUP6 PUSH2 0xE7F JUMP JUMPDEST SWAP4 POP DUP4 PUSH1 0x20 DUP3 MUL DUP6 ADD PUSH2 0xF4B DUP6 PUSH2 0xE90 JUMP JUMPDEST DUP1 PUSH1 0x0 JUMPDEST DUP6 DUP2 LT ISZERO PUSH2 0xF87 JUMPI DUP5 DUP5 SUB DUP10 MSTORE DUP2 MLOAD PUSH2 0xF68 DUP6 DUP3 PUSH2 0xF03 JUMP JUMPDEST SWAP5 POP PUSH2 0xF73 DUP4 PUSH2 0xF17 JUMP JUMPDEST SWAP3 POP PUSH1 0x20 DUP11 ADD SWAP10 POP POP PUSH1 0x1 DUP2 ADD SWAP1 POP PUSH2 0xF4F JUMP JUMPDEST POP DUP3 SWAP8 POP DUP8 SWAP6 POP POP POP POP POP POP SWAP3 SWAP2 POP POP JUMP JUMPDEST PUSH1 0x0 PUSH1 0x20 DUP3 ADD SWAP1 POP DUP2 DUP2 SUB PUSH1 0x0 DUP4 ADD MSTORE PUSH2 0xFB3 DUP2 DUP5 PUSH2 0xF24 JUMP JUMPDEST SWAP1 POP SWAP3 SWAP2 POP POP JUMP JUMPDEST PUSH1 0x0 DUP1 PUSH1 0x0 PUSH1 0x60 DUP5 DUP7 SUB SLT ISZERO PUSH2 0xFD4 JUMPI PUSH2 0xFD3 PUSH2 0xA4C JUMP JUMPDEST JUMPDEST PUSH1 0x0 PUSH2 0xFE2 DUP7 DUP3 DUP8 ADD PUSH2 0xBBD JUMP JUMPDEST SWAP4 POP POP PUSH1 0x20 DUP5 ADD CALLDATALOAD PUSH8 0xFFFFFFFFFFFFFFFF DUP2 GT ISZERO PUSH2 0x1003 JUMPI PUSH2 0x1002 PUSH2 0xA51 JUMP JUMPDEST JUMPDEST PUSH2 0x100F DUP7 DUP3 DUP8 ADD PUSH2 0xB6E JUMP JUMPDEST SWAP3 POP POP PUSH1 0x40 PUSH2 0x1020 DUP7 DUP3 DUP8 ADD PUSH2 0xBBD JUMP JUMPDEST SWAP2 POP POP SWAP3 POP SWAP3 POP SWAP3 JUMP JUMPDEST PUSH32 0x4E487B7100000000000000000000000000000000000000000000000000000000 PUSH1 0x0 MSTORE PUSH1 0x22 PUSH1 0x4 MSTORE PUSH1 0x24 PUSH1 0x0 REVERT JUMPDEST PUSH1 0x0 PUSH1 0x2 DUP3 DIV SWAP1 POP PUSH1 0x1 DUP3 AND DUP1 PUSH2 0x1071 JUMPI PUSH1 0x7F DUP3 AND SWAP2 POP JUMPDEST PUSH1 0x20 DUP3 LT DUP2 SUB PUSH2 0x1084 JUMPI PUSH2 0x1083 PUSH2 0x102A JUMP JUMPDEST JUMPDEST POP SWAP2 SWAP1 POP JUMP JUMPDEST PUSH1 0x0 DUP2 SWAP1 POP DUP2 PUSH1 0x0 MSTORE PUSH1 0x20 PUSH1 0x0 KECCAK256 SWAP1 POP SWAP2 SWAP1 POP JUMP JUMPDEST PUSH1 0x0 PUSH1 0x20 PUSH1 0x1F DUP4 ADD DIV SWAP1 POP SWAP2 SWAP1 POP JUMP JUMPDEST PUSH1 0x0 DUP3 DUP3 SHL SWAP1 POP SWAP3 SWAP2 POP POP JUMP JUMPDEST PUSH1 0x0 PUSH1 0x8 DUP4 MUL PUSH2 0x10EC PUSH32 0xFFFFFFFFFFFFFFFFFFFFFFFFFFFFFFFFFFFFFFFFFFFFFFFFFFFFFFFFFFFFFFFF DUP3 PUSH2 0x10AF JUMP JUMPDEST PUSH2 0x10F6 DUP7 DUP4 PUSH2 0x10AF JUMP JUMPDEST SWAP6 POP DUP1 NOT DUP5 AND SWAP4 POP DUP1 DUP7 AND DUP5 OR SWAP3 POP POP POP SWAP4 SWAP3 POP POP POP JUMP JUMPDEST PUSH1 0x0 DUP2 SWAP1 POP SWAP2 SWAP1 POP JUMP JUMPDEST PUSH1 0x0 PUSH2 0x1133 PUSH2 0x112E PUSH2 0x1129 DUP5 PUSH2 0xB9C JUMP JUMPDEST PUSH2 0x110E JUMP JUMPDEST PUSH2 0xB9C JUMP JUMPDEST SWAP1 POP SWAP2 SWAP1 POP JUMP JUMPDEST PUSH1 0x0 DUP2 SWAP1 POP SWAP2 SWAP1 POP JUMP JUMPDEST PUSH2 0x114D DUP4 PUSH2 0x1118 JUMP JUMPDEST PUSH2 0x1161 PUSH2 0x1159 DUP3 PUSH2 0x113A JUMP JUMPDEST DUP5 DUP5 SLOAD PUSH2 0x10BC JUMP JUMPDEST DUP3 SSTORE POP POP POP POP JUMP JUMPDEST PUSH1 0x0 SWAP1 JUMP JUMPDEST PUSH2 0x1176 PUSH2 0x1169 JUMP JUMPDEST PUSH2 0x1181 DUP2 DUP5 DUP5 PUSH2 0x1144 JUMP JUMPDEST POP POP POP JUMP JUMPDEST JUMPDEST DUP2 DUP2 LT ISZERO PUSH2 0x11A5 JUMPI PUSH2 0x119A PUSH1 0x0 DUP3 PUSH2 0x116E JUMP JUMPDEST PUSH1 0x1 DUP2 ADD SWAP1 POP PUSH2 0x1187 JUMP JUMPDEST POP POP JUMP JUMPDEST PUSH1 0x1F DUP3 GT ISZERO PUSH2 0x11EA JUMPI PUSH2 0x11BB DUP2 PUSH2 0x108A JUMP JUMPDEST PUSH2 0x11C4 DUP5 PUSH2 0x109F JUMP JUMPDEST DUP2 ADD PUSH1 0x20 DUP6 LT ISZERO PUSH2 0x11D3 JUMPI DUP2 SWAP1 POP JUMPDEST PUSH2 0x11E7 PUSH2 0x11DF DUP6 PUSH2 0x109F JUMP JUMPDEST DUP4 ADD DUP3 PUSH2 0x1186 JUMP JUMPDEST POP POP JUMPDEST POP POP POP JUMP JUMPDEST PUSH1 0x0 DUP3 DUP3 SHR SWAP1 POP SWAP3 SWAP2 POP POP JUMP JUMPDEST PUSH1 0x0 PUSH2 0x120D PUSH1 0x0 NOT DUP5 PUSH1 0x8 MUL PUSH2 0x11EF JUMP JUMPDEST NOT DUP1 DUP4 AND SWAP2 POP POP SWAP3 SWAP2 POP POP JUMP JUMPDEST PUSH1 0x0 PUSH2 0x1226 DUP4 DUP4 PUSH2 0x11FC JUMP JUMPDEST SWAP2 POP DUP3 PUSH1 0x2 MUL DUP3 OR SWAP1 POP SWAP3 SWAP2 POP POP JUMP JUMPDEST PUSH2 0x123F DUP3 PUSH2 0xC94 JUMP JUMPDEST PUSH8 0xFFFFFFFFFFFFFFFF DUP2 GT ISZERO PUSH2 0x1258 JUMPI PUSH2 0x1257 PUSH2 0xA71 JUMP JUMPDEST JUMPDEST PUSH2 0x1262 DUP3 SLOAD PUSH2 0x1059 JUMP JUMPDEST PUSH2 0x126D DUP3 DUP3 DUP6 PUSH2 0x11A9 JUMP JUMPDEST PUSH1 0x0 PUSH1 0x20 SWAP1 POP PUSH1 0x1F DUP4 GT PUSH1 0x1 DUP2 EQ PUSH2 0x12A0 JUMPI PUSH1 0x0 DUP5 ISZERO PUSH2 0x128E JUMPI DUP3 DUP8 ADD MLOAD SWAP1 POP JUMPDEST PUSH2 0x1298 DUP6 DUP3 PUSH2 0x121A JUMP JUMPDEST DUP7 SSTORE POP PUSH2 0x1300 JUMP JUMPDEST PUSH1 0x1F NOT DUP5 AND PUSH2 0x12AE DUP7 PUSH2 0x108A JUMP JUMPDEST PUSH1 0x0 JUMPDEST DUP3 DUP2 LT ISZERO PUSH2 0x12D6 JUMPI DUP5 DUP10 ADD MLOAD DUP3 SSTORE PUSH1 0x1 DUP3 ADD SWAP2 POP PUSH1 0x20 DUP6 ADD SWAP5 POP PUSH1 0x20 DUP2 ADD SWAP1 POP PUSH2 0x12B1 JUMP JUMPDEST DUP7 DUP4 LT ISZERO PUSH2 0x12F3 JUMPI DUP5 DUP10 ADD MLOAD PUSH2 0x12EF PUSH1 0x1F DUP10 AND DUP3 PUSH2 0x11FC JUMP JUMPDEST DUP4 SSTORE POP JUMPDEST PUSH1 0x1 PUSH1 0x2 DUP9 MUL ADD DUP9 SSTORE POP POP POP JUMPDEST POP POP POP POP POP POP JUMP JUMPDEST PUSH1 0x0 DUP3 DUP3 MSTORE PUSH1 0x20 DUP3 ADD SWAP1 POP SWAP3 SWAP2 POP POP JUMP JUMPDEST PUSH1 0x0 PUSH2 0x1324 DUP3 PUSH2 0xC94 JUMP JUMPDEST PUSH2 0x132E DUP2 DUP6 PUSH2 0x1308 JUMP JUMPDEST SWAP4 POP PUSH2 0x133E DUP2 DUP6 PUSH1 0x20 DUP7 ADD PUSH2 0xCB0 JUMP JUMPDEST PUSH2 0x1347 DUP2 PUSH2 0xA60 JUMP JUMPDEST DUP5 ADD SWAP2 POP POP SWAP3 SWAP2 POP POP JUMP JUMPDEST PUSH1 0x0 PUSH1 0x60 DUP3 ADD SWAP1 POP PUSH2 0x1367 PUSH1 0x0 DUP4 ADD DUP7 PUSH2 0xC2E JUMP JUMPDEST DUP2 DUP2 SUB PUSH1 0x20 DUP4 ADD MSTORE PUSH2 0x1379 DUP2 DUP6 PUSH2 0x1319 JUMP JUMPDEST SWAP1 POP PUSH2 0x1388 PUSH1 0x40 DUP4 ADD DUP5 PUSH2 0xC2E JUMP JUMPDEST SWAP5 SWAP4 POP POP POP POP JUMP JUMPDEST PUSH32 0x4E487B7100000000000000000000000000000000000000000000000000000000 PUSH1 0x0 MSTORE PUSH1 0x11 PUSH1 0x4 MSTORE PUSH1 0x24 PUSH1 0x0 REVERT JUMPDEST PUSH1 0x0 PUSH2 0x13CA DUP3 PUSH2 0xB9C JUMP JUMPDEST SWAP2 POP PUSH32 0xFFFFFFFFFFFFFFFFFFFFFFFFFFFFFFFFFFFFFFFFFFFFFFFFFFFFFFFFFFFFFFFF DUP3 SUB PUSH2 0x13FC JUMPI PUSH2 0x13FB PUSH2 0x1390 JUMP JUMPDEST JUMPDEST PUSH1 0x1 DUP3 ADD SWAP1 POP SWAP2 SWAP1 POP JUMP JUMPDEST PUSH32 0x4E487B7100000000000000000000000000000000000000000000000000000000 PUSH1 0x0 MSTORE PUSH1 0x32 PUSH1 0x4 MSTORE PUSH1 0x24 PUSH1 0x0 REVERT JUMPDEST PUSH32 0x53747564656E74206E6F7420666F756E64000000000000000000000000000000 PUSH1 0x0 DUP3 ADD MSTORE POP JUMP JUMPDEST PUSH1 0x0 PUSH2 0x146C PUSH1 0x11 DUP4 PUSH2 0x1308 JUMP JUMPDEST SWAP2 POP PUSH2 0x1477 DUP3 PUSH2 0x1436 JUMP JUMPDEST PUSH1 0x20 DUP3 ADD SWAP1 POP SWAP2 SWAP1 POP JUMP JUMPDEST PUSH1 0x0 PUSH1 0x20 DUP3 ADD SWAP1 POP DUP2 DUP2 SUB PUSH1 0x0 DUP4 ADD MSTORE PUSH2 0x149B DUP2 PUSH2 0x145F JUMP JUMPDEST SWAP1 POP SWAP2 SWAP1 POP JUMP JUMPDEST PUSH2 0x14AB DUP2 PUSH2 0xD69 JUMP JUMPDEST DUP3 MSTORE POP POP JUMP JUMPDEST PUSH1 0x0 PUSH1 0x40 DUP3 ADD SWAP1 POP PUSH2 0x14C6 PUSH1 0x0 DUP4 ADD DUP6 PUSH2 0xC2E JUMP JUMPDEST PUSH2 0x14D3 PUSH1 0x20 DUP4 ADD DUP5 PUSH2 0x14A2 JUMP JUMPDEST SWAP4 SWAP3 POP POP POP JUMP JUMPDEST PUSH1 0x0 PUSH2 0x14E5 DUP3 PUSH2 0xB9C JUMP JUMPDEST SWAP2 POP PUSH2 0x14F0 DUP4 PUSH2 0xB9C JUMP JUMPDEST SWAP3 POP DUP3 DUP3 SUB SWAP1 POP DUP2 DUP2 GT ISZERO PUSH2 0x1508 JUMPI PUSH2 0x1507 PUSH2 0x1390 JUMP JUMPDEST JUMPDEST SWAP3 SWAP2 POP POP JUMP JUMPDEST PUSH1 0x0 DUP2 SLOAD SWAP1 POP PUSH2 0x151D DUP2 PUSH2 0x1059 JUMP JUMPDEST SWAP1 POP SWAP2 SWAP1 POP JUMP JUMPDEST DUP2 DUP2 SUB PUSH2 0x1532 JUMPI POP POP PUSH2 0x160A JUMP JUMPDEST PUSH2 0x153B DUP3 PUSH2 0x150E JUMP JUMPDEST PUSH8 0xFFFFFFFFFFFFFFFF DUP2 GT ISZERO PUSH2 0x1554 JUMPI PUSH2 0x1553 PUSH2 0xA71 JUMP JUMPDEST JUMPDEST PUSH2 0x155E DUP3 SLOAD PUSH2 0x1059 JUMP JUMPDEST PUSH2 0x1569 DUP3 DUP3 DUP6 PUSH2 0x11A9 JUMP JUMPDEST PUSH1 0x0 PUSH1 0x1F DUP4 GT PUSH1 0x1 DUP2 EQ PUSH2 0x1598 JUMPI PUSH1 0x0 DUP5 ISZERO PUSH2 0x1586 JUMPI DUP3 DUP8 ADD SLOAD SWAP1 POP JUMPDEST PUSH2 0x1590 DUP6 DUP3 PUSH2 0x121A JUMP JUMPDEST DUP7 SSTORE POP PUSH2 0x1603 JUMP JUMPDEST PUSH1 0x1F NOT DUP5 AND PUSH2 0x15A6 DUP8 PUSH2 0x108A JUMP JUMPDEST SWAP7 POP PUSH2 0x15B1 DUP7 PUSH2 0x108A JUMP JUMPDEST PUSH1 0x0 JUMPDEST DUP3 DUP2 LT ISZERO PUSH2 0x15D9 JUMPI DUP5 DUP10 ADD SLOAD DUP3 SSTORE PUSH1 0x1 DUP3 ADD SWAP2 POP PUSH1 0x1 DUP6 ADD SWAP5 POP PUSH1 0x20 DUP2 ADD SWAP1 POP PUSH2 0x15B4 JUMP JUMPDEST DUP7 DUP4 LT ISZERO PUSH2 0x15F6 JUMPI DUP5 DUP10 ADD SLOAD PUSH2 0x15F2 PUSH1 0x1F DUP10 AND DUP3 PUSH2 0x11FC JUMP JUMPDEST DUP4 SSTORE POP JUMPDEST PUSH1 0x1 PUSH1 0x2 DUP9 MUL ADD DUP9 SSTORE POP POP POP JUMPDEST POP POP POP POP POP POP JUMPDEST JUMP JUMPDEST PUSH32 0x4E487B7100000000000000000000000000000000000000000000000000000000 PUSH1 0x0 MSTORE PUSH1 0x31 PUSH1 0x4 MSTORE PUSH1 0x24 PUSH1 0x0 REVERT INVALID LOG2 PUSH5 0x6970667358 0x22 SLT KECCAK256 0xD2 0xB1 PUSH32 0xB7CFA6AFA0EFA2CF16F818A268696B18B5994930AF73B7AE83A3E4FE1C64736F PUSH13 0x63430008170033000000000000 "
        },
        "methodIdentifiers": {
          "changeStudentStatus(uint256,uint8)": "781b0378",
          "deleteStudent(uint256)": "b645307d",
          "getAllStudents()": "e9e30927",
          "getStudent(uint256)": "642f9163",
          "getTotalStudents()": "28bcb51a",
          "registerStudent(string,uint256)": "12a0b744",
          "updateStudent(uint256,string,uint256)": "ec7505b1"
        }
      }
    }
  }
}