{"abi":[{"type":"constructor","inputs":[{"name":"trustedForwarder","type":"address","internalType":"address"}],"stateMutability":"nonpayable"},{"type":"function","name":"isTrustedForwarder","inputs":[{"name":"forwarder","type":"address","internalType":"address"}],"outputs":[{"name":"","type":"bool","internalType":"bool"}],"stateMutability":"view"},{"type":"function","name":"msgData","inputs":[{"name":"integerValue","type":"uint256","internalType":"uint256"},{"name":"stringValue","type":"string","internalType":"string"}],"outputs":[],"stateMutability":"nonpayable"},{"type":"function","name":"msgDataShort","inputs":[],"outputs":[],"stateMutability":"nonpayable"},{"type":"function","name":"msgSender","inputs":[],"outputs":[],"stateMutability":"nonpayable"},{"type":"function","name":"multicall","inputs":[{"name":"data","type":"bytes[]","internalType":"bytes[]"}],"outputs":[{"name":"results","type":"bytes[]","internalType":"bytes[]"}],"stateMutability":"nonpayable"},{"type":"function","name":"trustedForwarder","inputs":[],"outputs":[{"name":"","type":"address","internalType":"address"}],"stateMutability":"view"},{"type":"event","name":"Data","inputs":[{"name":"data","type":"bytes","indexed":false,"internalType":"bytes"},{"name":"integerValue","type":"uint256","indexed":false,"internalType":"uint256"},{"name":"stringValue","type":"string","indexed":false,"internalType":"string"}],"anonymous":false},{"type":"event","name":"DataShort","inputs":[{"name":"data","type":"bytes","indexed":false,"internalType":"bytes"}],"anonymous":false},{"type":"event","name":"Sender","inputs":[{"name":"sender","type":"address","indexed":false,"internalType":"address"}],"anonymous":false},{"type":"error","name":"AddressEmptyCode","inputs":[{"name":"target","type":"address","internalType":"address"}]},{"type":"error","name":"FailedCall","inputs":[]}],"bytecode":{"object":"0x60a060405234801561000f575f5ffd5b50604051610a7c380380610a7c83398101604081905261002e916100fe565b6001600160a01b0381166080527fd6558c3ed910d959271054471fd1c326679d9fece99c5091b00ed89627cf2bfc610064610085565b6040516001600160a01b03909116815260200160405180910390a15061018a565b5f61008e610093565b905090565b5f3660148082108015906100ab57506100ab336100d9565b156100d1576100be36828403815f61012b565b6100c791610152565b60601c9250505090565b339250505090565b5f6100e360805190565b6001600160a01b0316826001600160a01b0316149050919050565b5f6020828403121561010e575f5ffd5b81516001600160a01b0381168114610124575f5ffd5b9392505050565b5f5f85851115610139575f5ffd5b83861115610145575f5ffd5b5050820193919092039150565b80356001600160601b03198116906014841015610183576001600160601b0319601485900360031b81901b82161691505b5092915050565b6080516108d46101a85f395f818160ae015261015101526108d45ff3fe608060405234801561000f575f5ffd5b5060043610610060575f3560e01c8063376bf26214610064578063572b6c05146100795780637da0a877146100a1578063ac9650d8146100d8578063d737d0c7146100f8578063ff5f6b5914610100575b5f5ffd5b61007761007236600461050e565b610108565b005b61008c6100873660046105cb565b61014f565b60405190151581526020015b60405180910390f35b6040516001600160a01b037f0000000000000000000000000000000000000000000000000000000000000000168152602001610098565b6100eb6100e63660046105f1565b610181565b6040516100989190610690565b6100776102dc565b610077610323565b7faf235354a0a47c91ee171961326335cb2d1a8e55b8a89859b0e61eb049e50ea061013161035a565b8484604051610143949392919061071b565b60405180910390a15050565b7f00000000000000000000000000000000000000000000000000000000000000006001600160a01b0390811691161490565b60605f61018c61036c565b6001600160a01b0316336001600160a01b0316146101f5575f366101b1601482610751565b6101bc928290610770565b8080601f0160208091040260200160405190810160405280939291908181526020018383808284375f9201919091525061020492505050565b604080515f8152602081019091525b90508267ffffffffffffffff81111561021f5761021f6104fa565b60405190808252806020026020018201604052801561025257816020015b606081526020019060019003908161023d5790505b5091505f5b838110156102d3576102ae3086868481811061027557610275610797565b905060200281019061028791906107ab565b8560405160200161029a9392919061080c565b60405160208183030381529060405261037a565b8382815181106102c0576102c0610797565b6020908102919091010152600101610257565b50505b92915050565b7fd6558c3ed910d959271054471fd1c326679d9fece99c5091b00ed89627cf2bfc61030561036c565b6040516001600160a01b0390911681526020015b60405180910390a1565b7f6d7cec71eba467294d92341ddc4e8634eb4d742a90e16f408f06e4b70bc4cd6661034c61035a565b60405161031992919061082b565b365f6103646103ec565b915091509091565b5f610375610429565b905090565b60605f5f846001600160a01b0316846040516103969190610846565b5f60405180830381855af49150503d805f81146103ce576040519150601f19603f3d011682016040523d82523d5f602084013e6103d3565b606091505b50915091506103e385838361046f565b95945050505050565b365f81601480821080159061040557506104053361014f565b15610422576104188183035f3681610770565b9350935050509091565b5f36610418565b5f36601480821080159061044157506104413361014f565b156104675761045436828403815f610770565b61045d91610851565b60601c9250505090565b339250505090565b6060826104845761047f826104d2565b6104cb565b815115801561049b57506001600160a01b0384163b155b156104c857604051639996b31560e01b81526001600160a01b038516600482015260240160405180910390fd5b50805b9392505050565b8051156104e157805160208201fd5b60405163d6bda27560e01b815260040160405180910390fd5b634e487b7160e01b5f52604160045260245ffd5b5f5f6040838503121561051f575f5ffd5b82359150602083013567ffffffffffffffff81111561053c575f5ffd5b8301601f8101851361054c575f5ffd5b803567ffffffffffffffff811115610566576105666104fa565b604051601f8201601f19908116603f0116810167ffffffffffffffff81118282101715610595576105956104fa565b6040528181528282016020018710156105ac575f5ffd5b816020840160208301375f602083830101528093505050509250929050565b5f602082840312156105db575f5ffd5b81356001600160a01b03811681146104cb575f5ffd5b5f5f60208385031215610602575f5ffd5b823567ffffffffffffffff811115610618575f5ffd5b8301601f81018513610628575f5ffd5b803567ffffffffffffffff81111561063e575f5ffd5b8560208260051b8401011115610652575f5ffd5b6020919091019590945092505050565b5f81518084528060208401602086015e5f602082860101526020601f19601f83011685010191505092915050565b5f602082016020835280845180835260408501915060408160051b8601019250602086015f5b828110156106e757603f198786030184526106d2858351610662565b945060209384019391909101906001016106b6565b50929695505050505050565b81835281816020850137505f828201602090810191909152601f909101601f19169091010190565b606081525f61072e6060830186886106f3565b84602084015282810360408401526107468185610662565b979650505050505050565b818103818111156102d657634e487b7160e01b5f52601160045260245ffd5b5f5f8585111561077e575f5ffd5b8386111561078a575f5ffd5b5050820193919092039150565b634e487b7160e01b5f52603260045260245ffd5b5f5f8335601e198436030181126107c0575f5ffd5b83018035915067ffffffffffffffff8211156107da575f5ffd5b6020019150368190038213156107ee575f5ffd5b9250929050565b5f81518060208401855e5f93019283525090919050565b828482375f8382015f815261082181856107f5565b9695505050505050565b602081525f61083e6020830184866106f3565b949350505050565b5f6104cb82846107f5565b80356bffffffffffffffffffffffff198116906014841015610897576bffffffffffffffffffffffff196bffffffffffffffffffffffff198560140360031b1b82161691505b509291505056fea26469706673582212209b27cd7265b38b761832bdf2051458b1c84a926031d14a446a311c00d83c2c1c64736f6c634300081b0033","linkReferences":{}},"methodIdentifiers":{"isTrustedForwarder(address)":"572b6c05","msgData(uint256,string)":"376bf262","msgDataShort()":"ff5f6b59","msgSender()":"d737d0c7","multicall(bytes[])":"ac9650d8","trustedForwarder()":"7da0a877"},"id":105}